{
  "contractName": "MyOwnNft",
  "abi": [
    {
      "inputs": [],
      "stateMutability": "nonpayable",
      "type": "constructor"
    },
    {
      "anonymous": false,
      "inputs": [
        {
          "indexed": true,
          "internalType": "address",
          "name": "owner",
          "type": "address"
        },
        {
          "indexed": true,
          "internalType": "address",
          "name": "approved",
          "type": "address"
        },
        {
          "indexed": true,
          "internalType": "uint256",
          "name": "tokenId",
          "type": "uint256"
        }
      ],
      "name": "Approval",
      "type": "event"
    },
    {
      "anonymous": false,
      "inputs": [
        {
          "indexed": true,
          "internalType": "address",
          "name": "owner",
          "type": "address"
        },
        {
          "indexed": true,
          "internalType": "address",
          "name": "operator",
          "type": "address"
        },
        {
          "indexed": false,
          "internalType": "bool",
          "name": "approved",
          "type": "bool"
        }
      ],
      "name": "ApprovalForAll",
      "type": "event"
    },
    {
      "anonymous": false,
      "inputs": [
        {
          "indexed": true,
          "internalType": "address",
          "name": "from",
          "type": "address"
        },
        {
          "indexed": true,
          "internalType": "address",
          "name": "to",
          "type": "address"
        },
        {
          "indexed": true,
          "internalType": "uint256",
          "name": "tokenId",
          "type": "uint256"
        }
      ],
      "name": "Transfer",
      "type": "event"
    },
    {
      "inputs": [
        {
          "internalType": "address",
          "name": "to",
          "type": "address"
        },
        {
          "internalType": "uint256",
          "name": "tokenId",
          "type": "uint256"
        }
      ],
      "name": "approve",
      "outputs": [],
      "stateMutability": "nonpayable",
      "type": "function"
    },
    {
      "inputs": [
        {
          "internalType": "address",
          "name": "owner",
          "type": "address"
        }
      ],
      "name": "balanceOf",
      "outputs": [
        {
          "internalType": "uint256",
          "name": "",
          "type": "uint256"
        }
      ],
      "stateMutability": "view",
      "type": "function",
      "constant": true
    },
    {
      "inputs": [
        {
          "internalType": "uint256",
          "name": "",
          "type": "uint256"
        }
      ],
      "name": "charactersData",
      "outputs": [
        {
          "internalType": "uint256",
          "name": "pixelCount",
          "type": "uint256"
        }
      ],
      "stateMutability": "view",
      "type": "function",
      "constant": true
    },
    {
      "inputs": [
        {
          "internalType": "uint256",
          "name": "",
          "type": "uint256"
        }
      ],
      "name": "customNftsContent",
      "outputs": [
        {
          "internalType": "uint256",
          "name": "amount_paid",
          "type": "uint256"
        },
        {
          "internalType": "string",
          "name": "text_content",
          "type": "string"
        }
      ],
      "stateMutability": "view",
      "type": "function",
      "constant": true
    },
    {
      "inputs": [
        {
          "internalType": "uint256",
          "name": "tokenId",
          "type": "uint256"
        }
      ],
      "name": "getApproved",
      "outputs": [
        {
          "internalType": "address",
          "name": "",
          "type": "address"
        }
      ],
      "stateMutability": "view",
      "type": "function",
      "constant": true
    },
    {
      "inputs": [
        {
          "internalType": "address",
          "name": "owner",
          "type": "address"
        },
        {
          "internalType": "address",
          "name": "operator",
          "type": "address"
        }
      ],
      "name": "isApprovedForAll",
      "outputs": [
        {
          "internalType": "bool",
          "name": "",
          "type": "bool"
        }
      ],
      "stateMutability": "view",
      "type": "function",
      "constant": true
    },
    {
      "inputs": [],
      "name": "name",
      "outputs": [
        {
          "internalType": "string",
          "name": "",
          "type": "string"
        }
      ],
      "stateMutability": "view",
      "type": "function",
      "constant": true
    },
    {
      "inputs": [
        {
          "internalType": "uint256",
          "name": "tokenId",
          "type": "uint256"
        }
      ],
      "name": "ownerOf",
      "outputs": [
        {
          "internalType": "address",
          "name": "",
          "type": "address"
        }
      ],
      "stateMutability": "view",
      "type": "function",
      "constant": true
    },
    {
      "inputs": [
        {
          "internalType": "address",
          "name": "from",
          "type": "address"
        },
        {
          "internalType": "address",
          "name": "to",
          "type": "address"
        },
        {
          "internalType": "uint256",
          "name": "tokenId",
          "type": "uint256"
        }
      ],
      "name": "safeTransferFrom",
      "outputs": [],
      "stateMutability": "nonpayable",
      "type": "function"
    },
    {
      "inputs": [
        {
          "internalType": "address",
          "name": "from",
          "type": "address"
        },
        {
          "internalType": "address",
          "name": "to",
          "type": "address"
        },
        {
          "internalType": "uint256",
          "name": "tokenId",
          "type": "uint256"
        },
        {
          "internalType": "bytes",
          "name": "_data",
          "type": "bytes"
        }
      ],
      "name": "safeTransferFrom",
      "outputs": [],
      "stateMutability": "nonpayable",
      "type": "function"
    },
    {
      "inputs": [
        {
          "internalType": "address",
          "name": "operator",
          "type": "address"
        },
        {
          "internalType": "bool",
          "name": "approved",
          "type": "bool"
        }
      ],
      "name": "setApprovalForAll",
      "outputs": [],
      "stateMutability": "nonpayable",
      "type": "function"
    },
    {
      "inputs": [
        {
          "internalType": "bytes4",
          "name": "interfaceId",
          "type": "bytes4"
        }
      ],
      "name": "supportsInterface",
      "outputs": [
        {
          "internalType": "bool",
          "name": "",
          "type": "bool"
        }
      ],
      "stateMutability": "view",
      "type": "function",
      "constant": true
    },
    {
      "inputs": [],
      "name": "symbol",
      "outputs": [
        {
          "internalType": "string",
          "name": "",
          "type": "string"
        }
      ],
      "stateMutability": "view",
      "type": "function",
      "constant": true
    },
    {
      "inputs": [
        {
          "internalType": "uint256",
          "name": "index",
          "type": "uint256"
        }
      ],
      "name": "tokenByIndex",
      "outputs": [
        {
          "internalType": "uint256",
          "name": "",
          "type": "uint256"
        }
      ],
      "stateMutability": "view",
      "type": "function",
      "constant": true
    },
    {
      "inputs": [
        {
          "internalType": "address",
          "name": "owner",
          "type": "address"
        },
        {
          "internalType": "uint256",
          "name": "index",
          "type": "uint256"
        }
      ],
      "name": "tokenOfOwnerByIndex",
      "outputs": [
        {
          "internalType": "uint256",
          "name": "",
          "type": "uint256"
        }
      ],
      "stateMutability": "view",
      "type": "function",
      "constant": true
    },
    {
      "inputs": [],
      "name": "totalSupply",
      "outputs": [
        {
          "internalType": "uint256",
          "name": "",
          "type": "uint256"
        }
      ],
      "stateMutability": "view",
      "type": "function",
      "constant": true
    },
    {
      "inputs": [
        {
          "internalType": "address",
          "name": "from",
          "type": "address"
        },
        {
          "internalType": "address",
          "name": "to",
          "type": "address"
        },
        {
          "internalType": "uint256",
          "name": "tokenId",
          "type": "uint256"
        }
      ],
      "name": "transferFrom",
      "outputs": [],
      "stateMutability": "nonpayable",
      "type": "function"
    },
    {
      "inputs": [
        {
          "internalType": "string",
          "name": "text_content",
          "type": "string"
        }
      ],
      "name": "mintNft",
      "outputs": [],
      "stateMutability": "payable",
      "type": "function",
      "payable": true
    },
    {
      "inputs": [
        {
          "internalType": "uint256",
          "name": "token_id",
          "type": "uint256"
        }
      ],
      "name": "tokenIdToSVG",
      "outputs": [
        {
          "internalType": "string",
          "name": "",
          "type": "string"
        }
      ],
      "stateMutability": "view",
      "type": "function",
      "constant": true
    },
    {
      "inputs": [
        {
          "internalType": "uint256",
          "name": "token_id",
          "type": "uint256"
        }
      ],
      "name": "tokenIdToMetadata",
      "outputs": [
        {
          "internalType": "string",
          "name": "",
          "type": "string"
        }
      ],
      "stateMutability": "view",
      "type": "function",
      "constant": true
    },
    {
      "inputs": [
        {
          "internalType": "uint256",
          "name": "_tokenId",
          "type": "uint256"
        }
      ],
      "name": "tokenURI",
      "outputs": [
        {
          "internalType": "string",
          "name": "",
          "type": "string"
        }
      ],
      "stateMutability": "view",
      "type": "function",
      "constant": true
    },
    {
      "inputs": [
        {
          "internalType": "address",
          "name": "_wallet",
          "type": "address"
        }
      ],
      "name": "walletOfOwner",
      "outputs": [
        {
          "internalType": "uint256[]",
          "name": "",
          "type": "uint256[]"
        }
      ],
      "stateMutability": "view",
      "type": "function",
      "constant": true
    },
    {
      "inputs": [
        {
          "components": [
            {
              "internalType": "uint256",
              "name": "pixelCount",
              "type": "uint256"
            },
            {
              "internalType": "uint8[]",
              "name": "pixelsData",
              "type": "uint8[]"
            }
          ],
          "internalType": "struct MyOwnNft.CharacterData[]",
          "name": "_charactersData",
          "type": "tuple[]"
        }
      ],
      "name": "addCharacterData",
      "outputs": [],
      "stateMutability": "nonpayable",
      "type": "function"
    },
    {
      "inputs": [
        {
          "internalType": "address",
          "name": "_newOwner",
          "type": "address"
        }
      ],
      "name": "transferOwnership",
      "outputs": [],
      "stateMutability": "nonpayable",
      "type": "function"
    }
  ],
  "bytecode": "0x6080604052620186a0600c556005600d55670de0b6b3a7640000600e556078600f553480156200002e57600080fd5b506040518060400160405280600881526020017f4d794f776e4e66740000000000000000000000000000000000000000000000008152506040518060400160405280600381526020017f4d4f4e00000000000000000000000000000000000000000000000000000000008152508160009080519060200190620000b392919062000116565b508060019080519060200190620000cc92919062000116565b50505033601060006101000a81548173ffffffffffffffffffffffffffffffffffffffff021916908373ffffffffffffffffffffffffffffffffffffffff1602179055506200022b565b8280546200012490620001c6565b90600052602060002090601f01602090048101928262000148576000855562000194565b82601f106200016357805160ff191683800117855562000194565b8280016001018555821562000194579182015b828111156200019357825182559160200191906001019062000176565b5b509050620001a39190620001a7565b5090565b5b80821115620001c2576000816000905550600101620001a8565b5090565b60006002820490506001821680620001df57607f821691505b60208210811415620001f657620001f5620001fc565b5b50919050565b7f4e487b7100000000000000000000000000000000000000000000000000000000600052602260045260246000fd5b614d10806200023b6000396000f3fe60806040526004361061014b5760003560e01c806370a08231116100b6578063bf64db1d1161006f578063bf64db1d146104ed578063c11feac11461052a578063c87b56dd14610567578063da86f4a9146105a4578063e985e9c5146105c0578063f2fde38b146105fd5761014b565b806370a08231146103cd5780637c72f55b1461040a5780638c7f94261461043357806395d89b4114610470578063a22cb4651461049b578063b88d4fde146104c45761014b565b806323b872dd1161010857806323b872dd146102875780632f745c59146102b057806342842e0e146102ed578063438b6300146103165780634f6ccce7146103535780636352211e146103905761014b565b806301ffc9a7146101505780630561a9f11461018d57806306fdde03146101cb578063081812fc146101f6578063095ea7b31461023357806318160ddd1461025c575b600080fd5b34801561015c57600080fd5b50610177600480360381019061017291906131c9565b610626565b6040516101849190613b88565b60405180910390f35b34801561019957600080fd5b506101b460048036038101906101af919061325c565b6106a0565b6040516101c2929190613dc0565b60405180910390f35b3480156101d757600080fd5b506101e061074c565b6040516101ed9190613ba3565b60405180910390f35b34801561020257600080fd5b5061021d6004803603810190610218919061325c565b6107de565b60405161022a9190613aff565b60405180910390f35b34801561023f57600080fd5b5061025a6004803603810190610255919061314c565b610863565b005b34801561026857600080fd5b5061027161097b565b60405161027e9190613da5565b60405180910390f35b34801561029357600080fd5b506102ae60048036038101906102a99190613046565b610988565b005b3480156102bc57600080fd5b506102d760048036038101906102d2919061314c565b6109e8565b6040516102e49190613da5565b60405180910390f35b3480156102f957600080fd5b50610314600480360381019061030f9190613046565b610a8d565b005b34801561032257600080fd5b5061033d60048036038101906103389190612fe1565b610aad565b60405161034a9190613b66565b60405180910390f35b34801561035f57600080fd5b5061037a6004803603810190610375919061325c565b610ba7565b6040516103879190613da5565b60405180910390f35b34801561039c57600080fd5b506103b760048036038101906103b2919061325c565b610c3e565b6040516103c49190613aff565b60405180910390f35b3480156103d957600080fd5b506103f460048036038101906103ef9190612fe1565b610cf0565b6040516104019190613da5565b60405180910390f35b34801561041657600080fd5b50610431600480360381019061042c9190613188565b610da8565b005b34801561043f57600080fd5b5061045a6004803603810190610455919061325c565b610ef2565b6040516104679190613da5565b60405180910390f35b34801561047c57600080fd5b50610485610f10565b6040516104929190613ba3565b60405180910390f35b3480156104a757600080fd5b506104c260048036038101906104bd9190613110565b610fa2565b005b3480156104d057600080fd5b506104eb60048036038101906104e69190613095565b611123565b005b3480156104f957600080fd5b50610514600480360381019061050f919061325c565b611185565b6040516105219190613ba3565b60405180910390f35b34801561053657600080fd5b50610551600480360381019061054c919061325c565b611223565b60405161055e9190613ba3565b60405180910390f35b34801561057357600080fd5b5061058e6004803603810190610589919061325c565b6113a3565b60405161059b9190613ba3565b60405180910390f35b6105be60048036038101906105b9919061321b565b611429565b005b3480156105cc57600080fd5b506105e760048036038101906105e2919061300a565b611483565b6040516105f49190613b88565b60405180910390f35b34801561060957600080fd5b50610624600480360381019061061f9190612fe1565b611517565b005b60007f780e9d63000000000000000000000000000000000000000000000000000000007bffffffffffffffffffffffffffffffffffffffffffffffffffffffff1916827bffffffffffffffffffffffffffffffffffffffffffffffffffffffff191614806106995750610698826115b5565b5b9050919050565b600a6020528060005260406000206000915090508060000154908060010180546106c990614169565b80601f01602080910402602001604051908101604052809291908181526020018280546106f590614169565b80156107425780601f1061071757610100808354040283529160200191610742565b820191906000526020600020905b81548152906001019060200180831161072557829003601f168201915b5050505050905082565b60606000805461075b90614169565b80601f016020809104026020016040519081016040528092919081815260200182805461078790614169565b80156107d45780601f106107a9576101008083540402835291602001916107d4565b820191906000526020600020905b8154815290600101906020018083116107b757829003601f168201915b5050505050905090565b60006107e982611697565b610828576040517f08c379a000000000000000000000000000000000000000000000000000000000815260040161081f90613d05565b60405180910390fd5b6004600083815260200190815260200160002060009054906101000a900473ffffffffffffffffffffffffffffffffffffffff169050919050565b600061086e82610c3e565b90508073ffffffffffffffffffffffffffffffffffffffff168373ffffffffffffffffffffffffffffffffffffffff1614156108df576040517f08c379a00000000000000000000000000000000000000000000000000000000081526004016108d690613d45565b60405180910390fd5b8073ffffffffffffffffffffffffffffffffffffffff166108fe611703565b73ffffffffffffffffffffffffffffffffffffffff16148061092d575061092c81610927611703565b611483565b5b61096c576040517f08c379a000000000000000000000000000000000000000000000000000000000815260040161096390613c85565b60405180910390fd5b610976838361170b565b505050565b6000600880549050905090565b610999610993611703565b826117c4565b6109d8576040517f08c379a00000000000000000000000000000000000000000000000000000000081526004016109cf90613d65565b60405180910390fd5b6109e38383836118a2565b505050565b60006109f383610cf0565b8210610a34576040517f08c379a0000000000000000000000000000000000000000000000000000000008152600401610a2b90613bc5565b60405180910390fd5b600660008473ffffffffffffffffffffffffffffffffffffffff1673ffffffffffffffffffffffffffffffffffffffff168152602001908152602001600020600083815260200190815260200160002054905092915050565b610aa883838360405180602001604052806000815250611123565b505050565b60606000610aba83610cf0565b905060008167ffffffffffffffff811115610afe577f4e487b7100000000000000000000000000000000000000000000000000000000600052604160045260246000fd5b604051908082528060200260200182016040528015610b2c5781602001602082028036833780820191505090505b50905060005b82811015610b9c57610b4485826109e8565b828281518110610b7d577f4e487b7100000000000000000000000000000000000000000000000000000000600052603260045260246000fd5b6020026020010181815250508080610b94906141cc565b915050610b32565b508092505050919050565b6000610bb161097b565b8210610bf2576040517f08c379a0000000000000000000000000000000000000000000000000000000008152600401610be990613d85565b60405180910390fd5b60088281548110610c2c577f4e487b7100000000000000000000000000000000000000000000000000000000600052603260045260246000fd5b90600052602060002001549050919050565b6000806002600084815260200190815260200160002060009054906101000a900473ffffffffffffffffffffffffffffffffffffffff169050600073ffffffffffffffffffffffffffffffffffffffff168173ffffffffffffffffffffffffffffffffffffffff161415610ce7576040517f08c379a0000000000000000000000000000000000000000000000000000000008152600401610cde90613cc5565b60405180910390fd5b80915050919050565b60008073ffffffffffffffffffffffffffffffffffffffff168273ffffffffffffffffffffffffffffffffffffffff161415610d61576040517f08c379a0000000000000000000000000000000000000000000000000000000008152600401610d5890613ca5565b60405180910390fd5b600360008373ffffffffffffffffffffffffffffffffffffffff1673ffffffffffffffffffffffffffffffffffffffff168152602001908152602001600020549050919050565b3373ffffffffffffffffffffffffffffffffffffffff16601060009054906101000a900473ffffffffffffffffffffffffffffffffffffffff1673ffffffffffffffffffffffffffffffffffffffff1614610e0257600080fd5b60005b81518111610eee57818181518110610e46577f4e487b7100000000000000000000000000000000000000000000000000000000600052603260045260246000fd5b602002602001015160000151600b600083815260200190815260200160002060000181905550818181518110610ea5577f4e487b7100000000000000000000000000000000000000000000000000000000600052603260045260246000fd5b602002602001015160200151600b60008381526020019081526020016000206001019080519060200190610eda929190612bc8565b508080610ee6906141cc565b915050610e05565b5050565b600b6020528060005260406000206000915090508060000154905081565b606060018054610f1f90614169565b80601f0160208091040260200160405190810160405280929190818152602001828054610f4b90614169565b8015610f985780601f10610f6d57610100808354040283529160200191610f98565b820191906000526020600020905b815481529060010190602001808311610f7b57829003601f168201915b5050505050905090565b610faa611703565b73ffffffffffffffffffffffffffffffffffffffff168273ffffffffffffffffffffffffffffffffffffffff161415611018576040517f08c379a000000000000000000000000000000000000000000000000000000000815260040161100f90613c45565b60405180910390fd5b8060056000611025611703565b73ffffffffffffffffffffffffffffffffffffffff1673ffffffffffffffffffffffffffffffffffffffff16815260200190815260200160002060008473ffffffffffffffffffffffffffffffffffffffff1673ffffffffffffffffffffffffffffffffffffffff16815260200190815260200160002060006101000a81548160ff0219169083151502179055508173ffffffffffffffffffffffffffffffffffffffff166110d2611703565b73ffffffffffffffffffffffffffffffffffffffff167f17307eab39ab6107e8899845ad3d59bd9653f200f220920489ca2b5937696c31836040516111179190613b88565b60405180910390a35050565b61113461112e611703565b836117c4565b611173576040517f08c379a000000000000000000000000000000000000000000000000000000000815260040161116a90613d65565b60405180910390fd5b61117f84848484611afe565b50505050565b60608080600a60008581526020019081526020016000206001016040516020016111b092919061398f565b604051602081830303815290604052905080600a6000858152602001908152602001600020600001546040516020016111ea929190613946565b60405160208183030381529060405290508060405160200161120c9190613ab0565b604051602081830303815290604052915050919050565b6060806060600080600a9150600a90506040518060400160405280600d81526020017f54686973206973204e465420230000000000000000000000000000000000000081525092508261127587611b5a565b6040516020016112869291906138f3565b6040516020818303038152906040529250836112a3848484611d07565b6040516020016112b49291906138f3565b6040516020818303038152906040529350600a9150601490506040518060400160405280600b81526020017f4d696e74656420666f7220000000000000000000000000000000000000000000815250925082611325600a600089815260200190815260200160002060000154611b5a565b604051602001611336929190613917565b604051602081830303815290604052925083611353848484611d07565b6040516020016113649291906138f3565b6040516020818303038152906040529350836040516020016113869190613a83565b604051602081830303815290604052935083945050505050919050565b60606113ae82611697565b6113b757600080fd5b6114036113c383611ddb565b6113d46113cf85611223565b611f88565b6113dd85611185565b6040516020016113ef93929190613a1b565b604051602081830303815290604052611f88565b6040516020016114139190613add565b6040516020818303038152906040529050919050565b600061143361097b565b9050600f5482511061144457600080fd5b600e5434101561145357600080fd5b600c54811061146157600080fd5b61146a33612133565b1561147457600080fd5b61147f823483612146565b5050565b6000600560008473ffffffffffffffffffffffffffffffffffffffff1673ffffffffffffffffffffffffffffffffffffffff16815260200190815260200160002060008373ffffffffffffffffffffffffffffffffffffffff1673ffffffffffffffffffffffffffffffffffffffff16815260200190815260200160002060009054906101000a900460ff16905092915050565b3373ffffffffffffffffffffffffffffffffffffffff16601060009054906101000a900473ffffffffffffffffffffffffffffffffffffffff1673ffffffffffffffffffffffffffffffffffffffff161461157157600080fd5b80601060006101000a81548173ffffffffffffffffffffffffffffffffffffffff021916908373ffffffffffffffffffffffffffffffffffffffff16021790555050565b60007f80ac58cd000000000000000000000000000000000000000000000000000000007bffffffffffffffffffffffffffffffffffffffffffffffffffffffff1916827bffffffffffffffffffffffffffffffffffffffffffffffffffffffff1916148061168057507f5b5e139f000000000000000000000000000000000000000000000000000000007bffffffffffffffffffffffffffffffffffffffffffffffffffffffff1916827bffffffffffffffffffffffffffffffffffffffffffffffffffffffff1916145b80611690575061168f8261219b565b5b9050919050565b60008073ffffffffffffffffffffffffffffffffffffffff166002600084815260200190815260200160002060009054906101000a900473ffffffffffffffffffffffffffffffffffffffff1673ffffffffffffffffffffffffffffffffffffffff1614159050919050565b600033905090565b816004600083815260200190815260200160002060006101000a81548173ffffffffffffffffffffffffffffffffffffffff021916908373ffffffffffffffffffffffffffffffffffffffff160217905550808273ffffffffffffffffffffffffffffffffffffffff1661177e83610c3e565b73ffffffffffffffffffffffffffffffffffffffff167f8c5be1e5ebec7d5bd14f71427d1e84f3dd0314c0f7b2291e5b200ac8c7c3b92560405160405180910390a45050565b60006117cf82611697565b61180e576040517f08c379a000000000000000000000000000000000000000000000000000000000815260040161180590613c65565b60405180910390fd5b600061181983610c3e565b90508073ffffffffffffffffffffffffffffffffffffffff168473ffffffffffffffffffffffffffffffffffffffff16148061188857508373ffffffffffffffffffffffffffffffffffffffff16611870846107de565b73ffffffffffffffffffffffffffffffffffffffff16145b8061189957506118988185611483565b5b91505092915050565b8273ffffffffffffffffffffffffffffffffffffffff166118c282610c3e565b73ffffffffffffffffffffffffffffffffffffffff1614611918576040517f08c379a000000000000000000000000000000000000000000000000000000000815260040161190f90613d25565b60405180910390fd5b600073ffffffffffffffffffffffffffffffffffffffff168273ffffffffffffffffffffffffffffffffffffffff161415611988576040517f08c379a000000000000000000000000000000000000000000000000000000000815260040161197f90613c25565b60405180910390fd5b611993838383612205565b61199e60008261170b565b6001600360008573ffffffffffffffffffffffffffffffffffffffff1673ffffffffffffffffffffffffffffffffffffffff16815260200190815260200160002060008282546119ee9190614072565b925050819055506001600360008473ffffffffffffffffffffffffffffffffffffffff1673ffffffffffffffffffffffffffffffffffffffff1681526020019081526020016000206000828254611a459190613f60565b92505081905550816002600083815260200190815260200160002060006101000a81548173ffffffffffffffffffffffffffffffffffffffff021916908373ffffffffffffffffffffffffffffffffffffffff160217905550808273ffffffffffffffffffffffffffffffffffffffff168473ffffffffffffffffffffffffffffffffffffffff167fddf252ad1be2c89b69c2b068fc378daa952ba7f163c4a11628f55a4df523b3ef60405160405180910390a4505050565b611b098484846118a2565b611b1584848484612319565b611b54576040517f08c379a0000000000000000000000000000000000000000000000000000000008152600401611b4b90613be5565b60405180910390fd5b50505050565b60606000821415611ba2576040518060400160405280600181526020017f30000000000000000000000000000000000000000000000000000000000000008152509050611d02565b600082905060005b60008214611bd4578080611bbd906141cc565b915050600a82611bcd9190613fb6565b9150611baa565b60008167ffffffffffffffff811115611c16577f4e487b7100000000000000000000000000000000000000000000000000000000600052604160045260246000fd5b6040519080825280601f01601f191660200182016040528015611c485781602001600182028036833780820191505090505b5090505b60008514611cfb57600182611c619190614072565b9150600a85611c70919061421f565b6030611c7c9190613f60565b60f81b818381518110611cb8577f4e487b7100000000000000000000000000000000000000000000000000000000600052603260045260246000fd5b60200101907effffffffffffffffffffffffffffffffffffffffffffffffffffffffffffff1916908160001a905350600a85611cf49190613fb6565b9450611c4c565b8093505050505b919050565b606080604051806020016040528060008152509050600085905060005b8151811015611dce5782611d99838381518110611d6a577f4e487b7100000000000000000000000000000000000000000000000000000000600052603260045260246000fd5b602001015160f81c60f81b60f81c60ff16600884611d889190614018565b89611d939190613f60565b886124b0565b604051602001611daa9291906138f3565b60405160208183030381529060405292508080611dc6906141cc565b915050611d24565b5081925050509392505050565b60606000821415611e23576040518060400160405280600181526020017f30000000000000000000000000000000000000000000000000000000000000008152509050611f83565b600082905060005b60008214611e55578080611e3e906141cc565b915050600a82611e4e9190613fb6565b9150611e2b565b60008167ffffffffffffffff811115611e97577f4e487b7100000000000000000000000000000000000000000000000000000000600052604160045260246000fd5b6040519080825280601f01601f191660200182016040528015611ec95781602001600182028036833780820191505090505b5090505b60008514611f7c57600182611ee29190614072565b9150600a85611ef1919061421f565b6030611efd9190613f60565b60f81b818381518110611f39577f4e487b7100000000000000000000000000000000000000000000000000000000600052603260045260246000fd5b60200101907effffffffffffffffffffffffffffffffffffffffffffffffffffffffffffff1916908160001a905350600a85611f759190613fb6565b9450611ecd565b8093505050505b919050565b6060600082511415611fab5760405180602001604052806000815250905061212e565b6000604051806060016040528060408152602001614c9b6040913990506000600360028551611fda9190613f60565b611fe49190613fb6565b6004611ff09190614018565b905060006020826120019190613f60565b67ffffffffffffffff811115612040577f4e487b7100000000000000000000000000000000000000000000000000000000600052604160045260246000fd5b6040519080825280601f01601f1916602001820160405280156120725781602001600182028036833780820191505090505b509050818152600183018586518101602084015b818310156120ed576003830192508251603f8160121c1685015160f81b8252600182019150603f81600c1c1685015160f81b8252600182019150603f8160061c1685015160f81b8252600182019150603f811685015160f81b825260018201915050612086565b600389510660018114612107576002811461211757612122565b613d3d60f01b6002830352612122565b603d60f81b60018303525b50505050508093505050505b919050565b600080823b905060008111915050919050565b81600a60008381526020019081526020016000206000018190555082600a6000838152602001908152602001600020600101908051906020019061218b929190612c6f565b50612196338261266a565b505050565b60007f01ffc9a7000000000000000000000000000000000000000000000000000000007bffffffffffffffffffffffffffffffffffffffffffffffffffffffff1916827bffffffffffffffffffffffffffffffffffffffffffffffffffffffff1916149050919050565b612210838383612838565b600073ffffffffffffffffffffffffffffffffffffffff168373ffffffffffffffffffffffffffffffffffffffff1614156122535761224e8161283d565b612292565b8173ffffffffffffffffffffffffffffffffffffffff168373ffffffffffffffffffffffffffffffffffffffff1614612291576122908382612886565b5b5b600073ffffffffffffffffffffffffffffffffffffffff168273ffffffffffffffffffffffffffffffffffffffff1614156122d5576122d0816129f3565b612314565b8273ffffffffffffffffffffffffffffffffffffffff168273ffffffffffffffffffffffffffffffffffffffff1614612313576123128282612b36565b5b5b505050565b600061233a8473ffffffffffffffffffffffffffffffffffffffff16612bb5565b156124a3578373ffffffffffffffffffffffffffffffffffffffff1663150b7a02612363611703565b8786866040518563ffffffff1660e01b81526004016123859493929190613b1a565b602060405180830381600087803b15801561239f57600080fd5b505af19250505080156123d057506040513d601f19601f820116820180604052508101906123cd91906131f2565b60015b612453573d8060008114612400576040519150601f19603f3d011682016040523d82523d6000602084013e612405565b606091505b5060008151141561244b576040517f08c379a000000000000000000000000000000000000000000000000000000000815260040161244290613be5565b60405180910390fd5b805181602001fd5b63150b7a0260e01b7bffffffffffffffffffffffffffffffffffffffffffffffffffffffff1916817bffffffffffffffffffffffffffffffffffffffffffffffffffffffff1916149150506124a8565b600190505b949350505050565b60608060405180602001604052806000815250905060208510806124d45750607e85115b156124e25780915050612663565b60005b600b60008781526020019081526020016000206001018054905081101561265d57816125976008600b60008a8152602001908152602001600020600101848154811061255a577f4e487b7100000000000000000000000000000000000000000000000000000000600052603260045260246000fd5b90600052602060002090602091828204019190069054906101000a900460ff166125849190614250565b60ff16876125929190613f60565b611b5a565b6126276008600b60008b815260200190815260200160002060010185815481106125ea577f4e487b7100000000000000000000000000000000000000000000000000000000600052603260045260246000fd5b90600052602060002090602091828204019190069054906101000a900460ff166126149190613fe7565b60ff16876126229190613f60565b611b5a565b604051602001612639939291906139c9565b60405160208183030381529060405291508080612655906141cc565b9150506124e5565b50809150505b9392505050565b600073ffffffffffffffffffffffffffffffffffffffff168273ffffffffffffffffffffffffffffffffffffffff1614156126da576040517f08c379a00000000000000000000000000000000000000000000000000000000081526004016126d190613ce5565b60405180910390fd5b6126e381611697565b15612723576040517f08c379a000000000000000000000000000000000000000000000000000000000815260040161271a90613c05565b60405180910390fd5b61272f60008383612205565b6001600360008473ffffffffffffffffffffffffffffffffffffffff1673ffffffffffffffffffffffffffffffffffffffff168152602001908152602001600020600082825461277f9190613f60565b92505081905550816002600083815260200190815260200160002060006101000a81548173ffffffffffffffffffffffffffffffffffffffff021916908373ffffffffffffffffffffffffffffffffffffffff160217905550808273ffffffffffffffffffffffffffffffffffffffff16600073ffffffffffffffffffffffffffffffffffffffff167fddf252ad1be2c89b69c2b068fc378daa952ba7f163c4a11628f55a4df523b3ef60405160405180910390a45050565b505050565b6008805490506009600083815260200190815260200160002081905550600881908060018154018082558091505060019003906000526020600020016000909190919091505550565b6000600161289384610cf0565b61289d9190614072565b9050600060076000848152602001908152602001600020549050818114612982576000600660008673ffffffffffffffffffffffffffffffffffffffff1673ffffffffffffffffffffffffffffffffffffffff168152602001908152602001600020600084815260200190815260200160002054905080600660008773ffffffffffffffffffffffffffffffffffffffff1673ffffffffffffffffffffffffffffffffffffffff168152602001908152602001600020600084815260200190815260200160002081905550816007600083815260200190815260200160002081905550505b6007600084815260200190815260200160002060009055600660008573ffffffffffffffffffffffffffffffffffffffff1673ffffffffffffffffffffffffffffffffffffffff16815260200190815260200160002060008381526020019081526020016000206000905550505050565b60006001600880549050612a079190614072565b9050600060096000848152602001908152602001600020549050600060088381548110612a5d577f4e487b7100000000000000000000000000000000000000000000000000000000600052603260045260246000fd5b906000526020600020015490508060088381548110612aa5577f4e487b7100000000000000000000000000000000000000000000000000000000600052603260045260246000fd5b906000526020600020018190555081600960008381526020019081526020016000208190555060096000858152602001908152602001600020600090556008805480612b1a577f4e487b7100000000000000000000000000000000000000000000000000000000600052603160045260246000fd5b6001900381819060005260206000200160009055905550505050565b6000612b4183610cf0565b905081600660008573ffffffffffffffffffffffffffffffffffffffff1673ffffffffffffffffffffffffffffffffffffffff168152602001908152602001600020600083815260200190815260200160002081905550806007600084815260200190815260200160002081905550505050565b600080823b905060008111915050919050565b82805482825590600052602060002090601f01602090048101928215612c5e5791602002820160005b83821115612c2f57835183826101000a81548160ff021916908360ff1602179055509260200192600101602081600001049283019260010302612bf1565b8015612c5c5782816101000a81549060ff0219169055600101602081600001049283019260010302612c2f565b505b509050612c6b9190612cf5565b5090565b828054612c7b90614169565b90600052602060002090601f016020900481019282612c9d5760008555612ce4565b82601f10612cb657805160ff1916838001178555612ce4565b82800160010185558215612ce4579182015b82811115612ce3578251825591602001919060010190612cc8565b5b509050612cf19190612cf5565b5090565b5b80821115612d0e576000816000905550600101612cf6565b5090565b6000612d25612d2084613e15565b613df0565b9050808382526020820190508260005b85811015612d655781358501612d4b8882612f53565b845260208401935060208301925050600181019050612d35565b5050509392505050565b6000612d82612d7d84613e41565b613df0565b90508083825260208201905082856020860282011115612da157600080fd5b60005b85811015612dd15781612db78882612fcc565b845260208401935060208301925050600181019050612da4565b5050509392505050565b6000612dee612de984613e6d565b613df0565b905082815260208101848484011115612e0657600080fd5b612e11848285614127565b509392505050565b6000612e2c612e2784613e9e565b613df0565b905082815260208101848484011115612e4457600080fd5b612e4f848285614127565b509392505050565b600081359050612e6681614c27565b92915050565b600082601f830112612e7d57600080fd5b8135612e8d848260208601612d12565b91505092915050565b600082601f830112612ea757600080fd5b8135612eb7848260208601612d6f565b91505092915050565b600081359050612ecf81614c3e565b92915050565b600081359050612ee481614c55565b92915050565b600081519050612ef981614c55565b92915050565b600082601f830112612f1057600080fd5b8135612f20848260208601612ddb565b91505092915050565b600082601f830112612f3a57600080fd5b8135612f4a848260208601612e19565b91505092915050565b600060408284031215612f6557600080fd5b612f6f6040613df0565b90506000612f7f84828501612fb7565b600083015250602082013567ffffffffffffffff811115612f9f57600080fd5b612fab84828501612e96565b60208301525092915050565b600081359050612fc681614c6c565b92915050565b600081359050612fdb81614c83565b92915050565b600060208284031215612ff357600080fd5b600061300184828501612e57565b91505092915050565b6000806040838503121561301d57600080fd5b600061302b85828601612e57565b925050602061303c85828601612e57565b9150509250929050565b60008060006060848603121561305b57600080fd5b600061306986828701612e57565b935050602061307a86828701612e57565b925050604061308b86828701612fb7565b9150509250925092565b600080600080608085870312156130ab57600080fd5b60006130b987828801612e57565b94505060206130ca87828801612e57565b93505060406130db87828801612fb7565b925050606085013567ffffffffffffffff8111156130f857600080fd5b61310487828801612eff565b91505092959194509250565b6000806040838503121561312357600080fd5b600061313185828601612e57565b925050602061314285828601612ec0565b9150509250929050565b6000806040838503121561315f57600080fd5b600061316d85828601612e57565b925050602061317e85828601612fb7565b9150509250929050565b60006020828403121561319a57600080fd5b600082013567ffffffffffffffff8111156131b457600080fd5b6131c084828501612e6c565b91505092915050565b6000602082840312156131db57600080fd5b60006131e984828501612ed5565b91505092915050565b60006020828403121561320457600080fd5b600061321284828501612eea565b91505092915050565b60006020828403121561322d57600080fd5b600082013567ffffffffffffffff81111561324757600080fd5b61325384828501612f29565b91505092915050565b60006020828403121561326e57600080fd5b600061327c84828501612fb7565b91505092915050565b600061329183836138be565b60208301905092915050565b6132a6816140a6565b82525050565b60006132b782613ef4565b6132c18185613f22565b93506132cc83613ecf565b8060005b838110156132fd5781516132e48882613285565b97506132ef83613f15565b9250506001810190506132d0565b5085935050505092915050565b613313816140b8565b82525050565b600061332482613eff565b61332e8185613f33565b935061333e818560208601614136565b6133478161433d565b840191505092915050565b600061335d82613f0a565b6133678185613f44565b9350613377818560208601614136565b6133808161433d565b840191505092915050565b600061339682613f0a565b6133a08185613f55565b93506133b0818560208601614136565b80840191505092915050565b600081546133c981614169565b6133d38186613f55565b945060018216600081146133ee57600181146133ff57613432565b60ff19831686528186019350613432565b61340885613edf565b60005b8381101561342a5781548189015260018201915060208101905061340b565b838801955050505b50505092915050565b6000613448600583613f55565b91506134538261434e565b600582019050919050565b600061346b602b83613f44565b915061347682614377565b604082019050919050565b600061348e603283613f44565b9150613499826143c6565b604082019050919050565b60006134b1602583613f55565b91506134bc82614415565b602582019050919050565b60006134d4601c83613f44565b91506134df82614464565b602082019050919050565b60006134f7600f83613f55565b91506135028261448d565b600f82019050919050565b600061351a601483613f55565b9150613525826144b6565b601482019050919050565b600061353d600383613f55565b9150613548826144df565b600382019050919050565b6000613560607e83613f55565b915061356b82614508565b607e82019050919050565b6000613583600483613f55565b915061358e826145a3565b600482019050919050565b60006135a6602483613f44565b91506135b1826145cc565b604082019050919050565b60006135c9601983613f44565b91506135d48261461b565b602082019050919050565b60006135ec602c83613f44565b91506135f782614644565b604082019050919050565b600061360f600383613f55565b915061361a82614693565b600382019050919050565b6000613632603883613f44565b915061363d826146bc565b604082019050919050565b6000613655602a83613f44565b91506136608261470b565b604082019050919050565b6000613678602983613f44565b91506136838261475a565b604082019050919050565b600061369b608e83613f55565b91506136a6826147a9565b608e82019050919050565b60006136be600283613f55565b91506136c98261486a565b600282019050919050565b60006136e1607083613f55565b91506136ec82614893565b607082019050919050565b6000613704602083613f44565b915061370f8261492e565b602082019050919050565b6000613727600183613f55565b915061373282614957565b600182019050919050565b600061374a602c83613f44565b915061375582614980565b604082019050919050565b600061376d600183613f55565b9150613778826149cf565b600182019050919050565b6000613790602983613f44565b915061379b826149f8565b604082019050919050565b60006137b3602683613f55565b91506137be82614a47565b602682019050919050565b60006137d6601583613f55565b91506137e182614a96565b601582019050919050565b60006137f9600183613f55565b915061380482614abf565b600182019050919050565b600061381c602183613f44565b915061382782614ae8565b604082019050919050565b600061383f601d83613f55565b915061384a82614b37565b601d82019050919050565b6000613862603183613f44565b915061386d82614b60565b604082019050919050565b6000613885602c83613f44565b915061389082614baf565b604082019050919050565b60006138a8600483613f55565b91506138b382614bfe565b600482019050919050565b6138c781614110565b82525050565b6138d681614110565b82525050565b6138ed6138e882614110565b614215565b82525050565b60006138ff828561338b565b915061390b828461338b565b91508190509392505050565b6000613923828561338b565b915061392f828461338b565b915061393a82613576565b91508190509392505050565b6000613952828561338b565b915061395d826134a4565b915061396982846138dc565b60208201915061397882613576565b9150613983826136b1565b91508190509392505050565b600061399b828561338b565b91506139a6826137a6565b91506139b282846133bc565b91506139bd82613530565b91508190509392505050565b60006139d5828661338b565b91506139e0826137c9565b91506139ec828561338b565b91506139f78261343b565b9150613a03828461338b565b9150613a0e82613602565b9150819050949350505050565b6000613a268261350d565b9150613a32828661338b565b9150613a3d8261368e565b9150613a49828561338b565b9150613a54826134ea565b9150613a60828461338b565b9150613a6b8261389b565b9150613a768261371a565b9150819050949350505050565b6000613a8e826136d4565b9150613a9a828461338b565b9150613aa582613553565b915081905092915050565b6000613abb82613760565b9150613ac7828461338b565b9150613ad2826137ec565b915081905092915050565b6000613ae882613832565b9150613af4828461338b565b915081905092915050565b6000602082019050613b14600083018461329d565b92915050565b6000608082019050613b2f600083018761329d565b613b3c602083018661329d565b613b4960408301856138cd565b8181036060830152613b5b8184613319565b905095945050505050565b60006020820190508181036000830152613b8081846132ac565b905092915050565b6000602082019050613b9d600083018461330a565b92915050565b60006020820190508181036000830152613bbd8184613352565b905092915050565b60006020820190508181036000830152613bde8161345e565b9050919050565b60006020820190508181036000830152613bfe81613481565b9050919050565b60006020820190508181036000830152613c1e816134c7565b9050919050565b60006020820190508181036000830152613c3e81613599565b9050919050565b60006020820190508181036000830152613c5e816135bc565b9050919050565b60006020820190508181036000830152613c7e816135df565b9050919050565b60006020820190508181036000830152613c9e81613625565b9050919050565b60006020820190508181036000830152613cbe81613648565b9050919050565b60006020820190508181036000830152613cde8161366b565b9050919050565b60006020820190508181036000830152613cfe816136f7565b9050919050565b60006020820190508181036000830152613d1e8161373d565b9050919050565b60006020820190508181036000830152613d3e81613783565b9050919050565b60006020820190508181036000830152613d5e8161380f565b9050919050565b60006020820190508181036000830152613d7e81613855565b9050919050565b60006020820190508181036000830152613d9e81613878565b9050919050565b6000602082019050613dba60008301846138cd565b92915050565b6000604082019050613dd560008301856138cd565b8181036020830152613de78184613352565b90509392505050565b6000613dfa613e0b565b9050613e06828261419b565b919050565b6000604051905090565b600067ffffffffffffffff821115613e3057613e2f61430e565b5b602082029050602081019050919050565b600067ffffffffffffffff821115613e5c57613e5b61430e565b5b602082029050602081019050919050565b600067ffffffffffffffff821115613e8857613e8761430e565b5b613e918261433d565b9050602081019050919050565b600067ffffffffffffffff821115613eb957613eb861430e565b5b613ec28261433d565b9050602081019050919050565b6000819050602082019050919050565b60008190508160005260206000209050919050565b600081519050919050565b600081519050919050565b600081519050919050565b6000602082019050919050565b600082825260208201905092915050565b600082825260208201905092915050565b600082825260208201905092915050565b600081905092915050565b6000613f6b82614110565b9150613f7683614110565b9250827fffffffffffffffffffffffffffffffffffffffffffffffffffffffffffffffff03821115613fab57613faa614281565b5b828201905092915050565b6000613fc182614110565b9150613fcc83614110565b925082613fdc57613fdb6142b0565b5b828204905092915050565b6000613ff28261411a565b9150613ffd8361411a565b92508261400d5761400c6142b0565b5b828204905092915050565b600061402382614110565b915061402e83614110565b9250817fffffffffffffffffffffffffffffffffffffffffffffffffffffffffffffffff048311821515161561406757614066614281565b5b828202905092915050565b600061407d82614110565b915061408883614110565b92508282101561409b5761409a614281565b5b828203905092915050565b60006140b1826140f0565b9050919050565b60008115159050919050565b60007fffffffff0000000000000000000000000000000000000000000000000000000082169050919050565b600073ffffffffffffffffffffffffffffffffffffffff82169050919050565b6000819050919050565b600060ff82169050919050565b82818337600083830152505050565b60005b83811015614154578082015181840152602081019050614139565b83811115614163576000848401525b50505050565b6000600282049050600182168061418157607f821691505b60208210811415614195576141946142df565b5b50919050565b6141a48261433d565b810181811067ffffffffffffffff821117156141c3576141c261430e565b5b80604052505050565b60006141d782614110565b91507fffffffffffffffffffffffffffffffffffffffffffffffffffffffffffffffff82141561420a57614209614281565b5b600182019050919050565b6000819050919050565b600061422a82614110565b915061423583614110565b925082614245576142446142b0565b5b828206905092915050565b600061425b8261411a565b91506142668361411a565b925082614276576142756142b0565b5b828206905092915050565b7f4e487b7100000000000000000000000000000000000000000000000000000000600052601160045260246000fd5b7f4e487b7100000000000000000000000000000000000000000000000000000000600052601260045260246000fd5b7f4e487b7100000000000000000000000000000000000000000000000000000000600052602260045260246000fd5b7f4e487b7100000000000000000000000000000000000000000000000000000000600052604160045260246000fd5b6000601f19601f8301169050919050565b7f2720793d27000000000000000000000000000000000000000000000000000000600082015250565b7f455243373231456e756d657261626c653a206f776e657220696e646578206f7560008201527f74206f6620626f756e6473000000000000000000000000000000000000000000602082015250565b7f4552433732313a207472616e7366657220746f206e6f6e20455243373231526560008201527f63656976657220696d706c656d656e7465720000000000000000000000000000602082015250565b7f7b2274726169745f74797065223a22416d6f756e742070616964222c2276616c60008201527f7565223a22000000000000000000000000000000000000000000000000000000602082015250565b7f4552433732313a20746f6b656e20616c7265616479206d696e74656400000000600082015250565b7f222c2261747472696275746573223a0000000000000000000000000000000000600082015250565b7f7b226e616d65223a20224d794f776e4e46542023000000000000000000000000600082015250565b7f227d2c0000000000000000000000000000000000000000000000000000000000600082015250565b7f3c7374796c653e726563747b77696474683a3170783b6865696768743a31707860008201527f3b7d20236d6f7573652d7376677b73686170652d72656e646572696e673a206360208201527f7269737065646765733b7d202e6330307b66696c6c3a233030303030307d2e6360408201527f30317b66696c6c3a234646464646467d3c2f7374796c653e3c2f7376673e0000606082015250565b7f2046544d00000000000000000000000000000000000000000000000000000000600082015250565b7f4552433732313a207472616e7366657220746f20746865207a65726f2061646460008201527f7265737300000000000000000000000000000000000000000000000000000000602082015250565b7f4552433732313a20617070726f766520746f2063616c6c657200000000000000600082015250565b7f4552433732313a206f70657261746f7220717565727920666f72206e6f6e657860008201527f697374656e7420746f6b656e0000000000000000000000000000000000000000602082015250565b7f272f3e0000000000000000000000000000000000000000000000000000000000600082015250565b7f4552433732313a20617070726f76652063616c6c6572206973206e6f74206f7760008201527f6e6572206e6f7220617070726f76656420666f7220616c6c0000000000000000602082015250565b7f4552433732313a2062616c616e636520717565727920666f7220746865207a6560008201527f726f206164647265737300000000000000000000000000000000000000000000602082015250565b7f4552433732313a206f776e657220717565727920666f72206e6f6e657869737460008201527f656e7420746f6b656e0000000000000000000000000000000000000000000000602082015250565b7f222c20226465736372697074696f6e223a20224d794f776e4e4654206973206160008201527f20636f6c6c656374696f6e206f6620636f6d706c6574656c79204f4e2d43484160208201527f494e204e465473207468617420796f752063616e20637573746f6d697a65206f60408201527f6e206d696e742e222c2022696d616765223a2022646174613a696d6167652f7360608201527f76672b786d6c3b6261736536342c000000000000000000000000000000000000608082015250565b7f227d000000000000000000000000000000000000000000000000000000000000600082015250565b7f3c7376672069643d226d6f7573652d7376672220786d6c6e733d22687474703a60008201527f2f2f7777772e77332e6f72672f323030302f737667222070726573657276654160208201527f7370656374526174696f3d22784d696e594d696e206d6565742220766965774260408201527f6f783d22302030203234203234223e2000000000000000000000000000000000606082015250565b7f4552433732313a206d696e7420746f20746865207a65726f2061646472657373600082015250565b7f7d00000000000000000000000000000000000000000000000000000000000000600082015250565b7f4552433732313a20617070726f76656420717565727920666f72206e6f6e657860008201527f697374656e7420746f6b656e0000000000000000000000000000000000000000602082015250565b7f5b00000000000000000000000000000000000000000000000000000000000000600082015250565b7f4552433732313a207472616e73666572206f6620746f6b656e2074686174206960008201527f73206e6f74206f776e0000000000000000000000000000000000000000000000602082015250565b7f7b2274726169745f74797065223a225465787420636f6e74656e74222c22766160008201527f6c7565223a220000000000000000000000000000000000000000000000000000602082015250565b7f3c7265637420636c6173733d276330312720783d270000000000000000000000600082015250565b7f5d00000000000000000000000000000000000000000000000000000000000000600082015250565b7f4552433732313a20617070726f76616c20746f2063757272656e74206f776e6560008201527f7200000000000000000000000000000000000000000000000000000000000000602082015250565b7f646174613a6170706c69636174696f6e2f6a736f6e3b6261736536342c000000600082015250565b7f4552433732313a207472616e736665722063616c6c6572206973206e6f74206f60008201527f776e6572206e6f7220617070726f766564000000000000000000000000000000602082015250565b7f455243373231456e756d657261626c653a20676c6f62616c20696e646578206f60008201527f7574206f6620626f756e64730000000000000000000000000000000000000000602082015250565b7f6e6f6e6500000000000000000000000000000000000000000000000000000000600082015250565b614c30816140a6565b8114614c3b57600080fd5b50565b614c47816140b8565b8114614c5257600080fd5b50565b614c5e816140c4565b8114614c6957600080fd5b50565b614c7581614110565b8114614c8057600080fd5b50565b614c8c8161411a565b8114614c9757600080fd5b5056fe4142434445464748494a4b4c4d4e4f505152535455565758595a6162636465666768696a6b6c6d6e6f707172737475767778797a303132333435363738392b2fa2646970667358221220de2b8ae8eb9578d593b713cd6efb663371b151cd8ad777ae5a7be8e2317f7a5164736f6c63430008030033",
  "immutableReferences": {},
  "source": "// contracts/MyOwnNft.sol\r\n// SPDX-License-Identifier: MIT\r\npragma solidity ^0.8.0;\r\n\r\nimport \"@openzeppelin/contracts/token/ERC721/extensions/ERC721Enumerable.sol\";\r\nimport \"@openzeppelin/contracts/utils/Strings.sol\";\r\nimport \"./MyOwnNftLibrary.sol\";\r\n\r\ncontract MyOwnNft is ERC721Enumerable {\r\n    using MyOwnNftLibrary for uint8;\r\n\r\n    struct CustomNftContent {\r\n        uint256 amount_paid;\r\n        string text_content;\r\n    }\r\n\r\n    struct CharacterData {\r\n        uint256 pixelCount;\r\n        uint8[] pixelsData;\r\n    }\r\n\r\n    //Mappings\r\n    mapping(uint256 => CustomNftContent) public customNftsContent;\r\n    mapping(uint256 => CharacterData) public charactersData;\r\n\r\n    //uint256s\r\n    uint256 MAX_SUPPLY = 100000; // to decide carefully!!!!!!\r\n    uint256 MAX_PER_ADDRESS = 5; // to implement!!!!!!\r\n    uint256 MIN_PRICE = 1000000000000000000; // to check!!!!!!!\r\n    uint256 MAX_STRING_LENGTH = 24 * 5;\r\n\r\n    //address\r\n    address _owner;\r\n\r\n    constructor() ERC721(\"MyOwnNft\", \"MON\") {\r\n        _owner = msg.sender;\r\n    }\r\n\r\n    /*\r\n  __  __ _     _   _             ___             _   _             \r\n |  \\/  (_)_ _| |_(_)_ _  __ _  | __|  _ _ _  __| |_(_)___ _ _  ___\r\n | |\\/| | | ' \\  _| | ' \\/ _` | | _| || | ' \\/ _|  _| / _ \\ ' \\(_-<\r\n |_|  |_|_|_||_\\__|_|_||_\\__, | |_| \\_,_|_||_\\__|\\__|_\\___/_||_/__/\r\n                         |___/                                     \r\n   */\r\n\r\n    /**\r\n     * @dev Mint internal, this is to avoid code duplication.\r\n     */\r\n    function mintInternal(\r\n        string memory _text_content,\r\n        uint256 _amount_paid,\r\n        uint256 token_id\r\n    ) internal {\r\n        customNftsContent[token_id].amount_paid = _amount_paid;\r\n        customNftsContent[token_id].text_content = _text_content;\r\n\r\n        _mint(msg.sender, token_id);\r\n    }\r\n\r\n    /**\r\n     * @dev Mints new tokens.\r\n     */\r\n    function mintNft(string memory text_content) public payable {\r\n        uint256 _totalSupply = totalSupply();\r\n        require(bytes(text_content).length < MAX_STRING_LENGTH);\r\n        require(msg.value >= MIN_PRICE);\r\n        require(_totalSupply < MAX_SUPPLY);\r\n        require(!MyOwnNftLibrary.isContract(msg.sender));\r\n\r\n        return mintInternal(text_content, msg.value, _totalSupply);\r\n    }\r\n\r\n    /*\r\n ____     ___   ____  ___        _____  __ __  ____     __ ______  ____  ___   ____   _____\r\n|    \\   /  _] /    ||   \\      |     ||  |  ||    \\   /  ]      ||    |/   \\ |    \\ / ___/\r\n|  D  ) /  [_ |  o  ||    \\     |   __||  |  ||  _  | /  /|      | |  ||     ||  _  (   \\_ \r\n|    / |    _]|     ||  D  |    |  |_  |  |  ||  |  |/  / |_|  |_| |  ||  O  ||  |  |\\__  |\r\n|    \\ |   [_ |  _  ||     |    |   _] |  :  ||  |  /   \\_  |  |   |  ||     ||  |  |/  \\ |\r\n|  .  \\|     ||  |  ||     |    |  |   |     ||  |  \\     | |  |   |  ||     ||  |  |\\    |\r\n|__|\\_||_____||__|__||_____|    |__|    \\__,_||__|__|\\____| |__|  |____|\\___/ |__|__| \\___|  \r\n\r\n    */\r\n\r\n    /**\r\n     * @dev Token ID to SVG function\r\n     */\r\n    function tokenIdToSVG(uint256 token_id)\r\n        public\r\n        view\r\n        returns (string memory)\r\n    {\r\n        string memory svgString;\r\n        string memory tempString;\r\n        uint256 cursor_x;\r\n        uint256 cursor_y;\r\n\r\n        cursor_x = 10;\r\n        cursor_y = 10;\r\n        tempString = \"This is NFT #\";\r\n        tempString = string(\r\n            abi.encodePacked(tempString, Strings.toString(token_id))\r\n        );\r\n        svgString = string(\r\n            abi.encodePacked(\r\n                svgString,\r\n                printString(tempString, cursor_x, cursor_y)\r\n            )\r\n        );\r\n\r\n        cursor_x = 10;\r\n        cursor_y = 20;\r\n        tempString = \"Minted for \";\r\n        tempString = string(\r\n            abi.encodePacked(\r\n                tempString,\r\n                Strings.toString(customNftsContent[token_id].amount_paid),\r\n                \" FTM\"\r\n            )\r\n        );\r\n        svgString = string(\r\n            abi.encodePacked(\r\n                svgString,\r\n                printString(tempString, cursor_x, cursor_y)\r\n            )\r\n        );\r\n\r\n        svgString = string(\r\n            abi.encodePacked(\r\n                '<svg id=\"mouse-svg\" xmlns=\"http://www.w3.org/2000/svg\" preserveAspectRatio=\"xMinYMin meet\" viewBox=\"0 0 24 24\"> ',\r\n                svgString,\r\n                \"<style>rect{width:1px;height:1px;} #mouse-svg{shape-rendering: crispedges;} .c00{fill:#000000}.c01{fill:#FFFFFF}</style></svg>\"\r\n            )\r\n        );\r\n\r\n        return svgString;\r\n    }\r\n\r\n    /**\r\n     * @dev Token ID to metadata function\r\n     */\r\n    function tokenIdToMetadata(uint256 token_id)\r\n        public\r\n        view\r\n        returns (string memory)\r\n    {\r\n        string memory metadataString;\r\n\r\n        // text content\r\n        metadataString = string(\r\n            abi.encodePacked(\r\n                metadataString,\r\n                '{\"trait_type\":\"Text content\",\"value\":\"',\r\n                customNftsContent[token_id].text_content,\r\n                '\"},'\r\n            )\r\n        );\r\n\r\n        // amount paid\r\n        metadataString = string(\r\n            abi.encodePacked(\r\n                metadataString,\r\n                '{\"trait_type\":\"Amount paid\",\"value\":\"',\r\n                customNftsContent[token_id].amount_paid,\r\n                \" FTM\",\r\n                '\"}'\r\n            )\r\n        );\r\n\r\n        return string(abi.encodePacked(\"[\", metadataString, \"]\"));\r\n    }\r\n\r\n    /**\r\n     * @dev Returns the SVG and metadata for a token Id\r\n     * @param _tokenId The tokenId to return the SVG and metadata for.\r\n     */\r\n    function tokenURI(uint256 _tokenId)\r\n        public\r\n        view\r\n        override\r\n        returns (string memory)\r\n    {\r\n        require(_exists(_tokenId));\r\n\r\n        return\r\n            string(\r\n                abi.encodePacked(\r\n                    \"data:application/json;base64,\",\r\n                    MyOwnNftLibrary.encode(\r\n                        bytes(\r\n                            string(\r\n                                abi.encodePacked(\r\n                                    '{\"name\": \"MyOwnNFT #',\r\n                                    MyOwnNftLibrary.toString(_tokenId),\r\n                                    '\", \"description\": \"MyOwnNFT is a collection of completely ON-CHAIN NFTs that you can customize on mint.\", \"image\": \"data:image/svg+xml;base64,',\r\n                                    MyOwnNftLibrary.encode(\r\n                                        bytes(tokenIdToSVG(_tokenId))\r\n                                    ),\r\n                                    '\",\"attributes\":',\r\n                                    tokenIdToMetadata(_tokenId),\r\n                                    \"none\",\r\n                                    \"}\"\r\n                                )\r\n                            )\r\n                        )\r\n                    )\r\n                )\r\n            );\r\n    }\r\n\r\n    /**\r\n     * @dev Returns the wallet of a given wallet. Mainly for ease for frontend devs.\r\n     * @param _wallet The wallet to get the tokens of.\r\n     */\r\n    function walletOfOwner(address _wallet)\r\n        public\r\n        view\r\n        returns (uint256[] memory)\r\n    {\r\n        uint256 tokenCount = balanceOf(_wallet);\r\n\r\n        uint256[] memory tokensId = new uint256[](tokenCount);\r\n        for (uint256 i; i < tokenCount; i++) {\r\n            tokensId[i] = tokenOfOwnerByIndex(_wallet, i);\r\n        }\r\n        return tokensId;\r\n    }\r\n\r\n    /*\r\n  ___   __    __  ____     ___  ____       _____  __ __  ____     __ ______  ____  ___   ____   _____\r\n /   \\ |  |__|  ||    \\   /  _]|    \\     |     ||  |  ||    \\   /  ]      ||    |/   \\ |    \\ / ___/\r\n|     ||  |  |  ||  _  | /  [_ |  D  )    |   __||  |  ||  _  | /  /|      | |  ||     ||  _  (   \\_ \r\n|  O  ||  |  |  ||  |  ||    _]|    /     |  |_  |  |  ||  |  |/  / |_|  |_| |  ||  O  ||  |  |\\__  |\r\n|     ||  `  '  ||  |  ||   [_ |    \\     |   _] |  :  ||  |  /   \\_  |  |   |  ||     ||  |  |/  \\ |\r\n|     | \\      / |  |  ||     ||  .  \\    |  |   |     ||  |  \\     | |  |   |  ||     ||  |  |\\    |\r\n \\___/   \\_/\\_/  |__|__||_____||__|\\_|    |__|    \\__,_||__|__|\\____| |__|  |____|\\___/ |__|__| \\___|\r\n\r\n    */\r\n\r\n    /**\r\n     * @dev Add characters data\r\n     * @param _charactersData Array of characters data to add\r\n     */\r\n\r\n    function addCharacterData(CharacterData[] memory _charactersData)\r\n        public\r\n        onlyOwner\r\n    {\r\n        for (uint256 i = 0; i <= _charactersData.length; i++) {\r\n            charactersData[i].pixelCount = _charactersData[i].pixelCount;\r\n            charactersData[i].pixelsData = _charactersData[i].pixelsData;\r\n        }\r\n\r\n        return;\r\n    }\r\n\r\n    /**\r\n     * @dev Writes a single char to a given position\r\n     * @param _char The character to write\r\n     * @param _x The x pos of the cursor\r\n     * @param _y The y pos of the cursor\r\n     */\r\n    function putchar(\r\n        uint256 _char,\r\n        uint256 _x,\r\n        uint256 _y\r\n    ) internal view returns (string memory) {\r\n        string memory printedCharString;\r\n\r\n        printedCharString = \"\";\r\n\r\n        if ((_char < 32) || (_char > 126)) {\r\n            return printedCharString;\r\n        }\r\n\r\n        for (\r\n            uint256 index = 0;\r\n            index < charactersData[_char].pixelsData.length;\r\n            index++\r\n        ) {\r\n            printedCharString = string(\r\n                abi.encodePacked(\r\n                    printedCharString,\r\n                    \"<rect class='c01' x='\",\r\n                    Strings.toString(\r\n                        _x +\r\n                            (\r\n                                uint256(\r\n                                    charactersData[_char].pixelsData[index] % 8\r\n                                )\r\n                            )\r\n                    ),\r\n                    \"' y='\",\r\n                    Strings.toString(\r\n                        _y +\r\n                            (\r\n                                uint256(\r\n                                    charactersData[_char].pixelsData[index] / 8\r\n                                )\r\n                            )\r\n                    ),\r\n                    \"'/>\"\r\n                )\r\n            );\r\n        }\r\n\r\n        return printedCharString;\r\n    }\r\n\r\n    function printString(\r\n        string memory _string,\r\n        uint256 _x,\r\n        uint256 _y\r\n    ) internal view returns (string memory) {\r\n        string memory printedString;\r\n\r\n        printedString = \"\";\r\n\r\n        bytes memory byteString = bytes(_string);\r\n\r\n        for (uint256 index = 0; index < byteString.length; index++) {\r\n            printedString = string(\r\n                abi.encodePacked(\r\n                    printedString,\r\n                    putchar(\r\n                        uint256(uint8(byteString[index])),\r\n                        _x + (index * 8),\r\n                        _y\r\n                    )\r\n                )\r\n            );\r\n        }\r\n\r\n        return printedString;\r\n    }\r\n\r\n    /**\r\n     * @dev Transfers ownership\r\n     * @param _newOwner The new owner\r\n     */\r\n    function transferOwnership(address _newOwner) public onlyOwner {\r\n        _owner = _newOwner;\r\n    }\r\n\r\n    /**\r\n     * @dev Modifier to only allow owner to call functions\r\n     */\r\n    modifier onlyOwner() {\r\n        require(_owner == msg.sender);\r\n        _;\r\n    }\r\n}\r\n",
  "sourcePath": "C:\\Users\\fabio\\Desktop\\myOwnNFT\\truffle_test\\contracts\\MyOwnNft.sol",
  "compiler": {
    "name": "solc",
    "version": "0.8.3+commit.8d00100c.Emscripten.clang"
  },
  "schemaVersion": "3.4.3",
  "updatedAt": "2021-11-20T17:32:04.091Z",
  "networkType": "ethereum",
  "devdoc": {
    "kind": "dev",
    "methods": {
      "addCharacterData((uint256,uint8[])[])": {
        "details": "Add characters data",
        "params": {
          "_charactersData": "Array of characters data to add"
        }
      },
      "approve(address,uint256)": {
        "details": "See {IERC721-approve}."
      },
      "balanceOf(address)": {
        "details": "See {IERC721-balanceOf}."
      },
      "getApproved(uint256)": {
        "details": "See {IERC721-getApproved}."
      },
      "isApprovedForAll(address,address)": {
        "details": "See {IERC721-isApprovedForAll}."
      },
      "mintNft(string)": {
        "details": "Mints new tokens."
      },
      "name()": {
        "details": "See {IERC721Metadata-name}."
      },
      "ownerOf(uint256)": {
        "details": "See {IERC721-ownerOf}."
      },
      "safeTransferFrom(address,address,uint256)": {
        "details": "See {IERC721-safeTransferFrom}."
      },
      "safeTransferFrom(address,address,uint256,bytes)": {
        "details": "See {IERC721-safeTransferFrom}."
      },
      "setApprovalForAll(address,bool)": {
        "details": "See {IERC721-setApprovalForAll}."
      },
      "supportsInterface(bytes4)": {
        "details": "See {IERC165-supportsInterface}."
      },
      "symbol()": {
        "details": "See {IERC721Metadata-symbol}."
      },
      "tokenByIndex(uint256)": {
        "details": "See {IERC721Enumerable-tokenByIndex}."
      },
      "tokenIdToMetadata(uint256)": {
        "details": "Token ID to metadata function"
      },
      "tokenIdToSVG(uint256)": {
        "details": "Token ID to SVG function"
      },
      "tokenOfOwnerByIndex(address,uint256)": {
        "details": "See {IERC721Enumerable-tokenOfOwnerByIndex}."
      },
      "tokenURI(uint256)": {
        "details": "Returns the SVG and metadata for a token Id",
        "params": {
          "_tokenId": "The tokenId to return the SVG and metadata for."
        }
      },
      "totalSupply()": {
        "details": "See {IERC721Enumerable-totalSupply}."
      },
      "transferFrom(address,address,uint256)": {
        "details": "See {IERC721-transferFrom}."
      },
      "transferOwnership(address)": {
        "details": "Transfers ownership",
        "params": {
          "_newOwner": "The new owner"
        }
      },
      "walletOfOwner(address)": {
        "details": "Returns the wallet of a given wallet. Mainly for ease for frontend devs.",
        "params": {
          "_wallet": "The wallet to get the tokens of."
        }
      }
    },
    "version": 1
  },
  "userdoc": {
    "kind": "user",
    "methods": {},
    "version": 1
  }
}