{
  "contractName": "MyOwnNft",
  "abi": [
    {
      "inputs": [],
      "stateMutability": "nonpayable",
      "type": "constructor"
    },
    {
      "anonymous": false,
      "inputs": [
        {
          "indexed": true,
          "internalType": "address",
          "name": "owner",
          "type": "address"
        },
        {
          "indexed": true,
          "internalType": "address",
          "name": "approved",
          "type": "address"
        },
        {
          "indexed": true,
          "internalType": "uint256",
          "name": "tokenId",
          "type": "uint256"
        }
      ],
      "name": "Approval",
      "type": "event"
    },
    {
      "anonymous": false,
      "inputs": [
        {
          "indexed": true,
          "internalType": "address",
          "name": "owner",
          "type": "address"
        },
        {
          "indexed": true,
          "internalType": "address",
          "name": "operator",
          "type": "address"
        },
        {
          "indexed": false,
          "internalType": "bool",
          "name": "approved",
          "type": "bool"
        }
      ],
      "name": "ApprovalForAll",
      "type": "event"
    },
    {
      "anonymous": false,
      "inputs": [
        {
          "indexed": true,
          "internalType": "address",
          "name": "from",
          "type": "address"
        },
        {
          "indexed": true,
          "internalType": "address",
          "name": "to",
          "type": "address"
        },
        {
          "indexed": true,
          "internalType": "uint256",
          "name": "tokenId",
          "type": "uint256"
        }
      ],
      "name": "Transfer",
      "type": "event"
    },
    {
      "inputs": [
        {
          "internalType": "address",
          "name": "to",
          "type": "address"
        },
        {
          "internalType": "uint256",
          "name": "tokenId",
          "type": "uint256"
        }
      ],
      "name": "approve",
      "outputs": [],
      "stateMutability": "nonpayable",
      "type": "function"
    },
    {
      "inputs": [
        {
          "internalType": "address",
          "name": "owner",
          "type": "address"
        }
      ],
      "name": "balanceOf",
      "outputs": [
        {
          "internalType": "uint256",
          "name": "",
          "type": "uint256"
        }
      ],
      "stateMutability": "view",
      "type": "function",
      "constant": true
    },
    {
      "inputs": [
        {
          "internalType": "uint256",
          "name": "",
          "type": "uint256"
        },
        {
          "internalType": "uint256",
          "name": "",
          "type": "uint256"
        }
      ],
      "name": "charactersData",
      "outputs": [
        {
          "internalType": "uint8",
          "name": "",
          "type": "uint8"
        }
      ],
      "stateMutability": "view",
      "type": "function",
      "constant": true
    },
    {
      "inputs": [
        {
          "internalType": "uint256",
          "name": "",
          "type": "uint256"
        }
      ],
      "name": "customNftsContent",
      "outputs": [
        {
          "internalType": "uint256",
          "name": "amount_paid",
          "type": "uint256"
        },
        {
          "internalType": "string",
          "name": "text_content",
          "type": "string"
        }
      ],
      "stateMutability": "view",
      "type": "function",
      "constant": true
    },
    {
      "inputs": [
        {
          "internalType": "uint256",
          "name": "tokenId",
          "type": "uint256"
        }
      ],
      "name": "getApproved",
      "outputs": [
        {
          "internalType": "address",
          "name": "",
          "type": "address"
        }
      ],
      "stateMutability": "view",
      "type": "function",
      "constant": true
    },
    {
      "inputs": [
        {
          "internalType": "address",
          "name": "owner",
          "type": "address"
        },
        {
          "internalType": "address",
          "name": "operator",
          "type": "address"
        }
      ],
      "name": "isApprovedForAll",
      "outputs": [
        {
          "internalType": "bool",
          "name": "",
          "type": "bool"
        }
      ],
      "stateMutability": "view",
      "type": "function",
      "constant": true
    },
    {
      "inputs": [],
      "name": "name",
      "outputs": [
        {
          "internalType": "string",
          "name": "",
          "type": "string"
        }
      ],
      "stateMutability": "view",
      "type": "function",
      "constant": true
    },
    {
      "inputs": [
        {
          "internalType": "uint256",
          "name": "tokenId",
          "type": "uint256"
        }
      ],
      "name": "ownerOf",
      "outputs": [
        {
          "internalType": "address",
          "name": "",
          "type": "address"
        }
      ],
      "stateMutability": "view",
      "type": "function",
      "constant": true
    },
    {
      "inputs": [
        {
          "internalType": "address",
          "name": "from",
          "type": "address"
        },
        {
          "internalType": "address",
          "name": "to",
          "type": "address"
        },
        {
          "internalType": "uint256",
          "name": "tokenId",
          "type": "uint256"
        }
      ],
      "name": "safeTransferFrom",
      "outputs": [],
      "stateMutability": "nonpayable",
      "type": "function"
    },
    {
      "inputs": [
        {
          "internalType": "address",
          "name": "from",
          "type": "address"
        },
        {
          "internalType": "address",
          "name": "to",
          "type": "address"
        },
        {
          "internalType": "uint256",
          "name": "tokenId",
          "type": "uint256"
        },
        {
          "internalType": "bytes",
          "name": "_data",
          "type": "bytes"
        }
      ],
      "name": "safeTransferFrom",
      "outputs": [],
      "stateMutability": "nonpayable",
      "type": "function"
    },
    {
      "inputs": [
        {
          "internalType": "address",
          "name": "operator",
          "type": "address"
        },
        {
          "internalType": "bool",
          "name": "approved",
          "type": "bool"
        }
      ],
      "name": "setApprovalForAll",
      "outputs": [],
      "stateMutability": "nonpayable",
      "type": "function"
    },
    {
      "inputs": [
        {
          "internalType": "bytes4",
          "name": "interfaceId",
          "type": "bytes4"
        }
      ],
      "name": "supportsInterface",
      "outputs": [
        {
          "internalType": "bool",
          "name": "",
          "type": "bool"
        }
      ],
      "stateMutability": "view",
      "type": "function",
      "constant": true
    },
    {
      "inputs": [],
      "name": "symbol",
      "outputs": [
        {
          "internalType": "string",
          "name": "",
          "type": "string"
        }
      ],
      "stateMutability": "view",
      "type": "function",
      "constant": true
    },
    {
      "inputs": [
        {
          "internalType": "uint256",
          "name": "index",
          "type": "uint256"
        }
      ],
      "name": "tokenByIndex",
      "outputs": [
        {
          "internalType": "uint256",
          "name": "",
          "type": "uint256"
        }
      ],
      "stateMutability": "view",
      "type": "function",
      "constant": true
    },
    {
      "inputs": [
        {
          "internalType": "address",
          "name": "owner",
          "type": "address"
        },
        {
          "internalType": "uint256",
          "name": "index",
          "type": "uint256"
        }
      ],
      "name": "tokenOfOwnerByIndex",
      "outputs": [
        {
          "internalType": "uint256",
          "name": "",
          "type": "uint256"
        }
      ],
      "stateMutability": "view",
      "type": "function",
      "constant": true
    },
    {
      "inputs": [],
      "name": "totalSupply",
      "outputs": [
        {
          "internalType": "uint256",
          "name": "",
          "type": "uint256"
        }
      ],
      "stateMutability": "view",
      "type": "function",
      "constant": true
    },
    {
      "inputs": [
        {
          "internalType": "address",
          "name": "from",
          "type": "address"
        },
        {
          "internalType": "address",
          "name": "to",
          "type": "address"
        },
        {
          "internalType": "uint256",
          "name": "tokenId",
          "type": "uint256"
        }
      ],
      "name": "transferFrom",
      "outputs": [],
      "stateMutability": "nonpayable",
      "type": "function"
    },
    {
      "inputs": [
        {
          "internalType": "string",
          "name": "text_content",
          "type": "string"
        }
      ],
      "name": "mintNft",
      "outputs": [],
      "stateMutability": "payable",
      "type": "function",
      "payable": true
    },
    {
      "inputs": [
        {
          "internalType": "uint256",
          "name": "token_id",
          "type": "uint256"
        }
      ],
      "name": "tokenIdToSVG",
      "outputs": [
        {
          "internalType": "string",
          "name": "",
          "type": "string"
        }
      ],
      "stateMutability": "view",
      "type": "function",
      "constant": true
    },
    {
      "inputs": [
        {
          "internalType": "uint256",
          "name": "token_id",
          "type": "uint256"
        }
      ],
      "name": "tokenIdToMetadata",
      "outputs": [
        {
          "internalType": "string",
          "name": "",
          "type": "string"
        }
      ],
      "stateMutability": "view",
      "type": "function",
      "constant": true
    },
    {
      "inputs": [
        {
          "internalType": "uint256",
          "name": "_tokenId",
          "type": "uint256"
        }
      ],
      "name": "tokenURI",
      "outputs": [
        {
          "internalType": "string",
          "name": "",
          "type": "string"
        }
      ],
      "stateMutability": "view",
      "type": "function",
      "constant": true
    },
    {
      "inputs": [
        {
          "internalType": "address",
          "name": "_wallet",
          "type": "address"
        }
      ],
      "name": "walletOfOwner",
      "outputs": [
        {
          "internalType": "uint256[]",
          "name": "",
          "type": "uint256[]"
        }
      ],
      "stateMutability": "view",
      "type": "function",
      "constant": true
    },
    {
      "inputs": [
        {
          "internalType": "uint8[]",
          "name": "char_data",
          "type": "uint8[]"
        },
        {
          "internalType": "uint256",
          "name": "char_position",
          "type": "uint256"
        }
      ],
      "name": "addCharacterData",
      "outputs": [],
      "stateMutability": "nonpayable",
      "type": "function"
    },
    {
      "inputs": [],
      "name": "withdraw",
      "outputs": [],
      "stateMutability": "payable",
      "type": "function",
      "payable": true
    },
    {
      "inputs": [
        {
          "internalType": "address",
          "name": "_newOwner",
          "type": "address"
        }
      ],
      "name": "transferOwnership",
      "outputs": [],
      "stateMutability": "nonpayable",
      "type": "function"
    }
  ],
  "bytecode": "0x6080604052620186a0600c556005600d55670de0b6b3a7640000600e556078600f553480156200002e57600080fd5b506040518060400160405280600881526020017f4d794f776e4e66740000000000000000000000000000000000000000000000008152506040518060400160405280600381526020017f4d4f4e00000000000000000000000000000000000000000000000000000000008152508160009080519060200190620000b392919062000116565b508060019080519060200190620000cc92919062000116565b50505033601060006101000a81548173ffffffffffffffffffffffffffffffffffffffff021916908373ffffffffffffffffffffffffffffffffffffffff1602179055506200022b565b8280546200012490620001c6565b90600052602060002090601f01602090048101928262000148576000855562000194565b82601f106200016357805160ff191683800117855562000194565b8280016001018555821562000194579182015b828111156200019357825182559160200191906001019062000176565b5b509050620001a39190620001a7565b5090565b5b80821115620001c2576000816000905550600101620001a8565b5090565b60006002820490506001821680620001df57607f821691505b60208210811415620001f657620001f5620001fc565b5b50919050565b7f4e487b7100000000000000000000000000000000000000000000000000000000600052602260045260246000fd5b614c8f806200023b6000396000f3fe6080604052600436106101665760003560e01c8063438b6300116100d1578063b88d4fde1161008a578063c87b56dd11610064578063c87b56dd1461058c578063da86f4a9146105c9578063e985e9c5146105e5578063f2fde38b1461062257610166565b8063b88d4fde146104e9578063bf64db1d14610512578063c11feac11461054f57610166565b8063438b6300146103a15780634f6ccce7146103de5780636352211e1461041b57806370a082311461045857806395d89b4114610495578063a22cb465146104c057610166565b806318160ddd1161012357806318160ddd146102b45780631b28927f146102df57806323b872dd146103085780632f745c59146103315780633ccfd60b1461036e57806342842e0e1461037857610166565b806301ffc9a71461016b5780630561a9f1146101a857806306fdde03146101e6578063081812fc14610211578063095925ae1461024e578063095ea7b31461028b575b600080fd5b34801561017757600080fd5b50610192600480360381019061018d919061310e565b61064b565b60405161019f9190613b18565b60405180910390f35b3480156101b457600080fd5b506101cf60048036038101906101ca91906131a1565b6106c5565b6040516101dd929190613d50565b60405180910390f35b3480156101f257600080fd5b506101fb610771565b6040516102089190613b33565b60405180910390f35b34801561021d57600080fd5b50610238600480360381019061023391906131a1565b610803565b6040516102459190613a8f565b60405180910390f35b34801561025a57600080fd5b50610275600480360381019061027091906131ca565b610888565b6040516102829190613d80565b60405180910390f35b34801561029757600080fd5b506102b260048036038101906102ad919061307e565b6108cb565b005b3480156102c057600080fd5b506102c96109e3565b6040516102d69190613d35565b60405180910390f35b3480156102eb57600080fd5b50610306600480360381019061030191906130ba565b6109f0565b005b34801561031457600080fd5b5061032f600480360381019061032a9190612f78565b610b23565b005b34801561033d57600080fd5b506103586004803603810190610353919061307e565b610b83565b6040516103659190613d35565b60405180910390f35b610376610c28565b005b34801561038457600080fd5b5061039f600480360381019061039a9190612f78565b610cc2565b005b3480156103ad57600080fd5b506103c860048036038101906103c39190612f13565b610ce2565b6040516103d59190613af6565b60405180910390f35b3480156103ea57600080fd5b50610405600480360381019061040091906131a1565b610ddc565b6040516104129190613d35565b60405180910390f35b34801561042757600080fd5b50610442600480360381019061043d91906131a1565b610e73565b60405161044f9190613a8f565b60405180910390f35b34801561046457600080fd5b5061047f600480360381019061047a9190612f13565b610f25565b60405161048c9190613d35565b60405180910390f35b3480156104a157600080fd5b506104aa610fdd565b6040516104b79190613b33565b60405180910390f35b3480156104cc57600080fd5b506104e760048036038101906104e29190613042565b61106f565b005b3480156104f557600080fd5b50610510600480360381019061050b9190612fc7565b6111f0565b005b34801561051e57600080fd5b50610539600480360381019061053491906131a1565b611252565b6040516105469190613b33565b60405180910390f35b34801561055b57600080fd5b50610576600480360381019061057191906131a1565b6112f0565b6040516105839190613b33565b60405180910390f35b34801561059857600080fd5b506105b360048036038101906105ae91906131a1565b611470565b6040516105c09190613b33565b60405180910390f35b6105e360048036038101906105de9190613160565b6114f6565b005b3480156105f157600080fd5b5061060c60048036038101906106079190612f3c565b611550565b6040516106199190613b18565b60405180910390f35b34801561062e57600080fd5b5061064960048036038101906106449190612f13565b6115e4565b005b60007f780e9d63000000000000000000000000000000000000000000000000000000007bffffffffffffffffffffffffffffffffffffffffffffffffffffffff1916827bffffffffffffffffffffffffffffffffffffffffffffffffffffffff191614806106be57506106bd82611682565b5b9050919050565b600a6020528060005260406000206000915090508060000154908060010180546106ee906140e8565b80601f016020809104026020016040519081016040528092919081815260200182805461071a906140e8565b80156107675780601f1061073c57610100808354040283529160200191610767565b820191906000526020600020905b81548152906001019060200180831161074a57829003601f168201915b5050505050905082565b606060008054610780906140e8565b80601f01602080910402602001604051908101604052809291908181526020018280546107ac906140e8565b80156107f95780601f106107ce576101008083540402835291602001916107f9565b820191906000526020600020905b8154815290600101906020018083116107dc57829003601f168201915b5050505050905090565b600061080e82611764565b61084d576040517f08c379a000000000000000000000000000000000000000000000000000000000815260040161084490613c95565b60405180910390fd5b6004600083815260200190815260200160002060009054906101000a900473ffffffffffffffffffffffffffffffffffffffff169050919050565b600b60205281600052604060002081815481106108a457600080fd5b9060005260206000209060209182820401919006915091509054906101000a900460ff1681565b60006108d682610e73565b90508073ffffffffffffffffffffffffffffffffffffffff168373ffffffffffffffffffffffffffffffffffffffff161415610947576040517f08c379a000000000000000000000000000000000000000000000000000000000815260040161093e90613cd5565b60405180910390fd5b8073ffffffffffffffffffffffffffffffffffffffff166109666117d0565b73ffffffffffffffffffffffffffffffffffffffff16148061099557506109948161098f6117d0565b611550565b5b6109d4576040517f08c379a00000000000000000000000000000000000000000000000000000000081526004016109cb90613c15565b60405180910390fd5b6109de83836117d8565b505050565b6000600880549050905090565b3373ffffffffffffffffffffffffffffffffffffffff16601060009054906101000a900473ffffffffffffffffffffffffffffffffffffffff1673ffffffffffffffffffffffffffffffffffffffff1614610a4a57600080fd5b60005b82518111610b1e57828181518110610a8e577f4e487b7100000000000000000000000000000000000000000000000000000000600052603260045260246000fd5b6020026020010151600b60008481526020019081526020016000208281548110610ae1577f4e487b7100000000000000000000000000000000000000000000000000000000600052603260045260246000fd5b90600052602060002090602091828204019190066101000a81548160ff021916908360ff1602179055508080610b169061414b565b915050610a4d565b505050565b610b34610b2e6117d0565b82611891565b610b73576040517f08c379a0000000000000000000000000000000000000000000000000000000008152600401610b6a90613cf5565b60405180910390fd5b610b7e83838361196f565b505050565b6000610b8e83610f25565b8210610bcf576040517f08c379a0000000000000000000000000000000000000000000000000000000008152600401610bc690613b55565b60405180910390fd5b600660008473ffffffffffffffffffffffffffffffffffffffff1673ffffffffffffffffffffffffffffffffffffffff168152602001908152602001600020600083815260200190815260200160002054905092915050565b3373ffffffffffffffffffffffffffffffffffffffff16601060009054906101000a900473ffffffffffffffffffffffffffffffffffffffff1673ffffffffffffffffffffffffffffffffffffffff1614610c8257600080fd5b3373ffffffffffffffffffffffffffffffffffffffff166108fc479081150290604051600060405180830381858888f19350505050610cc057600080fd5b565b610cdd838383604051806020016040528060008152506111f0565b505050565b60606000610cef83610f25565b905060008167ffffffffffffffff811115610d33577f4e487b7100000000000000000000000000000000000000000000000000000000600052604160045260246000fd5b604051908082528060200260200182016040528015610d615781602001602082028036833780820191505090505b50905060005b82811015610dd157610d798582610b83565b828281518110610db2577f4e487b7100000000000000000000000000000000000000000000000000000000600052603260045260246000fd5b6020026020010181815250508080610dc99061414b565b915050610d67565b508092505050919050565b6000610de66109e3565b8210610e27576040517f08c379a0000000000000000000000000000000000000000000000000000000008152600401610e1e90613d15565b60405180910390fd5b60088281548110610e61577f4e487b7100000000000000000000000000000000000000000000000000000000600052603260045260246000fd5b90600052602060002001549050919050565b6000806002600084815260200190815260200160002060009054906101000a900473ffffffffffffffffffffffffffffffffffffffff169050600073ffffffffffffffffffffffffffffffffffffffff168173ffffffffffffffffffffffffffffffffffffffff161415610f1c576040517f08c379a0000000000000000000000000000000000000000000000000000000008152600401610f1390613c55565b60405180910390fd5b80915050919050565b60008073ffffffffffffffffffffffffffffffffffffffff168273ffffffffffffffffffffffffffffffffffffffff161415610f96576040517f08c379a0000000000000000000000000000000000000000000000000000000008152600401610f8d90613c35565b60405180910390fd5b600360008373ffffffffffffffffffffffffffffffffffffffff1673ffffffffffffffffffffffffffffffffffffffff168152602001908152602001600020549050919050565b606060018054610fec906140e8565b80601f0160208091040260200160405190810160405280929190818152602001828054611018906140e8565b80156110655780601f1061103a57610100808354040283529160200191611065565b820191906000526020600020905b81548152906001019060200180831161104857829003601f168201915b5050505050905090565b6110776117d0565b73ffffffffffffffffffffffffffffffffffffffff168273ffffffffffffffffffffffffffffffffffffffff1614156110e5576040517f08c379a00000000000000000000000000000000000000000000000000000000081526004016110dc90613bd5565b60405180910390fd5b80600560006110f26117d0565b73ffffffffffffffffffffffffffffffffffffffff1673ffffffffffffffffffffffffffffffffffffffff16815260200190815260200160002060008473ffffffffffffffffffffffffffffffffffffffff1673ffffffffffffffffffffffffffffffffffffffff16815260200190815260200160002060006101000a81548160ff0219169083151502179055508173ffffffffffffffffffffffffffffffffffffffff1661119f6117d0565b73ffffffffffffffffffffffffffffffffffffffff167f17307eab39ab6107e8899845ad3d59bd9653f200f220920489ca2b5937696c31836040516111e49190613b18565b60405180910390a35050565b6112016111fb6117d0565b83611891565b611240576040517f08c379a000000000000000000000000000000000000000000000000000000000815260040161123790613cf5565b60405180910390fd5b61124c84848484611bcb565b50505050565b60608080600a600085815260200190815260200160002060010160405160200161127d92919061391f565b604051602081830303815290604052905080600a6000858152602001908152602001600020600001546040516020016112b79291906138d6565b6040516020818303038152906040529050806040516020016112d99190613a40565b604051602081830303815290604052915050919050565b6060806060600080600a9150600a90506040518060400160405280600d81526020017f54686973206973204e465420230000000000000000000000000000000000000081525092508261134287611c27565b604051602001611353929190613883565b604051602081830303815290604052925083611370848484611dd4565b604051602001611381929190613883565b6040516020818303038152906040529350600a9150601490506040518060400160405280600b81526020017f4d696e74656420666f72200000000000000000000000000000000000000000008152509250826113f2600a600089815260200190815260200160002060000154611c27565b6040516020016114039291906138a7565b604051602081830303815290604052925083611420848484611dd4565b604051602001611431929190613883565b6040516020818303038152906040529350836040516020016114539190613a13565b604051602081830303815290604052935083945050505050919050565b606061147b82611764565b61148457600080fd5b6114d061149083611ea8565b6114a161149c856112f0565b612055565b6114aa85611252565b6040516020016114bc939291906139ab565b604051602081830303815290604052612055565b6040516020016114e09190613a6d565b6040516020818303038152906040529050919050565b60006115006109e3565b9050600f5482511061151157600080fd5b600e5434101561152057600080fd5b600c54811061152e57600080fd5b61153733612200565b1561154157600080fd5b61154c823483612213565b5050565b6000600560008473ffffffffffffffffffffffffffffffffffffffff1673ffffffffffffffffffffffffffffffffffffffff16815260200190815260200160002060008373ffffffffffffffffffffffffffffffffffffffff1673ffffffffffffffffffffffffffffffffffffffff16815260200190815260200160002060009054906101000a900460ff16905092915050565b3373ffffffffffffffffffffffffffffffffffffffff16601060009054906101000a900473ffffffffffffffffffffffffffffffffffffffff1673ffffffffffffffffffffffffffffffffffffffff161461163e57600080fd5b80601060006101000a81548173ffffffffffffffffffffffffffffffffffffffff021916908373ffffffffffffffffffffffffffffffffffffffff16021790555050565b60007f80ac58cd000000000000000000000000000000000000000000000000000000007bffffffffffffffffffffffffffffffffffffffffffffffffffffffff1916827bffffffffffffffffffffffffffffffffffffffffffffffffffffffff1916148061174d57507f5b5e139f000000000000000000000000000000000000000000000000000000007bffffffffffffffffffffffffffffffffffffffffffffffffffffffff1916827bffffffffffffffffffffffffffffffffffffffffffffffffffffffff1916145b8061175d575061175c82612268565b5b9050919050565b60008073ffffffffffffffffffffffffffffffffffffffff166002600084815260200190815260200160002060009054906101000a900473ffffffffffffffffffffffffffffffffffffffff1673ffffffffffffffffffffffffffffffffffffffff1614159050919050565b600033905090565b816004600083815260200190815260200160002060006101000a81548173ffffffffffffffffffffffffffffffffffffffff021916908373ffffffffffffffffffffffffffffffffffffffff160217905550808273ffffffffffffffffffffffffffffffffffffffff1661184b83610e73565b73ffffffffffffffffffffffffffffffffffffffff167f8c5be1e5ebec7d5bd14f71427d1e84f3dd0314c0f7b2291e5b200ac8c7c3b92560405160405180910390a45050565b600061189c82611764565b6118db576040517f08c379a00000000000000000000000000000000000000000000000000000000081526004016118d290613bf5565b60405180910390fd5b60006118e683610e73565b90508073ffffffffffffffffffffffffffffffffffffffff168473ffffffffffffffffffffffffffffffffffffffff16148061195557508373ffffffffffffffffffffffffffffffffffffffff1661193d84610803565b73ffffffffffffffffffffffffffffffffffffffff16145b8061196657506119658185611550565b5b91505092915050565b8273ffffffffffffffffffffffffffffffffffffffff1661198f82610e73565b73ffffffffffffffffffffffffffffffffffffffff16146119e5576040517f08c379a00000000000000000000000000000000000000000000000000000000081526004016119dc90613cb5565b60405180910390fd5b600073ffffffffffffffffffffffffffffffffffffffff168273ffffffffffffffffffffffffffffffffffffffff161415611a55576040517f08c379a0000000000000000000000000000000000000000000000000000000008152600401611a4c90613bb5565b60405180910390fd5b611a608383836122d2565b611a6b6000826117d8565b6001600360008573ffffffffffffffffffffffffffffffffffffffff1673ffffffffffffffffffffffffffffffffffffffff1681526020019081526020016000206000828254611abb9190613ff1565b925050819055506001600360008473ffffffffffffffffffffffffffffffffffffffff1673ffffffffffffffffffffffffffffffffffffffff1681526020019081526020016000206000828254611b129190613edf565b92505081905550816002600083815260200190815260200160002060006101000a81548173ffffffffffffffffffffffffffffffffffffffff021916908373ffffffffffffffffffffffffffffffffffffffff160217905550808273ffffffffffffffffffffffffffffffffffffffff168473ffffffffffffffffffffffffffffffffffffffff167fddf252ad1be2c89b69c2b068fc378daa952ba7f163c4a11628f55a4df523b3ef60405160405180910390a4505050565b611bd684848461196f565b611be2848484846123e6565b611c21576040517f08c379a0000000000000000000000000000000000000000000000000000000008152600401611c1890613b75565b60405180910390fd5b50505050565b60606000821415611c6f576040518060400160405280600181526020017f30000000000000000000000000000000000000000000000000000000000000008152509050611dcf565b600082905060005b60008214611ca1578080611c8a9061414b565b915050600a82611c9a9190613f35565b9150611c77565b60008167ffffffffffffffff811115611ce3577f4e487b7100000000000000000000000000000000000000000000000000000000600052604160045260246000fd5b6040519080825280601f01601f191660200182016040528015611d155781602001600182028036833780820191505090505b5090505b60008514611dc857600182611d2e9190613ff1565b9150600a85611d3d919061419e565b6030611d499190613edf565b60f81b818381518110611d85577f4e487b7100000000000000000000000000000000000000000000000000000000600052603260045260246000fd5b60200101907effffffffffffffffffffffffffffffffffffffffffffffffffffffffffffff1916908160001a905350600a85611dc19190613f35565b9450611d19565b8093505050505b919050565b606080604051806020016040528060008152509050600085905060005b8151811015611e9b5782611e66838381518110611e37577f4e487b7100000000000000000000000000000000000000000000000000000000600052603260045260246000fd5b602001015160f81c60f81b60f81c60ff16600884611e559190613f97565b89611e609190613edf565b8861257d565b604051602001611e77929190613883565b60405160208183030381529060405292508080611e939061414b565b915050611df1565b5081925050509392505050565b60606000821415611ef0576040518060400160405280600181526020017f30000000000000000000000000000000000000000000000000000000000000008152509050612050565b600082905060005b60008214611f22578080611f0b9061414b565b915050600a82611f1b9190613f35565b9150611ef8565b60008167ffffffffffffffff811115611f64577f4e487b7100000000000000000000000000000000000000000000000000000000600052604160045260246000fd5b6040519080825280601f01601f191660200182016040528015611f965781602001600182028036833780820191505090505b5090505b6000851461204957600182611faf9190613ff1565b9150600a85611fbe919061419e565b6030611fca9190613edf565b60f81b818381518110612006577f4e487b7100000000000000000000000000000000000000000000000000000000600052603260045260246000fd5b60200101907effffffffffffffffffffffffffffffffffffffffffffffffffffffffffffff1916908160001a905350600a856120429190613f35565b9450611f9a565b8093505050505b919050565b6060600082511415612078576040518060200160405280600081525090506121fb565b6000604051806060016040528060408152602001614c1a60409139905060006003600285516120a79190613edf565b6120b19190613f35565b60046120bd9190613f97565b905060006020826120ce9190613edf565b67ffffffffffffffff81111561210d577f4e487b7100000000000000000000000000000000000000000000000000000000600052604160045260246000fd5b6040519080825280601f01601f19166020018201604052801561213f5781602001600182028036833780820191505090505b509050818152600183018586518101602084015b818310156121ba576003830192508251603f8160121c1685015160f81b8252600182019150603f81600c1c1685015160f81b8252600182019150603f8160061c1685015160f81b8252600182019150603f811685015160f81b825260018201915050612153565b6003895106600181146121d457600281146121e4576121ef565b613d3d60f01b60028303526121ef565b603d60f81b60018303525b50505050508093505050505b919050565b600080823b905060008111915050919050565b81600a60008381526020019081526020016000206000018190555082600a60008381526020019081526020016000206001019080519060200190612258929190612c8c565b50612263338261272e565b505050565b60007f01ffc9a7000000000000000000000000000000000000000000000000000000007bffffffffffffffffffffffffffffffffffffffffffffffffffffffff1916827bffffffffffffffffffffffffffffffffffffffffffffffffffffffff1916149050919050565b6122dd8383836128fc565b600073ffffffffffffffffffffffffffffffffffffffff168373ffffffffffffffffffffffffffffffffffffffff1614156123205761231b81612901565b61235f565b8173ffffffffffffffffffffffffffffffffffffffff168373ffffffffffffffffffffffffffffffffffffffff161461235e5761235d838261294a565b5b5b600073ffffffffffffffffffffffffffffffffffffffff168273ffffffffffffffffffffffffffffffffffffffff1614156123a25761239d81612ab7565b6123e1565b8273ffffffffffffffffffffffffffffffffffffffff168273ffffffffffffffffffffffffffffffffffffffff16146123e0576123df8282612bfa565b5b5b505050565b60006124078473ffffffffffffffffffffffffffffffffffffffff16612c79565b15612570578373ffffffffffffffffffffffffffffffffffffffff1663150b7a026124306117d0565b8786866040518563ffffffff1660e01b81526004016124529493929190613aaa565b602060405180830381600087803b15801561246c57600080fd5b505af192505050801561249d57506040513d601f19601f8201168201806040525081019061249a9190613137565b60015b612520573d80600081146124cd576040519150601f19603f3d011682016040523d82523d6000602084013e6124d2565b606091505b50600081511415612518576040517f08c379a000000000000000000000000000000000000000000000000000000000815260040161250f90613b75565b60405180910390fd5b805181602001fd5b63150b7a0260e01b7bffffffffffffffffffffffffffffffffffffffffffffffffffffffff1916817bffffffffffffffffffffffffffffffffffffffffffffffffffffffff191614915050612575565b600190505b949350505050565b60608060405180602001604052806000815250905060208510806125a15750607e85115b156125af5780915050612727565b60005b600b600087815260200190815260200160002080549050811015612721578161265e6008600b60008a81526020019081526020016000208481548110612621577f4e487b7100000000000000000000000000000000000000000000000000000000600052603260045260246000fd5b90600052602060002090602091828204019190069054906101000a900460ff1661264b91906141cf565b60ff16876126599190613edf565b611c27565b6126eb6008600b60008b815260200190815260200160002085815481106126ae577f4e487b7100000000000000000000000000000000000000000000000000000000600052603260045260246000fd5b90600052602060002090602091828204019190069054906101000a900460ff166126d89190613f66565b60ff16876126e69190613edf565b611c27565b6040516020016126fd93929190613959565b604051602081830303815290604052915080806127199061414b565b9150506125b2565b50809150505b9392505050565b600073ffffffffffffffffffffffffffffffffffffffff168273ffffffffffffffffffffffffffffffffffffffff16141561279e576040517f08c379a000000000000000000000000000000000000000000000000000000000815260040161279590613c75565b60405180910390fd5b6127a781611764565b156127e7576040517f08c379a00000000000000000000000000000000000000000000000000000000081526004016127de90613b95565b60405180910390fd5b6127f3600083836122d2565b6001600360008473ffffffffffffffffffffffffffffffffffffffff1673ffffffffffffffffffffffffffffffffffffffff16815260200190815260200160002060008282546128439190613edf565b92505081905550816002600083815260200190815260200160002060006101000a81548173ffffffffffffffffffffffffffffffffffffffff021916908373ffffffffffffffffffffffffffffffffffffffff160217905550808273ffffffffffffffffffffffffffffffffffffffff16600073ffffffffffffffffffffffffffffffffffffffff167fddf252ad1be2c89b69c2b068fc378daa952ba7f163c4a11628f55a4df523b3ef60405160405180910390a45050565b505050565b6008805490506009600083815260200190815260200160002081905550600881908060018154018082558091505060019003906000526020600020016000909190919091505550565b6000600161295784610f25565b6129619190613ff1565b9050600060076000848152602001908152602001600020549050818114612a46576000600660008673ffffffffffffffffffffffffffffffffffffffff1673ffffffffffffffffffffffffffffffffffffffff168152602001908152602001600020600084815260200190815260200160002054905080600660008773ffffffffffffffffffffffffffffffffffffffff1673ffffffffffffffffffffffffffffffffffffffff168152602001908152602001600020600084815260200190815260200160002081905550816007600083815260200190815260200160002081905550505b6007600084815260200190815260200160002060009055600660008573ffffffffffffffffffffffffffffffffffffffff1673ffffffffffffffffffffffffffffffffffffffff16815260200190815260200160002060008381526020019081526020016000206000905550505050565b60006001600880549050612acb9190613ff1565b9050600060096000848152602001908152602001600020549050600060088381548110612b21577f4e487b7100000000000000000000000000000000000000000000000000000000600052603260045260246000fd5b906000526020600020015490508060088381548110612b69577f4e487b7100000000000000000000000000000000000000000000000000000000600052603260045260246000fd5b906000526020600020018190555081600960008381526020019081526020016000208190555060096000858152602001908152602001600020600090556008805480612bde577f4e487b7100000000000000000000000000000000000000000000000000000000600052603160045260246000fd5b6001900381819060005260206000200160009055905550505050565b6000612c0583610f25565b905081600660008573ffffffffffffffffffffffffffffffffffffffff1673ffffffffffffffffffffffffffffffffffffffff168152602001908152602001600020600083815260200190815260200160002081905550806007600084815260200190815260200160002081905550505050565b600080823b905060008111915050919050565b828054612c98906140e8565b90600052602060002090601f016020900481019282612cba5760008555612d01565b82601f10612cd357805160ff1916838001178555612d01565b82800160010185558215612d01579182015b82811115612d00578251825591602001919060010190612ce5565b5b509050612d0e9190612d12565b5090565b5b80821115612d2b576000816000905550600101612d13565b5090565b6000612d42612d3d84613dc0565b613d9b565b90508083825260208201905082856020860282011115612d6157600080fd5b60005b85811015612d915781612d778882612efe565b845260208401935060208301925050600181019050612d64565b5050509392505050565b6000612dae612da984613dec565b613d9b565b905082815260208101848484011115612dc657600080fd5b612dd18482856140a6565b509392505050565b6000612dec612de784613e1d565b613d9b565b905082815260208101848484011115612e0457600080fd5b612e0f8482856140a6565b509392505050565b600081359050612e2681614ba6565b92915050565b600082601f830112612e3d57600080fd5b8135612e4d848260208601612d2f565b91505092915050565b600081359050612e6581614bbd565b92915050565b600081359050612e7a81614bd4565b92915050565b600081519050612e8f81614bd4565b92915050565b600082601f830112612ea657600080fd5b8135612eb6848260208601612d9b565b91505092915050565b600082601f830112612ed057600080fd5b8135612ee0848260208601612dd9565b91505092915050565b600081359050612ef881614beb565b92915050565b600081359050612f0d81614c02565b92915050565b600060208284031215612f2557600080fd5b6000612f3384828501612e17565b91505092915050565b60008060408385031215612f4f57600080fd5b6000612f5d85828601612e17565b9250506020612f6e85828601612e17565b9150509250929050565b600080600060608486031215612f8d57600080fd5b6000612f9b86828701612e17565b9350506020612fac86828701612e17565b9250506040612fbd86828701612ee9565b9150509250925092565b60008060008060808587031215612fdd57600080fd5b6000612feb87828801612e17565b9450506020612ffc87828801612e17565b935050604061300d87828801612ee9565b925050606085013567ffffffffffffffff81111561302a57600080fd5b61303687828801612e95565b91505092959194509250565b6000806040838503121561305557600080fd5b600061306385828601612e17565b925050602061307485828601612e56565b9150509250929050565b6000806040838503121561309157600080fd5b600061309f85828601612e17565b92505060206130b085828601612ee9565b9150509250929050565b600080604083850312156130cd57600080fd5b600083013567ffffffffffffffff8111156130e757600080fd5b6130f385828601612e2c565b925050602061310485828601612ee9565b9150509250929050565b60006020828403121561312057600080fd5b600061312e84828501612e6b565b91505092915050565b60006020828403121561314957600080fd5b600061315784828501612e80565b91505092915050565b60006020828403121561317257600080fd5b600082013567ffffffffffffffff81111561318c57600080fd5b61319884828501612ebf565b91505092915050565b6000602082840312156131b357600080fd5b60006131c184828501612ee9565b91505092915050565b600080604083850312156131dd57600080fd5b60006131eb85828601612ee9565b92505060206131fc85828601612ee9565b9150509250929050565b6000613212838361383f565b60208301905092915050565b61322781614025565b82525050565b600061323882613e73565b6132428185613ea1565b935061324d83613e4e565b8060005b8381101561327e5781516132658882613206565b975061327083613e94565b925050600181019050613251565b5085935050505092915050565b61329481614037565b82525050565b60006132a582613e7e565b6132af8185613eb2565b93506132bf8185602086016140b5565b6132c8816142bc565b840191505092915050565b60006132de82613e89565b6132e88185613ec3565b93506132f88185602086016140b5565b613301816142bc565b840191505092915050565b600061331782613e89565b6133218185613ed4565b93506133318185602086016140b5565b80840191505092915050565b6000815461334a816140e8565b6133548186613ed4565b9450600182166000811461336f5760018114613380576133b3565b60ff198316865281860193506133b3565b61338985613e5e565b60005b838110156133ab5781548189015260018201915060208101905061338c565b838801955050505b50505092915050565b60006133c9600583613ed4565b91506133d4826142cd565b600582019050919050565b60006133ec602b83613ec3565b91506133f7826142f6565b604082019050919050565b600061340f603283613ec3565b915061341a82614345565b604082019050919050565b6000613432602583613ed4565b915061343d82614394565b602582019050919050565b6000613455601c83613ec3565b9150613460826143e3565b602082019050919050565b6000613478600f83613ed4565b91506134838261440c565b600f82019050919050565b600061349b601483613ed4565b91506134a682614435565b601482019050919050565b60006134be600383613ed4565b91506134c98261445e565b600382019050919050565b60006134e1607e83613ed4565b91506134ec82614487565b607e82019050919050565b6000613504600483613ed4565b915061350f82614522565b600482019050919050565b6000613527602483613ec3565b91506135328261454b565b604082019050919050565b600061354a601983613ec3565b91506135558261459a565b602082019050919050565b600061356d602c83613ec3565b9150613578826145c3565b604082019050919050565b6000613590600383613ed4565b915061359b82614612565b600382019050919050565b60006135b3603883613ec3565b91506135be8261463b565b604082019050919050565b60006135d6602a83613ec3565b91506135e18261468a565b604082019050919050565b60006135f9602983613ec3565b9150613604826146d9565b604082019050919050565b600061361c608e83613ed4565b915061362782614728565b608e82019050919050565b600061363f600283613ed4565b915061364a826147e9565b600282019050919050565b6000613662607083613ed4565b915061366d82614812565b607082019050919050565b6000613685602083613ec3565b9150613690826148ad565b602082019050919050565b60006136a8600183613ed4565b91506136b3826148d6565b600182019050919050565b60006136cb602c83613ec3565b91506136d6826148ff565b604082019050919050565b60006136ee600183613ed4565b91506136f98261494e565b600182019050919050565b6000613711602983613ec3565b915061371c82614977565b604082019050919050565b6000613734602683613ed4565b915061373f826149c6565b602682019050919050565b6000613757601583613ed4565b915061376282614a15565b601582019050919050565b600061377a600183613ed4565b915061378582614a3e565b600182019050919050565b600061379d602183613ec3565b91506137a882614a67565b604082019050919050565b60006137c0601d83613ed4565b91506137cb82614ab6565b601d82019050919050565b60006137e3603183613ec3565b91506137ee82614adf565b604082019050919050565b6000613806602c83613ec3565b915061381182614b2e565b604082019050919050565b6000613829600483613ed4565b915061383482614b7d565b600482019050919050565b6138488161408f565b82525050565b6138578161408f565b82525050565b61386e6138698261408f565b614194565b82525050565b61387d81614099565b82525050565b600061388f828561330c565b915061389b828461330c565b91508190509392505050565b60006138b3828561330c565b91506138bf828461330c565b91506138ca826134f7565b91508190509392505050565b60006138e2828561330c565b91506138ed82613425565b91506138f9828461385d565b602082019150613908826134f7565b915061391382613632565b91508190509392505050565b600061392b828561330c565b915061393682613727565b9150613942828461333d565b915061394d826134b1565b91508190509392505050565b6000613965828661330c565b91506139708261374a565b915061397c828561330c565b9150613987826133bc565b9150613993828461330c565b915061399e82613583565b9150819050949350505050565b60006139b68261348e565b91506139c2828661330c565b91506139cd8261360f565b91506139d9828561330c565b91506139e48261346b565b91506139f0828461330c565b91506139fb8261381c565b9150613a068261369b565b9150819050949350505050565b6000613a1e82613655565b9150613a2a828461330c565b9150613a35826134d4565b915081905092915050565b6000613a4b826136e1565b9150613a57828461330c565b9150613a628261376d565b915081905092915050565b6000613a78826137b3565b9150613a84828461330c565b915081905092915050565b6000602082019050613aa4600083018461321e565b92915050565b6000608082019050613abf600083018761321e565b613acc602083018661321e565b613ad9604083018561384e565b8181036060830152613aeb818461329a565b905095945050505050565b60006020820190508181036000830152613b10818461322d565b905092915050565b6000602082019050613b2d600083018461328b565b92915050565b60006020820190508181036000830152613b4d81846132d3565b905092915050565b60006020820190508181036000830152613b6e816133df565b9050919050565b60006020820190508181036000830152613b8e81613402565b9050919050565b60006020820190508181036000830152613bae81613448565b9050919050565b60006020820190508181036000830152613bce8161351a565b9050919050565b60006020820190508181036000830152613bee8161353d565b9050919050565b60006020820190508181036000830152613c0e81613560565b9050919050565b60006020820190508181036000830152613c2e816135a6565b9050919050565b60006020820190508181036000830152613c4e816135c9565b9050919050565b60006020820190508181036000830152613c6e816135ec565b9050919050565b60006020820190508181036000830152613c8e81613678565b9050919050565b60006020820190508181036000830152613cae816136be565b9050919050565b60006020820190508181036000830152613cce81613704565b9050919050565b60006020820190508181036000830152613cee81613790565b9050919050565b60006020820190508181036000830152613d0e816137d6565b9050919050565b60006020820190508181036000830152613d2e816137f9565b9050919050565b6000602082019050613d4a600083018461384e565b92915050565b6000604082019050613d65600083018561384e565b8181036020830152613d7781846132d3565b90509392505050565b6000602082019050613d956000830184613874565b92915050565b6000613da5613db6565b9050613db1828261411a565b919050565b6000604051905090565b600067ffffffffffffffff821115613ddb57613dda61428d565b5b602082029050602081019050919050565b600067ffffffffffffffff821115613e0757613e0661428d565b5b613e10826142bc565b9050602081019050919050565b600067ffffffffffffffff821115613e3857613e3761428d565b5b613e41826142bc565b9050602081019050919050565b6000819050602082019050919050565b60008190508160005260206000209050919050565b600081519050919050565b600081519050919050565b600081519050919050565b6000602082019050919050565b600082825260208201905092915050565b600082825260208201905092915050565b600082825260208201905092915050565b600081905092915050565b6000613eea8261408f565b9150613ef58361408f565b9250827fffffffffffffffffffffffffffffffffffffffffffffffffffffffffffffffff03821115613f2a57613f29614200565b5b828201905092915050565b6000613f408261408f565b9150613f4b8361408f565b925082613f5b57613f5a61422f565b5b828204905092915050565b6000613f7182614099565b9150613f7c83614099565b925082613f8c57613f8b61422f565b5b828204905092915050565b6000613fa28261408f565b9150613fad8361408f565b9250817fffffffffffffffffffffffffffffffffffffffffffffffffffffffffffffffff0483118215151615613fe657613fe5614200565b5b828202905092915050565b6000613ffc8261408f565b91506140078361408f565b92508282101561401a57614019614200565b5b828203905092915050565b60006140308261406f565b9050919050565b60008115159050919050565b60007fffffffff0000000000000000000000000000000000000000000000000000000082169050919050565b600073ffffffffffffffffffffffffffffffffffffffff82169050919050565b6000819050919050565b600060ff82169050919050565b82818337600083830152505050565b60005b838110156140d35780820151818401526020810190506140b8565b838111156140e2576000848401525b50505050565b6000600282049050600182168061410057607f821691505b602082108114156141145761411361425e565b5b50919050565b614123826142bc565b810181811067ffffffffffffffff821117156141425761414161428d565b5b80604052505050565b60006141568261408f565b91507fffffffffffffffffffffffffffffffffffffffffffffffffffffffffffffffff82141561418957614188614200565b5b600182019050919050565b6000819050919050565b60006141a98261408f565b91506141b48361408f565b9250826141c4576141c361422f565b5b828206905092915050565b60006141da82614099565b91506141e583614099565b9250826141f5576141f461422f565b5b828206905092915050565b7f4e487b7100000000000000000000000000000000000000000000000000000000600052601160045260246000fd5b7f4e487b7100000000000000000000000000000000000000000000000000000000600052601260045260246000fd5b7f4e487b7100000000000000000000000000000000000000000000000000000000600052602260045260246000fd5b7f4e487b7100000000000000000000000000000000000000000000000000000000600052604160045260246000fd5b6000601f19601f8301169050919050565b7f2720793d27000000000000000000000000000000000000000000000000000000600082015250565b7f455243373231456e756d657261626c653a206f776e657220696e646578206f7560008201527f74206f6620626f756e6473000000000000000000000000000000000000000000602082015250565b7f4552433732313a207472616e7366657220746f206e6f6e20455243373231526560008201527f63656976657220696d706c656d656e7465720000000000000000000000000000602082015250565b7f7b2274726169745f74797065223a22416d6f756e742070616964222c2276616c60008201527f7565223a22000000000000000000000000000000000000000000000000000000602082015250565b7f4552433732313a20746f6b656e20616c7265616479206d696e74656400000000600082015250565b7f222c2261747472696275746573223a0000000000000000000000000000000000600082015250565b7f7b226e616d65223a20224d794f776e4e46542023000000000000000000000000600082015250565b7f227d2c0000000000000000000000000000000000000000000000000000000000600082015250565b7f3c7374796c653e726563747b77696474683a3170783b6865696768743a31707860008201527f3b7d20236d6f7573652d7376677b73686170652d72656e646572696e673a206360208201527f7269737065646765733b7d202e6330307b66696c6c3a233030303030307d2e6360408201527f30317b66696c6c3a234646464646467d3c2f7374796c653e3c2f7376673e0000606082015250565b7f2046544d00000000000000000000000000000000000000000000000000000000600082015250565b7f4552433732313a207472616e7366657220746f20746865207a65726f2061646460008201527f7265737300000000000000000000000000000000000000000000000000000000602082015250565b7f4552433732313a20617070726f766520746f2063616c6c657200000000000000600082015250565b7f4552433732313a206f70657261746f7220717565727920666f72206e6f6e657860008201527f697374656e7420746f6b656e0000000000000000000000000000000000000000602082015250565b7f272f3e0000000000000000000000000000000000000000000000000000000000600082015250565b7f4552433732313a20617070726f76652063616c6c6572206973206e6f74206f7760008201527f6e6572206e6f7220617070726f76656420666f7220616c6c0000000000000000602082015250565b7f4552433732313a2062616c616e636520717565727920666f7220746865207a6560008201527f726f206164647265737300000000000000000000000000000000000000000000602082015250565b7f4552433732313a206f776e657220717565727920666f72206e6f6e657869737460008201527f656e7420746f6b656e0000000000000000000000000000000000000000000000602082015250565b7f222c20226465736372697074696f6e223a20224d794f776e4e4654206973206160008201527f20636f6c6c656374696f6e206f6620636f6d706c6574656c79204f4e2d43484160208201527f494e204e465473207468617420796f752063616e20637573746f6d697a65206f60408201527f6e206d696e742e222c2022696d616765223a2022646174613a696d6167652f7360608201527f76672b786d6c3b6261736536342c000000000000000000000000000000000000608082015250565b7f227d000000000000000000000000000000000000000000000000000000000000600082015250565b7f3c7376672069643d226d6f7573652d7376672220786d6c6e733d22687474703a60008201527f2f2f7777772e77332e6f72672f323030302f737667222070726573657276654160208201527f7370656374526174696f3d22784d696e594d696e206d6565742220766965774260408201527f6f783d22302030203234203234223e2000000000000000000000000000000000606082015250565b7f4552433732313a206d696e7420746f20746865207a65726f2061646472657373600082015250565b7f7d00000000000000000000000000000000000000000000000000000000000000600082015250565b7f4552433732313a20617070726f76656420717565727920666f72206e6f6e657860008201527f697374656e7420746f6b656e0000000000000000000000000000000000000000602082015250565b7f5b00000000000000000000000000000000000000000000000000000000000000600082015250565b7f4552433732313a207472616e73666572206f6620746f6b656e2074686174206960008201527f73206e6f74206f776e0000000000000000000000000000000000000000000000602082015250565b7f7b2274726169745f74797065223a225465787420636f6e74656e74222c22766160008201527f6c7565223a220000000000000000000000000000000000000000000000000000602082015250565b7f3c7265637420636c6173733d276330312720783d270000000000000000000000600082015250565b7f5d00000000000000000000000000000000000000000000000000000000000000600082015250565b7f4552433732313a20617070726f76616c20746f2063757272656e74206f776e6560008201527f7200000000000000000000000000000000000000000000000000000000000000602082015250565b7f646174613a6170706c69636174696f6e2f6a736f6e3b6261736536342c000000600082015250565b7f4552433732313a207472616e736665722063616c6c6572206973206e6f74206f60008201527f776e6572206e6f7220617070726f766564000000000000000000000000000000602082015250565b7f455243373231456e756d657261626c653a20676c6f62616c20696e646578206f60008201527f7574206f6620626f756e64730000000000000000000000000000000000000000602082015250565b7f6e6f6e6500000000000000000000000000000000000000000000000000000000600082015250565b614baf81614025565b8114614bba57600080fd5b50565b614bc681614037565b8114614bd157600080fd5b50565b614bdd81614043565b8114614be857600080fd5b50565b614bf48161408f565b8114614bff57600080fd5b50565b614c0b81614099565b8114614c1657600080fd5b5056fe4142434445464748494a4b4c4d4e4f505152535455565758595a6162636465666768696a6b6c6d6e6f707172737475767778797a303132333435363738392b2fa2646970667358221220f1f51a032a41ee20f9a4b1582dab3b79d9cca73f04b50e334c7bc0f019fddd4764736f6c63430008030033",
  "immutableReferences": {},
  "source": "// contracts/MyOwnNft.sol\r\n// SPDX-License-Identifier: MIT\r\npragma solidity ^0.8.0;\r\n\r\nimport \"@openzeppelin/contracts/token/ERC721/extensions/ERC721Enumerable.sol\";\r\nimport \"@openzeppelin/contracts/utils/Strings.sol\";\r\nimport \"./MyOwnNftLibrary.sol\";\r\n\r\ncontract MyOwnNft is ERC721Enumerable {\r\n    using MyOwnNftLibrary for uint8;\r\n\r\n    struct CustomNftContent {\r\n        uint256 amount_paid;\r\n        string text_content;\r\n    }\r\n\r\n    //Mappings\r\n    mapping(uint256 => CustomNftContent) public customNftsContent;\r\n    mapping(uint256 => uint8[]) public charactersData;\r\n\r\n    //uint256s\r\n    uint256 MAX_SUPPLY = 100000; // to decide carefully!!!!!!\r\n    uint256 MAX_PER_ADDRESS = 5; // to implement!!!!!!\r\n    uint256 MIN_PRICE = 1000000000000000000; // to check!!!!!!!\r\n    uint256 MAX_STRING_LENGTH = 24 * 5;\r\n\r\n    //address\r\n    address _owner;\r\n\r\n    constructor() ERC721(\"MyOwnNft\", \"MON\") {\r\n        _owner = msg.sender;\r\n    }\r\n\r\n    /*\r\n  __  __ _     _   _             ___             _   _             \r\n |  \\/  (_)_ _| |_(_)_ _  __ _  | __|  _ _ _  __| |_(_)___ _ _  ___\r\n | |\\/| | | ' \\  _| | ' \\/ _` | | _| || | ' \\/ _|  _| / _ \\ ' \\(_-<\r\n |_|  |_|_|_||_\\__|_|_||_\\__, | |_| \\_,_|_||_\\__|\\__|_\\___/_||_/__/\r\n                         |___/                                     \r\n   */\r\n\r\n    /**\r\n     * @dev Mint internal, this is to avoid code duplication.\r\n     */\r\n    function mintInternal(\r\n        string memory _text_content,\r\n        uint256 _amount_paid,\r\n        uint256 token_id\r\n    ) internal {\r\n        customNftsContent[token_id].amount_paid = _amount_paid;\r\n        customNftsContent[token_id].text_content = _text_content;\r\n\r\n        _mint(msg.sender, token_id);\r\n    }\r\n\r\n    /**\r\n     * @dev Mints new tokens.\r\n     */\r\n    function mintNft(string memory text_content) public payable {\r\n        uint256 _totalSupply = totalSupply();\r\n        require(bytes(text_content).length < MAX_STRING_LENGTH);\r\n        require(msg.value >= MIN_PRICE);\r\n        require(_totalSupply < MAX_SUPPLY);\r\n        require(!MyOwnNftLibrary.isContract(msg.sender));\r\n\r\n        return mintInternal(text_content, msg.value, _totalSupply);\r\n    }\r\n\r\n    /*\r\n ____     ___   ____  ___        _____  __ __  ____     __ ______  ____  ___   ____   _____\r\n|    \\   /  _] /    ||   \\      |     ||  |  ||    \\   /  ]      ||    |/   \\ |    \\ / ___/\r\n|  D  ) /  [_ |  o  ||    \\     |   __||  |  ||  _  | /  /|      | |  ||     ||  _  (   \\_ \r\n|    / |    _]|     ||  D  |    |  |_  |  |  ||  |  |/  / |_|  |_| |  ||  O  ||  |  |\\__  |\r\n|    \\ |   [_ |  _  ||     |    |   _] |  :  ||  |  /   \\_  |  |   |  ||     ||  |  |/  \\ |\r\n|  .  \\|     ||  |  ||     |    |  |   |     ||  |  \\     | |  |   |  ||     ||  |  |\\    |\r\n|__|\\_||_____||__|__||_____|    |__|    \\__,_||__|__|\\____| |__|  |____|\\___/ |__|__| \\___|  \r\n\r\n    */\r\n\r\n    /**\r\n     * @dev Token ID to SVG function\r\n     */\r\n    function tokenIdToSVG(uint256 token_id)\r\n        public\r\n        view\r\n        returns (string memory)\r\n    {\r\n        string memory svgString;\r\n        string memory tempString;\r\n        uint256 cursor_x;\r\n        uint256 cursor_y;\r\n\r\n        cursor_x = 10;\r\n        cursor_y = 10;\r\n        tempString = \"This is NFT #\";\r\n        tempString = string(\r\n            abi.encodePacked(tempString, Strings.toString(token_id))\r\n        );\r\n        svgString = string(\r\n            abi.encodePacked(\r\n                svgString,\r\n                drawString(tempString, cursor_x, cursor_y)\r\n            )\r\n        );\r\n\r\n        cursor_x = 10;\r\n        cursor_y = 20;\r\n        tempString = \"Minted for \";\r\n        tempString = string(\r\n            abi.encodePacked(\r\n                tempString,\r\n                Strings.toString(customNftsContent[token_id].amount_paid),\r\n                \" FTM\"\r\n            )\r\n        );\r\n        svgString = string(\r\n            abi.encodePacked(\r\n                svgString,\r\n                drawString(tempString, cursor_x, cursor_y)\r\n            )\r\n        );\r\n\r\n        svgString = string(\r\n            abi.encodePacked(\r\n                '<svg id=\"mouse-svg\" xmlns=\"http://www.w3.org/2000/svg\" preserveAspectRatio=\"xMinYMin meet\" viewBox=\"0 0 24 24\"> ',\r\n                svgString,\r\n                \"<style>rect{width:1px;height:1px;} #mouse-svg{shape-rendering: crispedges;} .c00{fill:#000000}.c01{fill:#FFFFFF}</style></svg>\"\r\n            )\r\n        );\r\n\r\n        return svgString;\r\n    }\r\n\r\n    /**\r\n     * @dev Token ID to metadata function\r\n     */\r\n    function tokenIdToMetadata(uint256 token_id)\r\n        public\r\n        view\r\n        returns (string memory)\r\n    {\r\n        string memory metadataString;\r\n\r\n        // text content\r\n        metadataString = string(\r\n            abi.encodePacked(\r\n                metadataString,\r\n                '{\"trait_type\":\"Text content\",\"value\":\"',\r\n                customNftsContent[token_id].text_content,\r\n                '\"},'\r\n            )\r\n        );\r\n\r\n        // amount paid\r\n        metadataString = string(\r\n            abi.encodePacked(\r\n                metadataString,\r\n                '{\"trait_type\":\"Amount paid\",\"value\":\"',\r\n                customNftsContent[token_id].amount_paid,\r\n                \" FTM\",\r\n                '\"}'\r\n            )\r\n        );\r\n\r\n        return string(abi.encodePacked(\"[\", metadataString, \"]\"));\r\n    }\r\n\r\n    /**\r\n     * @dev Returns the SVG and metadata for a token Id\r\n     * @param _tokenId The tokenId to return the SVG and metadata for.\r\n     */\r\n    function tokenURI(uint256 _tokenId)\r\n        public\r\n        view\r\n        override\r\n        returns (string memory)\r\n    {\r\n        require(_exists(_tokenId));\r\n\r\n        return\r\n            string(\r\n                abi.encodePacked(\r\n                    \"data:application/json;base64,\",\r\n                    MyOwnNftLibrary.encode(\r\n                        bytes(\r\n                            string(\r\n                                abi.encodePacked(\r\n                                    '{\"name\": \"MyOwnNFT #',\r\n                                    MyOwnNftLibrary.toString(_tokenId),\r\n                                    '\", \"description\": \"MyOwnNFT is a collection of completely ON-CHAIN NFTs that you can customize on mint.\", \"image\": \"data:image/svg+xml;base64,',\r\n                                    MyOwnNftLibrary.encode(\r\n                                        bytes(tokenIdToSVG(_tokenId))\r\n                                    ),\r\n                                    '\",\"attributes\":',\r\n                                    tokenIdToMetadata(_tokenId),\r\n                                    \"none\",\r\n                                    \"}\"\r\n                                )\r\n                            )\r\n                        )\r\n                    )\r\n                )\r\n            );\r\n    }\r\n\r\n    /**\r\n     * @dev Returns the wallet of a given wallet. Mainly for ease for frontend devs.\r\n     * @param _wallet The wallet to get the tokens of.\r\n     */\r\n    function walletOfOwner(address _wallet)\r\n        public\r\n        view\r\n        returns (uint256[] memory)\r\n    {\r\n        uint256 tokenCount = balanceOf(_wallet);\r\n\r\n        uint256[] memory tokensId = new uint256[](tokenCount);\r\n        for (uint256 i; i < tokenCount; i++) {\r\n            tokensId[i] = tokenOfOwnerByIndex(_wallet, i);\r\n        }\r\n        return tokensId;\r\n    }\r\n\r\n    /*\r\n  ___   __    __  ____     ___  ____       _____  __ __  ____     __ ______  ____  ___   ____   _____\r\n /   \\ |  |__|  ||    \\   /  _]|    \\     |     ||  |  ||    \\   /  ]      ||    |/   \\ |    \\ / ___/\r\n|     ||  |  |  ||  _  | /  [_ |  D  )    |   __||  |  ||  _  | /  /|      | |  ||     ||  _  (   \\_ \r\n|  O  ||  |  |  ||  |  ||    _]|    /     |  |_  |  |  ||  |  |/  / |_|  |_| |  ||  O  ||  |  |\\__  |\r\n|     ||  `  '  ||  |  ||   [_ |    \\     |   _] |  :  ||  |  /   \\_  |  |   |  ||     ||  |  |/  \\ |\r\n|     | \\      / |  |  ||     ||  .  \\    |  |   |     ||  |  \\     | |  |   |  ||     ||  |  |\\    |\r\n \\___/   \\_/\\_/  |__|__||_____||__|\\_|    |__|    \\__,_||__|__|\\____| |__|  |____|\\___/ |__|__| \\___|\r\n\r\n    */\r\n\r\n    /**\r\n     * @dev Add characters data\r\n     * @param char_data Array of characters data to add\r\n     */\r\n\r\n    function addCharacterData(uint8[] memory char_data, uint256 char_position)\r\n        public\r\n        onlyOwner\r\n    {\r\n        for (uint256 i = 0; i <= char_data.length; i++) {\r\n            charactersData[char_position][i] = char_data[i];\r\n        }\r\n\r\n        return;\r\n    }\r\n\r\n    /**\r\n     * @dev Writes a single char to a given position\r\n     * @param _char The character to write\r\n     * @param _x The x pos of the cursor\r\n     * @param _y The y pos of the cursor\r\n     */\r\n    function drawChar(\r\n        uint256 _char,\r\n        uint256 _x,\r\n        uint256 _y\r\n    ) internal view returns (string memory) {\r\n        string memory printedCharString;\r\n\r\n        printedCharString = \"\";\r\n\r\n        if ((_char < 32) || (_char > 126)) {\r\n            return printedCharString;\r\n        }\r\n\r\n        for (uint256 index = 0; index < charactersData[_char].length; index++) {\r\n            printedCharString = string(\r\n                abi.encodePacked(\r\n                    printedCharString,\r\n                    \"<rect class='c01' x='\",\r\n                    Strings.toString(\r\n                        _x + (uint256(charactersData[_char][index] % 8))\r\n                    ),\r\n                    \"' y='\",\r\n                    Strings.toString(\r\n                        _y + (uint256(charactersData[_char][index] / 8))\r\n                    ),\r\n                    \"'/>\"\r\n                )\r\n            );\r\n        }\r\n\r\n        return printedCharString;\r\n    }\r\n\r\n    /**\r\n     * @dev Writes a string starting from the given position\r\n     * @param _string The string to draw\r\n     * @param _x The x pos of the cursor\r\n     * @param _y The y pos of the cursor\r\n     */\r\n    function drawString(\r\n        string memory _string,\r\n        uint256 _x,\r\n        uint256 _y\r\n    ) internal view returns (string memory) {\r\n        string memory printedString;\r\n\r\n        printedString = \"\";\r\n\r\n        bytes memory byteString = bytes(_string);\r\n\r\n        for (uint256 index = 0; index < byteString.length; index++) {\r\n            printedString = string(\r\n                abi.encodePacked(\r\n                    printedString,\r\n                    drawChar(\r\n                        uint256(uint8(byteString[index])),\r\n                        _x + (index * 8),\r\n                        _y\r\n                    )\r\n                )\r\n            );\r\n        }\r\n\r\n        return printedString;\r\n    }\r\n\r\n    function withdraw() public payable onlyOwner {\r\n        require(payable(msg.sender).send(address(this).balance));\r\n    }\r\n\r\n    /**\r\n     * @dev Transfers ownership\r\n     * @param _newOwner The new owner\r\n     */\r\n    function transferOwnership(address _newOwner) public onlyOwner {\r\n        _owner = _newOwner;\r\n    }\r\n\r\n    /**\r\n     * @dev Modifier to only allow owner to call functions\r\n     */\r\n    modifier onlyOwner() {\r\n        require(_owner == msg.sender);\r\n        _;\r\n    }\r\n}\r\n",
  "sourcePath": "C:\\Users\\fabio\\Desktop\\myOwnNFT\\truffle_test\\contracts\\MyOwnNft.sol",
  "compiler": {
    "name": "solc",
    "version": "0.8.3+commit.8d00100c.Emscripten.clang"
  },
  "schemaVersion": "3.4.3",
  "updatedAt": "2021-11-20T20:45:55.929Z",
  "networkType": "ethereum",
  "devdoc": {
    "kind": "dev",
    "methods": {
      "addCharacterData(uint8[],uint256)": {
        "details": "Add characters data",
        "params": {
          "char_data": "Array of characters data to add"
        }
      },
      "approve(address,uint256)": {
        "details": "See {IERC721-approve}."
      },
      "balanceOf(address)": {
        "details": "See {IERC721-balanceOf}."
      },
      "getApproved(uint256)": {
        "details": "See {IERC721-getApproved}."
      },
      "isApprovedForAll(address,address)": {
        "details": "See {IERC721-isApprovedForAll}."
      },
      "mintNft(string)": {
        "details": "Mints new tokens."
      },
      "name()": {
        "details": "See {IERC721Metadata-name}."
      },
      "ownerOf(uint256)": {
        "details": "See {IERC721-ownerOf}."
      },
      "safeTransferFrom(address,address,uint256)": {
        "details": "See {IERC721-safeTransferFrom}."
      },
      "safeTransferFrom(address,address,uint256,bytes)": {
        "details": "See {IERC721-safeTransferFrom}."
      },
      "setApprovalForAll(address,bool)": {
        "details": "See {IERC721-setApprovalForAll}."
      },
      "supportsInterface(bytes4)": {
        "details": "See {IERC165-supportsInterface}."
      },
      "symbol()": {
        "details": "See {IERC721Metadata-symbol}."
      },
      "tokenByIndex(uint256)": {
        "details": "See {IERC721Enumerable-tokenByIndex}."
      },
      "tokenIdToMetadata(uint256)": {
        "details": "Token ID to metadata function"
      },
      "tokenIdToSVG(uint256)": {
        "details": "Token ID to SVG function"
      },
      "tokenOfOwnerByIndex(address,uint256)": {
        "details": "See {IERC721Enumerable-tokenOfOwnerByIndex}."
      },
      "tokenURI(uint256)": {
        "details": "Returns the SVG and metadata for a token Id",
        "params": {
          "_tokenId": "The tokenId to return the SVG and metadata for."
        }
      },
      "totalSupply()": {
        "details": "See {IERC721Enumerable-totalSupply}."
      },
      "transferFrom(address,address,uint256)": {
        "details": "See {IERC721-transferFrom}."
      },
      "transferOwnership(address)": {
        "details": "Transfers ownership",
        "params": {
          "_newOwner": "The new owner"
        }
      },
      "walletOfOwner(address)": {
        "details": "Returns the wallet of a given wallet. Mainly for ease for frontend devs.",
        "params": {
          "_wallet": "The wallet to get the tokens of."
        }
      }
    },
    "version": 1
  },
  "userdoc": {
    "kind": "user",
    "methods": {},
    "version": 1
  }
}