{
  "contractName": "MyOwnNft",
  "abi": [
    {
      "inputs": [],
      "stateMutability": "nonpayable",
      "type": "constructor"
    },
    {
      "anonymous": false,
      "inputs": [
        {
          "indexed": true,
          "internalType": "address",
          "name": "owner",
          "type": "address"
        },
        {
          "indexed": true,
          "internalType": "address",
          "name": "approved",
          "type": "address"
        },
        {
          "indexed": true,
          "internalType": "uint256",
          "name": "tokenId",
          "type": "uint256"
        }
      ],
      "name": "Approval",
      "type": "event"
    },
    {
      "anonymous": false,
      "inputs": [
        {
          "indexed": true,
          "internalType": "address",
          "name": "owner",
          "type": "address"
        },
        {
          "indexed": true,
          "internalType": "address",
          "name": "operator",
          "type": "address"
        },
        {
          "indexed": false,
          "internalType": "bool",
          "name": "approved",
          "type": "bool"
        }
      ],
      "name": "ApprovalForAll",
      "type": "event"
    },
    {
      "anonymous": false,
      "inputs": [
        {
          "indexed": true,
          "internalType": "address",
          "name": "from",
          "type": "address"
        },
        {
          "indexed": true,
          "internalType": "address",
          "name": "to",
          "type": "address"
        },
        {
          "indexed": true,
          "internalType": "uint256",
          "name": "tokenId",
          "type": "uint256"
        }
      ],
      "name": "Transfer",
      "type": "event"
    },
    {
      "inputs": [
        {
          "internalType": "address",
          "name": "to",
          "type": "address"
        },
        {
          "internalType": "uint256",
          "name": "tokenId",
          "type": "uint256"
        }
      ],
      "name": "approve",
      "outputs": [],
      "stateMutability": "nonpayable",
      "type": "function"
    },
    {
      "inputs": [
        {
          "internalType": "address",
          "name": "owner",
          "type": "address"
        }
      ],
      "name": "balanceOf",
      "outputs": [
        {
          "internalType": "uint256",
          "name": "",
          "type": "uint256"
        }
      ],
      "stateMutability": "view",
      "type": "function",
      "constant": true
    },
    {
      "inputs": [
        {
          "internalType": "uint256",
          "name": "",
          "type": "uint256"
        }
      ],
      "name": "charactersData",
      "outputs": [
        {
          "internalType": "uint256",
          "name": "pixelCount",
          "type": "uint256"
        }
      ],
      "stateMutability": "view",
      "type": "function",
      "constant": true
    },
    {
      "inputs": [
        {
          "internalType": "uint256",
          "name": "",
          "type": "uint256"
        }
      ],
      "name": "customNftsContent",
      "outputs": [
        {
          "internalType": "uint256",
          "name": "amount_paid",
          "type": "uint256"
        },
        {
          "internalType": "string",
          "name": "text_content",
          "type": "string"
        }
      ],
      "stateMutability": "view",
      "type": "function",
      "constant": true
    },
    {
      "inputs": [
        {
          "internalType": "uint256",
          "name": "tokenId",
          "type": "uint256"
        }
      ],
      "name": "getApproved",
      "outputs": [
        {
          "internalType": "address",
          "name": "",
          "type": "address"
        }
      ],
      "stateMutability": "view",
      "type": "function",
      "constant": true
    },
    {
      "inputs": [
        {
          "internalType": "address",
          "name": "owner",
          "type": "address"
        },
        {
          "internalType": "address",
          "name": "operator",
          "type": "address"
        }
      ],
      "name": "isApprovedForAll",
      "outputs": [
        {
          "internalType": "bool",
          "name": "",
          "type": "bool"
        }
      ],
      "stateMutability": "view",
      "type": "function",
      "constant": true
    },
    {
      "inputs": [],
      "name": "name",
      "outputs": [
        {
          "internalType": "string",
          "name": "",
          "type": "string"
        }
      ],
      "stateMutability": "view",
      "type": "function",
      "constant": true
    },
    {
      "inputs": [
        {
          "internalType": "uint256",
          "name": "tokenId",
          "type": "uint256"
        }
      ],
      "name": "ownerOf",
      "outputs": [
        {
          "internalType": "address",
          "name": "",
          "type": "address"
        }
      ],
      "stateMutability": "view",
      "type": "function",
      "constant": true
    },
    {
      "inputs": [
        {
          "internalType": "address",
          "name": "from",
          "type": "address"
        },
        {
          "internalType": "address",
          "name": "to",
          "type": "address"
        },
        {
          "internalType": "uint256",
          "name": "tokenId",
          "type": "uint256"
        }
      ],
      "name": "safeTransferFrom",
      "outputs": [],
      "stateMutability": "nonpayable",
      "type": "function"
    },
    {
      "inputs": [
        {
          "internalType": "address",
          "name": "from",
          "type": "address"
        },
        {
          "internalType": "address",
          "name": "to",
          "type": "address"
        },
        {
          "internalType": "uint256",
          "name": "tokenId",
          "type": "uint256"
        },
        {
          "internalType": "bytes",
          "name": "_data",
          "type": "bytes"
        }
      ],
      "name": "safeTransferFrom",
      "outputs": [],
      "stateMutability": "nonpayable",
      "type": "function"
    },
    {
      "inputs": [
        {
          "internalType": "address",
          "name": "operator",
          "type": "address"
        },
        {
          "internalType": "bool",
          "name": "approved",
          "type": "bool"
        }
      ],
      "name": "setApprovalForAll",
      "outputs": [],
      "stateMutability": "nonpayable",
      "type": "function"
    },
    {
      "inputs": [
        {
          "internalType": "bytes4",
          "name": "interfaceId",
          "type": "bytes4"
        }
      ],
      "name": "supportsInterface",
      "outputs": [
        {
          "internalType": "bool",
          "name": "",
          "type": "bool"
        }
      ],
      "stateMutability": "view",
      "type": "function",
      "constant": true
    },
    {
      "inputs": [],
      "name": "symbol",
      "outputs": [
        {
          "internalType": "string",
          "name": "",
          "type": "string"
        }
      ],
      "stateMutability": "view",
      "type": "function",
      "constant": true
    },
    {
      "inputs": [
        {
          "internalType": "uint256",
          "name": "index",
          "type": "uint256"
        }
      ],
      "name": "tokenByIndex",
      "outputs": [
        {
          "internalType": "uint256",
          "name": "",
          "type": "uint256"
        }
      ],
      "stateMutability": "view",
      "type": "function",
      "constant": true
    },
    {
      "inputs": [
        {
          "internalType": "address",
          "name": "owner",
          "type": "address"
        },
        {
          "internalType": "uint256",
          "name": "index",
          "type": "uint256"
        }
      ],
      "name": "tokenOfOwnerByIndex",
      "outputs": [
        {
          "internalType": "uint256",
          "name": "",
          "type": "uint256"
        }
      ],
      "stateMutability": "view",
      "type": "function",
      "constant": true
    },
    {
      "inputs": [],
      "name": "totalSupply",
      "outputs": [
        {
          "internalType": "uint256",
          "name": "",
          "type": "uint256"
        }
      ],
      "stateMutability": "view",
      "type": "function",
      "constant": true
    },
    {
      "inputs": [
        {
          "internalType": "address",
          "name": "from",
          "type": "address"
        },
        {
          "internalType": "address",
          "name": "to",
          "type": "address"
        },
        {
          "internalType": "uint256",
          "name": "tokenId",
          "type": "uint256"
        }
      ],
      "name": "transferFrom",
      "outputs": [],
      "stateMutability": "nonpayable",
      "type": "function"
    },
    {
      "inputs": [
        {
          "internalType": "string",
          "name": "text_content",
          "type": "string"
        }
      ],
      "name": "mintNft",
      "outputs": [],
      "stateMutability": "payable",
      "type": "function",
      "payable": true
    },
    {
      "inputs": [
        {
          "internalType": "uint256",
          "name": "token_id",
          "type": "uint256"
        }
      ],
      "name": "tokenIdToSVG",
      "outputs": [
        {
          "internalType": "string",
          "name": "",
          "type": "string"
        }
      ],
      "stateMutability": "view",
      "type": "function",
      "constant": true
    },
    {
      "inputs": [
        {
          "internalType": "uint256",
          "name": "token_id",
          "type": "uint256"
        }
      ],
      "name": "tokenIdToMetadata",
      "outputs": [
        {
          "internalType": "string",
          "name": "",
          "type": "string"
        }
      ],
      "stateMutability": "view",
      "type": "function",
      "constant": true
    },
    {
      "inputs": [
        {
          "internalType": "uint256",
          "name": "_tokenId",
          "type": "uint256"
        }
      ],
      "name": "tokenURI",
      "outputs": [
        {
          "internalType": "string",
          "name": "",
          "type": "string"
        }
      ],
      "stateMutability": "view",
      "type": "function",
      "constant": true
    },
    {
      "inputs": [
        {
          "internalType": "address",
          "name": "_wallet",
          "type": "address"
        }
      ],
      "name": "walletOfOwner",
      "outputs": [
        {
          "internalType": "uint256[]",
          "name": "",
          "type": "uint256[]"
        }
      ],
      "stateMutability": "view",
      "type": "function",
      "constant": true
    },
    {
      "inputs": [
        {
          "components": [
            {
              "internalType": "uint256",
              "name": "pixelCount",
              "type": "uint256"
            },
            {
              "internalType": "uint8[]",
              "name": "pixelsData",
              "type": "uint8[]"
            }
          ],
          "internalType": "struct MyOwnNft.CharacterData[]",
          "name": "_charactersData",
          "type": "tuple[]"
        },
        {
          "internalType": "uint256",
          "name": "starting_position",
          "type": "uint256"
        }
      ],
      "name": "addCharacterData",
      "outputs": [],
      "stateMutability": "nonpayable",
      "type": "function"
    },
    {
      "inputs": [
        {
          "internalType": "address",
          "name": "_newOwner",
          "type": "address"
        }
      ],
      "name": "transferOwnership",
      "outputs": [],
      "stateMutability": "nonpayable",
      "type": "function"
    }
  ],
  "bytecode": "0x6080604052620186a0600c556005600d55670de0b6b3a7640000600e556078600f553480156200002e57600080fd5b506040518060400160405280600881526020017f4d794f776e4e66740000000000000000000000000000000000000000000000008152506040518060400160405280600381526020017f4d4f4e00000000000000000000000000000000000000000000000000000000008152508160009080519060200190620000b392919062000116565b508060019080519060200190620000cc92919062000116565b50505033601060006101000a81548173ffffffffffffffffffffffffffffffffffffffff021916908373ffffffffffffffffffffffffffffffffffffffff1602179055506200022b565b8280546200012490620001c6565b90600052602060002090601f01602090048101928262000148576000855562000194565b82601f106200016357805160ff191683800117855562000194565b8280016001018555821562000194579182015b828111156200019357825182559160200191906001019062000176565b5b509050620001a39190620001a7565b5090565b5b80821115620001c2576000816000905550600101620001a8565b5090565b60006002820490506001821680620001df57607f821691505b60208210811415620001f657620001f5620001fc565b5b50919050565b7f4e487b7100000000000000000000000000000000000000000000000000000000600052602260045260246000fd5b614d34806200023b6000396000f3fe60806040526004361061014b5760003560e01c806370a08231116100b6578063c11feac11161006f578063c11feac114610501578063c52453171461053e578063c87b56dd14610567578063da86f4a9146105a4578063e985e9c5146105c0578063f2fde38b146105fd5761014b565b806370a08231146103cd5780638c7f94261461040a57806395d89b4114610447578063a22cb46514610472578063b88d4fde1461049b578063bf64db1d146104c45761014b565b806323b872dd1161010857806323b872dd146102875780632f745c59146102b057806342842e0e146102ed578063438b6300146103165780634f6ccce7146103535780636352211e146103905761014b565b806301ffc9a7146101505780630561a9f11461018d57806306fdde03146101cb578063081812fc146101f6578063095ea7b31461023357806318160ddd1461025c575b600080fd5b34801561015c57600080fd5b50610177600480360381019061017291906131ed565b610626565b6040516101849190613bac565b60405180910390f35b34801561019957600080fd5b506101b460048036038101906101af9190613280565b6106a0565b6040516101c2929190613de4565b60405180910390f35b3480156101d757600080fd5b506101e061074c565b6040516101ed9190613bc7565b60405180910390f35b34801561020257600080fd5b5061021d60048036038101906102189190613280565b6107de565b60405161022a9190613b23565b60405180910390f35b34801561023f57600080fd5b5061025a6004803603810190610255919061315d565b610863565b005b34801561026857600080fd5b5061027161097b565b60405161027e9190613dc9565b60405180910390f35b34801561029357600080fd5b506102ae60048036038101906102a99190613057565b610988565b005b3480156102bc57600080fd5b506102d760048036038101906102d2919061315d565b6109e8565b6040516102e49190613dc9565b60405180910390f35b3480156102f957600080fd5b50610314600480360381019061030f9190613057565b610a8d565b005b34801561032257600080fd5b5061033d60048036038101906103389190612ff2565b610aad565b60405161034a9190613b8a565b60405180910390f35b34801561035f57600080fd5b5061037a60048036038101906103759190613280565b610ba7565b6040516103879190613dc9565b60405180910390f35b34801561039c57600080fd5b506103b760048036038101906103b29190613280565b610c3e565b6040516103c49190613b23565b60405180910390f35b3480156103d957600080fd5b506103f460048036038101906103ef9190612ff2565b610cf0565b6040516104019190613dc9565b60405180910390f35b34801561041657600080fd5b50610431600480360381019061042c9190613280565b610da8565b60405161043e9190613dc9565b60405180910390f35b34801561045357600080fd5b5061045c610dc6565b6040516104699190613bc7565b60405180910390f35b34801561047e57600080fd5b5061049960048036038101906104949190613121565b610e58565b005b3480156104a757600080fd5b506104c260048036038101906104bd91906130a6565b610fd9565b005b3480156104d057600080fd5b506104eb60048036038101906104e69190613280565b61103b565b6040516104f89190613bc7565b60405180910390f35b34801561050d57600080fd5b5061052860048036038101906105239190613280565b6110d9565b6040516105359190613bc7565b60405180910390f35b34801561054a57600080fd5b5061056560048036038101906105609190613199565b611259565b005b34801561057357600080fd5b5061058e60048036038101906105899190613280565b6113b4565b60405161059b9190613bc7565b60405180910390f35b6105be60048036038101906105b9919061323f565b61143a565b005b3480156105cc57600080fd5b506105e760048036038101906105e2919061301b565b611494565b6040516105f49190613bac565b60405180910390f35b34801561060957600080fd5b50610624600480360381019061061f9190612ff2565b611528565b005b60007f780e9d63000000000000000000000000000000000000000000000000000000007bffffffffffffffffffffffffffffffffffffffffffffffffffffffff1916827bffffffffffffffffffffffffffffffffffffffffffffffffffffffff191614806106995750610698826115c6565b5b9050919050565b600a6020528060005260406000206000915090508060000154908060010180546106c99061418d565b80601f01602080910402602001604051908101604052809291908181526020018280546106f59061418d565b80156107425780601f1061071757610100808354040283529160200191610742565b820191906000526020600020905b81548152906001019060200180831161072557829003601f168201915b5050505050905082565b60606000805461075b9061418d565b80601f01602080910402602001604051908101604052809291908181526020018280546107879061418d565b80156107d45780601f106107a9576101008083540402835291602001916107d4565b820191906000526020600020905b8154815290600101906020018083116107b757829003601f168201915b5050505050905090565b60006107e9826116a8565b610828576040517f08c379a000000000000000000000000000000000000000000000000000000000815260040161081f90613d29565b60405180910390fd5b6004600083815260200190815260200160002060009054906101000a900473ffffffffffffffffffffffffffffffffffffffff169050919050565b600061086e82610c3e565b90508073ffffffffffffffffffffffffffffffffffffffff168373ffffffffffffffffffffffffffffffffffffffff1614156108df576040517f08c379a00000000000000000000000000000000000000000000000000000000081526004016108d690613d69565b60405180910390fd5b8073ffffffffffffffffffffffffffffffffffffffff166108fe611714565b73ffffffffffffffffffffffffffffffffffffffff16148061092d575061092c81610927611714565b611494565b5b61096c576040517f08c379a000000000000000000000000000000000000000000000000000000000815260040161096390613ca9565b60405180910390fd5b610976838361171c565b505050565b6000600880549050905090565b610999610993611714565b826117d5565b6109d8576040517f08c379a00000000000000000000000000000000000000000000000000000000081526004016109cf90613d89565b60405180910390fd5b6109e38383836118b3565b505050565b60006109f383610cf0565b8210610a34576040517f08c379a0000000000000000000000000000000000000000000000000000000008152600401610a2b90613be9565b60405180910390fd5b600660008473ffffffffffffffffffffffffffffffffffffffff1673ffffffffffffffffffffffffffffffffffffffff168152602001908152602001600020600083815260200190815260200160002054905092915050565b610aa883838360405180602001604052806000815250610fd9565b505050565b60606000610aba83610cf0565b905060008167ffffffffffffffff811115610afe577f4e487b7100000000000000000000000000000000000000000000000000000000600052604160045260246000fd5b604051908082528060200260200182016040528015610b2c5781602001602082028036833780820191505090505b50905060005b82811015610b9c57610b4485826109e8565b828281518110610b7d577f4e487b7100000000000000000000000000000000000000000000000000000000600052603260045260246000fd5b6020026020010181815250508080610b94906141f0565b915050610b32565b508092505050919050565b6000610bb161097b565b8210610bf2576040517f08c379a0000000000000000000000000000000000000000000000000000000008152600401610be990613da9565b60405180910390fd5b60088281548110610c2c577f4e487b7100000000000000000000000000000000000000000000000000000000600052603260045260246000fd5b90600052602060002001549050919050565b6000806002600084815260200190815260200160002060009054906101000a900473ffffffffffffffffffffffffffffffffffffffff169050600073ffffffffffffffffffffffffffffffffffffffff168173ffffffffffffffffffffffffffffffffffffffff161415610ce7576040517f08c379a0000000000000000000000000000000000000000000000000000000008152600401610cde90613ce9565b60405180910390fd5b80915050919050565b60008073ffffffffffffffffffffffffffffffffffffffff168273ffffffffffffffffffffffffffffffffffffffff161415610d61576040517f08c379a0000000000000000000000000000000000000000000000000000000008152600401610d5890613cc9565b60405180910390fd5b600360008373ffffffffffffffffffffffffffffffffffffffff1673ffffffffffffffffffffffffffffffffffffffff168152602001908152602001600020549050919050565b600b6020528060005260406000206000915090508060000154905081565b606060018054610dd59061418d565b80601f0160208091040260200160405190810160405280929190818152602001828054610e019061418d565b8015610e4e5780601f10610e2357610100808354040283529160200191610e4e565b820191906000526020600020905b815481529060010190602001808311610e3157829003601f168201915b5050505050905090565b610e60611714565b73ffffffffffffffffffffffffffffffffffffffff168273ffffffffffffffffffffffffffffffffffffffff161415610ece576040517f08c379a0000000000000000000000000000000000000000000000000000000008152600401610ec590613c69565b60405180910390fd5b8060056000610edb611714565b73ffffffffffffffffffffffffffffffffffffffff1673ffffffffffffffffffffffffffffffffffffffff16815260200190815260200160002060008473ffffffffffffffffffffffffffffffffffffffff1673ffffffffffffffffffffffffffffffffffffffff16815260200190815260200160002060006101000a81548160ff0219169083151502179055508173ffffffffffffffffffffffffffffffffffffffff16610f88611714565b73ffffffffffffffffffffffffffffffffffffffff167f17307eab39ab6107e8899845ad3d59bd9653f200f220920489ca2b5937696c3183604051610fcd9190613bac565b60405180910390a35050565b610fea610fe4611714565b836117d5565b611029576040517f08c379a000000000000000000000000000000000000000000000000000000000815260040161102090613d89565b60405180910390fd5b61103584848484611b0f565b50505050565b60608080600a60008581526020019081526020016000206001016040516020016110669291906139b3565b604051602081830303815290604052905080600a6000858152602001908152602001600020600001546040516020016110a092919061396a565b6040516020818303038152906040529050806040516020016110c29190613ad4565b604051602081830303815290604052915050919050565b6060806060600080600a9150600a90506040518060400160405280600d81526020017f54686973206973204e465420230000000000000000000000000000000000000081525092508261112b87611b6b565b60405160200161113c929190613917565b604051602081830303815290604052925083611159848484611d18565b60405160200161116a929190613917565b6040516020818303038152906040529350600a9150601490506040518060400160405280600b81526020017f4d696e74656420666f72200000000000000000000000000000000000000000008152509250826111db600a600089815260200190815260200160002060000154611b6b565b6040516020016111ec92919061393b565b604051602081830303815290604052925083611209848484611d18565b60405160200161121a929190613917565b60405160208183030381529060405293508360405160200161123c9190613aa7565b604051602081830303815290604052935083945050505050919050565b3373ffffffffffffffffffffffffffffffffffffffff16601060009054906101000a900473ffffffffffffffffffffffffffffffffffffffff1673ffffffffffffffffffffffffffffffffffffffff16146112b357600080fd5b815181106112c057600080fd5b60008190505b825181116113af57828181518110611307577f4e487b7100000000000000000000000000000000000000000000000000000000600052603260045260246000fd5b602002602001015160000151600b600083815260200190815260200160002060000181905550828181518110611366577f4e487b7100000000000000000000000000000000000000000000000000000000600052603260045260246000fd5b602002602001015160200151600b6000838152602001908152602001600020600101908051906020019061139b929190612bd9565b5080806113a7906141f0565b9150506112c6565b505050565b60606113bf826116a8565b6113c857600080fd5b6114146113d483611dec565b6113e56113e0856110d9565b611f99565b6113ee8561103b565b60405160200161140093929190613a3f565b604051602081830303815290604052611f99565b6040516020016114249190613b01565b6040516020818303038152906040529050919050565b600061144461097b565b9050600f5482511061145557600080fd5b600e5434101561146457600080fd5b600c54811061147257600080fd5b61147b33612144565b1561148557600080fd5b611490823483612157565b5050565b6000600560008473ffffffffffffffffffffffffffffffffffffffff1673ffffffffffffffffffffffffffffffffffffffff16815260200190815260200160002060008373ffffffffffffffffffffffffffffffffffffffff1673ffffffffffffffffffffffffffffffffffffffff16815260200190815260200160002060009054906101000a900460ff16905092915050565b3373ffffffffffffffffffffffffffffffffffffffff16601060009054906101000a900473ffffffffffffffffffffffffffffffffffffffff1673ffffffffffffffffffffffffffffffffffffffff161461158257600080fd5b80601060006101000a81548173ffffffffffffffffffffffffffffffffffffffff021916908373ffffffffffffffffffffffffffffffffffffffff16021790555050565b60007f80ac58cd000000000000000000000000000000000000000000000000000000007bffffffffffffffffffffffffffffffffffffffffffffffffffffffff1916827bffffffffffffffffffffffffffffffffffffffffffffffffffffffff1916148061169157507f5b5e139f000000000000000000000000000000000000000000000000000000007bffffffffffffffffffffffffffffffffffffffffffffffffffffffff1916827bffffffffffffffffffffffffffffffffffffffffffffffffffffffff1916145b806116a157506116a0826121ac565b5b9050919050565b60008073ffffffffffffffffffffffffffffffffffffffff166002600084815260200190815260200160002060009054906101000a900473ffffffffffffffffffffffffffffffffffffffff1673ffffffffffffffffffffffffffffffffffffffff1614159050919050565b600033905090565b816004600083815260200190815260200160002060006101000a81548173ffffffffffffffffffffffffffffffffffffffff021916908373ffffffffffffffffffffffffffffffffffffffff160217905550808273ffffffffffffffffffffffffffffffffffffffff1661178f83610c3e565b73ffffffffffffffffffffffffffffffffffffffff167f8c5be1e5ebec7d5bd14f71427d1e84f3dd0314c0f7b2291e5b200ac8c7c3b92560405160405180910390a45050565b60006117e0826116a8565b61181f576040517f08c379a000000000000000000000000000000000000000000000000000000000815260040161181690613c89565b60405180910390fd5b600061182a83610c3e565b90508073ffffffffffffffffffffffffffffffffffffffff168473ffffffffffffffffffffffffffffffffffffffff16148061189957508373ffffffffffffffffffffffffffffffffffffffff16611881846107de565b73ffffffffffffffffffffffffffffffffffffffff16145b806118aa57506118a98185611494565b5b91505092915050565b8273ffffffffffffffffffffffffffffffffffffffff166118d382610c3e565b73ffffffffffffffffffffffffffffffffffffffff1614611929576040517f08c379a000000000000000000000000000000000000000000000000000000000815260040161192090613d49565b60405180910390fd5b600073ffffffffffffffffffffffffffffffffffffffff168273ffffffffffffffffffffffffffffffffffffffff161415611999576040517f08c379a000000000000000000000000000000000000000000000000000000000815260040161199090613c49565b60405180910390fd5b6119a4838383612216565b6119af60008261171c565b6001600360008573ffffffffffffffffffffffffffffffffffffffff1673ffffffffffffffffffffffffffffffffffffffff16815260200190815260200160002060008282546119ff9190614096565b925050819055506001600360008473ffffffffffffffffffffffffffffffffffffffff1673ffffffffffffffffffffffffffffffffffffffff1681526020019081526020016000206000828254611a569190613f84565b92505081905550816002600083815260200190815260200160002060006101000a81548173ffffffffffffffffffffffffffffffffffffffff021916908373ffffffffffffffffffffffffffffffffffffffff160217905550808273ffffffffffffffffffffffffffffffffffffffff168473ffffffffffffffffffffffffffffffffffffffff167fddf252ad1be2c89b69c2b068fc378daa952ba7f163c4a11628f55a4df523b3ef60405160405180910390a4505050565b611b1a8484846118b3565b611b268484848461232a565b611b65576040517f08c379a0000000000000000000000000000000000000000000000000000000008152600401611b5c90613c09565b60405180910390fd5b50505050565b60606000821415611bb3576040518060400160405280600181526020017f30000000000000000000000000000000000000000000000000000000000000008152509050611d13565b600082905060005b60008214611be5578080611bce906141f0565b915050600a82611bde9190613fda565b9150611bbb565b60008167ffffffffffffffff811115611c27577f4e487b7100000000000000000000000000000000000000000000000000000000600052604160045260246000fd5b6040519080825280601f01601f191660200182016040528015611c595781602001600182028036833780820191505090505b5090505b60008514611d0c57600182611c729190614096565b9150600a85611c819190614243565b6030611c8d9190613f84565b60f81b818381518110611cc9577f4e487b7100000000000000000000000000000000000000000000000000000000600052603260045260246000fd5b60200101907effffffffffffffffffffffffffffffffffffffffffffffffffffffffffffff1916908160001a905350600a85611d059190613fda565b9450611c5d565b8093505050505b919050565b606080604051806020016040528060008152509050600085905060005b8151811015611ddf5782611daa838381518110611d7b577f4e487b7100000000000000000000000000000000000000000000000000000000600052603260045260246000fd5b602001015160f81c60f81b60f81c60ff16600884611d99919061403c565b89611da49190613f84565b886124c1565b604051602001611dbb929190613917565b60405160208183030381529060405292508080611dd7906141f0565b915050611d35565b5081925050509392505050565b60606000821415611e34576040518060400160405280600181526020017f30000000000000000000000000000000000000000000000000000000000000008152509050611f94565b600082905060005b60008214611e66578080611e4f906141f0565b915050600a82611e5f9190613fda565b9150611e3c565b60008167ffffffffffffffff811115611ea8577f4e487b7100000000000000000000000000000000000000000000000000000000600052604160045260246000fd5b6040519080825280601f01601f191660200182016040528015611eda5781602001600182028036833780820191505090505b5090505b60008514611f8d57600182611ef39190614096565b9150600a85611f029190614243565b6030611f0e9190613f84565b60f81b818381518110611f4a577f4e487b7100000000000000000000000000000000000000000000000000000000600052603260045260246000fd5b60200101907effffffffffffffffffffffffffffffffffffffffffffffffffffffffffffff1916908160001a905350600a85611f869190613fda565b9450611ede565b8093505050505b919050565b6060600082511415611fbc5760405180602001604052806000815250905061213f565b6000604051806060016040528060408152602001614cbf6040913990506000600360028551611feb9190613f84565b611ff59190613fda565b6004612001919061403c565b905060006020826120129190613f84565b67ffffffffffffffff811115612051577f4e487b7100000000000000000000000000000000000000000000000000000000600052604160045260246000fd5b6040519080825280601f01601f1916602001820160405280156120835781602001600182028036833780820191505090505b509050818152600183018586518101602084015b818310156120fe576003830192508251603f8160121c1685015160f81b8252600182019150603f81600c1c1685015160f81b8252600182019150603f8160061c1685015160f81b8252600182019150603f811685015160f81b825260018201915050612097565b600389510660018114612118576002811461212857612133565b613d3d60f01b6002830352612133565b603d60f81b60018303525b50505050508093505050505b919050565b600080823b905060008111915050919050565b81600a60008381526020019081526020016000206000018190555082600a6000838152602001908152602001600020600101908051906020019061219c929190612c80565b506121a7338261267b565b505050565b60007f01ffc9a7000000000000000000000000000000000000000000000000000000007bffffffffffffffffffffffffffffffffffffffffffffffffffffffff1916827bffffffffffffffffffffffffffffffffffffffffffffffffffffffff1916149050919050565b612221838383612849565b600073ffffffffffffffffffffffffffffffffffffffff168373ffffffffffffffffffffffffffffffffffffffff1614156122645761225f8161284e565b6122a3565b8173ffffffffffffffffffffffffffffffffffffffff168373ffffffffffffffffffffffffffffffffffffffff16146122a2576122a18382612897565b5b5b600073ffffffffffffffffffffffffffffffffffffffff168273ffffffffffffffffffffffffffffffffffffffff1614156122e6576122e181612a04565b612325565b8273ffffffffffffffffffffffffffffffffffffffff168273ffffffffffffffffffffffffffffffffffffffff1614612324576123238282612b47565b5b5b505050565b600061234b8473ffffffffffffffffffffffffffffffffffffffff16612bc6565b156124b4578373ffffffffffffffffffffffffffffffffffffffff1663150b7a02612374611714565b8786866040518563ffffffff1660e01b81526004016123969493929190613b3e565b602060405180830381600087803b1580156123b057600080fd5b505af19250505080156123e157506040513d601f19601f820116820180604052508101906123de9190613216565b60015b612464573d8060008114612411576040519150601f19603f3d011682016040523d82523d6000602084013e612416565b606091505b5060008151141561245c576040517f08c379a000000000000000000000000000000000000000000000000000000000815260040161245390613c09565b60405180910390fd5b805181602001fd5b63150b7a0260e01b7bffffffffffffffffffffffffffffffffffffffffffffffffffffffff1916817bffffffffffffffffffffffffffffffffffffffffffffffffffffffff1916149150506124b9565b600190505b949350505050565b60608060405180602001604052806000815250905060208510806124e55750607e85115b156124f35780915050612674565b60005b600b60008781526020019081526020016000206001018054905081101561266e57816125a86008600b60008a8152602001908152602001600020600101848154811061256b577f4e487b7100000000000000000000000000000000000000000000000000000000600052603260045260246000fd5b90600052602060002090602091828204019190069054906101000a900460ff166125959190614274565b60ff16876125a39190613f84565b611b6b565b6126386008600b60008b815260200190815260200160002060010185815481106125fb577f4e487b7100000000000000000000000000000000000000000000000000000000600052603260045260246000fd5b90600052602060002090602091828204019190069054906101000a900460ff16612625919061400b565b60ff16876126339190613f84565b611b6b565b60405160200161264a939291906139ed565b60405160208183030381529060405291508080612666906141f0565b9150506124f6565b50809150505b9392505050565b600073ffffffffffffffffffffffffffffffffffffffff168273ffffffffffffffffffffffffffffffffffffffff1614156126eb576040517f08c379a00000000000000000000000000000000000000000000000000000000081526004016126e290613d09565b60405180910390fd5b6126f4816116a8565b15612734576040517f08c379a000000000000000000000000000000000000000000000000000000000815260040161272b90613c29565b60405180910390fd5b61274060008383612216565b6001600360008473ffffffffffffffffffffffffffffffffffffffff1673ffffffffffffffffffffffffffffffffffffffff16815260200190815260200160002060008282546127909190613f84565b92505081905550816002600083815260200190815260200160002060006101000a81548173ffffffffffffffffffffffffffffffffffffffff021916908373ffffffffffffffffffffffffffffffffffffffff160217905550808273ffffffffffffffffffffffffffffffffffffffff16600073ffffffffffffffffffffffffffffffffffffffff167fddf252ad1be2c89b69c2b068fc378daa952ba7f163c4a11628f55a4df523b3ef60405160405180910390a45050565b505050565b6008805490506009600083815260200190815260200160002081905550600881908060018154018082558091505060019003906000526020600020016000909190919091505550565b600060016128a484610cf0565b6128ae9190614096565b9050600060076000848152602001908152602001600020549050818114612993576000600660008673ffffffffffffffffffffffffffffffffffffffff1673ffffffffffffffffffffffffffffffffffffffff168152602001908152602001600020600084815260200190815260200160002054905080600660008773ffffffffffffffffffffffffffffffffffffffff1673ffffffffffffffffffffffffffffffffffffffff168152602001908152602001600020600084815260200190815260200160002081905550816007600083815260200190815260200160002081905550505b6007600084815260200190815260200160002060009055600660008573ffffffffffffffffffffffffffffffffffffffff1673ffffffffffffffffffffffffffffffffffffffff16815260200190815260200160002060008381526020019081526020016000206000905550505050565b60006001600880549050612a189190614096565b9050600060096000848152602001908152602001600020549050600060088381548110612a6e577f4e487b7100000000000000000000000000000000000000000000000000000000600052603260045260246000fd5b906000526020600020015490508060088381548110612ab6577f4e487b7100000000000000000000000000000000000000000000000000000000600052603260045260246000fd5b906000526020600020018190555081600960008381526020019081526020016000208190555060096000858152602001908152602001600020600090556008805480612b2b577f4e487b7100000000000000000000000000000000000000000000000000000000600052603160045260246000fd5b6001900381819060005260206000200160009055905550505050565b6000612b5283610cf0565b905081600660008573ffffffffffffffffffffffffffffffffffffffff1673ffffffffffffffffffffffffffffffffffffffff168152602001908152602001600020600083815260200190815260200160002081905550806007600084815260200190815260200160002081905550505050565b600080823b905060008111915050919050565b82805482825590600052602060002090601f01602090048101928215612c6f5791602002820160005b83821115612c4057835183826101000a81548160ff021916908360ff1602179055509260200192600101602081600001049283019260010302612c02565b8015612c6d5782816101000a81549060ff0219169055600101602081600001049283019260010302612c40565b505b509050612c7c9190612d06565b5090565b828054612c8c9061418d565b90600052602060002090601f016020900481019282612cae5760008555612cf5565b82601f10612cc757805160ff1916838001178555612cf5565b82800160010185558215612cf5579182015b82811115612cf4578251825591602001919060010190612cd9565b5b509050612d029190612d06565b5090565b5b80821115612d1f576000816000905550600101612d07565b5090565b6000612d36612d3184613e39565b613e14565b9050808382526020820190508260005b85811015612d765781358501612d5c8882612f64565b845260208401935060208301925050600181019050612d46565b5050509392505050565b6000612d93612d8e84613e65565b613e14565b90508083825260208201905082856020860282011115612db257600080fd5b60005b85811015612de25781612dc88882612fdd565b845260208401935060208301925050600181019050612db5565b5050509392505050565b6000612dff612dfa84613e91565b613e14565b905082815260208101848484011115612e1757600080fd5b612e2284828561414b565b509392505050565b6000612e3d612e3884613ec2565b613e14565b905082815260208101848484011115612e5557600080fd5b612e6084828561414b565b509392505050565b600081359050612e7781614c4b565b92915050565b600082601f830112612e8e57600080fd5b8135612e9e848260208601612d23565b91505092915050565b600082601f830112612eb857600080fd5b8135612ec8848260208601612d80565b91505092915050565b600081359050612ee081614c62565b92915050565b600081359050612ef581614c79565b92915050565b600081519050612f0a81614c79565b92915050565b600082601f830112612f2157600080fd5b8135612f31848260208601612dec565b91505092915050565b600082601f830112612f4b57600080fd5b8135612f5b848260208601612e2a565b91505092915050565b600060408284031215612f7657600080fd5b612f806040613e14565b90506000612f9084828501612fc8565b600083015250602082013567ffffffffffffffff811115612fb057600080fd5b612fbc84828501612ea7565b60208301525092915050565b600081359050612fd781614c90565b92915050565b600081359050612fec81614ca7565b92915050565b60006020828403121561300457600080fd5b600061301284828501612e68565b91505092915050565b6000806040838503121561302e57600080fd5b600061303c85828601612e68565b925050602061304d85828601612e68565b9150509250929050565b60008060006060848603121561306c57600080fd5b600061307a86828701612e68565b935050602061308b86828701612e68565b925050604061309c86828701612fc8565b9150509250925092565b600080600080608085870312156130bc57600080fd5b60006130ca87828801612e68565b94505060206130db87828801612e68565b93505060406130ec87828801612fc8565b925050606085013567ffffffffffffffff81111561310957600080fd5b61311587828801612f10565b91505092959194509250565b6000806040838503121561313457600080fd5b600061314285828601612e68565b925050602061315385828601612ed1565b9150509250929050565b6000806040838503121561317057600080fd5b600061317e85828601612e68565b925050602061318f85828601612fc8565b9150509250929050565b600080604083850312156131ac57600080fd5b600083013567ffffffffffffffff8111156131c657600080fd5b6131d285828601612e7d565b92505060206131e385828601612fc8565b9150509250929050565b6000602082840312156131ff57600080fd5b600061320d84828501612ee6565b91505092915050565b60006020828403121561322857600080fd5b600061323684828501612efb565b91505092915050565b60006020828403121561325157600080fd5b600082013567ffffffffffffffff81111561326b57600080fd5b61327784828501612f3a565b91505092915050565b60006020828403121561329257600080fd5b60006132a084828501612fc8565b91505092915050565b60006132b583836138e2565b60208301905092915050565b6132ca816140ca565b82525050565b60006132db82613f18565b6132e58185613f46565b93506132f083613ef3565b8060005b8381101561332157815161330888826132a9565b975061331383613f39565b9250506001810190506132f4565b5085935050505092915050565b613337816140dc565b82525050565b600061334882613f23565b6133528185613f57565b935061336281856020860161415a565b61336b81614361565b840191505092915050565b600061338182613f2e565b61338b8185613f68565b935061339b81856020860161415a565b6133a481614361565b840191505092915050565b60006133ba82613f2e565b6133c48185613f79565b93506133d481856020860161415a565b80840191505092915050565b600081546133ed8161418d565b6133f78186613f79565b94506001821660008114613412576001811461342357613456565b60ff19831686528186019350613456565b61342c85613f03565b60005b8381101561344e5781548189015260018201915060208101905061342f565b838801955050505b50505092915050565b600061346c600583613f79565b915061347782614372565b600582019050919050565b600061348f602b83613f68565b915061349a8261439b565b604082019050919050565b60006134b2603283613f68565b91506134bd826143ea565b604082019050919050565b60006134d5602583613f79565b91506134e082614439565b602582019050919050565b60006134f8601c83613f68565b915061350382614488565b602082019050919050565b600061351b600f83613f79565b9150613526826144b1565b600f82019050919050565b600061353e601483613f79565b9150613549826144da565b601482019050919050565b6000613561600383613f79565b915061356c82614503565b600382019050919050565b6000613584607e83613f79565b915061358f8261452c565b607e82019050919050565b60006135a7600483613f79565b91506135b2826145c7565b600482019050919050565b60006135ca602483613f68565b91506135d5826145f0565b604082019050919050565b60006135ed601983613f68565b91506135f88261463f565b602082019050919050565b6000613610602c83613f68565b915061361b82614668565b604082019050919050565b6000613633600383613f79565b915061363e826146b7565b600382019050919050565b6000613656603883613f68565b9150613661826146e0565b604082019050919050565b6000613679602a83613f68565b91506136848261472f565b604082019050919050565b600061369c602983613f68565b91506136a78261477e565b604082019050919050565b60006136bf608e83613f79565b91506136ca826147cd565b608e82019050919050565b60006136e2600283613f79565b91506136ed8261488e565b600282019050919050565b6000613705607083613f79565b9150613710826148b7565b607082019050919050565b6000613728602083613f68565b915061373382614952565b602082019050919050565b600061374b600183613f79565b91506137568261497b565b600182019050919050565b600061376e602c83613f68565b9150613779826149a4565b604082019050919050565b6000613791600183613f79565b915061379c826149f3565b600182019050919050565b60006137b4602983613f68565b91506137bf82614a1c565b604082019050919050565b60006137d7602683613f79565b91506137e282614a6b565b602682019050919050565b60006137fa601583613f79565b915061380582614aba565b601582019050919050565b600061381d600183613f79565b915061382882614ae3565b600182019050919050565b6000613840602183613f68565b915061384b82614b0c565b604082019050919050565b6000613863601d83613f79565b915061386e82614b5b565b601d82019050919050565b6000613886603183613f68565b915061389182614b84565b604082019050919050565b60006138a9602c83613f68565b91506138b482614bd3565b604082019050919050565b60006138cc600483613f79565b91506138d782614c22565b600482019050919050565b6138eb81614134565b82525050565b6138fa81614134565b82525050565b61391161390c82614134565b614239565b82525050565b600061392382856133af565b915061392f82846133af565b91508190509392505050565b600061394782856133af565b915061395382846133af565b915061395e8261359a565b91508190509392505050565b600061397682856133af565b9150613981826134c8565b915061398d8284613900565b60208201915061399c8261359a565b91506139a7826136d5565b91508190509392505050565b60006139bf82856133af565b91506139ca826137ca565b91506139d682846133e0565b91506139e182613554565b91508190509392505050565b60006139f982866133af565b9150613a04826137ed565b9150613a1082856133af565b9150613a1b8261345f565b9150613a2782846133af565b9150613a3282613626565b9150819050949350505050565b6000613a4a82613531565b9150613a5682866133af565b9150613a61826136b2565b9150613a6d82856133af565b9150613a788261350e565b9150613a8482846133af565b9150613a8f826138bf565b9150613a9a8261373e565b9150819050949350505050565b6000613ab2826136f8565b9150613abe82846133af565b9150613ac982613577565b915081905092915050565b6000613adf82613784565b9150613aeb82846133af565b9150613af682613810565b915081905092915050565b6000613b0c82613856565b9150613b1882846133af565b915081905092915050565b6000602082019050613b3860008301846132c1565b92915050565b6000608082019050613b5360008301876132c1565b613b6060208301866132c1565b613b6d60408301856138f1565b8181036060830152613b7f818461333d565b905095945050505050565b60006020820190508181036000830152613ba481846132d0565b905092915050565b6000602082019050613bc1600083018461332e565b92915050565b60006020820190508181036000830152613be18184613376565b905092915050565b60006020820190508181036000830152613c0281613482565b9050919050565b60006020820190508181036000830152613c22816134a5565b9050919050565b60006020820190508181036000830152613c42816134eb565b9050919050565b60006020820190508181036000830152613c62816135bd565b9050919050565b60006020820190508181036000830152613c82816135e0565b9050919050565b60006020820190508181036000830152613ca281613603565b9050919050565b60006020820190508181036000830152613cc281613649565b9050919050565b60006020820190508181036000830152613ce28161366c565b9050919050565b60006020820190508181036000830152613d028161368f565b9050919050565b60006020820190508181036000830152613d228161371b565b9050919050565b60006020820190508181036000830152613d4281613761565b9050919050565b60006020820190508181036000830152613d62816137a7565b9050919050565b60006020820190508181036000830152613d8281613833565b9050919050565b60006020820190508181036000830152613da281613879565b9050919050565b60006020820190508181036000830152613dc28161389c565b9050919050565b6000602082019050613dde60008301846138f1565b92915050565b6000604082019050613df960008301856138f1565b8181036020830152613e0b8184613376565b90509392505050565b6000613e1e613e2f565b9050613e2a82826141bf565b919050565b6000604051905090565b600067ffffffffffffffff821115613e5457613e53614332565b5b602082029050602081019050919050565b600067ffffffffffffffff821115613e8057613e7f614332565b5b602082029050602081019050919050565b600067ffffffffffffffff821115613eac57613eab614332565b5b613eb582614361565b9050602081019050919050565b600067ffffffffffffffff821115613edd57613edc614332565b5b613ee682614361565b9050602081019050919050565b6000819050602082019050919050565b60008190508160005260206000209050919050565b600081519050919050565b600081519050919050565b600081519050919050565b6000602082019050919050565b600082825260208201905092915050565b600082825260208201905092915050565b600082825260208201905092915050565b600081905092915050565b6000613f8f82614134565b9150613f9a83614134565b9250827fffffffffffffffffffffffffffffffffffffffffffffffffffffffffffffffff03821115613fcf57613fce6142a5565b5b828201905092915050565b6000613fe582614134565b9150613ff083614134565b92508261400057613fff6142d4565b5b828204905092915050565b60006140168261413e565b91506140218361413e565b925082614031576140306142d4565b5b828204905092915050565b600061404782614134565b915061405283614134565b9250817fffffffffffffffffffffffffffffffffffffffffffffffffffffffffffffffff048311821515161561408b5761408a6142a5565b5b828202905092915050565b60006140a182614134565b91506140ac83614134565b9250828210156140bf576140be6142a5565b5b828203905092915050565b60006140d582614114565b9050919050565b60008115159050919050565b60007fffffffff0000000000000000000000000000000000000000000000000000000082169050919050565b600073ffffffffffffffffffffffffffffffffffffffff82169050919050565b6000819050919050565b600060ff82169050919050565b82818337600083830152505050565b60005b8381101561417857808201518184015260208101905061415d565b83811115614187576000848401525b50505050565b600060028204905060018216806141a557607f821691505b602082108114156141b9576141b8614303565b5b50919050565b6141c882614361565b810181811067ffffffffffffffff821117156141e7576141e6614332565b5b80604052505050565b60006141fb82614134565b91507fffffffffffffffffffffffffffffffffffffffffffffffffffffffffffffffff82141561422e5761422d6142a5565b5b600182019050919050565b6000819050919050565b600061424e82614134565b915061425983614134565b925082614269576142686142d4565b5b828206905092915050565b600061427f8261413e565b915061428a8361413e565b92508261429a576142996142d4565b5b828206905092915050565b7f4e487b7100000000000000000000000000000000000000000000000000000000600052601160045260246000fd5b7f4e487b7100000000000000000000000000000000000000000000000000000000600052601260045260246000fd5b7f4e487b7100000000000000000000000000000000000000000000000000000000600052602260045260246000fd5b7f4e487b7100000000000000000000000000000000000000000000000000000000600052604160045260246000fd5b6000601f19601f8301169050919050565b7f2720793d27000000000000000000000000000000000000000000000000000000600082015250565b7f455243373231456e756d657261626c653a206f776e657220696e646578206f7560008201527f74206f6620626f756e6473000000000000000000000000000000000000000000602082015250565b7f4552433732313a207472616e7366657220746f206e6f6e20455243373231526560008201527f63656976657220696d706c656d656e7465720000000000000000000000000000602082015250565b7f7b2274726169745f74797065223a22416d6f756e742070616964222c2276616c60008201527f7565223a22000000000000000000000000000000000000000000000000000000602082015250565b7f4552433732313a20746f6b656e20616c7265616479206d696e74656400000000600082015250565b7f222c2261747472696275746573223a0000000000000000000000000000000000600082015250565b7f7b226e616d65223a20224d794f776e4e46542023000000000000000000000000600082015250565b7f227d2c0000000000000000000000000000000000000000000000000000000000600082015250565b7f3c7374796c653e726563747b77696474683a3170783b6865696768743a31707860008201527f3b7d20236d6f7573652d7376677b73686170652d72656e646572696e673a206360208201527f7269737065646765733b7d202e6330307b66696c6c3a233030303030307d2e6360408201527f30317b66696c6c3a234646464646467d3c2f7374796c653e3c2f7376673e0000606082015250565b7f2046544d00000000000000000000000000000000000000000000000000000000600082015250565b7f4552433732313a207472616e7366657220746f20746865207a65726f2061646460008201527f7265737300000000000000000000000000000000000000000000000000000000602082015250565b7f4552433732313a20617070726f766520746f2063616c6c657200000000000000600082015250565b7f4552433732313a206f70657261746f7220717565727920666f72206e6f6e657860008201527f697374656e7420746f6b656e0000000000000000000000000000000000000000602082015250565b7f272f3e0000000000000000000000000000000000000000000000000000000000600082015250565b7f4552433732313a20617070726f76652063616c6c6572206973206e6f74206f7760008201527f6e6572206e6f7220617070726f76656420666f7220616c6c0000000000000000602082015250565b7f4552433732313a2062616c616e636520717565727920666f7220746865207a6560008201527f726f206164647265737300000000000000000000000000000000000000000000602082015250565b7f4552433732313a206f776e657220717565727920666f72206e6f6e657869737460008201527f656e7420746f6b656e0000000000000000000000000000000000000000000000602082015250565b7f222c20226465736372697074696f6e223a20224d794f776e4e4654206973206160008201527f20636f6c6c656374696f6e206f6620636f6d706c6574656c79204f4e2d43484160208201527f494e204e465473207468617420796f752063616e20637573746f6d697a65206f60408201527f6e206d696e742e222c2022696d616765223a2022646174613a696d6167652f7360608201527f76672b786d6c3b6261736536342c000000000000000000000000000000000000608082015250565b7f227d000000000000000000000000000000000000000000000000000000000000600082015250565b7f3c7376672069643d226d6f7573652d7376672220786d6c6e733d22687474703a60008201527f2f2f7777772e77332e6f72672f323030302f737667222070726573657276654160208201527f7370656374526174696f3d22784d696e594d696e206d6565742220766965774260408201527f6f783d22302030203234203234223e2000000000000000000000000000000000606082015250565b7f4552433732313a206d696e7420746f20746865207a65726f2061646472657373600082015250565b7f7d00000000000000000000000000000000000000000000000000000000000000600082015250565b7f4552433732313a20617070726f76656420717565727920666f72206e6f6e657860008201527f697374656e7420746f6b656e0000000000000000000000000000000000000000602082015250565b7f5b00000000000000000000000000000000000000000000000000000000000000600082015250565b7f4552433732313a207472616e73666572206f6620746f6b656e2074686174206960008201527f73206e6f74206f776e0000000000000000000000000000000000000000000000602082015250565b7f7b2274726169745f74797065223a225465787420636f6e74656e74222c22766160008201527f6c7565223a220000000000000000000000000000000000000000000000000000602082015250565b7f3c7265637420636c6173733d276330312720783d270000000000000000000000600082015250565b7f5d00000000000000000000000000000000000000000000000000000000000000600082015250565b7f4552433732313a20617070726f76616c20746f2063757272656e74206f776e6560008201527f7200000000000000000000000000000000000000000000000000000000000000602082015250565b7f646174613a6170706c69636174696f6e2f6a736f6e3b6261736536342c000000600082015250565b7f4552433732313a207472616e736665722063616c6c6572206973206e6f74206f60008201527f776e6572206e6f7220617070726f766564000000000000000000000000000000602082015250565b7f455243373231456e756d657261626c653a20676c6f62616c20696e646578206f60008201527f7574206f6620626f756e64730000000000000000000000000000000000000000602082015250565b7f6e6f6e6500000000000000000000000000000000000000000000000000000000600082015250565b614c54816140ca565b8114614c5f57600080fd5b50565b614c6b816140dc565b8114614c7657600080fd5b50565b614c82816140e8565b8114614c8d57600080fd5b50565b614c9981614134565b8114614ca457600080fd5b50565b614cb08161413e565b8114614cbb57600080fd5b5056fe4142434445464748494a4b4c4d4e4f505152535455565758595a6162636465666768696a6b6c6d6e6f707172737475767778797a303132333435363738392b2fa264697066735822122075af489cc7e2509bbe8639ea9e5349be08eb5cea7122c63ba5ca2f18eb42699d64736f6c63430008030033",
  "immutableReferences": {},
  "source": "// contracts/MyOwnNft.sol\r\n// SPDX-License-Identifier: MIT\r\npragma solidity ^0.8.0;\r\n\r\nimport \"@openzeppelin/contracts/token/ERC721/extensions/ERC721Enumerable.sol\";\r\nimport \"@openzeppelin/contracts/utils/Strings.sol\";\r\nimport \"./MyOwnNftLibrary.sol\";\r\n\r\ncontract MyOwnNft is ERC721Enumerable {\r\n    using MyOwnNftLibrary for uint8;\r\n\r\n    struct CustomNftContent {\r\n        uint256 amount_paid;\r\n        string text_content;\r\n    }\r\n\r\n    struct CharacterData {\r\n        uint256 pixelCount;\r\n        uint8[] pixelsData;\r\n    }\r\n\r\n    //Mappings\r\n    mapping(uint256 => CustomNftContent) public customNftsContent;\r\n    mapping(uint256 => CharacterData) public charactersData;\r\n\r\n    //uint256s\r\n    uint256 MAX_SUPPLY = 100000; // to decide carefully!!!!!!\r\n    uint256 MAX_PER_ADDRESS = 5; // to implement!!!!!!\r\n    uint256 MIN_PRICE = 1000000000000000000; // to check!!!!!!!\r\n    uint256 MAX_STRING_LENGTH = 24 * 5;\r\n\r\n    //address\r\n    address _owner;\r\n\r\n    constructor() ERC721(\"MyOwnNft\", \"MON\") {\r\n        _owner = msg.sender;\r\n    }\r\n\r\n    /*\r\n  __  __ _     _   _             ___             _   _             \r\n |  \\/  (_)_ _| |_(_)_ _  __ _  | __|  _ _ _  __| |_(_)___ _ _  ___\r\n | |\\/| | | ' \\  _| | ' \\/ _` | | _| || | ' \\/ _|  _| / _ \\ ' \\(_-<\r\n |_|  |_|_|_||_\\__|_|_||_\\__, | |_| \\_,_|_||_\\__|\\__|_\\___/_||_/__/\r\n                         |___/                                     \r\n   */\r\n\r\n    /**\r\n     * @dev Mint internal, this is to avoid code duplication.\r\n     */\r\n    function mintInternal(\r\n        string memory _text_content,\r\n        uint256 _amount_paid,\r\n        uint256 token_id\r\n    ) internal {\r\n        customNftsContent[token_id].amount_paid = _amount_paid;\r\n        customNftsContent[token_id].text_content = _text_content;\r\n\r\n        _mint(msg.sender, token_id);\r\n    }\r\n\r\n    /**\r\n     * @dev Mints new tokens.\r\n     */\r\n    function mintNft(string memory text_content) public payable {\r\n        uint256 _totalSupply = totalSupply();\r\n        require(bytes(text_content).length < MAX_STRING_LENGTH);\r\n        require(msg.value >= MIN_PRICE);\r\n        require(_totalSupply < MAX_SUPPLY);\r\n        require(!MyOwnNftLibrary.isContract(msg.sender));\r\n\r\n        return mintInternal(text_content, msg.value, _totalSupply);\r\n    }\r\n\r\n    /*\r\n ____     ___   ____  ___        _____  __ __  ____     __ ______  ____  ___   ____   _____\r\n|    \\   /  _] /    ||   \\      |     ||  |  ||    \\   /  ]      ||    |/   \\ |    \\ / ___/\r\n|  D  ) /  [_ |  o  ||    \\     |   __||  |  ||  _  | /  /|      | |  ||     ||  _  (   \\_ \r\n|    / |    _]|     ||  D  |    |  |_  |  |  ||  |  |/  / |_|  |_| |  ||  O  ||  |  |\\__  |\r\n|    \\ |   [_ |  _  ||     |    |   _] |  :  ||  |  /   \\_  |  |   |  ||     ||  |  |/  \\ |\r\n|  .  \\|     ||  |  ||     |    |  |   |     ||  |  \\     | |  |   |  ||     ||  |  |\\    |\r\n|__|\\_||_____||__|__||_____|    |__|    \\__,_||__|__|\\____| |__|  |____|\\___/ |__|__| \\___|  \r\n\r\n    */\r\n\r\n    /**\r\n     * @dev Token ID to SVG function\r\n     */\r\n    function tokenIdToSVG(uint256 token_id)\r\n        public\r\n        view\r\n        returns (string memory)\r\n    {\r\n        string memory svgString;\r\n        string memory tempString;\r\n        uint256 cursor_x;\r\n        uint256 cursor_y;\r\n\r\n        cursor_x = 10;\r\n        cursor_y = 10;\r\n        tempString = \"This is NFT #\";\r\n        tempString = string(\r\n            abi.encodePacked(tempString, Strings.toString(token_id))\r\n        );\r\n        svgString = string(\r\n            abi.encodePacked(\r\n                svgString,\r\n                drawString(tempString, cursor_x, cursor_y)\r\n            )\r\n        );\r\n\r\n        cursor_x = 10;\r\n        cursor_y = 20;\r\n        tempString = \"Minted for \";\r\n        tempString = string(\r\n            abi.encodePacked(\r\n                tempString,\r\n                Strings.toString(customNftsContent[token_id].amount_paid),\r\n                \" FTM\"\r\n            )\r\n        );\r\n        svgString = string(\r\n            abi.encodePacked(\r\n                svgString,\r\n                drawString(tempString, cursor_x, cursor_y)\r\n            )\r\n        );\r\n\r\n        svgString = string(\r\n            abi.encodePacked(\r\n                '<svg id=\"mouse-svg\" xmlns=\"http://www.w3.org/2000/svg\" preserveAspectRatio=\"xMinYMin meet\" viewBox=\"0 0 24 24\"> ',\r\n                svgString,\r\n                \"<style>rect{width:1px;height:1px;} #mouse-svg{shape-rendering: crispedges;} .c00{fill:#000000}.c01{fill:#FFFFFF}</style></svg>\"\r\n            )\r\n        );\r\n\r\n        return svgString;\r\n    }\r\n\r\n    /**\r\n     * @dev Token ID to metadata function\r\n     */\r\n    function tokenIdToMetadata(uint256 token_id)\r\n        public\r\n        view\r\n        returns (string memory)\r\n    {\r\n        string memory metadataString;\r\n\r\n        // text content\r\n        metadataString = string(\r\n            abi.encodePacked(\r\n                metadataString,\r\n                '{\"trait_type\":\"Text content\",\"value\":\"',\r\n                customNftsContent[token_id].text_content,\r\n                '\"},'\r\n            )\r\n        );\r\n\r\n        // amount paid\r\n        metadataString = string(\r\n            abi.encodePacked(\r\n                metadataString,\r\n                '{\"trait_type\":\"Amount paid\",\"value\":\"',\r\n                customNftsContent[token_id].amount_paid,\r\n                \" FTM\",\r\n                '\"}'\r\n            )\r\n        );\r\n\r\n        return string(abi.encodePacked(\"[\", metadataString, \"]\"));\r\n    }\r\n\r\n    /**\r\n     * @dev Returns the SVG and metadata for a token Id\r\n     * @param _tokenId The tokenId to return the SVG and metadata for.\r\n     */\r\n    function tokenURI(uint256 _tokenId)\r\n        public\r\n        view\r\n        override\r\n        returns (string memory)\r\n    {\r\n        require(_exists(_tokenId));\r\n\r\n        return\r\n            string(\r\n                abi.encodePacked(\r\n                    \"data:application/json;base64,\",\r\n                    MyOwnNftLibrary.encode(\r\n                        bytes(\r\n                            string(\r\n                                abi.encodePacked(\r\n                                    '{\"name\": \"MyOwnNFT #',\r\n                                    MyOwnNftLibrary.toString(_tokenId),\r\n                                    '\", \"description\": \"MyOwnNFT is a collection of completely ON-CHAIN NFTs that you can customize on mint.\", \"image\": \"data:image/svg+xml;base64,',\r\n                                    MyOwnNftLibrary.encode(\r\n                                        bytes(tokenIdToSVG(_tokenId))\r\n                                    ),\r\n                                    '\",\"attributes\":',\r\n                                    tokenIdToMetadata(_tokenId),\r\n                                    \"none\",\r\n                                    \"}\"\r\n                                )\r\n                            )\r\n                        )\r\n                    )\r\n                )\r\n            );\r\n    }\r\n\r\n    /**\r\n     * @dev Returns the wallet of a given wallet. Mainly for ease for frontend devs.\r\n     * @param _wallet The wallet to get the tokens of.\r\n     */\r\n    function walletOfOwner(address _wallet)\r\n        public\r\n        view\r\n        returns (uint256[] memory)\r\n    {\r\n        uint256 tokenCount = balanceOf(_wallet);\r\n\r\n        uint256[] memory tokensId = new uint256[](tokenCount);\r\n        for (uint256 i; i < tokenCount; i++) {\r\n            tokensId[i] = tokenOfOwnerByIndex(_wallet, i);\r\n        }\r\n        return tokensId;\r\n    }\r\n\r\n    /*\r\n  ___   __    __  ____     ___  ____       _____  __ __  ____     __ ______  ____  ___   ____   _____\r\n /   \\ |  |__|  ||    \\   /  _]|    \\     |     ||  |  ||    \\   /  ]      ||    |/   \\ |    \\ / ___/\r\n|     ||  |  |  ||  _  | /  [_ |  D  )    |   __||  |  ||  _  | /  /|      | |  ||     ||  _  (   \\_ \r\n|  O  ||  |  |  ||  |  ||    _]|    /     |  |_  |  |  ||  |  |/  / |_|  |_| |  ||  O  ||  |  |\\__  |\r\n|     ||  `  '  ||  |  ||   [_ |    \\     |   _] |  :  ||  |  /   \\_  |  |   |  ||     ||  |  |/  \\ |\r\n|     | \\      / |  |  ||     ||  .  \\    |  |   |     ||  |  \\     | |  |   |  ||     ||  |  |\\    |\r\n \\___/   \\_/\\_/  |__|__||_____||__|\\_|    |__|    \\__,_||__|__|\\____| |__|  |____|\\___/ |__|__| \\___|\r\n\r\n    */\r\n\r\n    /**\r\n     * @dev Add characters data\r\n     * @param _charactersData Array of characters data to add\r\n     */\r\n\r\n    function addCharacterData(\r\n        CharacterData[] memory _charactersData,\r\n        uint256 starting_position\r\n    ) public onlyOwner {\r\n        require(starting_position < _charactersData.length);\r\n\r\n        for (uint256 i = starting_position; i <= _charactersData.length; i++) {\r\n            charactersData[i].pixelCount = _charactersData[i].pixelCount;\r\n            charactersData[i].pixelsData = _charactersData[i].pixelsData;\r\n        }\r\n\r\n        return;\r\n    }\r\n\r\n    /**\r\n     * @dev Writes a single char to a given position\r\n     * @param _char The character to write\r\n     * @param _x The x pos of the cursor\r\n     * @param _y The y pos of the cursor\r\n     */\r\n    function drawChar(\r\n        uint256 _char,\r\n        uint256 _x,\r\n        uint256 _y\r\n    ) internal view returns (string memory) {\r\n        string memory printedCharString;\r\n\r\n        printedCharString = \"\";\r\n\r\n        if ((_char < 32) || (_char > 126)) {\r\n            return printedCharString;\r\n        }\r\n\r\n        for (\r\n            uint256 index = 0;\r\n            index < charactersData[_char].pixelsData.length;\r\n            index++\r\n        ) {\r\n            printedCharString = string(\r\n                abi.encodePacked(\r\n                    printedCharString,\r\n                    \"<rect class='c01' x='\",\r\n                    Strings.toString(\r\n                        _x +\r\n                            (\r\n                                uint256(\r\n                                    charactersData[_char].pixelsData[index] % 8\r\n                                )\r\n                            )\r\n                    ),\r\n                    \"' y='\",\r\n                    Strings.toString(\r\n                        _y +\r\n                            (\r\n                                uint256(\r\n                                    charactersData[_char].pixelsData[index] / 8\r\n                                )\r\n                            )\r\n                    ),\r\n                    \"'/>\"\r\n                )\r\n            );\r\n        }\r\n\r\n        return printedCharString;\r\n    }\r\n\r\n    /**\r\n     * @dev Writes a string starting from the given position\r\n     * @param _string The string to draw\r\n     * @param _x The x pos of the cursor\r\n     * @param _y The y pos of the cursor\r\n     */\r\n    function drawString(\r\n        string memory _string,\r\n        uint256 _x,\r\n        uint256 _y\r\n    ) internal view returns (string memory) {\r\n        string memory printedString;\r\n\r\n        printedString = \"\";\r\n\r\n        bytes memory byteString = bytes(_string);\r\n\r\n        for (uint256 index = 0; index < byteString.length; index++) {\r\n            printedString = string(\r\n                abi.encodePacked(\r\n                    printedString,\r\n                    drawChar(\r\n                        uint256(uint8(byteString[index])),\r\n                        _x + (index * 8),\r\n                        _y\r\n                    )\r\n                )\r\n            );\r\n        }\r\n\r\n        return printedString;\r\n    }\r\n\r\n    /**\r\n     * @dev Transfers ownership\r\n     * @param _newOwner The new owner\r\n     */\r\n    function transferOwnership(address _newOwner) public onlyOwner {\r\n        _owner = _newOwner;\r\n    }\r\n\r\n    /**\r\n     * @dev Modifier to only allow owner to call functions\r\n     */\r\n    modifier onlyOwner() {\r\n        require(_owner == msg.sender);\r\n        _;\r\n    }\r\n}\r\n",
  "sourcePath": "C:\\Users\\fabio\\Desktop\\myOwnNFT\\truffle_test\\contracts\\MyOwnNft.sol",
  "compiler": {
    "name": "solc",
    "version": "0.8.3+commit.8d00100c.Emscripten.clang"
  },
  "schemaVersion": "3.4.3",
  "updatedAt": "2021-11-20T17:44:19.503Z",
  "networkType": "ethereum",
  "devdoc": {
    "kind": "dev",
    "methods": {
      "addCharacterData((uint256,uint8[])[],uint256)": {
        "details": "Add characters data",
        "params": {
          "_charactersData": "Array of characters data to add"
        }
      },
      "approve(address,uint256)": {
        "details": "See {IERC721-approve}."
      },
      "balanceOf(address)": {
        "details": "See {IERC721-balanceOf}."
      },
      "getApproved(uint256)": {
        "details": "See {IERC721-getApproved}."
      },
      "isApprovedForAll(address,address)": {
        "details": "See {IERC721-isApprovedForAll}."
      },
      "mintNft(string)": {
        "details": "Mints new tokens."
      },
      "name()": {
        "details": "See {IERC721Metadata-name}."
      },
      "ownerOf(uint256)": {
        "details": "See {IERC721-ownerOf}."
      },
      "safeTransferFrom(address,address,uint256)": {
        "details": "See {IERC721-safeTransferFrom}."
      },
      "safeTransferFrom(address,address,uint256,bytes)": {
        "details": "See {IERC721-safeTransferFrom}."
      },
      "setApprovalForAll(address,bool)": {
        "details": "See {IERC721-setApprovalForAll}."
      },
      "supportsInterface(bytes4)": {
        "details": "See {IERC165-supportsInterface}."
      },
      "symbol()": {
        "details": "See {IERC721Metadata-symbol}."
      },
      "tokenByIndex(uint256)": {
        "details": "See {IERC721Enumerable-tokenByIndex}."
      },
      "tokenIdToMetadata(uint256)": {
        "details": "Token ID to metadata function"
      },
      "tokenIdToSVG(uint256)": {
        "details": "Token ID to SVG function"
      },
      "tokenOfOwnerByIndex(address,uint256)": {
        "details": "See {IERC721Enumerable-tokenOfOwnerByIndex}."
      },
      "tokenURI(uint256)": {
        "details": "Returns the SVG and metadata for a token Id",
        "params": {
          "_tokenId": "The tokenId to return the SVG and metadata for."
        }
      },
      "totalSupply()": {
        "details": "See {IERC721Enumerable-totalSupply}."
      },
      "transferFrom(address,address,uint256)": {
        "details": "See {IERC721-transferFrom}."
      },
      "transferOwnership(address)": {
        "details": "Transfers ownership",
        "params": {
          "_newOwner": "The new owner"
        }
      },
      "walletOfOwner(address)": {
        "details": "Returns the wallet of a given wallet. Mainly for ease for frontend devs.",
        "params": {
          "_wallet": "The wallet to get the tokens of."
        }
      }
    },
    "version": 1
  },
  "userdoc": {
    "kind": "user",
    "methods": {},
    "version": 1
  }
}