{
  "contractName": "MyOwnNft",
  "abi": [
    {
      "inputs": [],
      "stateMutability": "nonpayable",
      "type": "constructor"
    },
    {
      "anonymous": false,
      "inputs": [
        {
          "indexed": true,
          "internalType": "address",
          "name": "owner",
          "type": "address"
        },
        {
          "indexed": true,
          "internalType": "address",
          "name": "approved",
          "type": "address"
        },
        {
          "indexed": true,
          "internalType": "uint256",
          "name": "tokenId",
          "type": "uint256"
        }
      ],
      "name": "Approval",
      "type": "event"
    },
    {
      "anonymous": false,
      "inputs": [
        {
          "indexed": true,
          "internalType": "address",
          "name": "owner",
          "type": "address"
        },
        {
          "indexed": true,
          "internalType": "address",
          "name": "operator",
          "type": "address"
        },
        {
          "indexed": false,
          "internalType": "bool",
          "name": "approved",
          "type": "bool"
        }
      ],
      "name": "ApprovalForAll",
      "type": "event"
    },
    {
      "anonymous": false,
      "inputs": [
        {
          "indexed": true,
          "internalType": "address",
          "name": "from",
          "type": "address"
        },
        {
          "indexed": true,
          "internalType": "address",
          "name": "to",
          "type": "address"
        },
        {
          "indexed": true,
          "internalType": "uint256",
          "name": "tokenId",
          "type": "uint256"
        }
      ],
      "name": "Transfer",
      "type": "event"
    },
    {
      "inputs": [
        {
          "internalType": "address",
          "name": "to",
          "type": "address"
        },
        {
          "internalType": "uint256",
          "name": "tokenId",
          "type": "uint256"
        }
      ],
      "name": "approve",
      "outputs": [],
      "stateMutability": "nonpayable",
      "type": "function"
    },
    {
      "inputs": [
        {
          "internalType": "address",
          "name": "owner",
          "type": "address"
        }
      ],
      "name": "balanceOf",
      "outputs": [
        {
          "internalType": "uint256",
          "name": "",
          "type": "uint256"
        }
      ],
      "stateMutability": "view",
      "type": "function",
      "constant": true
    },
    {
      "inputs": [
        {
          "internalType": "uint256",
          "name": "",
          "type": "uint256"
        }
      ],
      "name": "customNftsContent",
      "outputs": [
        {
          "internalType": "uint256",
          "name": "amount_paid",
          "type": "uint256"
        },
        {
          "internalType": "string",
          "name": "text_content",
          "type": "string"
        }
      ],
      "stateMutability": "view",
      "type": "function",
      "constant": true
    },
    {
      "inputs": [
        {
          "internalType": "uint256",
          "name": "tokenId",
          "type": "uint256"
        }
      ],
      "name": "getApproved",
      "outputs": [
        {
          "internalType": "address",
          "name": "",
          "type": "address"
        }
      ],
      "stateMutability": "view",
      "type": "function",
      "constant": true
    },
    {
      "inputs": [
        {
          "internalType": "address",
          "name": "owner",
          "type": "address"
        },
        {
          "internalType": "address",
          "name": "operator",
          "type": "address"
        }
      ],
      "name": "isApprovedForAll",
      "outputs": [
        {
          "internalType": "bool",
          "name": "",
          "type": "bool"
        }
      ],
      "stateMutability": "view",
      "type": "function",
      "constant": true
    },
    {
      "inputs": [],
      "name": "name",
      "outputs": [
        {
          "internalType": "string",
          "name": "",
          "type": "string"
        }
      ],
      "stateMutability": "view",
      "type": "function",
      "constant": true
    },
    {
      "inputs": [
        {
          "internalType": "uint256",
          "name": "tokenId",
          "type": "uint256"
        }
      ],
      "name": "ownerOf",
      "outputs": [
        {
          "internalType": "address",
          "name": "",
          "type": "address"
        }
      ],
      "stateMutability": "view",
      "type": "function",
      "constant": true
    },
    {
      "inputs": [
        {
          "internalType": "address",
          "name": "from",
          "type": "address"
        },
        {
          "internalType": "address",
          "name": "to",
          "type": "address"
        },
        {
          "internalType": "uint256",
          "name": "tokenId",
          "type": "uint256"
        }
      ],
      "name": "safeTransferFrom",
      "outputs": [],
      "stateMutability": "nonpayable",
      "type": "function"
    },
    {
      "inputs": [
        {
          "internalType": "address",
          "name": "from",
          "type": "address"
        },
        {
          "internalType": "address",
          "name": "to",
          "type": "address"
        },
        {
          "internalType": "uint256",
          "name": "tokenId",
          "type": "uint256"
        },
        {
          "internalType": "bytes",
          "name": "_data",
          "type": "bytes"
        }
      ],
      "name": "safeTransferFrom",
      "outputs": [],
      "stateMutability": "nonpayable",
      "type": "function"
    },
    {
      "inputs": [
        {
          "internalType": "address",
          "name": "operator",
          "type": "address"
        },
        {
          "internalType": "bool",
          "name": "approved",
          "type": "bool"
        }
      ],
      "name": "setApprovalForAll",
      "outputs": [],
      "stateMutability": "nonpayable",
      "type": "function"
    },
    {
      "inputs": [
        {
          "internalType": "bytes4",
          "name": "interfaceId",
          "type": "bytes4"
        }
      ],
      "name": "supportsInterface",
      "outputs": [
        {
          "internalType": "bool",
          "name": "",
          "type": "bool"
        }
      ],
      "stateMutability": "view",
      "type": "function",
      "constant": true
    },
    {
      "inputs": [],
      "name": "symbol",
      "outputs": [
        {
          "internalType": "string",
          "name": "",
          "type": "string"
        }
      ],
      "stateMutability": "view",
      "type": "function",
      "constant": true
    },
    {
      "inputs": [
        {
          "internalType": "uint256",
          "name": "index",
          "type": "uint256"
        }
      ],
      "name": "tokenByIndex",
      "outputs": [
        {
          "internalType": "uint256",
          "name": "",
          "type": "uint256"
        }
      ],
      "stateMutability": "view",
      "type": "function",
      "constant": true
    },
    {
      "inputs": [
        {
          "internalType": "address",
          "name": "owner",
          "type": "address"
        },
        {
          "internalType": "uint256",
          "name": "index",
          "type": "uint256"
        }
      ],
      "name": "tokenOfOwnerByIndex",
      "outputs": [
        {
          "internalType": "uint256",
          "name": "",
          "type": "uint256"
        }
      ],
      "stateMutability": "view",
      "type": "function",
      "constant": true
    },
    {
      "inputs": [],
      "name": "totalSupply",
      "outputs": [
        {
          "internalType": "uint256",
          "name": "",
          "type": "uint256"
        }
      ],
      "stateMutability": "view",
      "type": "function",
      "constant": true
    },
    {
      "inputs": [
        {
          "internalType": "address",
          "name": "from",
          "type": "address"
        },
        {
          "internalType": "address",
          "name": "to",
          "type": "address"
        },
        {
          "internalType": "uint256",
          "name": "tokenId",
          "type": "uint256"
        }
      ],
      "name": "transferFrom",
      "outputs": [],
      "stateMutability": "nonpayable",
      "type": "function"
    },
    {
      "inputs": [
        {
          "internalType": "string",
          "name": "text_content",
          "type": "string"
        }
      ],
      "name": "mintNft",
      "outputs": [],
      "stateMutability": "payable",
      "type": "function",
      "payable": true
    },
    {
      "inputs": [
        {
          "internalType": "uint256",
          "name": "token_id",
          "type": "uint256"
        }
      ],
      "name": "tokenIdToSVG",
      "outputs": [
        {
          "internalType": "string",
          "name": "",
          "type": "string"
        }
      ],
      "stateMutability": "view",
      "type": "function",
      "constant": true
    },
    {
      "inputs": [
        {
          "internalType": "uint256",
          "name": "token_id",
          "type": "uint256"
        }
      ],
      "name": "tokenIdToMetadata",
      "outputs": [
        {
          "internalType": "string",
          "name": "",
          "type": "string"
        }
      ],
      "stateMutability": "view",
      "type": "function",
      "constant": true
    },
    {
      "inputs": [
        {
          "internalType": "uint256",
          "name": "_tokenId",
          "type": "uint256"
        }
      ],
      "name": "tokenURI",
      "outputs": [
        {
          "internalType": "string",
          "name": "",
          "type": "string"
        }
      ],
      "stateMutability": "view",
      "type": "function",
      "constant": true
    },
    {
      "inputs": [
        {
          "internalType": "address",
          "name": "_wallet",
          "type": "address"
        }
      ],
      "name": "walletOfOwner",
      "outputs": [
        {
          "internalType": "uint256[]",
          "name": "",
          "type": "uint256[]"
        }
      ],
      "stateMutability": "view",
      "type": "function",
      "constant": true
    },
    {
      "inputs": [],
      "name": "withdraw",
      "outputs": [],
      "stateMutability": "payable",
      "type": "function",
      "payable": true
    },
    {
      "inputs": [
        {
          "internalType": "address",
          "name": "_newOwner",
          "type": "address"
        }
      ],
      "name": "transferOwnership",
      "outputs": [],
      "stateMutability": "nonpayable",
      "type": "function"
    }
  ],
  "bytecode": "0x620186a0600b556005600c908155670de0b6b3a7640000600d556078600e55610c409081526b66616662666366646665666760a01b610c605260809081526008610c809081526732b0b3b0b2b133b160c11b610ca05260a052610d206040526028610cc081815260c09162004473610ce03981526020016040518060600160405280602a815260200162004449602a913981526020016040518060400160405280601c81526020017f636264626862636364636763666465656466676668666367676768670000000081525081526020016040518060400160405280601a81526020017f65626463666365646465666568656366676664676567666768670000000000008152508152602001604051806040016040528060048152602001636662656360e01b81525081526020016040518060400160405280600c81526020016b66626563656465656566666760a01b81525081526020016040518060400160405280600c81526020016b65626663666466656666656760a01b81525081526020016040518060400160405280601681526020017f646366636564636564656565666567656566646766670000000000000000000081525081526020016040518060400160405280601281526020017165636564636564656565666567656566656760701b8152508152602001604051806040016040528060068152602001650cccccccecad60d31b81525081526020016040518060400160405280600a8152602001696365646565656665676560b01b815250815260200160405180604001604052806008815260200167656666666567666760c01b81525081526020016040518060400160405280600a8152602001696763666465656466636760b01b8152508152602001604051806060016040528060288152602001620045836028913981526020016040518060400160405280601881526020017f636264626263646364646465646662676367646765676667000000000000000081525081526020016040518060600160405280602481526020016200455f6024913981526020016040518060400160405280601e81526020017f636264626562666262636763656466646765626667666367646765676667000081525081526020016040518060400160405280601c81526020017f65626463656363646564626565656266636664666566666667666567000000008152508152602001604051806060016040528060268152602001620045ab602691398152602001604051806060016040528060248152602001620045d16024913981526020016040518060400160405280601681526020017f62626362646265626662676267636664656564666467000000000000000000008152508152602001604051806060016040528060248152602001620044ef6024913981526020016040518060600160405280602481526020016200438f602491398152602001604051806040016040528060048152602001636564656760e01b8152508152602001604051806040016040528060088152602001670cac6cacccacec8d60c31b81525081526020016040518060400160405280600a8152602001696663656464656566666760b01b81525081526020016040518060400160405280601481526020017f636464646564666467646366646665666666676600000000000000000000000081525081526020016040518060400160405280600a8152602001696463656466656566646760b01b81525081526020016040518060400160405280601281526020017164626562666267626363686367646665666760701b81525081526020016040518060600160405280602a81526020016200449b602a91398152602001604051806060016040528060248152602001620043b36024913981526020016040518060600160405280602a8152602001620044c5602a913981526020016040518060400160405280601c81526020017f636264626562666262636763626462656266676663676467656766670000000081525081526020016040518060400160405280602081526020017f62626362646265626263666362646764626567656266666662676367646765678152508152602001604051806060016040528060288152602001620045376028913981526020016040518060400160405280601e81526020017f626263626462656266626762626362646364646465646664626562666267000081525081526020016040518060600160405280602281526020016200440360229139815260408051808201825260208082527f6262676262636763626463646464656466646764626567656266676662676767828201528084019190915281518083018352601c81527f636264626562666267626563656465656566636764676567666767670000000081830152828401528151808301835260168082527f67626763676462656765626667666367646765676667000000000000000000008284015260608086019290925283518085018552601a81527f6262666262636563626463646464626565656266666662676767000000000000818501526080860152835180850185529081527f62626263626462656266626763676467656766676767000000000000000000008184015260a0850152825180840184528281527f62626762626363636663676362646464656467646265676562666766626767678184015260c0850152825180840184528281527f62626762626363636763626464646764626565656765626666666766626767678184015260e0850152825180840184528281527f636264626562666262636763626467646265676562666766636764676567666781840152610100850152825180840184528281527f626263626462656266626263676362646764626563656465656566656266626781840152610120850152825190810190925260248083526101409093019290620045139083013981526020016040518060600160405280602481526020016200442560249139815260408051808201825260208082527f636264626562666262636364646465646664676562666766636764676567666782820152808401919091528151808301835260188082527f6262636264626562666267626862656365646565656665670000000000000000828401528385019190915282518084018452601c8082527f626267626263676362646764626567656266676663676467656766670000000082850152606080870192909252845180860186528381527f6262676262636763626467646265676563666666646765670000000000000000818601526080870152845180860186529081527f62626762626367636264676462656765626664666566676663676667000000008185015260a0860152835180850185529182527f62626762636366636464656464656565636666666267676700000000000000008284015260c085019190915282518084018452601281527162626862636367636464666465656566656760701b8184015260e0850152825180840184528281527f6262636264626562666267626663656464656366626763676467656766676767818401526101008501528251808401845260148082527f64626562666264636464646564666467656766670000000000000000000000008285015261012086019190915283518085018552600a8152696363646465656666676760b01b81850152610140860152835180850185528181527f646265626662666366646665666664676567666700000000000000000000000081850152610160860152835180850185529081527f65626463656366636364656467646565656665670000000000000000000000008184015261018085015282518084018452600e81526d0c4d0c6d0c8d0cad0ccd0ced0d0d60931b818401526101a08501528251908101909252602c8083526101c09093019290620043d79083013981526020016040518060400160405280601c81526020017f646365636663676464656565666567656366676664676567666767670000000081525081526020016040518060400160405280601c81526020017f636263636364646465646664636567656366676663676467656766670000000081525081526020016040518060400160405280601281526020017165636663676364646465646665676667676760701b81525081526020016040518060400160405280601c81526020017f676267636464656466646764636567656366676664676567666767670000000081525081526020016040518060400160405280601c81526020017f646365636663636467646365646565656665636664676567666767670000000081525081526020016040518060400160405280601081526020016f6662676265636564666465656566656760801b8152508152602001604051806060016040528060268152602001620045f56026913981526020016040518060400160405280601881526020017f636263636364646465646664636567656366676663676767000000000000000081525081526020016040518060400160405280601081526020016f6662656466646665666665676667676760801b81525081526020016040518060400160405280601081526020016f0cec4cec8cecaceccc8cecececad0ccd60831b81525081526020016040518060400160405280601681526020017f636263636563636464646365646563666566636766670000000000000000000081525081526020016040518060400160405280600e81526020016d656265636564656565666667676760901b81525081526020016040518060400160405280601e81526020017f636364636663636465646764636565656765636665666766636765676767000081525081526020016040518060400160405280601881526020017f636364636563666363646764636567656366676663676767000000000000000081525081526020016040518060400160405280601881526020017f646365636663636467646365676563666766646765676667000000000000000081525081526020016040518060400160405280601c81526020017f636364636563666363646764636567656366646665666666636763680000000081525081526020016040518060400160405280601e81526020017f646365636663676363646764636567656466656666666766676767686868000081525081526020016040518060400160405280600e81526020016d656366636763646464656466646760901b81525081526020016040518060400160405280601881526020017f646365636663636464656565666567666367646765676667000000000000000081525081526020016040518060400160405280601281526020017165626463656366636564656565666667676760701b81525081526020016040518060400160405280601681526020017f636367636364676463656765636667666467656766670000000000000000000081525081526020016040518060400160405280601281526020017163636763636467646465666564666666656760701b81525081526020016040518060400160405280601a81526020017f636367636364656467646365656567656366656667666467666700000000000081525081526020016040518060400160405280601281526020017163636763646466646565646666666367676760701b81525081526020016040518060400160405280601c81526020017f636367636364676463656765646665666666676667676468656866680000000081525081526020016040518060400160405280601a81526020017f636364636563666367636664656564666367646765676667676700000000000081525081526020016040518060400160405280601681526020017f656266626762656363646464656565666567666767670000000000000000000081525081526020016040518060400160405280600c81526020016b65626563656465656566656760a01b81525081526020016040518060400160405280601681526020017f6362646265626563666467646565656663676467656700000000000000000000815250815260200160405180604001604052806008815260200167656267626463666360c01b815250815250600f90605e6200119a929190620014cc565b50604080516103808101825260016103408201818152606160f81b610360840152825282518084018452818152603160f91b6020828101919091528084019190915283518085018552828152606360f81b818301528385015283518085018552828152601960fa1b81830152606084015283518085018552828152606560f81b81830152608084015283518085018552828152603360f91b8183015260a084015283518085018552828152606760f81b8183015260c084015283518085018552828152600d60fb1b8183015260e084015283518085018552828152606960f81b8183015261010084015283518085018552828152603560f91b8183015261012084015283518085018552828152606b60f81b8183015261014084015283518085018552828152601b60fa1b8183015261016084015283518085018552828152606d60f81b8183015261018084015283518085018552828152603760f91b818301526101a084015283518085018552828152606f60f81b818301526101c084015283518085018552828152600760fc1b818301526101e084015283518085018552828152607160f81b8183015261020084015283518085018552828152603960f91b8183015261022084015283518085018552828152607360f81b8183015261024084015283518085018552828152601d60fa1b8183015261026084015283518085018552828152607560f81b8183015261028084015283518085018552828152603b60f91b818301526102a084015283518085018552828152607760f81b818301526102c084015283518085018552828152600f60fb1b818301526102e084015283518085018552828152607960f81b818301526103008401528351808501909452908352603d60f91b908301526103208101919091526200144190601090601a62001530565b503480156200144f57600080fd5b506040805180820182526008815267135e53dddb93999d60c21b60208083019182528351808501909452600384526226a7a760e91b9084015281519192916200149b9160009162001582565b508051620014b190600190602084019062001582565b5050601180546001600160a01b0319163317905550620016c7565b8280548282559060005260206000209081019282156200151e579160200282015b828111156200151e57825180516200150d91849160209091019062001582565b5091602001919060010190620014ed565b506200152c9291506200160d565b5090565b8280548282559060005260206000209081019282156200151e579160200282015b828111156200151e57825180516200157191849160209091019062001582565b509160200191906001019062001551565b82805462001590906200168a565b90600052602060002090601f016020900481019282620015b45760008555620015ff565b82601f10620015cf57805160ff1916838001178555620015ff565b82800160010185558215620015ff579182015b82811115620015ff578251825591602001919060010190620015e2565b506200152c9291506200162e565b808211156200152c57600062001624828262001645565b506001016200160d565b5b808211156200152c57600081556001016200162f565b50805462001653906200168a565b6000825580601f1062001667575062001687565b601f0160209004906000526020600020908101906200168791906200162e565b50565b600181811c908216806200169f57607f821691505b60208210811415620016c157634e487b7160e01b600052602260045260246000fd5b50919050565b612cb880620016d76000396000f3fe6080604052600436106101405760003560e01c80634f6ccce7116100b6578063bf64db1d1161006f578063bf64db1d1461038d578063c11feac1146103ad578063c87b56dd146103cd578063da86f4a9146103ed578063e985e9c514610400578063f2fde38b1461044957610140565b80634f6ccce7146102d85780636352211e146102f857806370a082311461031857806395d89b4114610338578063a22cb4651461034d578063b88d4fde1461036d57610140565b806318160ddd1161010857806318160ddd1461022457806323b872dd146102435780632f745c59146102635780633ccfd60b1461028357806342842e0e1461028b578063438b6300146102ab57610140565b806301ffc9a7146101455780630561a9f11461017a57806306fdde03146101a8578063081812fc146101ca578063095ea7b314610202575b600080fd5b34801561015157600080fd5b506101656101603660046122f8565b610469565b60405190151581526020015b60405180910390f35b34801561018657600080fd5b5061019a610195366004612376565b610496565b604051610171929190612a94565b3480156101b457600080fd5b506101bd61053b565b60405161017191906129de565b3480156101d657600080fd5b506101ea6101e5366004612376565b6105cd565b6040516001600160a01b039091168152602001610171565b34801561020e57600080fd5b5061022261021d3660046122cf565b610667565b005b34801561023057600080fd5b506008545b604051908152602001610171565b34801561024f57600080fd5b5061022261025e3660046121e1565b61077d565b34801561026f57600080fd5b5061023561027e3660046122cf565b6107ae565b610222610844565b34801561029757600080fd5b506102226102a63660046121e1565b610881565b3480156102b757600080fd5b506102cb6102c6366004612195565b61089c565b604051610171919061299a565b3480156102e457600080fd5b506102356102f3366004612376565b61095a565b34801561030457600080fd5b506101ea610313366004612376565b6109fb565b34801561032457600080fd5b50610235610333366004612195565b610a72565b34801561034457600080fd5b506101bd610af9565b34801561035957600080fd5b50610222610368366004612295565b610b08565b34801561037957600080fd5b5061022261038836600461221c565b610bda565b34801561039957600080fd5b506101bd6103a8366004612376565b610c12565b3480156103b957600080fd5b506101bd6103c8366004612376565b610ca5565b3480156103d957600080fd5b506101bd6103e8366004612376565b610dea565b6102226103fb366004612330565b610e80565b34801561040c57600080fd5b5061016561041b3660046121af565b6001600160a01b03918216600090815260056020908152604080832093909416825291909152205460ff1690565b34801561045557600080fd5b50610222610464366004612195565b610ed5565b60006001600160e01b0319821663780e9d6360e01b148061048e575061048e82610f0e565b90505b919050565b600a60205260009081526040902080546001820180549192916104b890612b60565b80601f01602080910402602001604051908101604052809291908181526020018280546104e490612b60565b80156105315780601f1061050657610100808354040283529160200191610531565b820191906000526020600020905b81548152906001019060200180831161051457829003601f168201915b5050505050905082565b60606000805461054a90612b60565b80601f016020809104026020016040519081016040528092919081815260200182805461057690612b60565b80156105c35780601f10610598576101008083540402835291602001916105c3565b820191906000526020600020905b8154815290600101906020018083116105a657829003601f168201915b5050505050905090565b6000818152600260205260408120546001600160a01b031661064b5760405162461bcd60e51b815260206004820152602c60248201527f4552433732313a20617070726f76656420717565727920666f72206e6f6e657860448201526b34b9ba32b73a103a37b5b2b760a11b60648201526084015b60405180910390fd5b506000908152600460205260409020546001600160a01b031690565b6000610672826109fb565b9050806001600160a01b0316836001600160a01b031614156106e05760405162461bcd60e51b815260206004820152602160248201527f4552433732313a20617070726f76616c20746f2063757272656e74206f776e656044820152603960f91b6064820152608401610642565b336001600160a01b03821614806106fc57506106fc813361041b565b61076e5760405162461bcd60e51b815260206004820152603860248201527f4552433732313a20617070726f76652063616c6c6572206973206e6f74206f7760448201527f6e6572206e6f7220617070726f76656420666f7220616c6c00000000000000006064820152608401610642565b6107788383610f5e565b505050565b6107873382610fcc565b6107a35760405162461bcd60e51b815260040161064290612a43565b6107788383836110c3565b60006107b983610a72565b821061081b5760405162461bcd60e51b815260206004820152602b60248201527f455243373231456e756d657261626c653a206f776e657220696e646578206f7560448201526a74206f6620626f756e647360a81b6064820152608401610642565b506001600160a01b03919091166000908152600660209081526040808320938352929052205490565b6011546001600160a01b0316331461085b57600080fd5b60405133904780156108fc02916000818181858888f1935050505061087f57600080fd5b565b61077883838360405180602001604052806000815250610bda565b606060006108a983610a72565b905060008167ffffffffffffffff8111156108d457634e487b7160e01b600052604160045260246000fd5b6040519080825280602002602001820160405280156108fd578160200160208202803683370190505b50905060005b828110156109525761091585826107ae565b82828151811061093557634e487b7160e01b600052603260045260246000fd5b60209081029190910101528061094a81612b9b565b915050610903565b509392505050565b600061096560085490565b82106109c85760405162461bcd60e51b815260206004820152602c60248201527f455243373231456e756d657261626c653a20676c6f62616c20696e646578206f60448201526b7574206f6620626f756e647360a01b6064820152608401610642565b600882815481106109e957634e487b7160e01b600052603260045260246000fd5b90600052602060002001549050919050565b6000818152600260205260408120546001600160a01b03168061048e5760405162461bcd60e51b815260206004820152602960248201527f4552433732313a206f776e657220717565727920666f72206e6f6e657869737460448201526832b73a103a37b5b2b760b91b6064820152608401610642565b60006001600160a01b038216610add5760405162461bcd60e51b815260206004820152602a60248201527f4552433732313a2062616c616e636520717565727920666f7220746865207a65604482015269726f206164647265737360b01b6064820152608401610642565b506001600160a01b031660009081526003602052604090205490565b60606001805461054a90612b60565b6001600160a01b038216331415610b615760405162461bcd60e51b815260206004820152601960248201527f4552433732313a20617070726f766520746f2063616c6c6572000000000000006044820152606401610642565b3360008181526005602090815260408083206001600160a01b0387168085529252909120805460ff1916841515179055906001600160a01b03167f17307eab39ab6107e8899845ad3d59bd9653f200f220920489ca2b5937696c3183604051610bce911515815260200190565b60405180910390a35050565b610be43383610fcc565b610c005760405162461bcd60e51b815260040161064290612a43565b610c0c8484848461126e565b50505050565b60608080600a6000858152602001908152602001600020600101604051602001610c3d92919061254a565b60408051601f198184030181528282526000868152600a602090815292902054909350610c6c928492016124db565b604051602081830303815290604052905080604051602001610c8e91906128e4565b604051602081830303815290604052915050919050565b60408051808201909152600d81526c54686973206973204e4654202360981b60208201526060908190600a8082610cdb876112a1565b604051602001610cec92919061246e565b604051602081830303815290604052925083610d098484846113bc565b604051602001610d1a92919061246e565b60408051601f198184030181528282018252600b83526a026b4b73a32b2103337b9160ad1b60208481019190915260008a8152600a9182905292909220549096509194509250601491508390610d6f906112a1565b604051602001610d8092919061249d565b604051602081830303815290604052925083610d9d8484846113bc565b604051602001610dae92919061246e565b604051602081830303815290604052935083604051602001610dd091906127a1565b60408051808303601f190181529190529695505050505050565b6000818152600260205260409020546060906001600160a01b0316610e0e57600080fd5b610e5a610e1a83611465565b610e2b610e2685610ca5565b611580565b610e3485610c12565b604051602001610e4693929190612647565b604051602081830303815290604052611580565b604051602001610e6a9190612918565b6040516020818303038152906040529050919050565b6000610e8b60085490565b9050600e54825110610e9c57600080fd5b600d54341015610eab57600080fd5b600b548110610eb957600080fd5b333b15610ec557600080fd5b610ed08234836116f7565b505b50565b6011546001600160a01b03163314610eec57600080fd5b601180546001600160a01b0319166001600160a01b0392909216919091179055565b60006001600160e01b031982166380ac58cd60e01b1480610f3f57506001600160e01b03198216635b5e139f60e01b145b8061048e57506301ffc9a760e01b6001600160e01b031983161461048e565b600081815260046020526040902080546001600160a01b0319166001600160a01b0384169081179091558190610f93826109fb565b6001600160a01b03167f8c5be1e5ebec7d5bd14f71427d1e84f3dd0314c0f7b2291e5b200ac8c7c3b92560405160405180910390a45050565b6000818152600260205260408120546001600160a01b03166110455760405162461bcd60e51b815260206004820152602c60248201527f4552433732313a206f70657261746f7220717565727920666f72206e6f6e657860448201526b34b9ba32b73a103a37b5b2b760a11b6064820152608401610642565b6000611050836109fb565b9050806001600160a01b0316846001600160a01b0316148061108b5750836001600160a01b0316611080846105cd565b6001600160a01b0316145b806110bb57506001600160a01b0380821660009081526005602090815260408083209388168352929052205460ff165b949350505050565b826001600160a01b03166110d6826109fb565b6001600160a01b03161461113e5760405162461bcd60e51b815260206004820152602960248201527f4552433732313a207472616e73666572206f6620746f6b656e2074686174206960448201526839903737ba1037bbb760b91b6064820152608401610642565b6001600160a01b0382166111a05760405162461bcd60e51b8152602060048201526024808201527f4552433732313a207472616e7366657220746f20746865207a65726f206164646044820152637265737360e01b6064820152608401610642565b6111ab83838361172a565b6111b6600082610f5e565b6001600160a01b03831660009081526003602052604081208054600192906111df908490612b1d565b90915550506001600160a01b038216600090815260036020526040812080546001929061120d908490612aad565b909155505060008181526002602052604080822080546001600160a01b0319166001600160a01b0386811691821790925591518493918716917fddf252ad1be2c89b69c2b068fc378daa952ba7f163c4a11628f55a4df523b3ef91a4505050565b6112798484846110c3565b611285848484846117e7565b610c0c5760405162461bcd60e51b8152600401610642906129f1565b6060816112c657506040805180820190915260018152600360fc1b6020820152610491565b8160005b81156112f057806112da81612b9b565b91506112e99050600a83612aea565b91506112ca565b60008167ffffffffffffffff81111561131957634e487b7160e01b600052604160045260246000fd5b6040519080825280601f01601f191660200182016040528015611343576020820181803683370190505b5090505b84156110bb57611358600183612b1d565b9150611365600a86612bd6565b611370906030612aad565b60f81b81838151811061139357634e487b7160e01b600052603260045260246000fd5b60200101906001600160f81b031916908160001a9053506113b5600a86612aea565b9450611347565b604080516020810190915260008082526060919085905b8151811015611458578261142383838151811061140057634e487b7160e01b600052603260045260246000fd5b016020015160f81c611413846008612afe565b61141d908a612aad565b886118f4565b60405160200161143492919061246e565b6040516020818303038152906040529250808061145090612b9b565b9150506113d3565b50909150505b9392505050565b60608161148a57506040805180820190915260018152600360fc1b6020820152610491565b8160005b81156114b4578061149e81612b9b565b91506114ad9050600a83612aea565b915061148e565b60008167ffffffffffffffff8111156114dd57634e487b7160e01b600052604160045260246000fd5b6040519080825280601f01601f191660200182016040528015611507576020820181803683370190505b5090505b84156110bb5761151c600183612b1d565b9150611529600a86612bd6565b611534906030612aad565b60f81b81838151811061155757634e487b7160e01b600052603260045260246000fd5b60200101906001600160f81b031916908160001a905350611579600a86612aea565b945061150b565b60608151600014156115a15750604080516020810190915260008152610491565b6000604051806060016040528060408152602001612c4360409139905060006003845160026115d09190612aad565b6115da9190612aea565b6115e5906004612afe565b905060006115f4826020612aad565b67ffffffffffffffff81111561161a57634e487b7160e01b600052604160045260246000fd5b6040519080825280601f01601f191660200182016040528015611644576020820181803683370190505b509050818152600183018586518101602084015b818310156116b25760039283018051603f601282901c811687015160f890811b8552600c83901c8216880151811b6001860152600683901c8216880151811b60028601529116860151901b93820193909352600401611658565b6003895106600181146116cc57600281146116dd576116e9565b613d3d60f01b6001198301526116e9565b603d60f81b6000198301525b509398975050505050505050565b6000818152600a60209081526040909120838155845161171f9260019092019186019061206f565b506107783382611bb3565b6001600160a01b0383166117855761178081600880546000838152600960205260408120829055600182018355919091527ff3f7a9fe364faab93b216da50a3214154f22a0a2b415b23a84c8169e8b636ee30155565b6117a8565b816001600160a01b0316836001600160a01b0316146117a8576117a88382611d01565b6001600160a01b0382166117c4576117bf81611d9e565b610778565b826001600160a01b0316826001600160a01b031614610778576107788282611e77565b60006001600160a01b0384163b156118e957604051630a85bd0160e11b81526001600160a01b0385169063150b7a029061182b90339089908890889060040161295d565b602060405180830381600087803b15801561184557600080fd5b505af1925050508015611875575060408051601f3d908101601f1916820190925261187291810190612314565b60015b6118cf573d8080156118a3576040519150601f19603f3d011682016040523d82523d6000602084013e6118a8565b606091505b5080516118c75760405162461bcd60e51b8152600401610642906129f1565b805181602001fd5b6001600160e01b031916630a85bd0160e11b1490506110bb565b506001949350505050565b60408051602081019091526000815260609060218510806119155750607e85115b1561192157905061145e565b60005b6002600f611933602189612b1d565b8154811061195157634e487b7160e01b600052603260045260246000fd5b90600052602060002001805461196690612b60565b611971929150612aea565b811015611baa5781611a8a611a78611a73600f61198f60218c612b1d565b815481106119ad57634e487b7160e01b600052603260045260246000fd5b9060005260206000200180546119c290612b60565b80601f01602080910402602001604051908101604052809291908181526020018280546119ee90612b60565b8015611a3b5780601f10611a1057610100808354040283529160200191611a3b565b820191906000526020600020905b815481529060010190602001808311611a1e57829003601f168201915b5050505050856002611a4d9190612afe565b611a58906001612aad565b611a63876002612afe565b611a6e906002612aad565b611ebb565b611fb2565b611a859060ff1688612aad565b6112a1565b611b74611a78611a73600f611aa060218d612b1d565b81548110611abe57634e487b7160e01b600052603260045260246000fd5b906000526020600020018054611ad390612b60565b80601f0160208091040260200160405190810160405280929190818152602001828054611aff90612b60565b8015611b4c5780601f10611b2157610100808354040283529160200191611b4c565b820191906000526020600020905b815481529060010190602001808311611b2f57829003601f168201915b5050505050866002611b5e9190612afe565b611b69886002612afe565b611a6e906001612aad565b604051602001611b86939291906125b4565b60405160208183030381529060405291508080611ba290612b9b565b915050611924565b50949350505050565b6001600160a01b038216611c095760405162461bcd60e51b815260206004820181905260248201527f4552433732313a206d696e7420746f20746865207a65726f20616464726573736044820152606401610642565b6000818152600260205260409020546001600160a01b031615611c6e5760405162461bcd60e51b815260206004820152601c60248201527f4552433732313a20746f6b656e20616c7265616479206d696e746564000000006044820152606401610642565b611c7a6000838361172a565b6001600160a01b0382166000908152600360205260408120805460019290611ca3908490612aad565b909155505060008181526002602052604080822080546001600160a01b0319166001600160a01b03861690811790915590518392907fddf252ad1be2c89b69c2b068fc378daa952ba7f163c4a11628f55a4df523b3ef908290a45050565b60006001611d0e84610a72565b611d189190612b1d565b600083815260076020526040902054909150808214611d6b576001600160a01b03841660009081526006602090815260408083208584528252808320548484528184208190558352600790915290208190555b5060009182526007602090815260408084208490556001600160a01b039094168352600681528383209183525290812055565b600854600090611db090600190612b1d565b60008381526009602052604081205460088054939450909284908110611de657634e487b7160e01b600052603260045260246000fd5b906000526020600020015490508060088381548110611e1557634e487b7160e01b600052603260045260246000fd5b6000918252602080832090910192909255828152600990915260408082208490558582528120556008805480611e5b57634e487b7160e01b600052603160045260246000fd5b6001900381819060005260206000200160009055905550505050565b6000611e8283610a72565b6001600160a01b039093166000908152600660209081526040808320868452825280832085905593825260079052919091209190915550565b6060836000611eca8585612b1d565b67ffffffffffffffff811115611ef057634e487b7160e01b600052604160045260246000fd5b6040519080825280601f01601f191660200182016040528015611f1a576020820181803683370190505b509050845b84811015611fa857828181518110611f4757634e487b7160e01b600052603260045260246000fd5b01602001516001600160f81b03191682611f618884612b1d565b81518110611f7f57634e487b7160e01b600052603260045260246000fd5b60200101906001600160f81b031916908160001a90535080611fa081612b9b565b915050611f1f565b5095945050505050565b6000805b60105460ff821610156120695782604051602001611fd49190612452565b6040516020818303038152906040528051906020012060108260ff168154811061200e57634e487b7160e01b600052603260045260246000fd5b90600052602060002001604051602001612028919061263b565b6040516020818303038152906040528051906020012014156120575761204f816001612ac5565b915050610491565b8061206181612bb6565b915050611fb6565b50600080fd5b82805461207b90612b60565b90600052602060002090601f01602090048101928261209d57600085556120e3565b82601f106120b657805160ff19168380011785556120e3565b828001600101855582156120e3579182015b828111156120e35782518255916020019190600101906120c8565b506120ef9291506120f3565b5090565b5b808211156120ef57600081556001016120f4565b600067ffffffffffffffff8084111561212357612123612c16565b604051601f8501601f19908116603f0116810190828211818310171561214b5761214b612c16565b8160405280935085815286868601111561216457600080fd5b858560208301376000602087830101525050509392505050565b80356001600160a01b038116811461049157600080fd5b6000602082840312156121a6578081fd5b61145e8261217e565b600080604083850312156121c1578081fd5b6121ca8361217e565b91506121d86020840161217e565b90509250929050565b6000806000606084860312156121f5578081fd5b6121fe8461217e565b925061220c6020850161217e565b9150604084013590509250925092565b60008060008060808587031215612231578081fd5b61223a8561217e565b93506122486020860161217e565b925060408501359150606085013567ffffffffffffffff81111561226a578182fd5b8501601f8101871361227a578182fd5b61228987823560208401612108565b91505092959194509250565b600080604083850312156122a7578182fd5b6122b08361217e565b9150602083013580151581146122c4578182fd5b809150509250929050565b600080604083850312156122e1578182fd5b6122ea8361217e565b946020939093013593505050565b600060208284031215612309578081fd5b813561145e81612c2c565b600060208284031215612325578081fd5b815161145e81612c2c565b600060208284031215612341578081fd5b813567ffffffffffffffff811115612357578182fd5b8201601f81018413612367578182fd5b6110bb84823560208401612108565b600060208284031215612387578081fd5b5035919050565b600081518084526123a6816020860160208601612b34565b601f01601f19169290920160200192915050565b8054600090600181811c90808316806123d457607f831692505b60208084108214156123f457634e487b7160e01b86526022600452602486fd5b818015612408576001811461241957612446565b60ff19861689528489019650612446565b60008881526020902060005b8681101561243e5781548b820152908501908301612425565b505084890196505b50505050505092915050565b60008251612464818460208701612b34565b9190910192915050565b60008351612480818460208801612b34565b835190830190612494818360208801612b34565b01949350505050565b600083516124af818460208801612b34565b8351908301906124c3818360208801612b34565b632046544d60e01b9101908152600401949350505050565b600083516124ed818460208801612b34565b7f7b2274726169745f74797065223a22416d6f756e742070616964222c2276616c920191825250643ab2911d1160d91b60208201526025810191909152632046544d60e01b604582015261227d60f01b6049820152604b01919050565b6000835161255c818460208801612b34565b7f7b2274726169745f74797065223a225465787420636f6e74656e74222c22766190830190815265363ab2911d1160d11b602082015261259f60268201856123ba565b62089f4b60ea1b815260030195945050505050565b600084516125c6818460208901612b34565b743c7265637420636c6173733d276330312720783d2760581b90830190815284516125f8816015840160208901612b34565b642720793d2760d81b60159290910191820152835161261e81601a840160208801612b34565b6213979f60e91b601a9290910191820152601d0195945050505050565b600061145e82846123ba565b737b226e616d65223a20224d794f776e4e4654202360601b81528351600090612677816014850160208901612b34565b7f222c20226465736372697074696f6e223a20224d794f776e4e465420697320616014918401918201527f20636f6c6c656374696f6e206f6620636f6d706c6574656c79204f4e2d43484160348201527f494e204e465473207468617420796f752063616e20637573746f6d697a65206f60548201527f6e206d696e742e222c2022696d616765223a2022646174613a696d6167652f7360748201526d1d99cade1b5b0ed8985cd94d8d0b60921b6094820152845161273d8160a2840160208901612b34565b6e11161130ba3a3934b13aba32b9911d60891b60a29290910191820152835161276d8160b1840160208801612b34565b61279661278960b183850101636e6f6e6560e01b815260040190565b607d60f81b815260010190565b979650505050505050565b60007f3c7376672069643d226d6f7573652d7376672220786d6c6e733d22687474703a82527f2f2f7777772e77332e6f72672f323030302f737667222070726573657276654160208301527f7370656374526174696f3d22784d696e594d696e206d6565742220766965774260408301526f037bc1e9118101810191a10191a111f160851b6060830152825161283e816070850160208701612b34565b7f3c7374796c653e726563747b77696474683a3170783b6865696768743a31707860709390910192830152507f3b7d20236d6f7573652d7376677b73686170652d72656e646572696e673a206360908201527f7269737065646765733b7d202e6330307b66696c6c3a233030303030307d2e6360b08201527f30317b66696c6c3a234646464646467d3c2f7374796c653e3c2f7376673e000060d082015260ee01919050565b6000605b60f81b82528251612900816001850160208701612b34565b605d60f81b6001939091019283015250600201919050565b60007f646174613a6170706c69636174696f6e2f6a736f6e3b6261736536342c0000008252825161295081601d850160208701612b34565b91909101601d0192915050565b6001600160a01b03858116825284166020820152604081018390526080606082018190526000906129909083018461238e565b9695505050505050565b6020808252825182820181905260009190848201906040850190845b818110156129d2578351835292840192918401916001016129b6565b50909695505050505050565b60006020825261145e602083018461238e565b60208082526032908201527f4552433732313a207472616e7366657220746f206e6f6e20455243373231526560408201527131b2b4bb32b91034b6b83632b6b2b73a32b960711b606082015260800190565b60208082526031908201527f4552433732313a207472616e736665722063616c6c6572206973206e6f74206f6040820152701ddb995c881b9bdc88185c1c1c9bdd9959607a1b606082015260800190565b6000838252604060208301526110bb604083018461238e565b60008219821115612ac057612ac0612bea565b500190565b600060ff821660ff84168060ff03821115612ae257612ae2612bea565b019392505050565b600082612af957612af9612c00565b500490565b6000816000190483118215151615612b1857612b18612bea565b500290565b600082821015612b2f57612b2f612bea565b500390565b60005b83811015612b4f578181015183820152602001612b37565b83811115610c0c5750506000910152565b600181811c90821680612b7457607f821691505b60208210811415612b9557634e487b7160e01b600052602260045260246000fd5b50919050565b6000600019821415612baf57612baf612bea565b5060010190565b600060ff821660ff811415612bcd57612bcd612bea565b60010192915050565b600082612be557612be5612c00565b500690565b634e487b7160e01b600052601160045260246000fd5b634e487b7160e01b600052601260045260246000fd5b634e487b7160e01b600052604160045260246000fd5b6001600160e01b031981168114610ed257600080fdfe4142434445464748494a4b4c4d4e4f505152535455565758595a6162636465666768696a6b6c6d6e6f707172737475767778797a303132333435363738392b2fa264697066735822122001611283df743e5ddeda5e72b870b185e01bc9d83b1a9ca580a21d7712d33b0864736f6c6343000803003363626462656266626263676362646764636564656565666567656766636764676567666763626462656266626263676362646764626563656465656566656765626667666267676764616561666167616362686262636563666362646464626564656266656666666367686764686568666867686362646265626662626367636264626565656665676562666766636764676567666762626362646265626662626367636264676462656365646565656665626666666267676765616362646265626662676263636563636464646564666467646565676563666466656666666766656764626762636364636563666367636863646467646465676563666466656666666766686664676767646265626662676263636663686363646564676468646365656566656765686563666467656766676767626263626462656266626263676362646364646465646664626567656266676662676367646765676667636264626562666262636763636464646564666462656765626667666367646765676667636264626562666262636763626467646265646567656266656667666367646765676667626263626462656266626762626362646364646465646664626562666267636764676567666767676362646265626662626367636764636564656565666562666267636764676567666767676362646265626662626366636763626465646764626564656765626663666766636764676567666762626362646265626662676262636264636464646564666467656266676663676467656766676362646265626662626362646364646465646664626567656266676663676467656766676463656366636763686363646864636568656466656666666766686668676468656866686768",
  "immutableReferences": {},
  "source": "// contracts/MyOwnNft.sol\r\n// SPDX-License-Identifier: MIT\r\npragma solidity ^0.8.0;\r\n\r\nimport \"@openzeppelin/contracts/token/ERC721/extensions/ERC721Enumerable.sol\";\r\nimport \"@openzeppelin/contracts/utils/Strings.sol\";\r\nimport \"./MyOwnNftLibrary.sol\";\r\n\r\ncontract MyOwnNft is ERC721Enumerable {\r\n    using MyOwnNftLibrary for uint8;\r\n\r\n    struct CustomNftContent {\r\n        uint256 amount_paid;\r\n        string text_content;\r\n    }\r\n\r\n    //Mappings\r\n    mapping(uint256 => CustomNftContent) public customNftsContent;\r\n\r\n    //uint256s\r\n    uint256 MAX_SUPPLY = 100000; // to decide carefully!!!!!!\r\n    uint256 MAX_PER_ADDRESS = 5; // to implement!!!!!!\r\n    uint256 MIN_PRICE = 1000000000000000000; // to check!!!!!!!\r\n    uint256 MAX_STRING_LENGTH = 24 * 5;\r\n\r\n    string[] charsPixels = ['fafbfcfdfefg', 'eagaebgb', 'dbgbccdcecfcgchcddgddegecfdfefffgfhfdggg', 'eacbdbebfbgbcceccdddedfdgdeegecfdfefffgfeg', 'cbdbhbccdcgcfdeedfgfhfcggghg', 'ebdcfceddefehecfgfdgegfghg', 'fbec', 'fbecedeeeffg', 'ebfcfdfeffeg', 'dcfcedcedeeefegeefdgfg', 'ecedcedeeefegeefeg', 'fffgeh', 'cedeeefege', 'efffegfg', 'gcfdeedfcg', 'cbdbebfbbcfcgcbdedgdbedegebfcfgfcgdgegfg', 'cbdbbcdcdddedfbgcgdgegfg', 'cbdbebfbbcgcgdcedeeefebfbgcgdgegfggg', 'cbdbebfbbcgcedfdgebfgfcgdgegfg', 'ebdceccdedbeeebfcfdfefffgfeg', 'bbcbdbebfbgbbcbdcdddedfdgebfgfcgdgegfg', 'cbdbebfbbcbdcdddedfdbegebfgfcgdgegfg', 'bbcbdbebfbgbgcfdeedfdg', 'cbdbebfbbcgccdddedfdbegebfgfcgdgegfg', 'cbdbebfbbcgcbdgdcedeeefegegfcgdgegfg', 'edeg', 'ecefegdh', 'fceddeeffg', 'cdddedfdgdcfdfefffgf', 'dcedfeefdg', 'dbebfbgbcchcgdfefg', 'dbebfbgbccfchccdedgdhdceeefegehecfdgegfggg', 'cbdbebfbbcgcbdgdbecedeeefegebfgfbggg', 'bbcbdbebfbbcgcbdcdddedfdbegebfgfbgcgdgegfg', 'cbdbebfbbcgcbdbebfgfcgdgegfg', 'bbcbdbebbcfcbdgdbegebfffbgcgdgeg', 'bbcbdbebfbgbbcbdcdddedfdbebfbgcgdgegfggg', 'bbcbdbebfbgbbcbdcdddedfdbebfbg', 'cbdbebfbbcgcbdbeeefegebfgfcgdgegfg', 'bbgbbcgcbdcdddedfdgdbegebfgfbggg', 'cbdbebfbgbecedeeefcgdgegfggg', 'gbgcgdbegebfgfcgdgegfg', 'bbfbbcecbdcdddbeeebfffbggg', 'bbbcbdbebfbgcgdgegfggg', 'bbgbbcccfcgcbdddedgdbegebfgfbggg', 'bbgbbcccgcbdddgdbeeegebfffgfbggg', 'cbdbebfbbcgcbdgdbegebfgfcgdgegfg', 'bbcbdbebfbbcgcbdgdbecedeeefebfbg', 'cbdbebfbbcgcbdgdbedegebfefgfcgdgegfg', 'bbcbdbebfbbcgcbdgdbecedeeefebfffbggg', 'cbdbebfbbccdddedfdgebfgfcgdgegfg', 'bbcbdbebfbgbhbecedeeefeg', 'bbgbbcgcbdgdbegebfgfcgdgegfg', 'bbgbbcgcbdgdbegecfffdgeg', 'bbgbbcgcbdgdbegebfdfefgfcgfg', 'bbgbccfcddeddeeecfffbggg', 'bbhbccgcddfdeeefeg', 'bbcbdbebfbgbfceddecfbgcgdgegfggg', 'dbebfbdcdddedfdgegfg', 'ccddeeffgg', 'dbebfbfcfdfeffdgegfg', 'ebdcecfccdedgdeeefeg', 'bhchdhehfhghhh', 'daeafagacbhbbcecfcbdddbedebfefffcghgdhehfhgh', 'dcecfcgddeeefegecfgfdgegfggg', 'cbcccdddedfdcegecfgfcgdgegfg', 'ecfcgcdddedfegfggg', 'gbgcddedfdgdcegecfgfdgegfggg', 'dcecfccdgdcedeeefecfdgegfggg', 'fbgbecedfdeeefeg', 'dcecfcgchccdhdcehedfefffgfhfhgdhehfhgh', 'cbcccdddedfdcegecfgfcggg', 'fbedfdfeffegfggg', 'gbgdgegfdgggehfh', 'cbcceccdddcedecfefcgfg', 'ebecedeeeffggg', 'ccdcfccdedgdceeegecfefgfcgeggg', 'ccdcecfccdgdcegecfgfcggg', 'dcecfccdgdcegecfgfdgegfg', 'ccdcecfccdgdcegecfdfefffcgch', 'dcecfcgccdgdcegedfefffgfggghhh', 'ecfcgcdddedfdg', 'dcecfccddeeefegfcgdgegfg', 'ebdcecfcedeeeffggg', 'ccgccdgdcegecfgfdgegfg', 'ccgccdgddefedfffeg', 'ccgccdedgdceeegecfefgfdgfg', 'ccgcddfdeedfffcggg', 'ccgccdgdcegedfefffgfggdhehfh', 'ccdcecfcgcfdeedfcgdgegfggg', 'ebfbgbeccdddeeefegfggg', 'ebecedeeefeg', 'cbdbebecfdgdeeefcgdgeg', 'ebgbdcfc'];\r\n    \r\n    string[] LETTERS = ['a','b','c','d','e','f','g','h','i','j','k','l','m','n','o','p','q','r','s','t','u','v','w','x','y','z'];\r\n\r\n    //string chars_pixels = 'fafbfcfdfefgeagaebgbdbgbccdcecfcgchcddgddegecfdfefffgfhfdgggeacbdbebfbgbcceccdddedfdgdeegecfdfefffgfegcbdbhbccdcgcfdeedfgfhfcggghgebdcfceddefehecfgfdgegfghgfbecfbecedeeeffgebfcfdfeffegdcfcedcedeeefegeefdgfgecedcedeeefegeefegfffgehcedeeefegeefffegfggcfdeedfcgcbdbebfbbcfcgcbdedgdbedegebfcfgfcgdgegfgcbdbbcdcdddedfbgcgdgegfgcbdbebfbbcgcgdcedeeefebfbgcgdgegfgggcbdbebfbbcgcedfdgebfgfcgdgegfgebdceccdedbeeebfcfdfefffgfegbbcbdbebfbgbbcbdcdddedfdgebfgfcgdgegfgcbdbebfbbcbdcdddedfdbegebfgfcgdgegfgbbcbdbebfbgbgcfdeedfdgcbdbebfbbcgccdddedfdbegebfgfcgdgegfgcbdbebfbbcgcbdgdcedeeefegegfcgdgegfgedegecefegdhfceddeeffgcdddedfdgdcfdfefffgfdcedfeefdgdbebfbgbcchcgdfefgdbebfbgbccfchccdedgdhdceeefegehecfdgegfgggcbdbebfbbcgcbdgdbecedeeefegebfgfbgggbbcbdbebfbbcgcbdcdddedfdbegebfgfbgcgdgegfgcbdbebfbbcgcbdbebfgfcgdgegfgbbcbdbebbcfcbdgdbegebfffbgcgdgegbbcbdbebfbgbbcbdcdddedfdbebfbgcgdgegfgggbbcbdbebfbgbbcbdcdddedfdbebfbgcbdbebfbbcgcbdbeeefegebfgfcgdgegfgbbgbbcgcbdcdddedfdgdbegebfgfbgggcbdbebfbgbecedeeefcgdgegfggggbgcgdbegebfgfcgdgegfgbbfbbcecbdcdddbeeebfffbgggbbbcbdbebfbgcgdgegfgggbbgbbcccfcgcbdddedgdbegebfgfbgggbbgbbcccgcbdddgdbeeegebfffgfbgggcbdbebfbbcgcbdgdbegebfgfcgdgegfgbbcbdbebfbbcgcbdgdbecedeeefebfbgcbdbebfbbcgcbdgdbedegebfefgfcgdgegfgbbcbdbebfbbcgcbdgdbecedeeefebfffbgggcbdbebfbbccdddedfdgebfgfcgdgegfgbbcbdbebfbgbhbecedeeefegbbgbbcgcbdgdbegebfgfcgdgegfgbbgbbcgcbdgdbegecfffdgegbbgbbcgcbdgdbegebfdfefgfcgfgbbgbccfcddeddeeecfffbgggbbhbccgcddfdeeefegbbcbdbebfbgbfceddecfbgcgdgegfgggdbebfbdcdddedfdgegfgccddeeffggdbebfbfcfdfeffdgegfgebdcecfccdedgdeeefegbhchdhehfhghhhdaeafagacbhbbcecfcbdddbedebfefffcghgdhehfhghdcecfcgddeeefegecfgfdgegfgggcbcccdddedfdcegecfgfcgdgegfgecfcgcdddedfegfggggbgcddedfdgdcegecfgfdgegfgggdcecfccdgdcedeeefecfdgegfgggfbgbecedfdeeefegdcecfcgchccdhdcehedfefffgfhfhgdhehfhghcbcccdddedfdcegecfgfcgggfbedfdfeffegfggggbgdgegfdgggehfhcbcceccdddcedecfefcgfgebecedeeeffgggccdcfccdedgdceeegecfefgfcgegggccdcecfccdgdcegecfgfcgggdcecfccdgdcegecfgfdgegfgccdcecfccdgdcegecfdfefffcgchdcecfcgccdgdcegedfefffgfggghhhecfcgcdddedfdgdcecfccddeeefegfcgdgegfgebdcecfcedeeeffgggccgccdgdcegecfgfdgegfgccgccdgddefedfffegccgccdedgdceeegecfefgfdgfgccgcddfdeedfffcgggccgccdgdcegedfefffgfggdhehfhccdcecfcgcfdeedfcgdgegfgggebfbgbeccdddeeefegfgggebecedeeefegcbdbebecfdgdeeefcgdgegebgbdcfc';\r\n\r\n    //uint256[] chars_indexes = [0, 6, 10, 30, 51, 65, 78, 80, 86, 92, 103, 112, 115, 120, 124, 129, 149, 161, 179, 194, 208, 227, 245, 256, 274, 292, 294, 298, 303, 313, 318, 327, 348, 366, 387, 401, 417, 437, 452, 469, 485, 499, 510, 523, 534, 550, 566, 582, 598, 616, 634, 650, 662, 676, 688, 702, 714, 723, 739, 749, 754, 764, 774, 781, 803, 817, 831, 840, 854, 868, 876, 895, 907, 915, 923, 934, 941, 956, 968, 980, 994, 1009, 1016, 1028, 1037, 1048, 1057, 1070, 1079, 1093, 1106, 1117, 1123, 1134];\r\n\r\n    //address\r\n    address _owner;\r\n\r\n    constructor() ERC721(\"MyOwnNft\", \"MON\") {\r\n        _owner = msg.sender;\r\n    }\r\n\r\n    /*\r\n  __  __ _     _   _             ___             _   _             \r\n |  \\/  (_)_ _| |_(_)_ _  __ _  | __|  _ _ _  __| |_(_)___ _ _  ___\r\n | |\\/| | | ' \\  _| | ' \\/ _` | | _| || | ' \\/ _|  _| / _ \\ ' \\(_-<\r\n |_|  |_|_|_||_\\__|_|_||_\\__, | |_| \\_,_|_||_\\__|\\__|_\\___/_||_/__/\r\n                         |___/                                     \r\n   */\r\n\r\n    /**\r\n     * @dev Mint internal, this is to avoid code duplication.\r\n     */\r\n    function mintInternal(\r\n        string memory _text_content,\r\n        uint256 _amount_paid,\r\n        uint256 token_id\r\n    ) internal {\r\n        customNftsContent[token_id].amount_paid = _amount_paid;\r\n        customNftsContent[token_id].text_content = _text_content;\r\n\r\n        _mint(msg.sender, token_id);\r\n    }\r\n\r\n    /**\r\n     * @dev Mints new tokens.\r\n     */\r\n    function mintNft(string memory text_content) public payable {\r\n        uint256 _totalSupply = totalSupply();\r\n        require(bytes(text_content).length < MAX_STRING_LENGTH);\r\n        require(msg.value >= MIN_PRICE);\r\n        require(_totalSupply < MAX_SUPPLY);\r\n        require(!MyOwnNftLibrary.isContract(msg.sender));\r\n\r\n        return mintInternal(text_content, msg.value, _totalSupply);\r\n    }\r\n\r\n    /*\r\n ____     ___   ____  ___        _____  __ __  ____     __ ______  ____  ___   ____   _____\r\n|    \\   /  _] /    ||   \\      |     ||  |  ||    \\   /  ]      ||    |/   \\ |    \\ / ___/\r\n|  D  ) /  [_ |  o  ||    \\     |   __||  |  ||  _  | /  /|      | |  ||     ||  _  (   \\_ \r\n|    / |    _]|     ||  D  |    |  |_  |  |  ||  |  |/  / |_|  |_| |  ||  O  ||  |  |\\__  |\r\n|    \\ |   [_ |  _  ||     |    |   _] |  :  ||  |  /   \\_  |  |   |  ||     ||  |  |/  \\ |\r\n|  .  \\|     ||  |  ||     |    |  |   |     ||  |  \\     | |  |   |  ||     ||  |  |\\    |\r\n|__|\\_||_____||__|__||_____|    |__|    \\__,_||__|__|\\____| |__|  |____|\\___/ |__|__| \\___|  \r\n\r\n    */\r\n\r\n    /**\r\n     * @dev Helper function to reduce pixel size within contract\r\n     */\r\n    function letterToNumber(string memory _inputLetter)\r\n        internal\r\n        view\r\n        returns (uint8)\r\n    {\r\n        for (uint8 i = 0; i < LETTERS.length; i++) {\r\n            if (\r\n                keccak256(abi.encodePacked((LETTERS[i]))) ==\r\n                keccak256(abi.encodePacked((_inputLetter)))\r\n            ) return (i + 1);\r\n        }\r\n        revert();\r\n    }\r\n\r\n    /**\r\n     * @dev Token ID to SVG function\r\n     */\r\n    function tokenIdToSVG(uint256 token_id)\r\n        public\r\n        view\r\n        returns (string memory)\r\n    {\r\n        string memory svgString;\r\n        string memory tempString;\r\n        uint256 cursor_x;\r\n        uint256 cursor_y;\r\n\r\n        cursor_x = 10;\r\n        cursor_y = 10;\r\n        tempString = \"This is NFT #\";\r\n        tempString = string(\r\n            abi.encodePacked(tempString, Strings.toString(token_id))\r\n        );\r\n        svgString = string(\r\n            abi.encodePacked(\r\n                svgString,\r\n                drawString(tempString, cursor_x, cursor_y)\r\n            )\r\n        );\r\n\r\n        cursor_x = 10;\r\n        cursor_y = 20;\r\n        tempString = \"Minted for \";\r\n        tempString = string(\r\n            abi.encodePacked(\r\n                tempString,\r\n                Strings.toString(customNftsContent[token_id].amount_paid),\r\n                \" FTM\"\r\n            )\r\n        );\r\n        svgString = string(\r\n            abi.encodePacked(\r\n                svgString,\r\n                drawString(tempString, cursor_x, cursor_y)\r\n            )\r\n        );\r\n\r\n        svgString = string(\r\n            abi.encodePacked(\r\n                '<svg id=\"mouse-svg\" xmlns=\"http://www.w3.org/2000/svg\" preserveAspectRatio=\"xMinYMin meet\" viewBox=\"0 0 24 24\"> ',\r\n                svgString,\r\n                \"<style>rect{width:1px;height:1px;} #mouse-svg{shape-rendering: crispedges;} .c00{fill:#000000}.c01{fill:#FFFFFF}</style></svg>\"\r\n            )\r\n        );\r\n\r\n        return svgString;\r\n    }\r\n\r\n    /**\r\n     * @dev Token ID to metadata function\r\n     */\r\n    function tokenIdToMetadata(uint256 token_id)\r\n        public\r\n        view\r\n        returns (string memory)\r\n    {\r\n        string memory metadataString;\r\n\r\n        // text content\r\n        metadataString = string(\r\n            abi.encodePacked(\r\n                metadataString,\r\n                '{\"trait_type\":\"Text content\",\"value\":\"',\r\n                customNftsContent[token_id].text_content,\r\n                '\"},'\r\n            )\r\n        );\r\n\r\n        // amount paid\r\n        metadataString = string(\r\n            abi.encodePacked(\r\n                metadataString,\r\n                '{\"trait_type\":\"Amount paid\",\"value\":\"',\r\n                customNftsContent[token_id].amount_paid,\r\n                \" FTM\",\r\n                '\"}'\r\n            )\r\n        );\r\n\r\n        return string(abi.encodePacked(\"[\", metadataString, \"]\"));\r\n    }\r\n\r\n    /**\r\n     * @dev Returns the SVG and metadata for a token Id\r\n     * @param _tokenId The tokenId to return the SVG and metadata for.\r\n     */\r\n    function tokenURI(uint256 _tokenId)\r\n        public\r\n        view\r\n        override\r\n        returns (string memory)\r\n    {\r\n        require(_exists(_tokenId));\r\n\r\n        return\r\n            string(\r\n                abi.encodePacked(\r\n                    \"data:application/json;base64,\",\r\n                    MyOwnNftLibrary.encode(\r\n                        bytes(\r\n                            string(\r\n                                abi.encodePacked(\r\n                                    '{\"name\": \"MyOwnNFT #',\r\n                                    MyOwnNftLibrary.toString(_tokenId),\r\n                                    '\", \"description\": \"MyOwnNFT is a collection of completely ON-CHAIN NFTs that you can customize on mint.\", \"image\": \"data:image/svg+xml;base64,',\r\n                                    MyOwnNftLibrary.encode(\r\n                                        bytes(tokenIdToSVG(_tokenId))\r\n                                    ),\r\n                                    '\",\"attributes\":',\r\n                                    tokenIdToMetadata(_tokenId),\r\n                                    \"none\",\r\n                                    \"}\"\r\n                                )\r\n                            )\r\n                        )\r\n                    )\r\n                )\r\n            );\r\n    }\r\n\r\n    /**\r\n     * @dev Returns the wallet of a given wallet. Mainly for ease for frontend devs.\r\n     * @param _wallet The wallet to get the tokens of.\r\n     */\r\n    function walletOfOwner(address _wallet)\r\n        public\r\n        view\r\n        returns (uint256[] memory)\r\n    {\r\n        uint256 tokenCount = balanceOf(_wallet);\r\n\r\n        uint256[] memory tokensId = new uint256[](tokenCount);\r\n        for (uint256 i; i < tokenCount; i++) {\r\n            tokensId[i] = tokenOfOwnerByIndex(_wallet, i);\r\n        }\r\n        return tokensId;\r\n    }\r\n\r\n    /*\r\n  ___   __    __  ____     ___  ____       _____  __ __  ____     __ ______  ____  ___   ____   _____\r\n /   \\ |  |__|  ||    \\   /  _]|    \\     |     ||  |  ||    \\   /  ]      ||    |/   \\ |    \\ / ___/\r\n|     ||  |  |  ||  _  | /  [_ |  D  )    |   __||  |  ||  _  | /  /|      | |  ||     ||  _  (   \\_ \r\n|  O  ||  |  |  ||  |  ||    _]|    /     |  |_  |  |  ||  |  |/  / |_|  |_| |  ||  O  ||  |  |\\__  |\r\n|     ||  `  '  ||  |  ||   [_ |    \\     |   _] |  :  ||  |  /   \\_  |  |   |  ||     ||  |  |/  \\ |\r\n|     | \\      / |  |  ||     ||  .  \\    |  |   |     ||  |  \\     | |  |   |  ||     ||  |  |\\    |\r\n \\___/   \\_/\\_/  |__|__||_____||__|\\_|    |__|    \\__,_||__|__|\\____| |__|  |____|\\___/ |__|__| \\___|\r\n\r\n    */\r\n\r\n    /**\r\n     * @dev Add characters data\r\n     * @param _pixelsData Array pixel data\r\n     * @param _charsIndex Starting index for char pixel data\r\n     * @param _startPosition Starting position\r\n     *\r\n\r\n    function addCharacterData(\r\n        uint8[] memory _pixelsData,\r\n        uint256[] memory _charsIndex,\r\n        uint256 _startPosition\r\n    ) public onlyOwner {\r\n        for (uint256 index = 0; index < _charsIndex.length / 2; index++) {\r\n            uint256 char_start_pos = _charsIndex[index * 2];\r\n            uint256 char_end_pos = _charsIndex[index * 2 + 1];\r\n            uint8[] memory char_pixel_data = new uint8[](\r\n                char_end_pos - char_start_pos\r\n            );\r\n\r\n            for (uint256 i = char_start_pos; i < char_end_pos; i++) {\r\n                char_pixel_data[i] = uint8(_pixelsData[i]);\r\n            }\r\n\r\n            charactersData[_startPosition + index] = CharData(\r\n                char_end_pos - char_start_pos,\r\n                char_pixel_data\r\n            );\r\n        }\r\n\r\n        return;\r\n    }\r\n    */\r\n\r\n    /**\r\n     * @dev Writes a single char to a given position\r\n     * @param _char The character to write\r\n     * @param _x The x pos of the cursor\r\n     * @param _y The y pos of the cursor\r\n     */\r\n    function drawChar(\r\n        uint256 _char,\r\n        uint256 _x,\r\n        uint256 _y\r\n    ) internal view returns (string memory) {\r\n        string memory printedCharString;\r\n\r\n        printedCharString = \"\";\r\n\r\n        // chars not supported and space are empty\r\n        if ((_char < 33) || (_char > 126)) {\r\n            return printedCharString;\r\n        }\r\n\r\n        for (\r\n            uint256 index = 0;\r\n            index < bytes(charsPixels[_char-33]).length /2;\r\n            index++\r\n        ) {\r\n            printedCharString = string(\r\n                abi.encodePacked(\r\n                    printedCharString,\r\n                    \"<rect class='c01' x='\",\r\n                    Strings.toString(\r\n                        _x +\r\n                            (\r\n                                uint256(\r\n                                    letterToNumber(MyOwnNftLibrary.substring(charsPixels[_char-33], index*2+1, index*2 + 2))\r\n                                )\r\n                            )\r\n                    ),\r\n                    \"' y='\",\r\n                    Strings.toString(\r\n                        _y +\r\n                            (\r\n                                uint256(\r\n                                    letterToNumber(MyOwnNftLibrary.substring(charsPixels[_char-33], index*2, index*2 + 1))\r\n                                )\r\n                            )\r\n                    ),\r\n                    \"'/>\"\r\n                )\r\n            );\r\n        }\r\n\r\n        return printedCharString;\r\n    }\r\n\r\n    /**\r\n     * @dev Writes a string starting from the given position\r\n     * @param _string The string to draw\r\n     * @param _x The x pos of the cursor\r\n     * @param _y The y pos of the cursor\r\n     */\r\n    function drawString(\r\n        string memory _string,\r\n        uint256 _x,\r\n        uint256 _y\r\n    ) internal view returns (string memory) {\r\n        string memory printedString;\r\n\r\n        printedString = \"\";\r\n\r\n        bytes memory byteString = bytes(_string);\r\n\r\n        for (uint256 index = 0; index < byteString.length; index++) {\r\n            printedString = string(\r\n                abi.encodePacked(\r\n                    printedString,\r\n                    drawChar(\r\n                        uint256(uint8(byteString[index])),\r\n                        _x + (index * 8),\r\n                        _y\r\n                    )\r\n                )\r\n            );\r\n        }\r\n\r\n        return printedString;\r\n    }\r\n\r\n    function withdraw() public payable onlyOwner {\r\n        require(payable(msg.sender).send(address(this).balance));\r\n    }\r\n\r\n    /**\r\n     * @dev Transfers ownership\r\n     * @param _newOwner The new owner\r\n     */\r\n    function transferOwnership(address _newOwner) public onlyOwner {\r\n        _owner = _newOwner;\r\n    }\r\n\r\n    /**\r\n     * @dev Modifier to only allow owner to call functions\r\n     */\r\n    modifier onlyOwner() {\r\n        require(_owner == msg.sender);\r\n        _;\r\n    }\r\n}\r\n",
  "sourcePath": "C:\\Users\\fabio\\Desktop\\myOwnNFT\\truffle_test\\contracts\\MyOwnNft.sol",
  "compiler": {
    "name": "solc",
    "version": "0.8.3+commit.8d00100c.Emscripten.clang"
  },
  "schemaVersion": "3.4.3",
  "updatedAt": "2021-11-22T09:30:10.170Z",
  "networkType": "ethereum",
  "devdoc": {
    "kind": "dev",
    "methods": {
      "approve(address,uint256)": {
        "details": "See {IERC721-approve}."
      },
      "balanceOf(address)": {
        "details": "See {IERC721-balanceOf}."
      },
      "getApproved(uint256)": {
        "details": "See {IERC721-getApproved}."
      },
      "isApprovedForAll(address,address)": {
        "details": "See {IERC721-isApprovedForAll}."
      },
      "mintNft(string)": {
        "details": "Mints new tokens."
      },
      "name()": {
        "details": "See {IERC721Metadata-name}."
      },
      "ownerOf(uint256)": {
        "details": "See {IERC721-ownerOf}."
      },
      "safeTransferFrom(address,address,uint256)": {
        "details": "See {IERC721-safeTransferFrom}."
      },
      "safeTransferFrom(address,address,uint256,bytes)": {
        "details": "See {IERC721-safeTransferFrom}."
      },
      "setApprovalForAll(address,bool)": {
        "details": "See {IERC721-setApprovalForAll}."
      },
      "supportsInterface(bytes4)": {
        "details": "See {IERC165-supportsInterface}."
      },
      "symbol()": {
        "details": "See {IERC721Metadata-symbol}."
      },
      "tokenByIndex(uint256)": {
        "details": "See {IERC721Enumerable-tokenByIndex}."
      },
      "tokenIdToMetadata(uint256)": {
        "details": "Token ID to metadata function"
      },
      "tokenIdToSVG(uint256)": {
        "details": "Token ID to SVG function"
      },
      "tokenOfOwnerByIndex(address,uint256)": {
        "details": "See {IERC721Enumerable-tokenOfOwnerByIndex}."
      },
      "tokenURI(uint256)": {
        "details": "Returns the SVG and metadata for a token Id",
        "params": {
          "_tokenId": "The tokenId to return the SVG and metadata for."
        }
      },
      "totalSupply()": {
        "details": "See {IERC721Enumerable-totalSupply}."
      },
      "transferFrom(address,address,uint256)": {
        "details": "See {IERC721-transferFrom}."
      },
      "transferOwnership(address)": {
        "details": "Transfers ownership",
        "params": {
          "_newOwner": "The new owner"
        }
      },
      "walletOfOwner(address)": {
        "details": "Returns the wallet of a given wallet. Mainly for ease for frontend devs.",
        "params": {
          "_wallet": "The wallet to get the tokens of."
        }
      }
    },
    "version": 1
  },
  "userdoc": {
    "kind": "user",
    "methods": {},
    "version": 1
  }
}