{
    "data": {
        "bytecode": {
            "linkReferences": {},
            "object": "620186a0600b556005600c908155670de0b6b3a7640000600d55608c600e55610c608181526b1918191899191919991a191b60a11b610c80526080908152610ca09182526b18981898989919981998999960a11b610cc05260a091909152610d406040526028610ce081815260c09162003e29610d0039815260200160405180606001604052806022815260200162003e516022913981526020016040518060400160405280601a81526020017f303030313035313031313134323333323335333634313435343600000000000081525081526020016040518060400160405280601e81526020017f3031303230343035313031333136323032323234323633313335343434360000815250815260200160405180604001604052806008815260200167313031323230323160c01b81525081526020016040518060400160405280600e81526020016d18991899989a1918991a9998199b60911b81525081526020016040518060400160405280600e81526020016d0c4c0c4d8c8c4c8d4ccc8ccccccd60921b81525081526020016040518060400160405280601681526020017f303331313133313532323233323433313333333534330000000000000000000081525081526020016040518060400160405280601281526020017130333133323132323233323432353333343360701b815250815260200160405180604001604052806008815260200167313431363234323560c01b81525081526020016040518060400160405280600a8152602001693033313332333333343360b01b815250815260200160405180604001604052806008815260200167189a989b191a991b60c11b81525081526020016040518060400160405280600a8152602001693035313432333332343160b01b815250815260200160405180606001604052806026815260200162003e976026913981526020016040518060400160405280601481526020017f313131363230323132323233323432353236333600000000000000000000000081525081526020016040518060400160405280601c81526020017f303130363130313531363230323432363330333333363431343234360000000081525081526020016040518060400160405280601c81526020017f303030353130313632303232323633303331333333363430343434350000000081525081526020016040518060400160405280601c81526020017f3033303431323134323132343330333133323333333433353336343400000000815250815260200160405180606001604052806022815260200162003f076022913981526020016040518060400160405280601e81526020017f303230333034303531313133313632303233323633303333333634343435000081525081526020016040518060400160405280601681526020017f3030313031343135313632303233333033323430343100000000000000000000815250815260200160405180606001604052806022815260200162003f956022913981526020016040518060400160405280601e81526020017f303130323130313331363230323332363330333333353431343234333434000081525081526020016040518060400160405280601081526020016f3131313231343135323132323234323560801b81525081526020016040518060400160405280601081526020016f3131313231343136323132323234323560801b81525081526020016040518060400160405280600e81526020016d18999919191a1998999a9a181a1b60911b81525081526020016040518060400160405280601481526020017f303230343132313432323234333233343432343400000000000000000000000081525081526020016040518060400160405280600e81526020016d303030363131313532323234333360901b815250815260200160405180604001604052806012815260200171181898981918191a191b199819999a189a1960711b815250815260200160405180606001604052806024815260200162003f4d60249139815260200160405180606001604052806024815260200162003f2960249139815260200160405180606001604052806028815260200162003ebd6028913981526020016040518060400160405280601a81526020017f303130323033303430353130313632303236333033363431343500000000000081525081526020016040518060400160405280602081526020017f3030303130323033303430353036313031363230323633313335343234333434815250815260200160405180606001604052806024815260200162003e736024913981526020016040518060400160405280601a81526020017f303030313032303330343035303631303133323032333330343000000000000081525081526020016040518060400160405280601e81526020017f3031303230333034303531303136323032363330333433363431343434350000815250815260200160405180606001604052806022815260200162003d9f6022913981526020016040518060400160405280601681526020017f313031363230323132323233323432353236333033360000000000000000000081525081526020016040518060400160405280601681526020017f303531363230323633303331333233333334333534300000000000000000000081525081526020016040518060400160405280601c81526020017f303030313032303330343035303631333232323433313335343034360000000081525081526020016040518060400160405280601681526020017f3030303130323033303430353036313632363336343600000000000000000000815250815260200160405180606001604052806022815260200162003ee560229139815260200160405180606001604052806022815260200162003dc16022913981526020016040518060400160405280602081526020017f303130323033303430353130313632303236333033363431343234333434343581525081526020016040518060400160405280601e81526020017f3030303130323033303430353036313031333230323333303333343134320000815250815260200160405180606001604052806022815260200162003de360229139815260200160405180606001604052806024815260200162003f716024913981526020016040518060400160405280601e81526020017f303130323036313031333136323032333236333033333336343034343435000081525081526020016040518060400160405280601681526020017f303031303230323132323233323432353236333034300000000000000000000081525081526020016040518060400160405280601e81526020017f303030313032303330343035313632363336343034313432343334343435000081525081526020016040518060400160405280601a81526020017f3030303130323033303431353236333534303431343234333434000000000000815250815260200160405180606001604052806024815260200162003e05602491398152604080518082018252601a8082527f3030303130353036313231343233333233343430343134353436000000000000602083810191909152808501929092528251808401845260148082527f3030303131323233323432353236333234303431000000000000000000000000828501528486019190915283518085018552601e81527f30303035303631303134313632303233323633303332333634303431343600008185015260608601528351808501855260168082527f323032313232323332343235323633303336343034360000000000000000000082860152608087019190915284518086018652600a808252693031313232333334343560b01b8287015260a0880191909152855180870187528281527f30303036313031363230323132323233323432353236000000000000000000008187015260c0880152855180870187528181526918191898991819989a1960b11b8187015260e08801528551808701875290815269181b189b191b199b1a1b60b11b8186015261010087015284518086018652600681526518981918999960d11b8186015261012087015284518086018652601c8082527f303531323134313632323234323633323334333634333434343534360000000082870152610140880191909152855180870187528581527f303030313032303330343035303631333136323232363332333634333434343581870152610160880152855180870187528381527f303330343035313231363232323633323336343500000000000000000000000081870152610180880152855180870187528581527f3033303430353132313632323236333333363430343134323433343434353436818701526101a0880152855180870187528181527f3033303430353132313431363232323432363332333433363433343400000000818701526101c0880152855180870187528281527f3033313131323133313431353136323032333330343100000000000000000000818701526101e0880152855180870187528481527f303331323134323232343236333233343336343234333434343500000000000081870152610200880152855180870187529081527f303030313032303330343035303631333232333234333434343534360000000081860152610220870152845180860186526012808252711899189b191819191919991a191a991b199b60711b82870152610240880191909152855180870187528181527130353136323232363330333233333334333560701b818701526102608801528551808701875260188082527f313031313132313331343135313632343333333534323436000000000000000082880152610280890191909152865180880188529384527f3130313632303231323232333234323532363336000000000000000000000000848701526102a0880193909352855180870187528481527f3032303330343035303631323233323433323433343434353436000000000000818701526102c0880152855180870187528381527f3032303330343035303631333232333234333434343534360000000000000000818701526102e0880152855180870187528381527f303330343035313231363232323633323336343334343435000000000000000081870152610300880152855180870187528381527f303230333034303530363132313432323234333233343433000000000000000081870152610320880152855180870187528381527f303331323134323232343333333434323433343434353436000000000000000081870152610340880152855180870187528181527130323033303430353036313332323332343360701b81870152610360880152855180870187528381527f303330363132313431363232323432363332333433363435000000000000000081870152610380880152855180870187529182527f3032313031313132313331343135323232363336343500000000000000000000828601526103a0870191909152845180860186528281527f3032303330343035313632363335343234333434343534360000000000000000818601526103c087015284518086018652818152710c0c8c0ccc0d0c4d4c8d8ccd4d0c8d0ccd0d60721b818601526103e0870152845180860186528281527f30323033303430353136323432353336343234333434343500000000000000008186015261040087015284518086018652818152711819181b1899989a991a1999999a9a191a1b60711b81860152610420870152845180860186529182527f303230333134313632343236333433363432343334343435000000000000000082850152610440860191909152835180850185529182527f30323036313231353136323232343236333233333336343234360000000000008284015261046085019190915282518084018452600e8082526d189999189919191a191a9998199b60911b82850152610480860191909152835180850185528181526d1918191899191919991a191a991b60911b818501526104a0860152835180850185529081526d313031363231323232343235333360901b818401526104c0850152825180840184529081527130333133323132333235333233333334343360701b818301526104e08401528151808301909252601082526f3033313231333134323132333235333360801b9082015261050090910152620011de90600f90605f62001269565b50348015620011ec57600080fd5b506040805180820182526008815267135e53dddb93999d60c21b60208083019182528351808501909452600384526226a7a760e91b9084015281519192916200123891600091620012cd565b5080516200124e906001906020840190620012cd565b5050601080546001600160a01b03191633179055506200140f565b828054828255906000526020600020908101928215620012bb579160200282015b82811115620012bb5782518051620012aa918491602090910190620012cd565b50916020019190600101906200128a565b50620012c992915062001358565b5090565b828054620012db90620013d2565b90600052602060002090601f016020900481019282620012ff57600085556200134a565b82601f106200131a57805160ff19168380011785556200134a565b828001600101855582156200134a579182015b828111156200134a5782518255916020019190600101906200132d565b50620012c992915062001379565b80821115620012c95760006200136f828262001390565b5060010162001358565b5b80821115620012c957600081556001016200137a565b5080546200139e90620013d2565b6000825580601f10620013af575050565b601f016020900490600052602060002090810190620013cf919062001379565b50565b600181811c90821680620013e757607f821691505b602082108114156200140957634e487b7160e01b600052602260045260246000fd5b50919050565b612980806200141f6000396000f3fe6080604052600436106101405760003560e01c80634f6ccce7116100b6578063bf64db1d1161006f578063bf64db1d1461038d578063c11feac1146103ad578063c87b56dd146103cd578063da86f4a9146103ed578063e985e9c514610400578063f2fde38b1461044957600080fd5b80634f6ccce7146102d85780636352211e146102f857806370a082311461031857806395d89b4114610338578063a22cb4651461034d578063b88d4fde1461036d57600080fd5b806318160ddd1161010857806318160ddd1461022457806323b872dd146102435780632f745c59146102635780633ccfd60b1461028357806342842e0e1461028b578063438b6300146102ab57600080fd5b806301ffc9a7146101455780630561a9f11461017a57806306fdde03146101a8578063081812fc146101ca578063095ea7b314610202575b600080fd5b34801561015157600080fd5b50610165610160366004612046565b610469565b60405190151581526020015b60405180910390f35b34801561018657600080fd5b5061019a6101953660046120c9565b610494565b60405161017192919061274f565b3480156101b457600080fd5b506101bd610539565b6040516101719190612699565b3480156101d657600080fd5b506101ea6101e53660046120c9565b6105cb565b6040516001600160a01b039091168152602001610171565b34801561020e57600080fd5b5061022261021d36600461201c565b610665565b005b34801561023057600080fd5b506008545b604051908152602001610171565b34801561024f57600080fd5b5061022261025e366004611f28565b61077b565b34801561026f57600080fd5b5061023561027e36600461201c565b6107ac565b610222610842565b34801561029757600080fd5b506102226102a6366004611f28565b61087f565b3480156102b757600080fd5b506102cb6102c6366004611ed3565b61089a565b6040516101719190612655565b3480156102e457600080fd5b506102356102f33660046120c9565b61093c565b34801561030457600080fd5b506101ea6103133660046120c9565b6109cf565b34801561032457600080fd5b50610235610333366004611ed3565b610a46565b34801561034457600080fd5b506101bd610acd565b34801561035957600080fd5b50610222610368366004611fe0565b610adc565b34801561037957600080fd5b50610222610388366004611f64565b610ba1565b34801561039957600080fd5b506101bd6103a83660046120c9565b610bd9565b3480156103b957600080fd5b506101bd6103c83660046120c9565b610c8b565b3480156103d957600080fd5b506101bd6103e83660046120c9565b610e9f565b6102226103fb366004612080565b610f35565b34801561040c57600080fd5b5061016561041b366004611ef5565b6001600160a01b03918216600090815260056020908152604080832093909416825291909152205460ff1690565b34801561045557600080fd5b50610222610464366004611ed3565b610f89565b60006001600160e01b0319821663780e9d6360e01b148061048e575061048e82610fc2565b92915050565b600a60205260009081526040902080546001820180549192916104b690612819565b80601f01602080910402602001604051908101604052809291908181526020018280546104e290612819565b801561052f5780601f106105045761010080835404028352916020019161052f565b820191906000526020600020905b81548152906001019060200180831161051257829003601f168201915b5050505050905082565b60606000805461054890612819565b80601f016020809104026020016040519081016040528092919081815260200182805461057490612819565b80156105c15780601f10610596576101008083540402835291602001916105c1565b820191906000526020600020905b8154815290600101906020018083116105a457829003601f168201915b5050505050905090565b6000818152600260205260408120546001600160a01b03166106495760405162461bcd60e51b815260206004820152602c60248201527f4552433732313a20617070726f76656420717565727920666f72206e6f6e657860448201526b34b9ba32b73a103a37b5b2b760a11b60648201526084015b60405180910390fd5b506000908152600460205260409020546001600160a01b031690565b6000610670826109cf565b9050806001600160a01b0316836001600160a01b031614156106de5760405162461bcd60e51b815260206004820152602160248201527f4552433732313a20617070726f76616c20746f2063757272656e74206f776e656044820152603960f91b6064820152608401610640565b336001600160a01b03821614806106fa57506106fa813361041b565b61076c5760405162461bcd60e51b815260206004820152603860248201527f4552433732313a20617070726f76652063616c6c6572206973206e6f74206f7760448201527f6e6572206e6f7220617070726f76656420666f7220616c6c00000000000000006064820152608401610640565b6107768383611012565b505050565b6107853382611080565b6107a15760405162461bcd60e51b8152600401610640906126fe565b610776838383611177565b60006107b783610a46565b82106108195760405162461bcd60e51b815260206004820152602b60248201527f455243373231456e756d657261626c653a206f776e657220696e646578206f7560448201526a74206f6620626f756e647360a81b6064820152608401610640565b506001600160a01b03919091166000908152600660209081526040808320938352929052205490565b6010546001600160a01b0316331461085957600080fd5b60405133904780156108fc02916000818181858888f1935050505061087d57600080fd5b565b61077683838360405180602001604052806000815250610ba1565b606060006108a783610a46565b905060008167ffffffffffffffff8111156108c4576108c46128db565b6040519080825280602002602001820160405280156108ed578160200160208202803683370190505b50905060005b828110156109345761090585826107ac565b828281518110610917576109176128c5565b60209081029190910101528061092c81612854565b9150506108f3565b509392505050565b600061094760085490565b82106109aa5760405162461bcd60e51b815260206004820152602c60248201527f455243373231456e756d657261626c653a20676c6f62616c20696e646578206f60448201526b7574206f6620626f756e647360a01b6064820152608401610640565b600882815481106109bd576109bd6128c5565b90600052602060002001549050919050565b6000818152600260205260408120546001600160a01b03168061048e5760405162461bcd60e51b815260206004820152602960248201527f4552433732313a206f776e657220717565727920666f72206e6f6e657869737460448201526832b73a103a37b5b2b760b91b6064820152608401610640565b60006001600160a01b038216610ab15760405162461bcd60e51b815260206004820152602a60248201527f4552433732313a2062616c616e636520717565727920666f7220746865207a65604482015269726f206164647265737360b01b6064820152608401610640565b506001600160a01b031660009081526003602052604090205490565b60606001805461054890612819565b6001600160a01b038216331415610b355760405162461bcd60e51b815260206004820152601960248201527f4552433732313a20617070726f766520746f2063616c6c6572000000000000006044820152606401610640565b3360008181526005602090815260408083206001600160a01b03871680855290835292819020805460ff191686151590811790915590519081529192917f17307eab39ab6107e8899845ad3d59bd9653f200f220920489ca2b5937696c31910160405180910390a35050565b610bab3383611080565b610bc75760405162461bcd60e51b8152600401610640906126fe565b610bd384848484611322565b50505050565b60608080600a6000858152602001908152602001600020600101604051602001610c049291906121f6565b60408051601f198184030181529181526000858152600a60205220549091508190610c4190610c3c90670de0b6b3a764000090612780565b611355565b604051602001610c529291906122e9565b604051602081830303815290604052905080604051602001610c74919061259f565b604051602081830303815290604052915050919050565b6040805180820190915260058152644e4654202360d81b6020820152606090819060108082610cb987611355565b604051602001610cca92919061210e565b604051602081830303815290604052925083610ce7848484611453565b604051602001610cf892919061210e565b60408051601f198184030181528282018252600583526402830b4b2160dd1b60208481019190915260008a8152600a825292909220549096509194506010935091508390610d5390610c3c90670de0b6b3a764000090612780565b604051602001610d6492919061213d565b604051602081830303815290604052925083610d81848484611453565b604051602001610d9292919061210e565b60408051601f198184030181529181526000888152600a60205220600101805491955060109350605092508591610e529190610dcd90612819565b80601f0160208091040260200160405190810160405280929190818152602001828054610df990612819565b8015610e465780601f10610e1b57610100808354040283529160200191610e46565b820191906000526020600020905b815481529060010190602001808311610e2957829003601f168201915b50505050508484611453565b604051602001610e6392919061210e565b604051602081830303815290604052935083604051602001610e85919061235d565b60408051601f198184030181529190529695505050505050565b6000818152600260205260409020546060906001600160a01b0316610ec357600080fd5b610f0f610ecf83611355565b610ee0610edb85610c8b565b61160a565b610ee985610bd9565b604051602001610efb93929190612476565b60405160208183030381529060405261160a565b604051602001610f1f91906125d3565b6040516020818303038152906040529050919050565b6000610f4060085490565b9050600e54825110610f5157600080fd5b600d54341015610f6057600080fd5b600b548110610f6e57600080fd5b333b15610f7a57600080fd5b610f85823483611772565b5050565b6010546001600160a01b03163314610fa057600080fd5b601080546001600160a01b0319166001600160a01b0392909216919091179055565b60006001600160e01b031982166380ac58cd60e01b1480610ff357506001600160e01b03198216635b5e139f60e01b145b8061048e57506301ffc9a760e01b6001600160e01b031983161461048e565b600081815260046020526040902080546001600160a01b0319166001600160a01b0384169081179091558190611047826109cf565b6001600160a01b03167f8c5be1e5ebec7d5bd14f71427d1e84f3dd0314c0f7b2291e5b200ac8c7c3b92560405160405180910390a45050565b6000818152600260205260408120546001600160a01b03166110f95760405162461bcd60e51b815260206004820152602c60248201527f4552433732313a206f70657261746f7220717565727920666f72206e6f6e657860448201526b34b9ba32b73a103a37b5b2b760a11b6064820152608401610640565b6000611104836109cf565b9050806001600160a01b0316846001600160a01b0316148061113f5750836001600160a01b0316611134846105cb565b6001600160a01b0316145b8061116f57506001600160a01b0380821660009081526005602090815260408083209388168352929052205460ff165b949350505050565b826001600160a01b031661118a826109cf565b6001600160a01b0316146111f25760405162461bcd60e51b815260206004820152602960248201527f4552433732313a207472616e73666572206f6620746f6b656e2074686174206960448201526839903737ba1037bbb760b91b6064820152608401610640565b6001600160a01b0382166112545760405162461bcd60e51b8152602060048201526024808201527f4552433732313a207472616e7366657220746f20746865207a65726f206164646044820152637265737360e01b6064820152608401610640565b61125f8383836117a5565b61126a600082611012565b6001600160a01b03831660009081526003602052604081208054600192906112939084906127b3565b90915550506001600160a01b03821660009081526003602052604081208054600192906112c1908490612768565b909155505060008181526002602052604080822080546001600160a01b0319166001600160a01b0386811691821790925591518493918716917fddf252ad1be2c89b69c2b068fc378daa952ba7f163c4a11628f55a4df523b3ef91a4505050565b61132d848484611177565b6113398484848461185d565b610bd35760405162461bcd60e51b8152600401610640906126ac565b6060816113795750506040805180820190915260018152600360fc1b602082015290565b8160005b81156113a3578061138d81612854565b915061139c9050600a83612780565b915061137d565b60008167ffffffffffffffff8111156113be576113be6128db565b6040519080825280601f01601f1916602001820160405280156113e8576020820181803683370190505b5090505b841561116f576113fd6001836127b3565b915061140a600a8661286f565b611415906030612768565b60f81b81838151811061142a5761142a6128c5565b60200101906001600160f81b031916908160001a90535061144c600a86612780565b94506113ec565b6060806000600f805480602002602001604051908101604052809291908181526020016000905b8282101561152657838290600052602060002001805461149990612819565b80601f01602080910402602001604051908101604052809291908181526020018280546114c590612819565b80156115125780601f106114e757610100808354040283529160200191611512565b820191906000526020600020905b8154815290600101906020018083116114f557829003601f168201915b50505050508152602001906001019061147a565b50505050905060405180602001604052806000815250915060008690506000805b82518110156115fd5761155b601c8261286f565b15801561156757508015155b1561157a57611577826010612768565b91505b846115c8848381518110611590576115906128c5565b016020015160f81c6115a3601c8561286f565b6115ae906008612794565b6115b8908c612768565b6115c2868c612768565b8861196a565b6040516020016115d992919061210e565b604051602081830303815290604052945080806115f590612854565b915050611547565b5092979650505050505050565b606081516000141561162a57505060408051602081019091526000815290565b600060405180606001604052806040815260200161290b60409139905060006003845160026116599190612768565b6116639190612780565b61166e906004612794565b9050600061167d826020612768565b67ffffffffffffffff811115611695576116956128db565b6040519080825280601f01601f1916602001820160405280156116bf576020820181803683370190505b509050818152600183018586518101602084015b8183101561172d5760039283018051603f601282901c811687015160f890811b8552600c83901c8216880151811b6001860152600683901c8216880151811b60028601529116860151901b938201939093526004016116d3565b600389510660018114611747576002811461175857611764565b613d3d60f01b600119830152611764565b603d60f81b6000198301525b509398975050505050505050565b6000818152600a60209081526040909120838155845161179a92600190920191860190611da8565b506107763382611a9e565b6001600160a01b038316611800576117fb81600880546000838152600960205260408120829055600182018355919091527ff3f7a9fe364faab93b216da50a3214154f22a0a2b415b23a84c8169e8b636ee30155565b611823565b816001600160a01b0316836001600160a01b031614611823576118238382611bec565b6001600160a01b03821661183a5761077681611c89565b826001600160a01b0316826001600160a01b031614610776576107768282611d38565b60006001600160a01b0384163b1561195f57604051630a85bd0160e11b81526001600160a01b0385169063150b7a02906118a1903390899088908890600401612618565b602060405180830381600087803b1580156118bb57600080fd5b505af19250505080156118eb575060408051601f3d908101601f191682019092526118e891810190612063565b60015b611945573d808015611919576040519150601f19603f3d011682016040523d82523d6000602084013e61191e565b606091505b50805161193d5760405162461bcd60e51b8152600401610640906126ac565b805181602001fd5b6001600160e01b031916630a85bd0160e11b14905061116f565b506001949350505050565b604080516020810190915260008152606090602186108061198b5750607e86115b1561199757905061116f565b60005b6002846119a860218a6127b3565b815181106119b8576119b86128c5565b6020026020010151516119cb9190612780565b811015611a945781611a1c611a0f866119e560218c6127b3565b815181106119f5576119f56128c5565b6020026020010151846002611a0a9190612794565b611d7c565b610c3c9060ff1689612768565b611a5e611a0f87611a2e60218d6127b3565b81518110611a3e57611a3e6128c5565b6020026020010151856002611a539190612794565b611a0a906001612768565b604051602001611a709392919061217b565b60405160208183030381529060405291508080611a8c90612854565b91505061199a565b5095945050505050565b6001600160a01b038216611af45760405162461bcd60e51b815260206004820181905260248201527f4552433732313a206d696e7420746f20746865207a65726f20616464726573736044820152606401610640565b6000818152600260205260409020546001600160a01b031615611b595760405162461bcd60e51b815260206004820152601c60248201527f4552433732313a20746f6b656e20616c7265616479206d696e746564000000006044820152606401610640565b611b65600083836117a5565b6001600160a01b0382166000908152600360205260408120805460019290611b8e908490612768565b909155505060008181526002602052604080822080546001600160a01b0319166001600160a01b03861690811790915590518392907fddf252ad1be2c89b69c2b068fc378daa952ba7f163c4a11628f55a4df523b3ef908290a45050565b60006001611bf984610a46565b611c0391906127b3565b600083815260076020526040902054909150808214611c56576001600160a01b03841660009081526006602090815260408083208584528252808320548484528184208190558352600790915290208190555b5060009182526007602090815260408084208490556001600160a01b039094168352600681528383209183525290812055565b600854600090611c9b906001906127b3565b60008381526009602052604081205460088054939450909284908110611cc357611cc36128c5565b906000526020600020015490508060088381548110611ce457611ce46128c5565b6000918252602080832090910192909255828152600990915260408082208490558582528120556008805480611d1c57611d1c6128af565b6001900381819060005260206000200160009055905550505050565b6000611d4383610a46565b6001600160a01b039093166000908152600660209081526040808320868452825280832085905593825260079052919091209190915550565b6000808390506030818481518110611d9657611d966128c5565b016020015161116f919060f81c6127ca565b828054611db490612819565b90600052602060002090601f016020900481019282611dd65760008555611e1c565b82601f10611def57805160ff1916838001178555611e1c565b82800160010185558215611e1c579182015b82811115611e1c578251825591602001919060010190611e01565b50611e28929150611e2c565b5090565b5b80821115611e285760008155600101611e2d565b600067ffffffffffffffff80841115611e5c57611e5c6128db565b604051601f8501601f19908116603f01168101908282118183101715611e8457611e846128db565b81604052809350858152868686011115611e9d57600080fd5b858560208301376000602087830101525050509392505050565b80356001600160a01b0381168114611ece57600080fd5b919050565b600060208284031215611ee557600080fd5b611eee82611eb7565b9392505050565b60008060408385031215611f0857600080fd5b611f1183611eb7565b9150611f1f60208401611eb7565b90509250929050565b600080600060608486031215611f3d57600080fd5b611f4684611eb7565b9250611f5460208501611eb7565b9150604084013590509250925092565b60008060008060808587031215611f7a57600080fd5b611f8385611eb7565b9350611f9160208601611eb7565b925060408501359150606085013567ffffffffffffffff811115611fb457600080fd5b8501601f81018713611fc557600080fd5b611fd487823560208401611e41565b91505092959194509250565b60008060408385031215611ff357600080fd5b611ffc83611eb7565b91506020830135801515811461201157600080fd5b809150509250929050565b6000806040838503121561202f57600080fd5b61203883611eb7565b946020939093013593505050565b60006020828403121561205857600080fd5b8135611eee816128f1565b60006020828403121561207557600080fd5b8151611eee816128f1565b60006020828403121561209257600080fd5b813567ffffffffffffffff8111156120a957600080fd5b8201601f810184136120ba57600080fd5b61116f84823560208401611e41565b6000602082840312156120db57600080fd5b5035919050565b600081518084526120fa8160208601602086016127ed565b601f01601f19169290920160200192915050565b600083516121208184602088016127ed565b8351908301906121348183602088016127ed565b01949350505050565b6000835161214f8184602088016127ed565b8351908301906121638183602088016127ed565b632046544d60e01b9101908152600401949350505050565b6000845161218d8184602089016127ed565b683c7265637420783d2760b81b90830190815284516121b38160098401602089016127ed565b642720793d2760d81b6009929091019182015283516121d981600e8401602088016127ed565b6213979f60e91b600e929091019182015260110195945050505050565b60008351602061220982858389016127ed565b7f7b2274726169745f74797065223a2274657874222c2276616c7565223a2200009184019182528454601e90600090600181811c908083168061224d57607f831692505b86831081141561226b57634e487b7160e01b85526022600452602485fd5b80801561227f5760018114612294576122c5565b60ff19851689880152838901870195506122c5565b60008c81526020902060005b858110156122bb5781548b82018a01529084019089016122a0565b505086848a010195505b50505050506122dd8162089f4b60ea1b815260030190565b98975050505050505050565b600083516122fb8184602088016127ed565b7f7b2274726169745f74797065223a2270616964222c2276616c7565223a220000908301908152835161233581601e8401602088016127ed565b632046544d60e01b601e929091019182015261227d60f01b6022820152602401949350505050565b7f3c7376672069643d226e66742220786d6c6e733d22687474703a2f2f7777772e81527f77332e6f72672f323030302f737667222070726573657276654173706563745260208201527f6174696f3d22784d696e594d696e206d656574222076696577426f783d22302060408201526b01810191a9b10191a9b111f160a51b6060820152600082516123f681606c8501602087016127ed565b7f3c7374796c653e726563747b77696474683a3170783b6865696768743a317078606c9390910192830152507f3b66696c6c3a233030303030307d20236e66747b73686170652d72656e646572608c8201527f696e673a20637269737065646765733b7d203c2f7374796c653e3c2f7376673e60ac82015260cc01919050565b727b226e616d65223a2022447261774e4654202360681b815283516000906124a58160138501602089016127ed565b7f222c20226465736372697074696f6e223a2022447261774e46542069732061206013918401918201527f636f6c6c656374696f6e206f66204f4e2d434841494e204e465473207468617460338201527f20757365727320637573746f6d697a65206f6e206d696e742e222c2022696d6160538201527f6765223a2022646174613a696d6167652f7376672b786d6c3b6261736536342c607382015284516125548160938401602089016127ed565b6e11161130ba3a3934b13aba32b9911d60891b6093929091019182015283516125848160a28401602088016127ed565b607d60f81b60a2929091019182015260a30195945050505050565b605b60f81b8152600082516125bb8160018501602087016127ed565b605d60f81b6001939091019283015250600201919050565b7f646174613a6170706c69636174696f6e2f6a736f6e3b6261736536342c00000081526000825161260b81601d8501602087016127ed565b91909101601d0192915050565b6001600160a01b038581168252841660208201526040810183905260806060820181905260009061264b908301846120e2565b9695505050505050565b6020808252825182820181905260009190848201906040850190845b8181101561268d57835183529284019291840191600101612671565b50909695505050505050565b602081526000611eee60208301846120e2565b60208082526032908201527f4552433732313a207472616e7366657220746f206e6f6e20455243373231526560408201527131b2b4bb32b91034b6b83632b6b2b73a32b960711b606082015260800190565b60208082526031908201527f4552433732313a207472616e736665722063616c6c6572206973206e6f74206f6040820152701ddb995c881b9bdc88185c1c1c9bdd9959607a1b606082015260800190565b82815260406020820152600061116f60408301846120e2565b6000821982111561277b5761277b612883565b500190565b60008261278f5761278f612899565b500490565b60008160001904831182151516156127ae576127ae612883565b500290565b6000828210156127c5576127c5612883565b500390565b600060ff821660ff8416808210156127e4576127e4612883565b90039392505050565b60005b838110156128085781810151838201526020016127f0565b83811115610bd35750506000910152565b600181811c9082168061282d57607f821691505b6020821081141561284e57634e487b7160e01b600052602260045260246000fd5b50919050565b600060001982141561286857612868612883565b5060010190565b60008261287e5761287e612899565b500690565b634e487b7160e01b600052601160045260246000fd5b634e487b7160e01b600052601260045260246000fd5b634e487b7160e01b600052603160045260246000fd5b634e487b7160e01b600052603260045260246000fd5b634e487b7160e01b600052604160045260246000fd5b6001600160e01b03198116811461290757600080fd5b5056fe4142434445464748494a4b4c4d4e4f505152535455565758595a6162636465666768696a6b6c6d6e6f707172737475767778797a303132333435363738392b2fa2646970667358221220e68f5a5dab1273a397a7f93a704631878d9b3da2bdd3232313c9920020029d3064736f6c634300080700333030303130323033303430353036313332333333343034313432343334343435343630303031303230333034303530363132323333343430343134323433343434353436303130323033303430353130313632303234323633303335343134323433343434363030303130323033303430353036313532333234333534303431343234333434343534363032303431303131313231333134313531363232323433303331333233333334333533363432343430323035313131333135323032313232323332343235323633313333333534313434303030313032303330343035303631303133313632303233323633303333333634303436303130323033303430353130313431363230323332363330333233363431343234333434343530303031303230333034303530363130313331363230323332363330333333363431343234343435303030313032303330343035303631313232333134303431343234333434343534363030303130323035313031323136323032323236333033323336343034333434343530313032303330343035303631303134323032343330333434313432343334343435343630313034303531303133313632303233323432353236333033363431343234333434343530303031303230333034303530363130313332303233323433303333333534313432343630313032303430353130313331363230323332363330333333363431343234343435",
            "opcodes": "PUSH3 0x186A0 PUSH1 0xB SSTORE PUSH1 0x5 PUSH1 0xC SWAP1 DUP2 SSTORE PUSH8 0xDE0B6B3A7640000 PUSH1 0xD SSTORE PUSH1 0x8C PUSH1 0xE SSTORE PUSH2 0xC60 DUP2 DUP2 MSTORE PUSH12 0x1918191899191919991A191B PUSH1 0xA1 SHL PUSH2 0xC80 MSTORE PUSH1 0x80 SWAP1 DUP2 MSTORE PUSH2 0xCA0 SWAP2 DUP3 MSTORE PUSH12 0x189818989899199819989999 PUSH1 0xA1 SHL PUSH2 0xCC0 MSTORE PUSH1 0xA0 SWAP2 SWAP1 SWAP2 MSTORE PUSH2 0xD40 PUSH1 0x40 MSTORE PUSH1 0x28 PUSH2 0xCE0 DUP2 DUP2 MSTORE PUSH1 0xC0 SWAP2 PUSH3 0x3E29 PUSH2 0xD00 CODECOPY DUP2 MSTORE PUSH1 0x20 ADD PUSH1 0x40 MLOAD DUP1 PUSH1 0x60 ADD PUSH1 0x40 MSTORE DUP1 PUSH1 0x22 DUP2 MSTORE PUSH1 0x20 ADD PUSH3 0x3E51 PUSH1 0x22 SWAP2 CODECOPY DUP2 MSTORE PUSH1 0x20 ADD PUSH1 0x40 MLOAD DUP1 PUSH1 0x40 ADD PUSH1 0x40 MSTORE DUP1 PUSH1 0x1A DUP2 MSTORE PUSH1 0x20 ADD PUSH32 0x3030303130353130313131343233333233353336343134353436000000000000 DUP2 MSTORE POP DUP2 MSTORE PUSH1 0x20 ADD PUSH1 0x40 MLOAD DUP1 PUSH1 0x40 ADD PUSH1 0x40 MSTORE DUP1 PUSH1 0x1E DUP2 MSTORE PUSH1 0x20 ADD PUSH32 0x3031303230343035313031333136323032323234323633313335343434360000 DUP2 MSTORE POP DUP2 MSTORE PUSH1 0x20 ADD PUSH1 0x40 MLOAD DUP1 PUSH1 0x40 ADD PUSH1 0x40 MSTORE DUP1 PUSH1 0x8 DUP2 MSTORE PUSH1 0x20 ADD PUSH8 0x3130313232303231 PUSH1 0xC0 SHL DUP2 MSTORE POP DUP2 MSTORE PUSH1 0x20 ADD PUSH1 0x40 MLOAD DUP1 PUSH1 0x40 ADD PUSH1 0x40 MSTORE DUP1 PUSH1 0xE DUP2 MSTORE PUSH1 0x20 ADD PUSH14 0x18991899989A1918991A9998199B PUSH1 0x91 SHL DUP2 MSTORE POP DUP2 MSTORE PUSH1 0x20 ADD PUSH1 0x40 MLOAD DUP1 PUSH1 0x40 ADD PUSH1 0x40 MSTORE DUP1 PUSH1 0xE DUP2 MSTORE PUSH1 0x20 ADD PUSH14 0xC4C0C4D8C8C4C8D4CCC8CCCCCCD PUSH1 0x92 SHL DUP2 MSTORE POP DUP2 MSTORE PUSH1 0x20 ADD PUSH1 0x40 MLOAD DUP1 PUSH1 0x40 ADD PUSH1 0x40 MSTORE DUP1 PUSH1 0x16 DUP2 MSTORE PUSH1 0x20 ADD PUSH32 0x3033313131333135323232333234333133333335343300000000000000000000 DUP2 MSTORE POP DUP2 MSTORE PUSH1 0x20 ADD PUSH1 0x40 MLOAD DUP1 PUSH1 0x40 ADD PUSH1 0x40 MSTORE DUP1 PUSH1 0x12 DUP2 MSTORE PUSH1 0x20 ADD PUSH18 0x303331333231323232333234323533333433 PUSH1 0x70 SHL DUP2 MSTORE POP DUP2 MSTORE PUSH1 0x20 ADD PUSH1 0x40 MLOAD DUP1 PUSH1 0x40 ADD PUSH1 0x40 MSTORE DUP1 PUSH1 0x8 DUP2 MSTORE PUSH1 0x20 ADD PUSH8 0x3134313632343235 PUSH1 0xC0 SHL DUP2 MSTORE POP DUP2 MSTORE PUSH1 0x20 ADD PUSH1 0x40 MLOAD DUP1 PUSH1 0x40 ADD PUSH1 0x40 MSTORE DUP1 PUSH1 0xA DUP2 MSTORE PUSH1 0x20 ADD PUSH10 0x30333133323333333433 PUSH1 0xB0 SHL DUP2 MSTORE POP DUP2 MSTORE PUSH1 0x20 ADD PUSH1 0x40 MLOAD DUP1 PUSH1 0x40 ADD PUSH1 0x40 MSTORE DUP1 PUSH1 0x8 DUP2 MSTORE PUSH1 0x20 ADD PUSH8 0x189A989B191A991B PUSH1 0xC1 SHL DUP2 MSTORE POP DUP2 MSTORE PUSH1 0x20 ADD PUSH1 0x40 MLOAD DUP1 PUSH1 0x40 ADD PUSH1 0x40 MSTORE DUP1 PUSH1 0xA DUP2 MSTORE PUSH1 0x20 ADD PUSH10 0x30353134323333323431 PUSH1 0xB0 SHL DUP2 MSTORE POP DUP2 MSTORE PUSH1 0x20 ADD PUSH1 0x40 MLOAD DUP1 PUSH1 0x60 ADD PUSH1 0x40 MSTORE DUP1 PUSH1 0x26 DUP2 MSTORE PUSH1 0x20 ADD PUSH3 0x3E97 PUSH1 0x26 SWAP2 CODECOPY DUP2 MSTORE PUSH1 0x20 ADD PUSH1 0x40 MLOAD DUP1 PUSH1 0x40 ADD PUSH1 0x40 MSTORE DUP1 PUSH1 0x14 DUP2 MSTORE PUSH1 0x20 ADD PUSH32 0x3131313632303231323232333234323532363336000000000000000000000000 DUP2 MSTORE POP DUP2 MSTORE PUSH1 0x20 ADD PUSH1 0x40 MLOAD DUP1 PUSH1 0x40 ADD PUSH1 0x40 MSTORE DUP1 PUSH1 0x1C DUP2 MSTORE PUSH1 0x20 ADD PUSH32 0x3031303631303135313632303234323633303333333634313432343600000000 DUP2 MSTORE POP DUP2 MSTORE PUSH1 0x20 ADD PUSH1 0x40 MLOAD DUP1 PUSH1 0x40 ADD PUSH1 0x40 MSTORE DUP1 PUSH1 0x1C DUP2 MSTORE PUSH1 0x20 ADD PUSH32 0x3030303531303136323032323236333033313333333634303434343500000000 DUP2 MSTORE POP DUP2 MSTORE PUSH1 0x20 ADD PUSH1 0x40 MLOAD DUP1 PUSH1 0x40 ADD PUSH1 0x40 MSTORE DUP1 PUSH1 0x1C DUP2 MSTORE PUSH1 0x20 ADD PUSH32 0x3033303431323134323132343330333133323333333433353336343400000000 DUP2 MSTORE POP DUP2 MSTORE PUSH1 0x20 ADD PUSH1 0x40 MLOAD DUP1 PUSH1 0x60 ADD PUSH1 0x40 MSTORE DUP1 PUSH1 0x22 DUP2 MSTORE PUSH1 0x20 ADD PUSH3 0x3F07 PUSH1 0x22 SWAP2 CODECOPY DUP2 MSTORE PUSH1 0x20 ADD PUSH1 0x40 MLOAD DUP1 PUSH1 0x40 ADD PUSH1 0x40 MSTORE DUP1 PUSH1 0x1E DUP2 MSTORE PUSH1 0x20 ADD PUSH32 0x3032303330343035313131333136323032333236333033333336343434350000 DUP2 MSTORE POP DUP2 MSTORE PUSH1 0x20 ADD PUSH1 0x40 MLOAD DUP1 PUSH1 0x40 ADD PUSH1 0x40 MSTORE DUP1 PUSH1 0x16 DUP2 MSTORE PUSH1 0x20 ADD PUSH32 0x3030313031343135313632303233333033323430343100000000000000000000 DUP2 MSTORE POP DUP2 MSTORE PUSH1 0x20 ADD PUSH1 0x40 MLOAD DUP1 PUSH1 0x60 ADD PUSH1 0x40 MSTORE DUP1 PUSH1 0x22 DUP2 MSTORE PUSH1 0x20 ADD PUSH3 0x3F95 PUSH1 0x22 SWAP2 CODECOPY DUP2 MSTORE PUSH1 0x20 ADD PUSH1 0x40 MLOAD DUP1 PUSH1 0x40 ADD PUSH1 0x40 MSTORE DUP1 PUSH1 0x1E DUP2 MSTORE PUSH1 0x20 ADD PUSH32 0x3031303231303133313632303233323633303333333534313432343334340000 DUP2 MSTORE POP DUP2 MSTORE PUSH1 0x20 ADD PUSH1 0x40 MLOAD DUP1 PUSH1 0x40 ADD PUSH1 0x40 MSTORE DUP1 PUSH1 0x10 DUP2 MSTORE PUSH1 0x20 ADD PUSH16 0x31313132313431353231323232343235 PUSH1 0x80 SHL DUP2 MSTORE POP DUP2 MSTORE PUSH1 0x20 ADD PUSH1 0x40 MLOAD DUP1 PUSH1 0x40 ADD PUSH1 0x40 MSTORE DUP1 PUSH1 0x10 DUP2 MSTORE PUSH1 0x20 ADD PUSH16 0x31313132313431363231323232343235 PUSH1 0x80 SHL DUP2 MSTORE POP DUP2 MSTORE PUSH1 0x20 ADD PUSH1 0x40 MLOAD DUP1 PUSH1 0x40 ADD PUSH1 0x40 MSTORE DUP1 PUSH1 0xE DUP2 MSTORE PUSH1 0x20 ADD PUSH14 0x18999919191A1998999A9A181A1B PUSH1 0x91 SHL DUP2 MSTORE POP DUP2 MSTORE PUSH1 0x20 ADD PUSH1 0x40 MLOAD DUP1 PUSH1 0x40 ADD PUSH1 0x40 MSTORE DUP1 PUSH1 0x14 DUP2 MSTORE PUSH1 0x20 ADD PUSH32 0x3032303431323134323232343332333434323434000000000000000000000000 DUP2 MSTORE POP DUP2 MSTORE PUSH1 0x20 ADD PUSH1 0x40 MLOAD DUP1 PUSH1 0x40 ADD PUSH1 0x40 MSTORE DUP1 PUSH1 0xE DUP2 MSTORE PUSH1 0x20 ADD PUSH14 0x3030303631313135323232343333 PUSH1 0x90 SHL DUP2 MSTORE POP DUP2 MSTORE PUSH1 0x20 ADD PUSH1 0x40 MLOAD DUP1 PUSH1 0x40 ADD PUSH1 0x40 MSTORE DUP1 PUSH1 0x12 DUP2 MSTORE PUSH1 0x20 ADD PUSH18 0x181898981918191A191B199819999A189A19 PUSH1 0x71 SHL DUP2 MSTORE POP DUP2 MSTORE PUSH1 0x20 ADD PUSH1 0x40 MLOAD DUP1 PUSH1 0x60 ADD PUSH1 0x40 MSTORE DUP1 PUSH1 0x24 DUP2 MSTORE PUSH1 0x20 ADD PUSH3 0x3F4D PUSH1 0x24 SWAP2 CODECOPY DUP2 MSTORE PUSH1 0x20 ADD PUSH1 0x40 MLOAD DUP1 PUSH1 0x60 ADD PUSH1 0x40 MSTORE DUP1 PUSH1 0x24 DUP2 MSTORE PUSH1 0x20 ADD PUSH3 0x3F29 PUSH1 0x24 SWAP2 CODECOPY DUP2 MSTORE PUSH1 0x20 ADD PUSH1 0x40 MLOAD DUP1 PUSH1 0x60 ADD PUSH1 0x40 MSTORE DUP1 PUSH1 0x28 DUP2 MSTORE PUSH1 0x20 ADD PUSH3 0x3EBD PUSH1 0x28 SWAP2 CODECOPY DUP2 MSTORE PUSH1 0x20 ADD PUSH1 0x40 MLOAD DUP1 PUSH1 0x40 ADD PUSH1 0x40 MSTORE DUP1 PUSH1 0x1A DUP2 MSTORE PUSH1 0x20 ADD PUSH32 0x3031303230333034303531303136323032363330333634313435000000000000 DUP2 MSTORE POP DUP2 MSTORE PUSH1 0x20 ADD PUSH1 0x40 MLOAD DUP1 PUSH1 0x40 ADD PUSH1 0x40 MSTORE DUP1 PUSH1 0x20 DUP2 MSTORE PUSH1 0x20 ADD PUSH32 0x3030303130323033303430353036313031363230323633313335343234333434 DUP2 MSTORE POP DUP2 MSTORE PUSH1 0x20 ADD PUSH1 0x40 MLOAD DUP1 PUSH1 0x60 ADD PUSH1 0x40 MSTORE DUP1 PUSH1 0x24 DUP2 MSTORE PUSH1 0x20 ADD PUSH3 0x3E73 PUSH1 0x24 SWAP2 CODECOPY DUP2 MSTORE PUSH1 0x20 ADD PUSH1 0x40 MLOAD DUP1 PUSH1 0x40 ADD PUSH1 0x40 MSTORE DUP1 PUSH1 0x1A DUP2 MSTORE PUSH1 0x20 ADD PUSH32 0x3030303130323033303430353036313031333230323333303430000000000000 DUP2 MSTORE POP DUP2 MSTORE PUSH1 0x20 ADD PUSH1 0x40 MLOAD DUP1 PUSH1 0x40 ADD PUSH1 0x40 MSTORE DUP1 PUSH1 0x1E DUP2 MSTORE PUSH1 0x20 ADD PUSH32 0x3031303230333034303531303136323032363330333433363431343434350000 DUP2 MSTORE POP DUP2 MSTORE PUSH1 0x20 ADD PUSH1 0x40 MLOAD DUP1 PUSH1 0x60 ADD PUSH1 0x40 MSTORE DUP1 PUSH1 0x22 DUP2 MSTORE PUSH1 0x20 ADD PUSH3 0x3D9F PUSH1 0x22 SWAP2 CODECOPY DUP2 MSTORE PUSH1 0x20 ADD PUSH1 0x40 MLOAD DUP1 PUSH1 0x40 ADD PUSH1 0x40 MSTORE DUP1 PUSH1 0x16 DUP2 MSTORE PUSH1 0x20 ADD PUSH32 0x3130313632303231323232333234323532363330333600000000000000000000 DUP2 MSTORE POP DUP2 MSTORE PUSH1 0x20 ADD PUSH1 0x40 MLOAD DUP1 PUSH1 0x40 ADD PUSH1 0x40 MSTORE DUP1 PUSH1 0x16 DUP2 MSTORE PUSH1 0x20 ADD PUSH32 0x3035313632303236333033313332333333343335343000000000000000000000 DUP2 MSTORE POP DUP2 MSTORE PUSH1 0x20 ADD PUSH1 0x40 MLOAD DUP1 PUSH1 0x40 ADD PUSH1 0x40 MSTORE DUP1 PUSH1 0x1C DUP2 MSTORE PUSH1 0x20 ADD PUSH32 0x3030303130323033303430353036313332323234333133353430343600000000 DUP2 MSTORE POP DUP2 MSTORE PUSH1 0x20 ADD PUSH1 0x40 MLOAD DUP1 PUSH1 0x40 ADD PUSH1 0x40 MSTORE DUP1 PUSH1 0x16 DUP2 MSTORE PUSH1 0x20 ADD PUSH32 0x3030303130323033303430353036313632363336343600000000000000000000 DUP2 MSTORE POP DUP2 MSTORE PUSH1 0x20 ADD PUSH1 0x40 MLOAD DUP1 PUSH1 0x60 ADD PUSH1 0x40 MSTORE DUP1 PUSH1 0x22 DUP2 MSTORE PUSH1 0x20 ADD PUSH3 0x3EE5 PUSH1 0x22 SWAP2 CODECOPY DUP2 MSTORE PUSH1 0x20 ADD PUSH1 0x40 MLOAD DUP1 PUSH1 0x60 ADD PUSH1 0x40 MSTORE DUP1 PUSH1 0x22 DUP2 MSTORE PUSH1 0x20 ADD PUSH3 0x3DC1 PUSH1 0x22 SWAP2 CODECOPY DUP2 MSTORE PUSH1 0x20 ADD PUSH1 0x40 MLOAD DUP1 PUSH1 0x40 ADD PUSH1 0x40 MSTORE DUP1 PUSH1 0x20 DUP2 MSTORE PUSH1 0x20 ADD PUSH32 0x3031303230333034303531303136323032363330333634313432343334343435 DUP2 MSTORE POP DUP2 MSTORE PUSH1 0x20 ADD PUSH1 0x40 MLOAD DUP1 PUSH1 0x40 ADD PUSH1 0x40 MSTORE DUP1 PUSH1 0x1E DUP2 MSTORE PUSH1 0x20 ADD PUSH32 0x3030303130323033303430353036313031333230323333303333343134320000 DUP2 MSTORE POP DUP2 MSTORE PUSH1 0x20 ADD PUSH1 0x40 MLOAD DUP1 PUSH1 0x60 ADD PUSH1 0x40 MSTORE DUP1 PUSH1 0x22 DUP2 MSTORE PUSH1 0x20 ADD PUSH3 0x3DE3 PUSH1 0x22 SWAP2 CODECOPY DUP2 MSTORE PUSH1 0x20 ADD PUSH1 0x40 MLOAD DUP1 PUSH1 0x60 ADD PUSH1 0x40 MSTORE DUP1 PUSH1 0x24 DUP2 MSTORE PUSH1 0x20 ADD PUSH3 0x3F71 PUSH1 0x24 SWAP2 CODECOPY DUP2 MSTORE PUSH1 0x20 ADD PUSH1 0x40 MLOAD DUP1 PUSH1 0x40 ADD PUSH1 0x40 MSTORE DUP1 PUSH1 0x1E DUP2 MSTORE PUSH1 0x20 ADD PUSH32 0x3031303230363130313331363230323332363330333333363430343434350000 DUP2 MSTORE POP DUP2 MSTORE PUSH1 0x20 ADD PUSH1 0x40 MLOAD DUP1 PUSH1 0x40 ADD PUSH1 0x40 MSTORE DUP1 PUSH1 0x16 DUP2 MSTORE PUSH1 0x20 ADD PUSH32 0x3030313032303231323232333234323532363330343000000000000000000000 DUP2 MSTORE POP DUP2 MSTORE PUSH1 0x20 ADD PUSH1 0x40 MLOAD DUP1 PUSH1 0x40 ADD PUSH1 0x40 MSTORE DUP1 PUSH1 0x1E DUP2 MSTORE PUSH1 0x20 ADD PUSH32 0x3030303130323033303430353136323633363430343134323433343434350000 DUP2 MSTORE POP DUP2 MSTORE PUSH1 0x20 ADD PUSH1 0x40 MLOAD DUP1 PUSH1 0x40 ADD PUSH1 0x40 MSTORE DUP1 PUSH1 0x1A DUP2 MSTORE PUSH1 0x20 ADD PUSH32 0x3030303130323033303431353236333534303431343234333434000000000000 DUP2 MSTORE POP DUP2 MSTORE PUSH1 0x20 ADD PUSH1 0x40 MLOAD DUP1 PUSH1 0x60 ADD PUSH1 0x40 MSTORE DUP1 PUSH1 0x24 DUP2 MSTORE PUSH1 0x20 ADD PUSH3 0x3E05 PUSH1 0x24 SWAP2 CODECOPY DUP2 MSTORE PUSH1 0x40 DUP1 MLOAD DUP1 DUP3 ADD DUP3 MSTORE PUSH1 0x1A DUP1 DUP3 MSTORE PUSH32 0x3030303130353036313231343233333233343430343134353436000000000000 PUSH1 0x20 DUP4 DUP2 ADD SWAP2 SWAP1 SWAP2 MSTORE DUP1 DUP6 ADD SWAP3 SWAP1 SWAP3 MSTORE DUP3 MLOAD DUP1 DUP5 ADD DUP5 MSTORE PUSH1 0x14 DUP1 DUP3 MSTORE PUSH32 0x3030303131323233323432353236333234303431000000000000000000000000 DUP3 DUP6 ADD MSTORE DUP5 DUP7 ADD SWAP2 SWAP1 SWAP2 MSTORE DUP4 MLOAD DUP1 DUP6 ADD DUP6 MSTORE PUSH1 0x1E DUP2 MSTORE PUSH32 0x3030303530363130313431363230323332363330333233363430343134360000 DUP2 DUP6 ADD MSTORE PUSH1 0x60 DUP7 ADD MSTORE DUP4 MLOAD DUP1 DUP6 ADD DUP6 MSTORE PUSH1 0x16 DUP1 DUP3 MSTORE PUSH32 0x3230323132323233323432353236333033363430343600000000000000000000 DUP3 DUP7 ADD MSTORE PUSH1 0x80 DUP8 ADD SWAP2 SWAP1 SWAP2 MSTORE DUP5 MLOAD DUP1 DUP7 ADD DUP7 MSTORE PUSH1 0xA DUP1 DUP3 MSTORE PUSH10 0x30313132323333343435 PUSH1 0xB0 SHL DUP3 DUP8 ADD MSTORE PUSH1 0xA0 DUP9 ADD SWAP2 SWAP1 SWAP2 MSTORE DUP6 MLOAD DUP1 DUP8 ADD DUP8 MSTORE DUP3 DUP2 MSTORE PUSH32 0x3030303631303136323032313232323332343235323600000000000000000000 DUP2 DUP8 ADD MSTORE PUSH1 0xC0 DUP9 ADD MSTORE DUP6 MLOAD DUP1 DUP8 ADD DUP8 MSTORE DUP2 DUP2 MSTORE PUSH10 0x18191898991819989A19 PUSH1 0xB1 SHL DUP2 DUP8 ADD MSTORE PUSH1 0xE0 DUP9 ADD MSTORE DUP6 MLOAD DUP1 DUP8 ADD DUP8 MSTORE SWAP1 DUP2 MSTORE PUSH10 0x181B189B191B199B1A1B PUSH1 0xB1 SHL DUP2 DUP7 ADD MSTORE PUSH2 0x100 DUP8 ADD MSTORE DUP5 MLOAD DUP1 DUP7 ADD DUP7 MSTORE PUSH1 0x6 DUP2 MSTORE PUSH6 0x189819189999 PUSH1 0xD1 SHL DUP2 DUP7 ADD MSTORE PUSH2 0x120 DUP8 ADD MSTORE DUP5 MLOAD DUP1 DUP7 ADD DUP7 MSTORE PUSH1 0x1C DUP1 DUP3 MSTORE PUSH32 0x3035313231343136323232343236333233343336343334343435343600000000 DUP3 DUP8 ADD MSTORE PUSH2 0x140 DUP9 ADD SWAP2 SWAP1 SWAP2 MSTORE DUP6 MLOAD DUP1 DUP8 ADD DUP8 MSTORE DUP6 DUP2 MSTORE PUSH32 0x3030303130323033303430353036313331363232323633323336343334343435 DUP2 DUP8 ADD MSTORE PUSH2 0x160 DUP9 ADD MSTORE DUP6 MLOAD DUP1 DUP8 ADD DUP8 MSTORE DUP4 DUP2 MSTORE PUSH32 0x3033303430353132313632323236333233363435000000000000000000000000 DUP2 DUP8 ADD MSTORE PUSH2 0x180 DUP9 ADD MSTORE DUP6 MLOAD DUP1 DUP8 ADD DUP8 MSTORE DUP6 DUP2 MSTORE PUSH32 0x3033303430353132313632323236333333363430343134323433343434353436 DUP2 DUP8 ADD MSTORE PUSH2 0x1A0 DUP9 ADD MSTORE DUP6 MLOAD DUP1 DUP8 ADD DUP8 MSTORE DUP2 DUP2 MSTORE PUSH32 0x3033303430353132313431363232323432363332333433363433343400000000 DUP2 DUP8 ADD MSTORE PUSH2 0x1C0 DUP9 ADD MSTORE DUP6 MLOAD DUP1 DUP8 ADD DUP8 MSTORE DUP3 DUP2 MSTORE PUSH32 0x3033313131323133313431353136323032333330343100000000000000000000 DUP2 DUP8 ADD MSTORE PUSH2 0x1E0 DUP9 ADD MSTORE DUP6 MLOAD DUP1 DUP8 ADD DUP8 MSTORE DUP5 DUP2 MSTORE PUSH32 0x3033313231343232323432363332333433363432343334343435000000000000 DUP2 DUP8 ADD MSTORE PUSH2 0x200 DUP9 ADD MSTORE DUP6 MLOAD DUP1 DUP8 ADD DUP8 MSTORE SWAP1 DUP2 MSTORE PUSH32 0x3030303130323033303430353036313332323332343334343435343600000000 DUP2 DUP7 ADD MSTORE PUSH2 0x220 DUP8 ADD MSTORE DUP5 MLOAD DUP1 DUP7 ADD DUP7 MSTORE PUSH1 0x12 DUP1 DUP3 MSTORE PUSH18 0x1899189B191819191919991A191A991B199B PUSH1 0x71 SHL DUP3 DUP8 ADD MSTORE PUSH2 0x240 DUP9 ADD SWAP2 SWAP1 SWAP2 MSTORE DUP6 MLOAD DUP1 DUP8 ADD DUP8 MSTORE DUP2 DUP2 MSTORE PUSH18 0x303531363232323633303332333333343335 PUSH1 0x70 SHL DUP2 DUP8 ADD MSTORE PUSH2 0x260 DUP9 ADD MSTORE DUP6 MLOAD DUP1 DUP8 ADD DUP8 MSTORE PUSH1 0x18 DUP1 DUP3 MSTORE PUSH32 0x3130313131323133313431353136323433333335343234360000000000000000 DUP3 DUP9 ADD MSTORE PUSH2 0x280 DUP10 ADD SWAP2 SWAP1 SWAP2 MSTORE DUP7 MLOAD DUP1 DUP9 ADD DUP9 MSTORE SWAP4 DUP5 MSTORE PUSH32 0x3130313632303231323232333234323532363336000000000000000000000000 DUP5 DUP8 ADD MSTORE PUSH2 0x2A0 DUP9 ADD SWAP4 SWAP1 SWAP4 MSTORE DUP6 MLOAD DUP1 DUP8 ADD DUP8 MSTORE DUP5 DUP2 MSTORE PUSH32 0x3032303330343035303631323233323433323433343434353436000000000000 DUP2 DUP8 ADD MSTORE PUSH2 0x2C0 DUP9 ADD MSTORE DUP6 MLOAD DUP1 DUP8 ADD DUP8 MSTORE DUP4 DUP2 MSTORE PUSH32 0x3032303330343035303631333232333234333434343534360000000000000000 DUP2 DUP8 ADD MSTORE PUSH2 0x2E0 DUP9 ADD MSTORE DUP6 MLOAD DUP1 DUP8 ADD DUP8 MSTORE DUP4 DUP2 MSTORE PUSH32 0x3033303430353132313632323236333233363433343434350000000000000000 DUP2 DUP8 ADD MSTORE PUSH2 0x300 DUP9 ADD MSTORE DUP6 MLOAD DUP1 DUP8 ADD DUP8 MSTORE DUP4 DUP2 MSTORE PUSH32 0x3032303330343035303631323134323232343332333434330000000000000000 DUP2 DUP8 ADD MSTORE PUSH2 0x320 DUP9 ADD MSTORE DUP6 MLOAD DUP1 DUP8 ADD DUP8 MSTORE DUP4 DUP2 MSTORE PUSH32 0x3033313231343232323433333334343234333434343534360000000000000000 DUP2 DUP8 ADD MSTORE PUSH2 0x340 DUP9 ADD MSTORE DUP6 MLOAD DUP1 DUP8 ADD DUP8 MSTORE DUP2 DUP2 MSTORE PUSH18 0x303230333034303530363133323233323433 PUSH1 0x70 SHL DUP2 DUP8 ADD MSTORE PUSH2 0x360 DUP9 ADD MSTORE DUP6 MLOAD DUP1 DUP8 ADD DUP8 MSTORE DUP4 DUP2 MSTORE PUSH32 0x3033303631323134313632323234323633323334333634350000000000000000 DUP2 DUP8 ADD MSTORE PUSH2 0x380 DUP9 ADD MSTORE DUP6 MLOAD DUP1 DUP8 ADD DUP8 MSTORE SWAP2 DUP3 MSTORE PUSH32 0x3032313031313132313331343135323232363336343500000000000000000000 DUP3 DUP7 ADD MSTORE PUSH2 0x3A0 DUP8 ADD SWAP2 SWAP1 SWAP2 MSTORE DUP5 MLOAD DUP1 DUP7 ADD DUP7 MSTORE DUP3 DUP2 MSTORE PUSH32 0x3032303330343035313632363335343234333434343534360000000000000000 DUP2 DUP7 ADD MSTORE PUSH2 0x3C0 DUP8 ADD MSTORE DUP5 MLOAD DUP1 DUP7 ADD DUP7 MSTORE DUP2 DUP2 MSTORE PUSH18 0xC0C8C0CCC0D0C4D4C8D8CCD4D0C8D0CCD0D PUSH1 0x72 SHL DUP2 DUP7 ADD MSTORE PUSH2 0x3E0 DUP8 ADD MSTORE DUP5 MLOAD DUP1 DUP7 ADD DUP7 MSTORE DUP3 DUP2 MSTORE PUSH32 0x3032303330343035313632343235333634323433343434350000000000000000 DUP2 DUP7 ADD MSTORE PUSH2 0x400 DUP8 ADD MSTORE DUP5 MLOAD DUP1 DUP7 ADD DUP7 MSTORE DUP2 DUP2 MSTORE PUSH18 0x1819181B1899989A991A1999999A9A191A1B PUSH1 0x71 SHL DUP2 DUP7 ADD MSTORE PUSH2 0x420 DUP8 ADD MSTORE DUP5 MLOAD DUP1 DUP7 ADD DUP7 MSTORE SWAP2 DUP3 MSTORE PUSH32 0x3032303331343136323432363334333634323433343434350000000000000000 DUP3 DUP6 ADD MSTORE PUSH2 0x440 DUP7 ADD SWAP2 SWAP1 SWAP2 MSTORE DUP4 MLOAD DUP1 DUP6 ADD DUP6 MSTORE SWAP2 DUP3 MSTORE PUSH32 0x3032303631323135313632323234323633323333333634323436000000000000 DUP3 DUP5 ADD MSTORE PUSH2 0x460 DUP6 ADD SWAP2 SWAP1 SWAP2 MSTORE DUP3 MLOAD DUP1 DUP5 ADD DUP5 MSTORE PUSH1 0xE DUP1 DUP3 MSTORE PUSH14 0x189999189919191A191A9998199B PUSH1 0x91 SHL DUP3 DUP6 ADD MSTORE PUSH2 0x480 DUP7 ADD SWAP2 SWAP1 SWAP2 MSTORE DUP4 MLOAD DUP1 DUP6 ADD DUP6 MSTORE DUP2 DUP2 MSTORE PUSH14 0x1918191899191919991A191A991B PUSH1 0x91 SHL DUP2 DUP6 ADD MSTORE PUSH2 0x4A0 DUP7 ADD MSTORE DUP4 MLOAD DUP1 DUP6 ADD DUP6 MSTORE SWAP1 DUP2 MSTORE PUSH14 0x3130313632313232323432353333 PUSH1 0x90 SHL DUP2 DUP5 ADD MSTORE PUSH2 0x4C0 DUP6 ADD MSTORE DUP3 MLOAD DUP1 DUP5 ADD DUP5 MSTORE SWAP1 DUP2 MSTORE PUSH18 0x303331333231323332353332333333343433 PUSH1 0x70 SHL DUP2 DUP4 ADD MSTORE PUSH2 0x4E0 DUP5 ADD MSTORE DUP2 MLOAD DUP1 DUP4 ADD SWAP1 SWAP3 MSTORE PUSH1 0x10 DUP3 MSTORE PUSH16 0x30333132313331343231323332353333 PUSH1 0x80 SHL SWAP1 DUP3 ADD MSTORE PUSH2 0x500 SWAP1 SWAP2 ADD MSTORE PUSH3 0x11DE SWAP1 PUSH1 0xF SWAP1 PUSH1 0x5F PUSH3 0x1269 JUMP JUMPDEST POP CALLVALUE DUP1 ISZERO PUSH3 0x11EC JUMPI PUSH1 0x0 DUP1 REVERT JUMPDEST POP PUSH1 0x40 DUP1 MLOAD DUP1 DUP3 ADD DUP3 MSTORE PUSH1 0x8 DUP2 MSTORE PUSH8 0x135E53DDDB93999D PUSH1 0xC2 SHL PUSH1 0x20 DUP1 DUP4 ADD SWAP2 DUP3 MSTORE DUP4 MLOAD DUP1 DUP6 ADD SWAP1 SWAP5 MSTORE PUSH1 0x3 DUP5 MSTORE PUSH3 0x26A7A7 PUSH1 0xE9 SHL SWAP1 DUP5 ADD MSTORE DUP2 MLOAD SWAP2 SWAP3 SWAP2 PUSH3 0x1238 SWAP2 PUSH1 0x0 SWAP2 PUSH3 0x12CD JUMP JUMPDEST POP DUP1 MLOAD PUSH3 0x124E SWAP1 PUSH1 0x1 SWAP1 PUSH1 0x20 DUP5 ADD SWAP1 PUSH3 0x12CD JUMP JUMPDEST POP POP PUSH1 0x10 DUP1 SLOAD PUSH1 0x1 PUSH1 0x1 PUSH1 0xA0 SHL SUB NOT AND CALLER OR SWAP1 SSTORE POP PUSH3 0x140F JUMP JUMPDEST DUP3 DUP1 SLOAD DUP3 DUP3 SSTORE SWAP1 PUSH1 0x0 MSTORE PUSH1 0x20 PUSH1 0x0 KECCAK256 SWAP1 DUP2 ADD SWAP3 DUP3 ISZERO PUSH3 0x12BB JUMPI SWAP2 PUSH1 0x20 MUL DUP3 ADD JUMPDEST DUP3 DUP2 GT ISZERO PUSH3 0x12BB JUMPI DUP3 MLOAD DUP1 MLOAD PUSH3 0x12AA SWAP2 DUP5 SWAP2 PUSH1 0x20 SWAP1 SWAP2 ADD SWAP1 PUSH3 0x12CD JUMP JUMPDEST POP SWAP2 PUSH1 0x20 ADD SWAP2 SWAP1 PUSH1 0x1 ADD SWAP1 PUSH3 0x128A JUMP JUMPDEST POP PUSH3 0x12C9 SWAP3 SWAP2 POP PUSH3 0x1358 JUMP JUMPDEST POP SWAP1 JUMP JUMPDEST DUP3 DUP1 SLOAD PUSH3 0x12DB SWAP1 PUSH3 0x13D2 JUMP JUMPDEST SWAP1 PUSH1 0x0 MSTORE PUSH1 0x20 PUSH1 0x0 KECCAK256 SWAP1 PUSH1 0x1F ADD PUSH1 0x20 SWAP1 DIV DUP2 ADD SWAP3 DUP3 PUSH3 0x12FF JUMPI PUSH1 0x0 DUP6 SSTORE PUSH3 0x134A JUMP JUMPDEST DUP3 PUSH1 0x1F LT PUSH3 0x131A JUMPI DUP1 MLOAD PUSH1 0xFF NOT AND DUP4 DUP1 ADD OR DUP6 SSTORE PUSH3 0x134A JUMP JUMPDEST DUP3 DUP1 ADD PUSH1 0x1 ADD DUP6 SSTORE DUP3 ISZERO PUSH3 0x134A JUMPI SWAP2 DUP3 ADD JUMPDEST DUP3 DUP2 GT ISZERO PUSH3 0x134A JUMPI DUP3 MLOAD DUP3 SSTORE SWAP2 PUSH1 0x20 ADD SWAP2 SWAP1 PUSH1 0x1 ADD SWAP1 PUSH3 0x132D JUMP JUMPDEST POP PUSH3 0x12C9 SWAP3 SWAP2 POP PUSH3 0x1379 JUMP JUMPDEST DUP1 DUP3 GT ISZERO PUSH3 0x12C9 JUMPI PUSH1 0x0 PUSH3 0x136F DUP3 DUP3 PUSH3 0x1390 JUMP JUMPDEST POP PUSH1 0x1 ADD PUSH3 0x1358 JUMP JUMPDEST JUMPDEST DUP1 DUP3 GT ISZERO PUSH3 0x12C9 JUMPI PUSH1 0x0 DUP2 SSTORE PUSH1 0x1 ADD PUSH3 0x137A JUMP JUMPDEST POP DUP1 SLOAD PUSH3 0x139E SWAP1 PUSH3 0x13D2 JUMP JUMPDEST PUSH1 0x0 DUP3 SSTORE DUP1 PUSH1 0x1F LT PUSH3 0x13AF JUMPI POP POP JUMP JUMPDEST PUSH1 0x1F ADD PUSH1 0x20 SWAP1 DIV SWAP1 PUSH1 0x0 MSTORE PUSH1 0x20 PUSH1 0x0 KECCAK256 SWAP1 DUP2 ADD SWAP1 PUSH3 0x13CF SWAP2 SWAP1 PUSH3 0x1379 JUMP JUMPDEST POP JUMP JUMPDEST PUSH1 0x1 DUP2 DUP2 SHR SWAP1 DUP3 AND DUP1 PUSH3 0x13E7 JUMPI PUSH1 0x7F DUP3 AND SWAP2 POP JUMPDEST PUSH1 0x20 DUP3 LT DUP2 EQ ISZERO PUSH3 0x1409 JUMPI PUSH4 0x4E487B71 PUSH1 0xE0 SHL PUSH1 0x0 MSTORE PUSH1 0x22 PUSH1 0x4 MSTORE PUSH1 0x24 PUSH1 0x0 REVERT JUMPDEST POP SWAP2 SWAP1 POP JUMP JUMPDEST PUSH2 0x2980 DUP1 PUSH3 0x141F PUSH1 0x0 CODECOPY PUSH1 0x0 RETURN INVALID PUSH1 0x80 PUSH1 0x40 MSTORE PUSH1 0x4 CALLDATASIZE LT PUSH2 0x140 JUMPI PUSH1 0x0 CALLDATALOAD PUSH1 0xE0 SHR DUP1 PUSH4 0x4F6CCCE7 GT PUSH2 0xB6 JUMPI DUP1 PUSH4 0xBF64DB1D GT PUSH2 0x6F JUMPI DUP1 PUSH4 0xBF64DB1D EQ PUSH2 0x38D JUMPI DUP1 PUSH4 0xC11FEAC1 EQ PUSH2 0x3AD JUMPI DUP1 PUSH4 0xC87B56DD EQ PUSH2 0x3CD JUMPI DUP1 PUSH4 0xDA86F4A9 EQ PUSH2 0x3ED JUMPI DUP1 PUSH4 0xE985E9C5 EQ PUSH2 0x400 JUMPI DUP1 PUSH4 0xF2FDE38B EQ PUSH2 0x449 JUMPI PUSH1 0x0 DUP1 REVERT JUMPDEST DUP1 PUSH4 0x4F6CCCE7 EQ PUSH2 0x2D8 JUMPI DUP1 PUSH4 0x6352211E EQ PUSH2 0x2F8 JUMPI DUP1 PUSH4 0x70A08231 EQ PUSH2 0x318 JUMPI DUP1 PUSH4 0x95D89B41 EQ PUSH2 0x338 JUMPI DUP1 PUSH4 0xA22CB465 EQ PUSH2 0x34D JUMPI DUP1 PUSH4 0xB88D4FDE EQ PUSH2 0x36D JUMPI PUSH1 0x0 DUP1 REVERT JUMPDEST DUP1 PUSH4 0x18160DDD GT PUSH2 0x108 JUMPI DUP1 PUSH4 0x18160DDD EQ PUSH2 0x224 JUMPI DUP1 PUSH4 0x23B872DD EQ PUSH2 0x243 JUMPI DUP1 PUSH4 0x2F745C59 EQ PUSH2 0x263 JUMPI DUP1 PUSH4 0x3CCFD60B EQ PUSH2 0x283 JUMPI DUP1 PUSH4 0x42842E0E EQ PUSH2 0x28B JUMPI DUP1 PUSH4 0x438B6300 EQ PUSH2 0x2AB JUMPI PUSH1 0x0 DUP1 REVERT JUMPDEST DUP1 PUSH4 0x1FFC9A7 EQ PUSH2 0x145 JUMPI DUP1 PUSH4 0x561A9F1 EQ PUSH2 0x17A JUMPI DUP1 PUSH4 0x6FDDE03 EQ PUSH2 0x1A8 JUMPI DUP1 PUSH4 0x81812FC EQ PUSH2 0x1CA JUMPI DUP1 PUSH4 0x95EA7B3 EQ PUSH2 0x202 JUMPI JUMPDEST PUSH1 0x0 DUP1 REVERT JUMPDEST CALLVALUE DUP1 ISZERO PUSH2 0x151 JUMPI PUSH1 0x0 DUP1 REVERT JUMPDEST POP PUSH2 0x165 PUSH2 0x160 CALLDATASIZE PUSH1 0x4 PUSH2 0x2046 JUMP JUMPDEST PUSH2 0x469 JUMP JUMPDEST PUSH1 0x40 MLOAD SWAP1 ISZERO ISZERO DUP2 MSTORE PUSH1 0x20 ADD JUMPDEST PUSH1 0x40 MLOAD DUP1 SWAP2 SUB SWAP1 RETURN JUMPDEST CALLVALUE DUP1 ISZERO PUSH2 0x186 JUMPI PUSH1 0x0 DUP1 REVERT JUMPDEST POP PUSH2 0x19A PUSH2 0x195 CALLDATASIZE PUSH1 0x4 PUSH2 0x20C9 JUMP JUMPDEST PUSH2 0x494 JUMP JUMPDEST PUSH1 0x40 MLOAD PUSH2 0x171 SWAP3 SWAP2 SWAP1 PUSH2 0x274F JUMP JUMPDEST CALLVALUE DUP1 ISZERO PUSH2 0x1B4 JUMPI PUSH1 0x0 DUP1 REVERT JUMPDEST POP PUSH2 0x1BD PUSH2 0x539 JUMP JUMPDEST PUSH1 0x40 MLOAD PUSH2 0x171 SWAP2 SWAP1 PUSH2 0x2699 JUMP JUMPDEST CALLVALUE DUP1 ISZERO PUSH2 0x1D6 JUMPI PUSH1 0x0 DUP1 REVERT JUMPDEST POP PUSH2 0x1EA PUSH2 0x1E5 CALLDATASIZE PUSH1 0x4 PUSH2 0x20C9 JUMP JUMPDEST PUSH2 0x5CB JUMP JUMPDEST PUSH1 0x40 MLOAD PUSH1 0x1 PUSH1 0x1 PUSH1 0xA0 SHL SUB SWAP1 SWAP2 AND DUP2 MSTORE PUSH1 0x20 ADD PUSH2 0x171 JUMP JUMPDEST CALLVALUE DUP1 ISZERO PUSH2 0x20E JUMPI PUSH1 0x0 DUP1 REVERT JUMPDEST POP PUSH2 0x222 PUSH2 0x21D CALLDATASIZE PUSH1 0x4 PUSH2 0x201C JUMP JUMPDEST PUSH2 0x665 JUMP JUMPDEST STOP JUMPDEST CALLVALUE DUP1 ISZERO PUSH2 0x230 JUMPI PUSH1 0x0 DUP1 REVERT JUMPDEST POP PUSH1 0x8 SLOAD JUMPDEST PUSH1 0x40 MLOAD SWAP1 DUP2 MSTORE PUSH1 0x20 ADD PUSH2 0x171 JUMP JUMPDEST CALLVALUE DUP1 ISZERO PUSH2 0x24F JUMPI PUSH1 0x0 DUP1 REVERT JUMPDEST POP PUSH2 0x222 PUSH2 0x25E CALLDATASIZE PUSH1 0x4 PUSH2 0x1F28 JUMP JUMPDEST PUSH2 0x77B JUMP JUMPDEST CALLVALUE DUP1 ISZERO PUSH2 0x26F JUMPI PUSH1 0x0 DUP1 REVERT JUMPDEST POP PUSH2 0x235 PUSH2 0x27E CALLDATASIZE PUSH1 0x4 PUSH2 0x201C JUMP JUMPDEST PUSH2 0x7AC JUMP JUMPDEST PUSH2 0x222 PUSH2 0x842 JUMP JUMPDEST CALLVALUE DUP1 ISZERO PUSH2 0x297 JUMPI PUSH1 0x0 DUP1 REVERT JUMPDEST POP PUSH2 0x222 PUSH2 0x2A6 CALLDATASIZE PUSH1 0x4 PUSH2 0x1F28 JUMP JUMPDEST PUSH2 0x87F JUMP JUMPDEST CALLVALUE DUP1 ISZERO PUSH2 0x2B7 JUMPI PUSH1 0x0 DUP1 REVERT JUMPDEST POP PUSH2 0x2CB PUSH2 0x2C6 CALLDATASIZE PUSH1 0x4 PUSH2 0x1ED3 JUMP JUMPDEST PUSH2 0x89A JUMP JUMPDEST PUSH1 0x40 MLOAD PUSH2 0x171 SWAP2 SWAP1 PUSH2 0x2655 JUMP JUMPDEST CALLVALUE DUP1 ISZERO PUSH2 0x2E4 JUMPI PUSH1 0x0 DUP1 REVERT JUMPDEST POP PUSH2 0x235 PUSH2 0x2F3 CALLDATASIZE PUSH1 0x4 PUSH2 0x20C9 JUMP JUMPDEST PUSH2 0x93C JUMP JUMPDEST CALLVALUE DUP1 ISZERO PUSH2 0x304 JUMPI PUSH1 0x0 DUP1 REVERT JUMPDEST POP PUSH2 0x1EA PUSH2 0x313 CALLDATASIZE PUSH1 0x4 PUSH2 0x20C9 JUMP JUMPDEST PUSH2 0x9CF JUMP JUMPDEST CALLVALUE DUP1 ISZERO PUSH2 0x324 JUMPI PUSH1 0x0 DUP1 REVERT JUMPDEST POP PUSH2 0x235 PUSH2 0x333 CALLDATASIZE PUSH1 0x4 PUSH2 0x1ED3 JUMP JUMPDEST PUSH2 0xA46 JUMP JUMPDEST CALLVALUE DUP1 ISZERO PUSH2 0x344 JUMPI PUSH1 0x0 DUP1 REVERT JUMPDEST POP PUSH2 0x1BD PUSH2 0xACD JUMP JUMPDEST CALLVALUE DUP1 ISZERO PUSH2 0x359 JUMPI PUSH1 0x0 DUP1 REVERT JUMPDEST POP PUSH2 0x222 PUSH2 0x368 CALLDATASIZE PUSH1 0x4 PUSH2 0x1FE0 JUMP JUMPDEST PUSH2 0xADC JUMP JUMPDEST CALLVALUE DUP1 ISZERO PUSH2 0x379 JUMPI PUSH1 0x0 DUP1 REVERT JUMPDEST POP PUSH2 0x222 PUSH2 0x388 CALLDATASIZE PUSH1 0x4 PUSH2 0x1F64 JUMP JUMPDEST PUSH2 0xBA1 JUMP JUMPDEST CALLVALUE DUP1 ISZERO PUSH2 0x399 JUMPI PUSH1 0x0 DUP1 REVERT JUMPDEST POP PUSH2 0x1BD PUSH2 0x3A8 CALLDATASIZE PUSH1 0x4 PUSH2 0x20C9 JUMP JUMPDEST PUSH2 0xBD9 JUMP JUMPDEST CALLVALUE DUP1 ISZERO PUSH2 0x3B9 JUMPI PUSH1 0x0 DUP1 REVERT JUMPDEST POP PUSH2 0x1BD PUSH2 0x3C8 CALLDATASIZE PUSH1 0x4 PUSH2 0x20C9 JUMP JUMPDEST PUSH2 0xC8B JUMP JUMPDEST CALLVALUE DUP1 ISZERO PUSH2 0x3D9 JUMPI PUSH1 0x0 DUP1 REVERT JUMPDEST POP PUSH2 0x1BD PUSH2 0x3E8 CALLDATASIZE PUSH1 0x4 PUSH2 0x20C9 JUMP JUMPDEST PUSH2 0xE9F JUMP JUMPDEST PUSH2 0x222 PUSH2 0x3FB CALLDATASIZE PUSH1 0x4 PUSH2 0x2080 JUMP JUMPDEST PUSH2 0xF35 JUMP JUMPDEST CALLVALUE DUP1 ISZERO PUSH2 0x40C JUMPI PUSH1 0x0 DUP1 REVERT JUMPDEST POP PUSH2 0x165 PUSH2 0x41B CALLDATASIZE PUSH1 0x4 PUSH2 0x1EF5 JUMP JUMPDEST PUSH1 0x1 PUSH1 0x1 PUSH1 0xA0 SHL SUB SWAP2 DUP3 AND PUSH1 0x0 SWAP1 DUP2 MSTORE PUSH1 0x5 PUSH1 0x20 SWAP1 DUP2 MSTORE PUSH1 0x40 DUP1 DUP4 KECCAK256 SWAP4 SWAP1 SWAP5 AND DUP3 MSTORE SWAP2 SWAP1 SWAP2 MSTORE KECCAK256 SLOAD PUSH1 0xFF AND SWAP1 JUMP JUMPDEST CALLVALUE DUP1 ISZERO PUSH2 0x455 JUMPI PUSH1 0x0 DUP1 REVERT JUMPDEST POP PUSH2 0x222 PUSH2 0x464 CALLDATASIZE PUSH1 0x4 PUSH2 0x1ED3 JUMP JUMPDEST PUSH2 0xF89 JUMP JUMPDEST PUSH1 0x0 PUSH1 0x1 PUSH1 0x1 PUSH1 0xE0 SHL SUB NOT DUP3 AND PUSH4 0x780E9D63 PUSH1 0xE0 SHL EQ DUP1 PUSH2 0x48E JUMPI POP PUSH2 0x48E DUP3 PUSH2 0xFC2 JUMP JUMPDEST SWAP3 SWAP2 POP POP JUMP JUMPDEST PUSH1 0xA PUSH1 0x20 MSTORE PUSH1 0x0 SWAP1 DUP2 MSTORE PUSH1 0x40 SWAP1 KECCAK256 DUP1 SLOAD PUSH1 0x1 DUP3 ADD DUP1 SLOAD SWAP2 SWAP3 SWAP2 PUSH2 0x4B6 SWAP1 PUSH2 0x2819 JUMP JUMPDEST DUP1 PUSH1 0x1F ADD PUSH1 0x20 DUP1 SWAP2 DIV MUL PUSH1 0x20 ADD PUSH1 0x40 MLOAD SWAP1 DUP2 ADD PUSH1 0x40 MSTORE DUP1 SWAP3 SWAP2 SWAP1 DUP2 DUP2 MSTORE PUSH1 0x20 ADD DUP3 DUP1 SLOAD PUSH2 0x4E2 SWAP1 PUSH2 0x2819 JUMP JUMPDEST DUP1 ISZERO PUSH2 0x52F JUMPI DUP1 PUSH1 0x1F LT PUSH2 0x504 JUMPI PUSH2 0x100 DUP1 DUP4 SLOAD DIV MUL DUP4 MSTORE SWAP2 PUSH1 0x20 ADD SWAP2 PUSH2 0x52F JUMP JUMPDEST DUP3 ADD SWAP2 SWAP1 PUSH1 0x0 MSTORE PUSH1 0x20 PUSH1 0x0 KECCAK256 SWAP1 JUMPDEST DUP2 SLOAD DUP2 MSTORE SWAP1 PUSH1 0x1 ADD SWAP1 PUSH1 0x20 ADD DUP1 DUP4 GT PUSH2 0x512 JUMPI DUP3 SWAP1 SUB PUSH1 0x1F AND DUP3 ADD SWAP2 JUMPDEST POP POP POP POP POP SWAP1 POP DUP3 JUMP JUMPDEST PUSH1 0x60 PUSH1 0x0 DUP1 SLOAD PUSH2 0x548 SWAP1 PUSH2 0x2819 JUMP JUMPDEST DUP1 PUSH1 0x1F ADD PUSH1 0x20 DUP1 SWAP2 DIV MUL PUSH1 0x20 ADD PUSH1 0x40 MLOAD SWAP1 DUP2 ADD PUSH1 0x40 MSTORE DUP1 SWAP3 SWAP2 SWAP1 DUP2 DUP2 MSTORE PUSH1 0x20 ADD DUP3 DUP1 SLOAD PUSH2 0x574 SWAP1 PUSH2 0x2819 JUMP JUMPDEST DUP1 ISZERO PUSH2 0x5C1 JUMPI DUP1 PUSH1 0x1F LT PUSH2 0x596 JUMPI PUSH2 0x100 DUP1 DUP4 SLOAD DIV MUL DUP4 MSTORE SWAP2 PUSH1 0x20 ADD SWAP2 PUSH2 0x5C1 JUMP JUMPDEST DUP3 ADD SWAP2 SWAP1 PUSH1 0x0 MSTORE PUSH1 0x20 PUSH1 0x0 KECCAK256 SWAP1 JUMPDEST DUP2 SLOAD DUP2 MSTORE SWAP1 PUSH1 0x1 ADD SWAP1 PUSH1 0x20 ADD DUP1 DUP4 GT PUSH2 0x5A4 JUMPI DUP3 SWAP1 SUB PUSH1 0x1F AND DUP3 ADD SWAP2 JUMPDEST POP POP POP POP POP SWAP1 POP SWAP1 JUMP JUMPDEST PUSH1 0x0 DUP2 DUP2 MSTORE PUSH1 0x2 PUSH1 0x20 MSTORE PUSH1 0x40 DUP2 KECCAK256 SLOAD PUSH1 0x1 PUSH1 0x1 PUSH1 0xA0 SHL SUB AND PUSH2 0x649 JUMPI PUSH1 0x40 MLOAD PUSH3 0x461BCD PUSH1 0xE5 SHL DUP2 MSTORE PUSH1 0x20 PUSH1 0x4 DUP3 ADD MSTORE PUSH1 0x2C PUSH1 0x24 DUP3 ADD MSTORE PUSH32 0x4552433732313A20617070726F76656420717565727920666F72206E6F6E6578 PUSH1 0x44 DUP3 ADD MSTORE PUSH12 0x34B9BA32B73A103A37B5B2B7 PUSH1 0xA1 SHL PUSH1 0x64 DUP3 ADD MSTORE PUSH1 0x84 ADD JUMPDEST PUSH1 0x40 MLOAD DUP1 SWAP2 SUB SWAP1 REVERT JUMPDEST POP PUSH1 0x0 SWAP1 DUP2 MSTORE PUSH1 0x4 PUSH1 0x20 MSTORE PUSH1 0x40 SWAP1 KECCAK256 SLOAD PUSH1 0x1 PUSH1 0x1 PUSH1 0xA0 SHL SUB AND SWAP1 JUMP JUMPDEST PUSH1 0x0 PUSH2 0x670 DUP3 PUSH2 0x9CF JUMP JUMPDEST SWAP1 POP DUP1 PUSH1 0x1 PUSH1 0x1 PUSH1 0xA0 SHL SUB AND DUP4 PUSH1 0x1 PUSH1 0x1 PUSH1 0xA0 SHL SUB AND EQ ISZERO PUSH2 0x6DE JUMPI PUSH1 0x40 MLOAD PUSH3 0x461BCD PUSH1 0xE5 SHL DUP2 MSTORE PUSH1 0x20 PUSH1 0x4 DUP3 ADD MSTORE PUSH1 0x21 PUSH1 0x24 DUP3 ADD MSTORE PUSH32 0x4552433732313A20617070726F76616C20746F2063757272656E74206F776E65 PUSH1 0x44 DUP3 ADD MSTORE PUSH1 0x39 PUSH1 0xF9 SHL PUSH1 0x64 DUP3 ADD MSTORE PUSH1 0x84 ADD PUSH2 0x640 JUMP JUMPDEST CALLER PUSH1 0x1 PUSH1 0x1 PUSH1 0xA0 SHL SUB DUP3 AND EQ DUP1 PUSH2 0x6FA JUMPI POP PUSH2 0x6FA DUP2 CALLER PUSH2 0x41B JUMP JUMPDEST PUSH2 0x76C JUMPI PUSH1 0x40 MLOAD PUSH3 0x461BCD PUSH1 0xE5 SHL DUP2 MSTORE PUSH1 0x20 PUSH1 0x4 DUP3 ADD MSTORE PUSH1 0x38 PUSH1 0x24 DUP3 ADD MSTORE PUSH32 0x4552433732313A20617070726F76652063616C6C6572206973206E6F74206F77 PUSH1 0x44 DUP3 ADD MSTORE PUSH32 0x6E6572206E6F7220617070726F76656420666F7220616C6C0000000000000000 PUSH1 0x64 DUP3 ADD MSTORE PUSH1 0x84 ADD PUSH2 0x640 JUMP JUMPDEST PUSH2 0x776 DUP4 DUP4 PUSH2 0x1012 JUMP JUMPDEST POP POP POP JUMP JUMPDEST PUSH2 0x785 CALLER DUP3 PUSH2 0x1080 JUMP JUMPDEST PUSH2 0x7A1 JUMPI PUSH1 0x40 MLOAD PUSH3 0x461BCD PUSH1 0xE5 SHL DUP2 MSTORE PUSH1 0x4 ADD PUSH2 0x640 SWAP1 PUSH2 0x26FE JUMP JUMPDEST PUSH2 0x776 DUP4 DUP4 DUP4 PUSH2 0x1177 JUMP JUMPDEST PUSH1 0x0 PUSH2 0x7B7 DUP4 PUSH2 0xA46 JUMP JUMPDEST DUP3 LT PUSH2 0x819 JUMPI PUSH1 0x40 MLOAD PUSH3 0x461BCD PUSH1 0xE5 SHL DUP2 MSTORE PUSH1 0x20 PUSH1 0x4 DUP3 ADD MSTORE PUSH1 0x2B PUSH1 0x24 DUP3 ADD MSTORE PUSH32 0x455243373231456E756D657261626C653A206F776E657220696E646578206F75 PUSH1 0x44 DUP3 ADD MSTORE PUSH11 0x74206F6620626F756E6473 PUSH1 0xA8 SHL PUSH1 0x64 DUP3 ADD MSTORE PUSH1 0x84 ADD PUSH2 0x640 JUMP JUMPDEST POP PUSH1 0x1 PUSH1 0x1 PUSH1 0xA0 SHL SUB SWAP2 SWAP1 SWAP2 AND PUSH1 0x0 SWAP1 DUP2 MSTORE PUSH1 0x6 PUSH1 0x20 SWAP1 DUP2 MSTORE PUSH1 0x40 DUP1 DUP4 KECCAK256 SWAP4 DUP4 MSTORE SWAP3 SWAP1 MSTORE KECCAK256 SLOAD SWAP1 JUMP JUMPDEST PUSH1 0x10 SLOAD PUSH1 0x1 PUSH1 0x1 PUSH1 0xA0 SHL SUB AND CALLER EQ PUSH2 0x859 JUMPI PUSH1 0x0 DUP1 REVERT JUMPDEST PUSH1 0x40 MLOAD CALLER SWAP1 SELFBALANCE DUP1 ISZERO PUSH2 0x8FC MUL SWAP2 PUSH1 0x0 DUP2 DUP2 DUP2 DUP6 DUP9 DUP9 CALL SWAP4 POP POP POP POP PUSH2 0x87D JUMPI PUSH1 0x0 DUP1 REVERT JUMPDEST JUMP JUMPDEST PUSH2 0x776 DUP4 DUP4 DUP4 PUSH1 0x40 MLOAD DUP1 PUSH1 0x20 ADD PUSH1 0x40 MSTORE DUP1 PUSH1 0x0 DUP2 MSTORE POP PUSH2 0xBA1 JUMP JUMPDEST PUSH1 0x60 PUSH1 0x0 PUSH2 0x8A7 DUP4 PUSH2 0xA46 JUMP JUMPDEST SWAP1 POP PUSH1 0x0 DUP2 PUSH8 0xFFFFFFFFFFFFFFFF DUP2 GT ISZERO PUSH2 0x8C4 JUMPI PUSH2 0x8C4 PUSH2 0x28DB JUMP JUMPDEST PUSH1 0x40 MLOAD SWAP1 DUP1 DUP3 MSTORE DUP1 PUSH1 0x20 MUL PUSH1 0x20 ADD DUP3 ADD PUSH1 0x40 MSTORE DUP1 ISZERO PUSH2 0x8ED JUMPI DUP2 PUSH1 0x20 ADD PUSH1 0x20 DUP3 MUL DUP1 CALLDATASIZE DUP4 CALLDATACOPY ADD SWAP1 POP JUMPDEST POP SWAP1 POP PUSH1 0x0 JUMPDEST DUP3 DUP2 LT ISZERO PUSH2 0x934 JUMPI PUSH2 0x905 DUP6 DUP3 PUSH2 0x7AC JUMP JUMPDEST DUP3 DUP3 DUP2 MLOAD DUP2 LT PUSH2 0x917 JUMPI PUSH2 0x917 PUSH2 0x28C5 JUMP JUMPDEST PUSH1 0x20 SWAP1 DUP2 MUL SWAP2 SWAP1 SWAP2 ADD ADD MSTORE DUP1 PUSH2 0x92C DUP2 PUSH2 0x2854 JUMP JUMPDEST SWAP2 POP POP PUSH2 0x8F3 JUMP JUMPDEST POP SWAP4 SWAP3 POP POP POP JUMP JUMPDEST PUSH1 0x0 PUSH2 0x947 PUSH1 0x8 SLOAD SWAP1 JUMP JUMPDEST DUP3 LT PUSH2 0x9AA JUMPI PUSH1 0x40 MLOAD PUSH3 0x461BCD PUSH1 0xE5 SHL DUP2 MSTORE PUSH1 0x20 PUSH1 0x4 DUP3 ADD MSTORE PUSH1 0x2C PUSH1 0x24 DUP3 ADD MSTORE PUSH32 0x455243373231456E756D657261626C653A20676C6F62616C20696E646578206F PUSH1 0x44 DUP3 ADD MSTORE PUSH12 0x7574206F6620626F756E6473 PUSH1 0xA0 SHL PUSH1 0x64 DUP3 ADD MSTORE PUSH1 0x84 ADD PUSH2 0x640 JUMP JUMPDEST PUSH1 0x8 DUP3 DUP2 SLOAD DUP2 LT PUSH2 0x9BD JUMPI PUSH2 0x9BD PUSH2 0x28C5 JUMP JUMPDEST SWAP1 PUSH1 0x0 MSTORE PUSH1 0x20 PUSH1 0x0 KECCAK256 ADD SLOAD SWAP1 POP SWAP2 SWAP1 POP JUMP JUMPDEST PUSH1 0x0 DUP2 DUP2 MSTORE PUSH1 0x2 PUSH1 0x20 MSTORE PUSH1 0x40 DUP2 KECCAK256 SLOAD PUSH1 0x1 PUSH1 0x1 PUSH1 0xA0 SHL SUB AND DUP1 PUSH2 0x48E JUMPI PUSH1 0x40 MLOAD PUSH3 0x461BCD PUSH1 0xE5 SHL DUP2 MSTORE PUSH1 0x20 PUSH1 0x4 DUP3 ADD MSTORE PUSH1 0x29 PUSH1 0x24 DUP3 ADD MSTORE PUSH32 0x4552433732313A206F776E657220717565727920666F72206E6F6E6578697374 PUSH1 0x44 DUP3 ADD MSTORE PUSH9 0x32B73A103A37B5B2B7 PUSH1 0xB9 SHL PUSH1 0x64 DUP3 ADD MSTORE PUSH1 0x84 ADD PUSH2 0x640 JUMP JUMPDEST PUSH1 0x0 PUSH1 0x1 PUSH1 0x1 PUSH1 0xA0 SHL SUB DUP3 AND PUSH2 0xAB1 JUMPI PUSH1 0x40 MLOAD PUSH3 0x461BCD PUSH1 0xE5 SHL DUP2 MSTORE PUSH1 0x20 PUSH1 0x4 DUP3 ADD MSTORE PUSH1 0x2A PUSH1 0x24 DUP3 ADD MSTORE PUSH32 0x4552433732313A2062616C616E636520717565727920666F7220746865207A65 PUSH1 0x44 DUP3 ADD MSTORE PUSH10 0x726F2061646472657373 PUSH1 0xB0 SHL PUSH1 0x64 DUP3 ADD MSTORE PUSH1 0x84 ADD PUSH2 0x640 JUMP JUMPDEST POP PUSH1 0x1 PUSH1 0x1 PUSH1 0xA0 SHL SUB AND PUSH1 0x0 SWAP1 DUP2 MSTORE PUSH1 0x3 PUSH1 0x20 MSTORE PUSH1 0x40 SWAP1 KECCAK256 SLOAD SWAP1 JUMP JUMPDEST PUSH1 0x60 PUSH1 0x1 DUP1 SLOAD PUSH2 0x548 SWAP1 PUSH2 0x2819 JUMP JUMPDEST PUSH1 0x1 PUSH1 0x1 PUSH1 0xA0 SHL SUB DUP3 AND CALLER EQ ISZERO PUSH2 0xB35 JUMPI PUSH1 0x40 MLOAD PUSH3 0x461BCD PUSH1 0xE5 SHL DUP2 MSTORE PUSH1 0x20 PUSH1 0x4 DUP3 ADD MSTORE PUSH1 0x19 PUSH1 0x24 DUP3 ADD MSTORE PUSH32 0x4552433732313A20617070726F766520746F2063616C6C657200000000000000 PUSH1 0x44 DUP3 ADD MSTORE PUSH1 0x64 ADD PUSH2 0x640 JUMP JUMPDEST CALLER PUSH1 0x0 DUP2 DUP2 MSTORE PUSH1 0x5 PUSH1 0x20 SWAP1 DUP2 MSTORE PUSH1 0x40 DUP1 DUP4 KECCAK256 PUSH1 0x1 PUSH1 0x1 PUSH1 0xA0 SHL SUB DUP8 AND DUP1 DUP6 MSTORE SWAP1 DUP4 MSTORE SWAP3 DUP2 SWAP1 KECCAK256 DUP1 SLOAD PUSH1 0xFF NOT AND DUP7 ISZERO ISZERO SWAP1 DUP2 OR SWAP1 SWAP2 SSTORE SWAP1 MLOAD SWAP1 DUP2 MSTORE SWAP2 SWAP3 SWAP2 PUSH32 0x17307EAB39AB6107E8899845AD3D59BD9653F200F220920489CA2B5937696C31 SWAP2 ADD PUSH1 0x40 MLOAD DUP1 SWAP2 SUB SWAP1 LOG3 POP POP JUMP JUMPDEST PUSH2 0xBAB CALLER DUP4 PUSH2 0x1080 JUMP JUMPDEST PUSH2 0xBC7 JUMPI PUSH1 0x40 MLOAD PUSH3 0x461BCD PUSH1 0xE5 SHL DUP2 MSTORE PUSH1 0x4 ADD PUSH2 0x640 SWAP1 PUSH2 0x26FE JUMP JUMPDEST PUSH2 0xBD3 DUP5 DUP5 DUP5 DUP5 PUSH2 0x1322 JUMP JUMPDEST POP POP POP POP JUMP JUMPDEST PUSH1 0x60 DUP1 DUP1 PUSH1 0xA PUSH1 0x0 DUP6 DUP2 MSTORE PUSH1 0x20 ADD SWAP1 DUP2 MSTORE PUSH1 0x20 ADD PUSH1 0x0 KECCAK256 PUSH1 0x1 ADD PUSH1 0x40 MLOAD PUSH1 0x20 ADD PUSH2 0xC04 SWAP3 SWAP2 SWAP1 PUSH2 0x21F6 JUMP JUMPDEST PUSH1 0x40 DUP1 MLOAD PUSH1 0x1F NOT DUP2 DUP5 SUB ADD DUP2 MSTORE SWAP2 DUP2 MSTORE PUSH1 0x0 DUP6 DUP2 MSTORE PUSH1 0xA PUSH1 0x20 MSTORE KECCAK256 SLOAD SWAP1 SWAP2 POP DUP2 SWAP1 PUSH2 0xC41 SWAP1 PUSH2 0xC3C SWAP1 PUSH8 0xDE0B6B3A7640000 SWAP1 PUSH2 0x2780 JUMP JUMPDEST PUSH2 0x1355 JUMP JUMPDEST PUSH1 0x40 MLOAD PUSH1 0x20 ADD PUSH2 0xC52 SWAP3 SWAP2 SWAP1 PUSH2 0x22E9 JUMP JUMPDEST PUSH1 0x40 MLOAD PUSH1 0x20 DUP2 DUP4 SUB SUB DUP2 MSTORE SWAP1 PUSH1 0x40 MSTORE SWAP1 POP DUP1 PUSH1 0x40 MLOAD PUSH1 0x20 ADD PUSH2 0xC74 SWAP2 SWAP1 PUSH2 0x259F JUMP JUMPDEST PUSH1 0x40 MLOAD PUSH1 0x20 DUP2 DUP4 SUB SUB DUP2 MSTORE SWAP1 PUSH1 0x40 MSTORE SWAP2 POP POP SWAP2 SWAP1 POP JUMP JUMPDEST PUSH1 0x40 DUP1 MLOAD DUP1 DUP3 ADD SWAP1 SWAP2 MSTORE PUSH1 0x5 DUP2 MSTORE PUSH5 0x4E46542023 PUSH1 0xD8 SHL PUSH1 0x20 DUP3 ADD MSTORE PUSH1 0x60 SWAP1 DUP2 SWAP1 PUSH1 0x10 DUP1 DUP3 PUSH2 0xCB9 DUP8 PUSH2 0x1355 JUMP JUMPDEST PUSH1 0x40 MLOAD PUSH1 0x20 ADD PUSH2 0xCCA SWAP3 SWAP2 SWAP1 PUSH2 0x210E JUMP JUMPDEST PUSH1 0x40 MLOAD PUSH1 0x20 DUP2 DUP4 SUB SUB DUP2 MSTORE SWAP1 PUSH1 0x40 MSTORE SWAP3 POP DUP4 PUSH2 0xCE7 DUP5 DUP5 DUP5 PUSH2 0x1453 JUMP JUMPDEST PUSH1 0x40 MLOAD PUSH1 0x20 ADD PUSH2 0xCF8 SWAP3 SWAP2 SWAP1 PUSH2 0x210E JUMP JUMPDEST PUSH1 0x40 DUP1 MLOAD PUSH1 0x1F NOT DUP2 DUP5 SUB ADD DUP2 MSTORE DUP3 DUP3 ADD DUP3 MSTORE PUSH1 0x5 DUP4 MSTORE PUSH5 0x2830B4B21 PUSH1 0xDD SHL PUSH1 0x20 DUP5 DUP2 ADD SWAP2 SWAP1 SWAP2 MSTORE PUSH1 0x0 DUP11 DUP2 MSTORE PUSH1 0xA DUP3 MSTORE SWAP3 SWAP1 SWAP3 KECCAK256 SLOAD SWAP1 SWAP7 POP SWAP2 SWAP5 POP PUSH1 0x10 SWAP4 POP SWAP2 POP DUP4 SWAP1 PUSH2 0xD53 SWAP1 PUSH2 0xC3C SWAP1 PUSH8 0xDE0B6B3A7640000 SWAP1 PUSH2 0x2780 JUMP JUMPDEST PUSH1 0x40 MLOAD PUSH1 0x20 ADD PUSH2 0xD64 SWAP3 SWAP2 SWAP1 PUSH2 0x213D JUMP JUMPDEST PUSH1 0x40 MLOAD PUSH1 0x20 DUP2 DUP4 SUB SUB DUP2 MSTORE SWAP1 PUSH1 0x40 MSTORE SWAP3 POP DUP4 PUSH2 0xD81 DUP5 DUP5 DUP5 PUSH2 0x1453 JUMP JUMPDEST PUSH1 0x40 MLOAD PUSH1 0x20 ADD PUSH2 0xD92 SWAP3 SWAP2 SWAP1 PUSH2 0x210E JUMP JUMPDEST PUSH1 0x40 DUP1 MLOAD PUSH1 0x1F NOT DUP2 DUP5 SUB ADD DUP2 MSTORE SWAP2 DUP2 MSTORE PUSH1 0x0 DUP9 DUP2 MSTORE PUSH1 0xA PUSH1 0x20 MSTORE KECCAK256 PUSH1 0x1 ADD DUP1 SLOAD SWAP2 SWAP6 POP PUSH1 0x10 SWAP4 POP PUSH1 0x50 SWAP3 POP DUP6 SWAP2 PUSH2 0xE52 SWAP2 SWAP1 PUSH2 0xDCD SWAP1 PUSH2 0x2819 JUMP JUMPDEST DUP1 PUSH1 0x1F ADD PUSH1 0x20 DUP1 SWAP2 DIV MUL PUSH1 0x20 ADD PUSH1 0x40 MLOAD SWAP1 DUP2 ADD PUSH1 0x40 MSTORE DUP1 SWAP3 SWAP2 SWAP1 DUP2 DUP2 MSTORE PUSH1 0x20 ADD DUP3 DUP1 SLOAD PUSH2 0xDF9 SWAP1 PUSH2 0x2819 JUMP JUMPDEST DUP1 ISZERO PUSH2 0xE46 JUMPI DUP1 PUSH1 0x1F LT PUSH2 0xE1B JUMPI PUSH2 0x100 DUP1 DUP4 SLOAD DIV MUL DUP4 MSTORE SWAP2 PUSH1 0x20 ADD SWAP2 PUSH2 0xE46 JUMP JUMPDEST DUP3 ADD SWAP2 SWAP1 PUSH1 0x0 MSTORE PUSH1 0x20 PUSH1 0x0 KECCAK256 SWAP1 JUMPDEST DUP2 SLOAD DUP2 MSTORE SWAP1 PUSH1 0x1 ADD SWAP1 PUSH1 0x20 ADD DUP1 DUP4 GT PUSH2 0xE29 JUMPI DUP3 SWAP1 SUB PUSH1 0x1F AND DUP3 ADD SWAP2 JUMPDEST POP POP POP POP POP DUP5 DUP5 PUSH2 0x1453 JUMP JUMPDEST PUSH1 0x40 MLOAD PUSH1 0x20 ADD PUSH2 0xE63 SWAP3 SWAP2 SWAP1 PUSH2 0x210E JUMP JUMPDEST PUSH1 0x40 MLOAD PUSH1 0x20 DUP2 DUP4 SUB SUB DUP2 MSTORE SWAP1 PUSH1 0x40 MSTORE SWAP4 POP DUP4 PUSH1 0x40 MLOAD PUSH1 0x20 ADD PUSH2 0xE85 SWAP2 SWAP1 PUSH2 0x235D JUMP JUMPDEST PUSH1 0x40 DUP1 MLOAD PUSH1 0x1F NOT DUP2 DUP5 SUB ADD DUP2 MSTORE SWAP2 SWAP1 MSTORE SWAP7 SWAP6 POP POP POP POP POP POP JUMP JUMPDEST PUSH1 0x0 DUP2 DUP2 MSTORE PUSH1 0x2 PUSH1 0x20 MSTORE PUSH1 0x40 SWAP1 KECCAK256 SLOAD PUSH1 0x60 SWAP1 PUSH1 0x1 PUSH1 0x1 PUSH1 0xA0 SHL SUB AND PUSH2 0xEC3 JUMPI PUSH1 0x0 DUP1 REVERT JUMPDEST PUSH2 0xF0F PUSH2 0xECF DUP4 PUSH2 0x1355 JUMP JUMPDEST PUSH2 0xEE0 PUSH2 0xEDB DUP6 PUSH2 0xC8B JUMP JUMPDEST PUSH2 0x160A JUMP JUMPDEST PUSH2 0xEE9 DUP6 PUSH2 0xBD9 JUMP JUMPDEST PUSH1 0x40 MLOAD PUSH1 0x20 ADD PUSH2 0xEFB SWAP4 SWAP3 SWAP2 SWAP1 PUSH2 0x2476 JUMP JUMPDEST PUSH1 0x40 MLOAD PUSH1 0x20 DUP2 DUP4 SUB SUB DUP2 MSTORE SWAP1 PUSH1 0x40 MSTORE PUSH2 0x160A JUMP JUMPDEST PUSH1 0x40 MLOAD PUSH1 0x20 ADD PUSH2 0xF1F SWAP2 SWAP1 PUSH2 0x25D3 JUMP JUMPDEST PUSH1 0x40 MLOAD PUSH1 0x20 DUP2 DUP4 SUB SUB DUP2 MSTORE SWAP1 PUSH1 0x40 MSTORE SWAP1 POP SWAP2 SWAP1 POP JUMP JUMPDEST PUSH1 0x0 PUSH2 0xF40 PUSH1 0x8 SLOAD SWAP1 JUMP JUMPDEST SWAP1 POP PUSH1 0xE SLOAD DUP3 MLOAD LT PUSH2 0xF51 JUMPI PUSH1 0x0 DUP1 REVERT JUMPDEST PUSH1 0xD SLOAD CALLVALUE LT ISZERO PUSH2 0xF60 JUMPI PUSH1 0x0 DUP1 REVERT JUMPDEST PUSH1 0xB SLOAD DUP2 LT PUSH2 0xF6E JUMPI PUSH1 0x0 DUP1 REVERT JUMPDEST CALLER EXTCODESIZE ISZERO PUSH2 0xF7A JUMPI PUSH1 0x0 DUP1 REVERT JUMPDEST PUSH2 0xF85 DUP3 CALLVALUE DUP4 PUSH2 0x1772 JUMP JUMPDEST POP POP JUMP JUMPDEST PUSH1 0x10 SLOAD PUSH1 0x1 PUSH1 0x1 PUSH1 0xA0 SHL SUB AND CALLER EQ PUSH2 0xFA0 JUMPI PUSH1 0x0 DUP1 REVERT JUMPDEST PUSH1 0x10 DUP1 SLOAD PUSH1 0x1 PUSH1 0x1 PUSH1 0xA0 SHL SUB NOT AND PUSH1 0x1 PUSH1 0x1 PUSH1 0xA0 SHL SUB SWAP3 SWAP1 SWAP3 AND SWAP2 SWAP1 SWAP2 OR SWAP1 SSTORE JUMP JUMPDEST PUSH1 0x0 PUSH1 0x1 PUSH1 0x1 PUSH1 0xE0 SHL SUB NOT DUP3 AND PUSH4 0x80AC58CD PUSH1 0xE0 SHL EQ DUP1 PUSH2 0xFF3 JUMPI POP PUSH1 0x1 PUSH1 0x1 PUSH1 0xE0 SHL SUB NOT DUP3 AND PUSH4 0x5B5E139F PUSH1 0xE0 SHL EQ JUMPDEST DUP1 PUSH2 0x48E JUMPI POP PUSH4 0x1FFC9A7 PUSH1 0xE0 SHL PUSH1 0x1 PUSH1 0x1 PUSH1 0xE0 SHL SUB NOT DUP4 AND EQ PUSH2 0x48E JUMP JUMPDEST PUSH1 0x0 DUP2 DUP2 MSTORE PUSH1 0x4 PUSH1 0x20 MSTORE PUSH1 0x40 SWAP1 KECCAK256 DUP1 SLOAD PUSH1 0x1 PUSH1 0x1 PUSH1 0xA0 SHL SUB NOT AND PUSH1 0x1 PUSH1 0x1 PUSH1 0xA0 SHL SUB DUP5 AND SWAP1 DUP2 OR SWAP1 SWAP2 SSTORE DUP2 SWAP1 PUSH2 0x1047 DUP3 PUSH2 0x9CF JUMP JUMPDEST PUSH1 0x1 PUSH1 0x1 PUSH1 0xA0 SHL SUB AND PUSH32 0x8C5BE1E5EBEC7D5BD14F71427D1E84F3DD0314C0F7B2291E5B200AC8C7C3B925 PUSH1 0x40 MLOAD PUSH1 0x40 MLOAD DUP1 SWAP2 SUB SWAP1 LOG4 POP POP JUMP JUMPDEST PUSH1 0x0 DUP2 DUP2 MSTORE PUSH1 0x2 PUSH1 0x20 MSTORE PUSH1 0x40 DUP2 KECCAK256 SLOAD PUSH1 0x1 PUSH1 0x1 PUSH1 0xA0 SHL SUB AND PUSH2 0x10F9 JUMPI PUSH1 0x40 MLOAD PUSH3 0x461BCD PUSH1 0xE5 SHL DUP2 MSTORE PUSH1 0x20 PUSH1 0x4 DUP3 ADD MSTORE PUSH1 0x2C PUSH1 0x24 DUP3 ADD MSTORE PUSH32 0x4552433732313A206F70657261746F7220717565727920666F72206E6F6E6578 PUSH1 0x44 DUP3 ADD MSTORE PUSH12 0x34B9BA32B73A103A37B5B2B7 PUSH1 0xA1 SHL PUSH1 0x64 DUP3 ADD MSTORE PUSH1 0x84 ADD PUSH2 0x640 JUMP JUMPDEST PUSH1 0x0 PUSH2 0x1104 DUP4 PUSH2 0x9CF JUMP JUMPDEST SWAP1 POP DUP1 PUSH1 0x1 PUSH1 0x1 PUSH1 0xA0 SHL SUB AND DUP5 PUSH1 0x1 PUSH1 0x1 PUSH1 0xA0 SHL SUB AND EQ DUP1 PUSH2 0x113F JUMPI POP DUP4 PUSH1 0x1 PUSH1 0x1 PUSH1 0xA0 SHL SUB AND PUSH2 0x1134 DUP5 PUSH2 0x5CB JUMP JUMPDEST PUSH1 0x1 PUSH1 0x1 PUSH1 0xA0 SHL SUB AND EQ JUMPDEST DUP1 PUSH2 0x116F JUMPI POP PUSH1 0x1 PUSH1 0x1 PUSH1 0xA0 SHL SUB DUP1 DUP3 AND PUSH1 0x0 SWAP1 DUP2 MSTORE PUSH1 0x5 PUSH1 0x20 SWAP1 DUP2 MSTORE PUSH1 0x40 DUP1 DUP4 KECCAK256 SWAP4 DUP9 AND DUP4 MSTORE SWAP3 SWAP1 MSTORE KECCAK256 SLOAD PUSH1 0xFF AND JUMPDEST SWAP5 SWAP4 POP POP POP POP JUMP JUMPDEST DUP3 PUSH1 0x1 PUSH1 0x1 PUSH1 0xA0 SHL SUB AND PUSH2 0x118A DUP3 PUSH2 0x9CF JUMP JUMPDEST PUSH1 0x1 PUSH1 0x1 PUSH1 0xA0 SHL SUB AND EQ PUSH2 0x11F2 JUMPI PUSH1 0x40 MLOAD PUSH3 0x461BCD PUSH1 0xE5 SHL DUP2 MSTORE PUSH1 0x20 PUSH1 0x4 DUP3 ADD MSTORE PUSH1 0x29 PUSH1 0x24 DUP3 ADD MSTORE PUSH32 0x4552433732313A207472616E73666572206F6620746F6B656E20746861742069 PUSH1 0x44 DUP3 ADD MSTORE PUSH9 0x39903737BA1037BBB7 PUSH1 0xB9 SHL PUSH1 0x64 DUP3 ADD MSTORE PUSH1 0x84 ADD PUSH2 0x640 JUMP JUMPDEST PUSH1 0x1 PUSH1 0x1 PUSH1 0xA0 SHL SUB DUP3 AND PUSH2 0x1254 JUMPI PUSH1 0x40 MLOAD PUSH3 0x461BCD PUSH1 0xE5 SHL DUP2 MSTORE PUSH1 0x20 PUSH1 0x4 DUP3 ADD MSTORE PUSH1 0x24 DUP1 DUP3 ADD MSTORE PUSH32 0x4552433732313A207472616E7366657220746F20746865207A65726F20616464 PUSH1 0x44 DUP3 ADD MSTORE PUSH4 0x72657373 PUSH1 0xE0 SHL PUSH1 0x64 DUP3 ADD MSTORE PUSH1 0x84 ADD PUSH2 0x640 JUMP JUMPDEST PUSH2 0x125F DUP4 DUP4 DUP4 PUSH2 0x17A5 JUMP JUMPDEST PUSH2 0x126A PUSH1 0x0 DUP3 PUSH2 0x1012 JUMP JUMPDEST PUSH1 0x1 PUSH1 0x1 PUSH1 0xA0 SHL SUB DUP4 AND PUSH1 0x0 SWAP1 DUP2 MSTORE PUSH1 0x3 PUSH1 0x20 MSTORE PUSH1 0x40 DUP2 KECCAK256 DUP1 SLOAD PUSH1 0x1 SWAP3 SWAP1 PUSH2 0x1293 SWAP1 DUP5 SWAP1 PUSH2 0x27B3 JUMP JUMPDEST SWAP1 SWAP2 SSTORE POP POP PUSH1 0x1 PUSH1 0x1 PUSH1 0xA0 SHL SUB DUP3 AND PUSH1 0x0 SWAP1 DUP2 MSTORE PUSH1 0x3 PUSH1 0x20 MSTORE PUSH1 0x40 DUP2 KECCAK256 DUP1 SLOAD PUSH1 0x1 SWAP3 SWAP1 PUSH2 0x12C1 SWAP1 DUP5 SWAP1 PUSH2 0x2768 JUMP JUMPDEST SWAP1 SWAP2 SSTORE POP POP PUSH1 0x0 DUP2 DUP2 MSTORE PUSH1 0x2 PUSH1 0x20 MSTORE PUSH1 0x40 DUP1 DUP3 KECCAK256 DUP1 SLOAD PUSH1 0x1 PUSH1 0x1 PUSH1 0xA0 SHL SUB NOT AND PUSH1 0x1 PUSH1 0x1 PUSH1 0xA0 SHL SUB DUP7 DUP2 AND SWAP2 DUP3 OR SWAP1 SWAP3 SSTORE SWAP2 MLOAD DUP5 SWAP4 SWAP2 DUP8 AND SWAP2 PUSH32 0xDDF252AD1BE2C89B69C2B068FC378DAA952BA7F163C4A11628F55A4DF523B3EF SWAP2 LOG4 POP POP POP JUMP JUMPDEST PUSH2 0x132D DUP5 DUP5 DUP5 PUSH2 0x1177 JUMP JUMPDEST PUSH2 0x1339 DUP5 DUP5 DUP5 DUP5 PUSH2 0x185D JUMP JUMPDEST PUSH2 0xBD3 JUMPI PUSH1 0x40 MLOAD PUSH3 0x461BCD PUSH1 0xE5 SHL DUP2 MSTORE PUSH1 0x4 ADD PUSH2 0x640 SWAP1 PUSH2 0x26AC JUMP JUMPDEST PUSH1 0x60 DUP2 PUSH2 0x1379 JUMPI POP POP PUSH1 0x40 DUP1 MLOAD DUP1 DUP3 ADD SWAP1 SWAP2 MSTORE PUSH1 0x1 DUP2 MSTORE PUSH1 0x3 PUSH1 0xFC SHL PUSH1 0x20 DUP3 ADD MSTORE SWAP1 JUMP JUMPDEST DUP2 PUSH1 0x0 JUMPDEST DUP2 ISZERO PUSH2 0x13A3 JUMPI DUP1 PUSH2 0x138D DUP2 PUSH2 0x2854 JUMP JUMPDEST SWAP2 POP PUSH2 0x139C SWAP1 POP PUSH1 0xA DUP4 PUSH2 0x2780 JUMP JUMPDEST SWAP2 POP PUSH2 0x137D JUMP JUMPDEST PUSH1 0x0 DUP2 PUSH8 0xFFFFFFFFFFFFFFFF DUP2 GT ISZERO PUSH2 0x13BE JUMPI PUSH2 0x13BE PUSH2 0x28DB JUMP JUMPDEST PUSH1 0x40 MLOAD SWAP1 DUP1 DUP3 MSTORE DUP1 PUSH1 0x1F ADD PUSH1 0x1F NOT AND PUSH1 0x20 ADD DUP3 ADD PUSH1 0x40 MSTORE DUP1 ISZERO PUSH2 0x13E8 JUMPI PUSH1 0x20 DUP3 ADD DUP2 DUP1 CALLDATASIZE DUP4 CALLDATACOPY ADD SWAP1 POP JUMPDEST POP SWAP1 POP JUMPDEST DUP5 ISZERO PUSH2 0x116F JUMPI PUSH2 0x13FD PUSH1 0x1 DUP4 PUSH2 0x27B3 JUMP JUMPDEST SWAP2 POP PUSH2 0x140A PUSH1 0xA DUP7 PUSH2 0x286F JUMP JUMPDEST PUSH2 0x1415 SWAP1 PUSH1 0x30 PUSH2 0x2768 JUMP JUMPDEST PUSH1 0xF8 SHL DUP2 DUP4 DUP2 MLOAD DUP2 LT PUSH2 0x142A JUMPI PUSH2 0x142A PUSH2 0x28C5 JUMP JUMPDEST PUSH1 0x20 ADD ADD SWAP1 PUSH1 0x1 PUSH1 0x1 PUSH1 0xF8 SHL SUB NOT AND SWAP1 DUP2 PUSH1 0x0 BYTE SWAP1 MSTORE8 POP PUSH2 0x144C PUSH1 0xA DUP7 PUSH2 0x2780 JUMP JUMPDEST SWAP5 POP PUSH2 0x13EC JUMP JUMPDEST PUSH1 0x60 DUP1 PUSH1 0x0 PUSH1 0xF DUP1 SLOAD DUP1 PUSH1 0x20 MUL PUSH1 0x20 ADD PUSH1 0x40 MLOAD SWAP1 DUP2 ADD PUSH1 0x40 MSTORE DUP1 SWAP3 SWAP2 SWAP1 DUP2 DUP2 MSTORE PUSH1 0x20 ADD PUSH1 0x0 SWAP1 JUMPDEST DUP3 DUP3 LT ISZERO PUSH2 0x1526 JUMPI DUP4 DUP3 SWAP1 PUSH1 0x0 MSTORE PUSH1 0x20 PUSH1 0x0 KECCAK256 ADD DUP1 SLOAD PUSH2 0x1499 SWAP1 PUSH2 0x2819 JUMP JUMPDEST DUP1 PUSH1 0x1F ADD PUSH1 0x20 DUP1 SWAP2 DIV MUL PUSH1 0x20 ADD PUSH1 0x40 MLOAD SWAP1 DUP2 ADD PUSH1 0x40 MSTORE DUP1 SWAP3 SWAP2 SWAP1 DUP2 DUP2 MSTORE PUSH1 0x20 ADD DUP3 DUP1 SLOAD PUSH2 0x14C5 SWAP1 PUSH2 0x2819 JUMP JUMPDEST DUP1 ISZERO PUSH2 0x1512 JUMPI DUP1 PUSH1 0x1F LT PUSH2 0x14E7 JUMPI PUSH2 0x100 DUP1 DUP4 SLOAD DIV MUL DUP4 MSTORE SWAP2 PUSH1 0x20 ADD SWAP2 PUSH2 0x1512 JUMP JUMPDEST DUP3 ADD SWAP2 SWAP1 PUSH1 0x0 MSTORE PUSH1 0x20 PUSH1 0x0 KECCAK256 SWAP1 JUMPDEST DUP2 SLOAD DUP2 MSTORE SWAP1 PUSH1 0x1 ADD SWAP1 PUSH1 0x20 ADD DUP1 DUP4 GT PUSH2 0x14F5 JUMPI DUP3 SWAP1 SUB PUSH1 0x1F AND DUP3 ADD SWAP2 JUMPDEST POP POP POP POP POP DUP2 MSTORE PUSH1 0x20 ADD SWAP1 PUSH1 0x1 ADD SWAP1 PUSH2 0x147A JUMP JUMPDEST POP POP POP POP SWAP1 POP PUSH1 0x40 MLOAD DUP1 PUSH1 0x20 ADD PUSH1 0x40 MSTORE DUP1 PUSH1 0x0 DUP2 MSTORE POP SWAP2 POP PUSH1 0x0 DUP7 SWAP1 POP PUSH1 0x0 DUP1 JUMPDEST DUP3 MLOAD DUP2 LT ISZERO PUSH2 0x15FD JUMPI PUSH2 0x155B PUSH1 0x1C DUP3 PUSH2 0x286F JUMP JUMPDEST ISZERO DUP1 ISZERO PUSH2 0x1567 JUMPI POP DUP1 ISZERO ISZERO JUMPDEST ISZERO PUSH2 0x157A JUMPI PUSH2 0x1577 DUP3 PUSH1 0x10 PUSH2 0x2768 JUMP JUMPDEST SWAP2 POP JUMPDEST DUP5 PUSH2 0x15C8 DUP5 DUP4 DUP2 MLOAD DUP2 LT PUSH2 0x1590 JUMPI PUSH2 0x1590 PUSH2 0x28C5 JUMP JUMPDEST ADD PUSH1 0x20 ADD MLOAD PUSH1 0xF8 SHR PUSH2 0x15A3 PUSH1 0x1C DUP6 PUSH2 0x286F JUMP JUMPDEST PUSH2 0x15AE SWAP1 PUSH1 0x8 PUSH2 0x2794 JUMP JUMPDEST PUSH2 0x15B8 SWAP1 DUP13 PUSH2 0x2768 JUMP JUMPDEST PUSH2 0x15C2 DUP7 DUP13 PUSH2 0x2768 JUMP JUMPDEST DUP9 PUSH2 0x196A JUMP JUMPDEST PUSH1 0x40 MLOAD PUSH1 0x20 ADD PUSH2 0x15D9 SWAP3 SWAP2 SWAP1 PUSH2 0x210E JUMP JUMPDEST PUSH1 0x40 MLOAD PUSH1 0x20 DUP2 DUP4 SUB SUB DUP2 MSTORE SWAP1 PUSH1 0x40 MSTORE SWAP5 POP DUP1 DUP1 PUSH2 0x15F5 SWAP1 PUSH2 0x2854 JUMP JUMPDEST SWAP2 POP POP PUSH2 0x1547 JUMP JUMPDEST POP SWAP3 SWAP8 SWAP7 POP POP POP POP POP POP POP JUMP JUMPDEST PUSH1 0x60 DUP2 MLOAD PUSH1 0x0 EQ ISZERO PUSH2 0x162A JUMPI POP POP PUSH1 0x40 DUP1 MLOAD PUSH1 0x20 DUP2 ADD SWAP1 SWAP2 MSTORE PUSH1 0x0 DUP2 MSTORE SWAP1 JUMP JUMPDEST PUSH1 0x0 PUSH1 0x40 MLOAD DUP1 PUSH1 0x60 ADD PUSH1 0x40 MSTORE DUP1 PUSH1 0x40 DUP2 MSTORE PUSH1 0x20 ADD PUSH2 0x290B PUSH1 0x40 SWAP2 CODECOPY SWAP1 POP PUSH1 0x0 PUSH1 0x3 DUP5 MLOAD PUSH1 0x2 PUSH2 0x1659 SWAP2 SWAP1 PUSH2 0x2768 JUMP JUMPDEST PUSH2 0x1663 SWAP2 SWAP1 PUSH2 0x2780 JUMP JUMPDEST PUSH2 0x166E SWAP1 PUSH1 0x4 PUSH2 0x2794 JUMP JUMPDEST SWAP1 POP PUSH1 0x0 PUSH2 0x167D DUP3 PUSH1 0x20 PUSH2 0x2768 JUMP JUMPDEST PUSH8 0xFFFFFFFFFFFFFFFF DUP2 GT ISZERO PUSH2 0x1695 JUMPI PUSH2 0x1695 PUSH2 0x28DB JUMP JUMPDEST PUSH1 0x40 MLOAD SWAP1 DUP1 DUP3 MSTORE DUP1 PUSH1 0x1F ADD PUSH1 0x1F NOT AND PUSH1 0x20 ADD DUP3 ADD PUSH1 0x40 MSTORE DUP1 ISZERO PUSH2 0x16BF JUMPI PUSH1 0x20 DUP3 ADD DUP2 DUP1 CALLDATASIZE DUP4 CALLDATACOPY ADD SWAP1 POP JUMPDEST POP SWAP1 POP DUP2 DUP2 MSTORE PUSH1 0x1 DUP4 ADD DUP6 DUP7 MLOAD DUP2 ADD PUSH1 0x20 DUP5 ADD JUMPDEST DUP2 DUP4 LT ISZERO PUSH2 0x172D JUMPI PUSH1 0x3 SWAP3 DUP4 ADD DUP1 MLOAD PUSH1 0x3F PUSH1 0x12 DUP3 SWAP1 SHR DUP2 AND DUP8 ADD MLOAD PUSH1 0xF8 SWAP1 DUP2 SHL DUP6 MSTORE PUSH1 0xC DUP4 SWAP1 SHR DUP3 AND DUP9 ADD MLOAD DUP2 SHL PUSH1 0x1 DUP7 ADD MSTORE PUSH1 0x6 DUP4 SWAP1 SHR DUP3 AND DUP9 ADD MLOAD DUP2 SHL PUSH1 0x2 DUP7 ADD MSTORE SWAP2 AND DUP7 ADD MLOAD SWAP1 SHL SWAP4 DUP3 ADD SWAP4 SWAP1 SWAP4 MSTORE PUSH1 0x4 ADD PUSH2 0x16D3 JUMP JUMPDEST PUSH1 0x3 DUP10 MLOAD MOD PUSH1 0x1 DUP2 EQ PUSH2 0x1747 JUMPI PUSH1 0x2 DUP2 EQ PUSH2 0x1758 JUMPI PUSH2 0x1764 JUMP JUMPDEST PUSH2 0x3D3D PUSH1 0xF0 SHL PUSH1 0x1 NOT DUP4 ADD MSTORE PUSH2 0x1764 JUMP JUMPDEST PUSH1 0x3D PUSH1 0xF8 SHL PUSH1 0x0 NOT DUP4 ADD MSTORE JUMPDEST POP SWAP4 SWAP9 SWAP8 POP POP POP POP POP POP POP POP JUMP JUMPDEST PUSH1 0x0 DUP2 DUP2 MSTORE PUSH1 0xA PUSH1 0x20 SWAP1 DUP2 MSTORE PUSH1 0x40 SWAP1 SWAP2 KECCAK256 DUP4 DUP2 SSTORE DUP5 MLOAD PUSH2 0x179A SWAP3 PUSH1 0x1 SWAP1 SWAP3 ADD SWAP2 DUP7 ADD SWAP1 PUSH2 0x1DA8 JUMP JUMPDEST POP PUSH2 0x776 CALLER DUP3 PUSH2 0x1A9E JUMP JUMPDEST PUSH1 0x1 PUSH1 0x1 PUSH1 0xA0 SHL SUB DUP4 AND PUSH2 0x1800 JUMPI PUSH2 0x17FB DUP2 PUSH1 0x8 DUP1 SLOAD PUSH1 0x0 DUP4 DUP2 MSTORE PUSH1 0x9 PUSH1 0x20 MSTORE PUSH1 0x40 DUP2 KECCAK256 DUP3 SWAP1 SSTORE PUSH1 0x1 DUP3 ADD DUP4 SSTORE SWAP2 SWAP1 SWAP2 MSTORE PUSH32 0xF3F7A9FE364FAAB93B216DA50A3214154F22A0A2B415B23A84C8169E8B636EE3 ADD SSTORE JUMP JUMPDEST PUSH2 0x1823 JUMP JUMPDEST DUP2 PUSH1 0x1 PUSH1 0x1 PUSH1 0xA0 SHL SUB AND DUP4 PUSH1 0x1 PUSH1 0x1 PUSH1 0xA0 SHL SUB AND EQ PUSH2 0x1823 JUMPI PUSH2 0x1823 DUP4 DUP3 PUSH2 0x1BEC JUMP JUMPDEST PUSH1 0x1 PUSH1 0x1 PUSH1 0xA0 SHL SUB DUP3 AND PUSH2 0x183A JUMPI PUSH2 0x776 DUP2 PUSH2 0x1C89 JUMP JUMPDEST DUP3 PUSH1 0x1 PUSH1 0x1 PUSH1 0xA0 SHL SUB AND DUP3 PUSH1 0x1 PUSH1 0x1 PUSH1 0xA0 SHL SUB AND EQ PUSH2 0x776 JUMPI PUSH2 0x776 DUP3 DUP3 PUSH2 0x1D38 JUMP JUMPDEST PUSH1 0x0 PUSH1 0x1 PUSH1 0x1 PUSH1 0xA0 SHL SUB DUP5 AND EXTCODESIZE ISZERO PUSH2 0x195F JUMPI PUSH1 0x40 MLOAD PUSH4 0xA85BD01 PUSH1 0xE1 SHL DUP2 MSTORE PUSH1 0x1 PUSH1 0x1 PUSH1 0xA0 SHL SUB DUP6 AND SWAP1 PUSH4 0x150B7A02 SWAP1 PUSH2 0x18A1 SWAP1 CALLER SWAP1 DUP10 SWAP1 DUP9 SWAP1 DUP9 SWAP1 PUSH1 0x4 ADD PUSH2 0x2618 JUMP JUMPDEST PUSH1 0x20 PUSH1 0x40 MLOAD DUP1 DUP4 SUB DUP2 PUSH1 0x0 DUP8 DUP1 EXTCODESIZE ISZERO DUP1 ISZERO PUSH2 0x18BB JUMPI PUSH1 0x0 DUP1 REVERT JUMPDEST POP GAS CALL SWAP3 POP POP POP DUP1 ISZERO PUSH2 0x18EB JUMPI POP PUSH1 0x40 DUP1 MLOAD PUSH1 0x1F RETURNDATASIZE SWAP1 DUP2 ADD PUSH1 0x1F NOT AND DUP3 ADD SWAP1 SWAP3 MSTORE PUSH2 0x18E8 SWAP2 DUP2 ADD SWAP1 PUSH2 0x2063 JUMP JUMPDEST PUSH1 0x1 JUMPDEST PUSH2 0x1945 JUMPI RETURNDATASIZE DUP1 DUP1 ISZERO PUSH2 0x1919 JUMPI PUSH1 0x40 MLOAD SWAP2 POP PUSH1 0x1F NOT PUSH1 0x3F RETURNDATASIZE ADD AND DUP3 ADD PUSH1 0x40 MSTORE RETURNDATASIZE DUP3 MSTORE RETURNDATASIZE PUSH1 0x0 PUSH1 0x20 DUP5 ADD RETURNDATACOPY PUSH2 0x191E JUMP JUMPDEST PUSH1 0x60 SWAP2 POP JUMPDEST POP DUP1 MLOAD PUSH2 0x193D JUMPI PUSH1 0x40 MLOAD PUSH3 0x461BCD PUSH1 0xE5 SHL DUP2 MSTORE PUSH1 0x4 ADD PUSH2 0x640 SWAP1 PUSH2 0x26AC JUMP JUMPDEST DUP1 MLOAD DUP2 PUSH1 0x20 ADD REVERT JUMPDEST PUSH1 0x1 PUSH1 0x1 PUSH1 0xE0 SHL SUB NOT AND PUSH4 0xA85BD01 PUSH1 0xE1 SHL EQ SWAP1 POP PUSH2 0x116F JUMP JUMPDEST POP PUSH1 0x1 SWAP5 SWAP4 POP POP POP POP JUMP JUMPDEST PUSH1 0x40 DUP1 MLOAD PUSH1 0x20 DUP2 ADD SWAP1 SWAP2 MSTORE PUSH1 0x0 DUP2 MSTORE PUSH1 0x60 SWAP1 PUSH1 0x21 DUP7 LT DUP1 PUSH2 0x198B JUMPI POP PUSH1 0x7E DUP7 GT JUMPDEST ISZERO PUSH2 0x1997 JUMPI SWAP1 POP PUSH2 0x116F JUMP JUMPDEST PUSH1 0x0 JUMPDEST PUSH1 0x2 DUP5 PUSH2 0x19A8 PUSH1 0x21 DUP11 PUSH2 0x27B3 JUMP JUMPDEST DUP2 MLOAD DUP2 LT PUSH2 0x19B8 JUMPI PUSH2 0x19B8 PUSH2 0x28C5 JUMP JUMPDEST PUSH1 0x20 MUL PUSH1 0x20 ADD ADD MLOAD MLOAD PUSH2 0x19CB SWAP2 SWAP1 PUSH2 0x2780 JUMP JUMPDEST DUP2 LT ISZERO PUSH2 0x1A94 JUMPI DUP2 PUSH2 0x1A1C PUSH2 0x1A0F DUP7 PUSH2 0x19E5 PUSH1 0x21 DUP13 PUSH2 0x27B3 JUMP JUMPDEST DUP2 MLOAD DUP2 LT PUSH2 0x19F5 JUMPI PUSH2 0x19F5 PUSH2 0x28C5 JUMP JUMPDEST PUSH1 0x20 MUL PUSH1 0x20 ADD ADD MLOAD DUP5 PUSH1 0x2 PUSH2 0x1A0A SWAP2 SWAP1 PUSH2 0x2794 JUMP JUMPDEST PUSH2 0x1D7C JUMP JUMPDEST PUSH2 0xC3C SWAP1 PUSH1 0xFF AND DUP10 PUSH2 0x2768 JUMP JUMPDEST PUSH2 0x1A5E PUSH2 0x1A0F DUP8 PUSH2 0x1A2E PUSH1 0x21 DUP14 PUSH2 0x27B3 JUMP JUMPDEST DUP2 MLOAD DUP2 LT PUSH2 0x1A3E JUMPI PUSH2 0x1A3E PUSH2 0x28C5 JUMP JUMPDEST PUSH1 0x20 MUL PUSH1 0x20 ADD ADD MLOAD DUP6 PUSH1 0x2 PUSH2 0x1A53 SWAP2 SWAP1 PUSH2 0x2794 JUMP JUMPDEST PUSH2 0x1A0A SWAP1 PUSH1 0x1 PUSH2 0x2768 JUMP JUMPDEST PUSH1 0x40 MLOAD PUSH1 0x20 ADD PUSH2 0x1A70 SWAP4 SWAP3 SWAP2 SWAP1 PUSH2 0x217B JUMP JUMPDEST PUSH1 0x40 MLOAD PUSH1 0x20 DUP2 DUP4 SUB SUB DUP2 MSTORE SWAP1 PUSH1 0x40 MSTORE SWAP2 POP DUP1 DUP1 PUSH2 0x1A8C SWAP1 PUSH2 0x2854 JUMP JUMPDEST SWAP2 POP POP PUSH2 0x199A JUMP JUMPDEST POP SWAP6 SWAP5 POP POP POP POP POP JUMP JUMPDEST PUSH1 0x1 PUSH1 0x1 PUSH1 0xA0 SHL SUB DUP3 AND PUSH2 0x1AF4 JUMPI PUSH1 0x40 MLOAD PUSH3 0x461BCD PUSH1 0xE5 SHL DUP2 MSTORE PUSH1 0x20 PUSH1 0x4 DUP3 ADD DUP2 SWAP1 MSTORE PUSH1 0x24 DUP3 ADD MSTORE PUSH32 0x4552433732313A206D696E7420746F20746865207A65726F2061646472657373 PUSH1 0x44 DUP3 ADD MSTORE PUSH1 0x64 ADD PUSH2 0x640 JUMP JUMPDEST PUSH1 0x0 DUP2 DUP2 MSTORE PUSH1 0x2 PUSH1 0x20 MSTORE PUSH1 0x40 SWAP1 KECCAK256 SLOAD PUSH1 0x1 PUSH1 0x1 PUSH1 0xA0 SHL SUB AND ISZERO PUSH2 0x1B59 JUMPI PUSH1 0x40 MLOAD PUSH3 0x461BCD PUSH1 0xE5 SHL DUP2 MSTORE PUSH1 0x20 PUSH1 0x4 DUP3 ADD MSTORE PUSH1 0x1C PUSH1 0x24 DUP3 ADD MSTORE PUSH32 0x4552433732313A20746F6B656E20616C7265616479206D696E74656400000000 PUSH1 0x44 DUP3 ADD MSTORE PUSH1 0x64 ADD PUSH2 0x640 JUMP JUMPDEST PUSH2 0x1B65 PUSH1 0x0 DUP4 DUP4 PUSH2 0x17A5 JUMP JUMPDEST PUSH1 0x1 PUSH1 0x1 PUSH1 0xA0 SHL SUB DUP3 AND PUSH1 0x0 SWAP1 DUP2 MSTORE PUSH1 0x3 PUSH1 0x20 MSTORE PUSH1 0x40 DUP2 KECCAK256 DUP1 SLOAD PUSH1 0x1 SWAP3 SWAP1 PUSH2 0x1B8E SWAP1 DUP5 SWAP1 PUSH2 0x2768 JUMP JUMPDEST SWAP1 SWAP2 SSTORE POP POP PUSH1 0x0 DUP2 DUP2 MSTORE PUSH1 0x2 PUSH1 0x20 MSTORE PUSH1 0x40 DUP1 DUP3 KECCAK256 DUP1 SLOAD PUSH1 0x1 PUSH1 0x1 PUSH1 0xA0 SHL SUB NOT AND PUSH1 0x1 PUSH1 0x1 PUSH1 0xA0 SHL SUB DUP7 AND SWAP1 DUP2 OR SWAP1 SWAP2 SSTORE SWAP1 MLOAD DUP4 SWAP3 SWAP1 PUSH32 0xDDF252AD1BE2C89B69C2B068FC378DAA952BA7F163C4A11628F55A4DF523B3EF SWAP1 DUP3 SWAP1 LOG4 POP POP JUMP JUMPDEST PUSH1 0x0 PUSH1 0x1 PUSH2 0x1BF9 DUP5 PUSH2 0xA46 JUMP JUMPDEST PUSH2 0x1C03 SWAP2 SWAP1 PUSH2 0x27B3 JUMP JUMPDEST PUSH1 0x0 DUP4 DUP2 MSTORE PUSH1 0x7 PUSH1 0x20 MSTORE PUSH1 0x40 SWAP1 KECCAK256 SLOAD SWAP1 SWAP2 POP DUP1 DUP3 EQ PUSH2 0x1C56 JUMPI PUSH1 0x1 PUSH1 0x1 PUSH1 0xA0 SHL SUB DUP5 AND PUSH1 0x0 SWAP1 DUP2 MSTORE PUSH1 0x6 PUSH1 0x20 SWAP1 DUP2 MSTORE PUSH1 0x40 DUP1 DUP4 KECCAK256 DUP6 DUP5 MSTORE DUP3 MSTORE DUP1 DUP4 KECCAK256 SLOAD DUP5 DUP5 MSTORE DUP2 DUP5 KECCAK256 DUP2 SWAP1 SSTORE DUP4 MSTORE PUSH1 0x7 SWAP1 SWAP2 MSTORE SWAP1 KECCAK256 DUP2 SWAP1 SSTORE JUMPDEST POP PUSH1 0x0 SWAP2 DUP3 MSTORE PUSH1 0x7 PUSH1 0x20 SWAP1 DUP2 MSTORE PUSH1 0x40 DUP1 DUP5 KECCAK256 DUP5 SWAP1 SSTORE PUSH1 0x1 PUSH1 0x1 PUSH1 0xA0 SHL SUB SWAP1 SWAP5 AND DUP4 MSTORE PUSH1 0x6 DUP2 MSTORE DUP4 DUP4 KECCAK256 SWAP2 DUP4 MSTORE MSTORE SWAP1 DUP2 KECCAK256 SSTORE JUMP JUMPDEST PUSH1 0x8 SLOAD PUSH1 0x0 SWAP1 PUSH2 0x1C9B SWAP1 PUSH1 0x1 SWAP1 PUSH2 0x27B3 JUMP JUMPDEST PUSH1 0x0 DUP4 DUP2 MSTORE PUSH1 0x9 PUSH1 0x20 MSTORE PUSH1 0x40 DUP2 KECCAK256 SLOAD PUSH1 0x8 DUP1 SLOAD SWAP4 SWAP5 POP SWAP1 SWAP3 DUP5 SWAP1 DUP2 LT PUSH2 0x1CC3 JUMPI PUSH2 0x1CC3 PUSH2 0x28C5 JUMP JUMPDEST SWAP1 PUSH1 0x0 MSTORE PUSH1 0x20 PUSH1 0x0 KECCAK256 ADD SLOAD SWAP1 POP DUP1 PUSH1 0x8 DUP4 DUP2 SLOAD DUP2 LT PUSH2 0x1CE4 JUMPI PUSH2 0x1CE4 PUSH2 0x28C5 JUMP JUMPDEST PUSH1 0x0 SWAP2 DUP3 MSTORE PUSH1 0x20 DUP1 DUP4 KECCAK256 SWAP1 SWAP2 ADD SWAP3 SWAP1 SWAP3 SSTORE DUP3 DUP2 MSTORE PUSH1 0x9 SWAP1 SWAP2 MSTORE PUSH1 0x40 DUP1 DUP3 KECCAK256 DUP5 SWAP1 SSTORE DUP6 DUP3 MSTORE DUP2 KECCAK256 SSTORE PUSH1 0x8 DUP1 SLOAD DUP1 PUSH2 0x1D1C JUMPI PUSH2 0x1D1C PUSH2 0x28AF JUMP JUMPDEST PUSH1 0x1 SWAP1 SUB DUP2 DUP2 SWAP1 PUSH1 0x0 MSTORE PUSH1 0x20 PUSH1 0x0 KECCAK256 ADD PUSH1 0x0 SWAP1 SSTORE SWAP1 SSTORE POP POP POP POP JUMP JUMPDEST PUSH1 0x0 PUSH2 0x1D43 DUP4 PUSH2 0xA46 JUMP JUMPDEST PUSH1 0x1 PUSH1 0x1 PUSH1 0xA0 SHL SUB SWAP1 SWAP4 AND PUSH1 0x0 SWAP1 DUP2 MSTORE PUSH1 0x6 PUSH1 0x20 SWAP1 DUP2 MSTORE PUSH1 0x40 DUP1 DUP4 KECCAK256 DUP7 DUP5 MSTORE DUP3 MSTORE DUP1 DUP4 KECCAK256 DUP6 SWAP1 SSTORE SWAP4 DUP3 MSTORE PUSH1 0x7 SWAP1 MSTORE SWAP2 SWAP1 SWAP2 KECCAK256 SWAP2 SWAP1 SWAP2 SSTORE POP JUMP JUMPDEST PUSH1 0x0 DUP1 DUP4 SWAP1 POP PUSH1 0x30 DUP2 DUP5 DUP2 MLOAD DUP2 LT PUSH2 0x1D96 JUMPI PUSH2 0x1D96 PUSH2 0x28C5 JUMP JUMPDEST ADD PUSH1 0x20 ADD MLOAD PUSH2 0x116F SWAP2 SWAP1 PUSH1 0xF8 SHR PUSH2 0x27CA JUMP JUMPDEST DUP3 DUP1 SLOAD PUSH2 0x1DB4 SWAP1 PUSH2 0x2819 JUMP JUMPDEST SWAP1 PUSH1 0x0 MSTORE PUSH1 0x20 PUSH1 0x0 KECCAK256 SWAP1 PUSH1 0x1F ADD PUSH1 0x20 SWAP1 DIV DUP2 ADD SWAP3 DUP3 PUSH2 0x1DD6 JUMPI PUSH1 0x0 DUP6 SSTORE PUSH2 0x1E1C JUMP JUMPDEST DUP3 PUSH1 0x1F LT PUSH2 0x1DEF JUMPI DUP1 MLOAD PUSH1 0xFF NOT AND DUP4 DUP1 ADD OR DUP6 SSTORE PUSH2 0x1E1C JUMP JUMPDEST DUP3 DUP1 ADD PUSH1 0x1 ADD DUP6 SSTORE DUP3 ISZERO PUSH2 0x1E1C JUMPI SWAP2 DUP3 ADD JUMPDEST DUP3 DUP2 GT ISZERO PUSH2 0x1E1C JUMPI DUP3 MLOAD DUP3 SSTORE SWAP2 PUSH1 0x20 ADD SWAP2 SWAP1 PUSH1 0x1 ADD SWAP1 PUSH2 0x1E01 JUMP JUMPDEST POP PUSH2 0x1E28 SWAP3 SWAP2 POP PUSH2 0x1E2C JUMP JUMPDEST POP SWAP1 JUMP JUMPDEST JUMPDEST DUP1 DUP3 GT ISZERO PUSH2 0x1E28 JUMPI PUSH1 0x0 DUP2 SSTORE PUSH1 0x1 ADD PUSH2 0x1E2D JUMP JUMPDEST PUSH1 0x0 PUSH8 0xFFFFFFFFFFFFFFFF DUP1 DUP5 GT ISZERO PUSH2 0x1E5C JUMPI PUSH2 0x1E5C PUSH2 0x28DB JUMP JUMPDEST PUSH1 0x40 MLOAD PUSH1 0x1F DUP6 ADD PUSH1 0x1F NOT SWAP1 DUP2 AND PUSH1 0x3F ADD AND DUP2 ADD SWAP1 DUP3 DUP3 GT DUP2 DUP4 LT OR ISZERO PUSH2 0x1E84 JUMPI PUSH2 0x1E84 PUSH2 0x28DB JUMP JUMPDEST DUP2 PUSH1 0x40 MSTORE DUP1 SWAP4 POP DUP6 DUP2 MSTORE DUP7 DUP7 DUP7 ADD GT ISZERO PUSH2 0x1E9D JUMPI PUSH1 0x0 DUP1 REVERT JUMPDEST DUP6 DUP6 PUSH1 0x20 DUP4 ADD CALLDATACOPY PUSH1 0x0 PUSH1 0x20 DUP8 DUP4 ADD ADD MSTORE POP POP POP SWAP4 SWAP3 POP POP POP JUMP JUMPDEST DUP1 CALLDATALOAD PUSH1 0x1 PUSH1 0x1 PUSH1 0xA0 SHL SUB DUP2 AND DUP2 EQ PUSH2 0x1ECE JUMPI PUSH1 0x0 DUP1 REVERT JUMPDEST SWAP2 SWAP1 POP JUMP JUMPDEST PUSH1 0x0 PUSH1 0x20 DUP3 DUP5 SUB SLT ISZERO PUSH2 0x1EE5 JUMPI PUSH1 0x0 DUP1 REVERT JUMPDEST PUSH2 0x1EEE DUP3 PUSH2 0x1EB7 JUMP JUMPDEST SWAP4 SWAP3 POP POP POP JUMP JUMPDEST PUSH1 0x0 DUP1 PUSH1 0x40 DUP4 DUP6 SUB SLT ISZERO PUSH2 0x1F08 JUMPI PUSH1 0x0 DUP1 REVERT JUMPDEST PUSH2 0x1F11 DUP4 PUSH2 0x1EB7 JUMP JUMPDEST SWAP2 POP PUSH2 0x1F1F PUSH1 0x20 DUP5 ADD PUSH2 0x1EB7 JUMP JUMPDEST SWAP1 POP SWAP3 POP SWAP3 SWAP1 POP JUMP JUMPDEST PUSH1 0x0 DUP1 PUSH1 0x0 PUSH1 0x60 DUP5 DUP7 SUB SLT ISZERO PUSH2 0x1F3D JUMPI PUSH1 0x0 DUP1 REVERT JUMPDEST PUSH2 0x1F46 DUP5 PUSH2 0x1EB7 JUMP JUMPDEST SWAP3 POP PUSH2 0x1F54 PUSH1 0x20 DUP6 ADD PUSH2 0x1EB7 JUMP JUMPDEST SWAP2 POP PUSH1 0x40 DUP5 ADD CALLDATALOAD SWAP1 POP SWAP3 POP SWAP3 POP SWAP3 JUMP JUMPDEST PUSH1 0x0 DUP1 PUSH1 0x0 DUP1 PUSH1 0x80 DUP6 DUP8 SUB SLT ISZERO PUSH2 0x1F7A JUMPI PUSH1 0x0 DUP1 REVERT JUMPDEST PUSH2 0x1F83 DUP6 PUSH2 0x1EB7 JUMP JUMPDEST SWAP4 POP PUSH2 0x1F91 PUSH1 0x20 DUP7 ADD PUSH2 0x1EB7 JUMP JUMPDEST SWAP3 POP PUSH1 0x40 DUP6 ADD CALLDATALOAD SWAP2 POP PUSH1 0x60 DUP6 ADD CALLDATALOAD PUSH8 0xFFFFFFFFFFFFFFFF DUP2 GT ISZERO PUSH2 0x1FB4 JUMPI PUSH1 0x0 DUP1 REVERT JUMPDEST DUP6 ADD PUSH1 0x1F DUP2 ADD DUP8 SGT PUSH2 0x1FC5 JUMPI PUSH1 0x0 DUP1 REVERT JUMPDEST PUSH2 0x1FD4 DUP8 DUP3 CALLDATALOAD PUSH1 0x20 DUP5 ADD PUSH2 0x1E41 JUMP JUMPDEST SWAP2 POP POP SWAP3 SWAP6 SWAP2 SWAP5 POP SWAP3 POP JUMP JUMPDEST PUSH1 0x0 DUP1 PUSH1 0x40 DUP4 DUP6 SUB SLT ISZERO PUSH2 0x1FF3 JUMPI PUSH1 0x0 DUP1 REVERT JUMPDEST PUSH2 0x1FFC DUP4 PUSH2 0x1EB7 JUMP JUMPDEST SWAP2 POP PUSH1 0x20 DUP4 ADD CALLDATALOAD DUP1 ISZERO ISZERO DUP2 EQ PUSH2 0x2011 JUMPI PUSH1 0x0 DUP1 REVERT JUMPDEST DUP1 SWAP2 POP POP SWAP3 POP SWAP3 SWAP1 POP JUMP JUMPDEST PUSH1 0x0 DUP1 PUSH1 0x40 DUP4 DUP6 SUB SLT ISZERO PUSH2 0x202F JUMPI PUSH1 0x0 DUP1 REVERT JUMPDEST PUSH2 0x2038 DUP4 PUSH2 0x1EB7 JUMP JUMPDEST SWAP5 PUSH1 0x20 SWAP4 SWAP1 SWAP4 ADD CALLDATALOAD SWAP4 POP POP POP JUMP JUMPDEST PUSH1 0x0 PUSH1 0x20 DUP3 DUP5 SUB SLT ISZERO PUSH2 0x2058 JUMPI PUSH1 0x0 DUP1 REVERT JUMPDEST DUP2 CALLDATALOAD PUSH2 0x1EEE DUP2 PUSH2 0x28F1 JUMP JUMPDEST PUSH1 0x0 PUSH1 0x20 DUP3 DUP5 SUB SLT ISZERO PUSH2 0x2075 JUMPI PUSH1 0x0 DUP1 REVERT JUMPDEST DUP2 MLOAD PUSH2 0x1EEE DUP2 PUSH2 0x28F1 JUMP JUMPDEST PUSH1 0x0 PUSH1 0x20 DUP3 DUP5 SUB SLT ISZERO PUSH2 0x2092 JUMPI PUSH1 0x0 DUP1 REVERT JUMPDEST DUP2 CALLDATALOAD PUSH8 0xFFFFFFFFFFFFFFFF DUP2 GT ISZERO PUSH2 0x20A9 JUMPI PUSH1 0x0 DUP1 REVERT JUMPDEST DUP3 ADD PUSH1 0x1F DUP2 ADD DUP5 SGT PUSH2 0x20BA JUMPI PUSH1 0x0 DUP1 REVERT JUMPDEST PUSH2 0x116F DUP5 DUP3 CALLDATALOAD PUSH1 0x20 DUP5 ADD PUSH2 0x1E41 JUMP JUMPDEST PUSH1 0x0 PUSH1 0x20 DUP3 DUP5 SUB SLT ISZERO PUSH2 0x20DB JUMPI PUSH1 0x0 DUP1 REVERT JUMPDEST POP CALLDATALOAD SWAP2 SWAP1 POP JUMP JUMPDEST PUSH1 0x0 DUP2 MLOAD DUP1 DUP5 MSTORE PUSH2 0x20FA DUP2 PUSH1 0x20 DUP7 ADD PUSH1 0x20 DUP7 ADD PUSH2 0x27ED JUMP JUMPDEST PUSH1 0x1F ADD PUSH1 0x1F NOT AND SWAP3 SWAP1 SWAP3 ADD PUSH1 0x20 ADD SWAP3 SWAP2 POP POP JUMP JUMPDEST PUSH1 0x0 DUP4 MLOAD PUSH2 0x2120 DUP2 DUP5 PUSH1 0x20 DUP9 ADD PUSH2 0x27ED JUMP JUMPDEST DUP4 MLOAD SWAP1 DUP4 ADD SWAP1 PUSH2 0x2134 DUP2 DUP4 PUSH1 0x20 DUP9 ADD PUSH2 0x27ED JUMP JUMPDEST ADD SWAP5 SWAP4 POP POP POP POP JUMP JUMPDEST PUSH1 0x0 DUP4 MLOAD PUSH2 0x214F DUP2 DUP5 PUSH1 0x20 DUP9 ADD PUSH2 0x27ED JUMP JUMPDEST DUP4 MLOAD SWAP1 DUP4 ADD SWAP1 PUSH2 0x2163 DUP2 DUP4 PUSH1 0x20 DUP9 ADD PUSH2 0x27ED JUMP JUMPDEST PUSH4 0x2046544D PUSH1 0xE0 SHL SWAP2 ADD SWAP1 DUP2 MSTORE PUSH1 0x4 ADD SWAP5 SWAP4 POP POP POP POP JUMP JUMPDEST PUSH1 0x0 DUP5 MLOAD PUSH2 0x218D DUP2 DUP5 PUSH1 0x20 DUP10 ADD PUSH2 0x27ED JUMP JUMPDEST PUSH9 0x3C7265637420783D27 PUSH1 0xB8 SHL SWAP1 DUP4 ADD SWAP1 DUP2 MSTORE DUP5 MLOAD PUSH2 0x21B3 DUP2 PUSH1 0x9 DUP5 ADD PUSH1 0x20 DUP10 ADD PUSH2 0x27ED JUMP JUMPDEST PUSH5 0x2720793D27 PUSH1 0xD8 SHL PUSH1 0x9 SWAP3 SWAP1 SWAP2 ADD SWAP2 DUP3 ADD MSTORE DUP4 MLOAD PUSH2 0x21D9 DUP2 PUSH1 0xE DUP5 ADD PUSH1 0x20 DUP9 ADD PUSH2 0x27ED JUMP JUMPDEST PUSH3 0x13979F PUSH1 0xE9 SHL PUSH1 0xE SWAP3 SWAP1 SWAP2 ADD SWAP2 DUP3 ADD MSTORE PUSH1 0x11 ADD SWAP6 SWAP5 POP POP POP POP POP JUMP JUMPDEST PUSH1 0x0 DUP4 MLOAD PUSH1 0x20 PUSH2 0x2209 DUP3 DUP6 DUP4 DUP10 ADD PUSH2 0x27ED JUMP JUMPDEST PUSH32 0x7B2274726169745F74797065223A2274657874222C2276616C7565223A220000 SWAP2 DUP5 ADD SWAP2 DUP3 MSTORE DUP5 SLOAD PUSH1 0x1E SWAP1 PUSH1 0x0 SWAP1 PUSH1 0x1 DUP2 DUP2 SHR SWAP1 DUP1 DUP4 AND DUP1 PUSH2 0x224D JUMPI PUSH1 0x7F DUP4 AND SWAP3 POP JUMPDEST DUP7 DUP4 LT DUP2 EQ ISZERO PUSH2 0x226B JUMPI PUSH4 0x4E487B71 PUSH1 0xE0 SHL DUP6 MSTORE PUSH1 0x22 PUSH1 0x4 MSTORE PUSH1 0x24 DUP6 REVERT JUMPDEST DUP1 DUP1 ISZERO PUSH2 0x227F JUMPI PUSH1 0x1 DUP2 EQ PUSH2 0x2294 JUMPI PUSH2 0x22C5 JUMP JUMPDEST PUSH1 0xFF NOT DUP6 AND DUP10 DUP9 ADD MSTORE DUP4 DUP10 ADD DUP8 ADD SWAP6 POP PUSH2 0x22C5 JUMP JUMPDEST PUSH1 0x0 DUP13 DUP2 MSTORE PUSH1 0x20 SWAP1 KECCAK256 PUSH1 0x0 JUMPDEST DUP6 DUP2 LT ISZERO PUSH2 0x22BB JUMPI DUP2 SLOAD DUP12 DUP3 ADD DUP11 ADD MSTORE SWAP1 DUP5 ADD SWAP1 DUP10 ADD PUSH2 0x22A0 JUMP JUMPDEST POP POP DUP7 DUP5 DUP11 ADD ADD SWAP6 POP JUMPDEST POP POP POP POP POP PUSH2 0x22DD DUP2 PUSH3 0x89F4B PUSH1 0xEA SHL DUP2 MSTORE PUSH1 0x3 ADD SWAP1 JUMP JUMPDEST SWAP9 SWAP8 POP POP POP POP POP POP POP POP JUMP JUMPDEST PUSH1 0x0 DUP4 MLOAD PUSH2 0x22FB DUP2 DUP5 PUSH1 0x20 DUP9 ADD PUSH2 0x27ED JUMP JUMPDEST PUSH32 0x7B2274726169745F74797065223A2270616964222C2276616C7565223A220000 SWAP1 DUP4 ADD SWAP1 DUP2 MSTORE DUP4 MLOAD PUSH2 0x2335 DUP2 PUSH1 0x1E DUP5 ADD PUSH1 0x20 DUP9 ADD PUSH2 0x27ED JUMP JUMPDEST PUSH4 0x2046544D PUSH1 0xE0 SHL PUSH1 0x1E SWAP3 SWAP1 SWAP2 ADD SWAP2 DUP3 ADD MSTORE PUSH2 0x227D PUSH1 0xF0 SHL PUSH1 0x22 DUP3 ADD MSTORE PUSH1 0x24 ADD SWAP5 SWAP4 POP POP POP POP JUMP JUMPDEST PUSH32 0x3C7376672069643D226E66742220786D6C6E733D22687474703A2F2F7777772E DUP2 MSTORE PUSH32 0x77332E6F72672F323030302F7376672220707265736572766541737065637452 PUSH1 0x20 DUP3 ADD MSTORE PUSH32 0x6174696F3D22784D696E594D696E206D656574222076696577426F783D223020 PUSH1 0x40 DUP3 ADD MSTORE PUSH12 0x1810191A9B10191A9B111F1 PUSH1 0xA5 SHL PUSH1 0x60 DUP3 ADD MSTORE PUSH1 0x0 DUP3 MLOAD PUSH2 0x23F6 DUP2 PUSH1 0x6C DUP6 ADD PUSH1 0x20 DUP8 ADD PUSH2 0x27ED JUMP JUMPDEST PUSH32 0x3C7374796C653E726563747B77696474683A3170783B6865696768743A317078 PUSH1 0x6C SWAP4 SWAP1 SWAP2 ADD SWAP3 DUP4 ADD MSTORE POP PUSH32 0x3B66696C6C3A233030303030307D20236E66747B73686170652D72656E646572 PUSH1 0x8C DUP3 ADD MSTORE PUSH32 0x696E673A20637269737065646765733B7D203C2F7374796C653E3C2F7376673E PUSH1 0xAC DUP3 ADD MSTORE PUSH1 0xCC ADD SWAP2 SWAP1 POP JUMP JUMPDEST PUSH19 0x7B226E616D65223A2022447261774E46542023 PUSH1 0x68 SHL DUP2 MSTORE DUP4 MLOAD PUSH1 0x0 SWAP1 PUSH2 0x24A5 DUP2 PUSH1 0x13 DUP6 ADD PUSH1 0x20 DUP10 ADD PUSH2 0x27ED JUMP JUMPDEST PUSH32 0x222C20226465736372697074696F6E223A2022447261774E4654206973206120 PUSH1 0x13 SWAP2 DUP5 ADD SWAP2 DUP3 ADD MSTORE PUSH32 0x636F6C6C656374696F6E206F66204F4E2D434841494E204E4654732074686174 PUSH1 0x33 DUP3 ADD MSTORE PUSH32 0x20757365727320637573746F6D697A65206F6E206D696E742E222C2022696D61 PUSH1 0x53 DUP3 ADD MSTORE PUSH32 0x6765223A2022646174613A696D6167652F7376672B786D6C3B6261736536342C PUSH1 0x73 DUP3 ADD MSTORE DUP5 MLOAD PUSH2 0x2554 DUP2 PUSH1 0x93 DUP5 ADD PUSH1 0x20 DUP10 ADD PUSH2 0x27ED JUMP JUMPDEST PUSH15 0x11161130BA3A3934B13ABA32B9911D PUSH1 0x89 SHL PUSH1 0x93 SWAP3 SWAP1 SWAP2 ADD SWAP2 DUP3 ADD MSTORE DUP4 MLOAD PUSH2 0x2584 DUP2 PUSH1 0xA2 DUP5 ADD PUSH1 0x20 DUP9 ADD PUSH2 0x27ED JUMP JUMPDEST PUSH1 0x7D PUSH1 0xF8 SHL PUSH1 0xA2 SWAP3 SWAP1 SWAP2 ADD SWAP2 DUP3 ADD MSTORE PUSH1 0xA3 ADD SWAP6 SWAP5 POP POP POP POP POP JUMP JUMPDEST PUSH1 0x5B PUSH1 0xF8 SHL DUP2 MSTORE PUSH1 0x0 DUP3 MLOAD PUSH2 0x25BB DUP2 PUSH1 0x1 DUP6 ADD PUSH1 0x20 DUP8 ADD PUSH2 0x27ED JUMP JUMPDEST PUSH1 0x5D PUSH1 0xF8 SHL PUSH1 0x1 SWAP4 SWAP1 SWAP2 ADD SWAP3 DUP4 ADD MSTORE POP PUSH1 0x2 ADD SWAP2 SWAP1 POP JUMP JUMPDEST PUSH32 0x646174613A6170706C69636174696F6E2F6A736F6E3B6261736536342C000000 DUP2 MSTORE PUSH1 0x0 DUP3 MLOAD PUSH2 0x260B DUP2 PUSH1 0x1D DUP6 ADD PUSH1 0x20 DUP8 ADD PUSH2 0x27ED JUMP JUMPDEST SWAP2 SWAP1 SWAP2 ADD PUSH1 0x1D ADD SWAP3 SWAP2 POP POP JUMP JUMPDEST PUSH1 0x1 PUSH1 0x1 PUSH1 0xA0 SHL SUB DUP6 DUP2 AND DUP3 MSTORE DUP5 AND PUSH1 0x20 DUP3 ADD MSTORE PUSH1 0x40 DUP2 ADD DUP4 SWAP1 MSTORE PUSH1 0x80 PUSH1 0x60 DUP3 ADD DUP2 SWAP1 MSTORE PUSH1 0x0 SWAP1 PUSH2 0x264B SWAP1 DUP4 ADD DUP5 PUSH2 0x20E2 JUMP JUMPDEST SWAP7 SWAP6 POP POP POP POP POP POP JUMP JUMPDEST PUSH1 0x20 DUP1 DUP3 MSTORE DUP3 MLOAD DUP3 DUP3 ADD DUP2 SWAP1 MSTORE PUSH1 0x0 SWAP2 SWAP1 DUP5 DUP3 ADD SWAP1 PUSH1 0x40 DUP6 ADD SWAP1 DUP5 JUMPDEST DUP2 DUP2 LT ISZERO PUSH2 0x268D JUMPI DUP4 MLOAD DUP4 MSTORE SWAP3 DUP5 ADD SWAP3 SWAP2 DUP5 ADD SWAP2 PUSH1 0x1 ADD PUSH2 0x2671 JUMP JUMPDEST POP SWAP1 SWAP7 SWAP6 POP POP POP POP POP POP JUMP JUMPDEST PUSH1 0x20 DUP2 MSTORE PUSH1 0x0 PUSH2 0x1EEE PUSH1 0x20 DUP4 ADD DUP5 PUSH2 0x20E2 JUMP JUMPDEST PUSH1 0x20 DUP1 DUP3 MSTORE PUSH1 0x32 SWAP1 DUP3 ADD MSTORE PUSH32 0x4552433732313A207472616E7366657220746F206E6F6E204552433732315265 PUSH1 0x40 DUP3 ADD MSTORE PUSH18 0x31B2B4BB32B91034B6B83632B6B2B73A32B9 PUSH1 0x71 SHL PUSH1 0x60 DUP3 ADD MSTORE PUSH1 0x80 ADD SWAP1 JUMP JUMPDEST PUSH1 0x20 DUP1 DUP3 MSTORE PUSH1 0x31 SWAP1 DUP3 ADD MSTORE PUSH32 0x4552433732313A207472616E736665722063616C6C6572206973206E6F74206F PUSH1 0x40 DUP3 ADD MSTORE PUSH17 0x1DDB995C881B9BDC88185C1C1C9BDD9959 PUSH1 0x7A SHL PUSH1 0x60 DUP3 ADD MSTORE PUSH1 0x80 ADD SWAP1 JUMP JUMPDEST DUP3 DUP2 MSTORE PUSH1 0x40 PUSH1 0x20 DUP3 ADD MSTORE PUSH1 0x0 PUSH2 0x116F PUSH1 0x40 DUP4 ADD DUP5 PUSH2 0x20E2 JUMP JUMPDEST PUSH1 0x0 DUP3 NOT DUP3 GT ISZERO PUSH2 0x277B JUMPI PUSH2 0x277B PUSH2 0x2883 JUMP JUMPDEST POP ADD SWAP1 JUMP JUMPDEST PUSH1 0x0 DUP3 PUSH2 0x278F JUMPI PUSH2 0x278F PUSH2 0x2899 JUMP JUMPDEST POP DIV SWAP1 JUMP JUMPDEST PUSH1 0x0 DUP2 PUSH1 0x0 NOT DIV DUP4 GT DUP3 ISZERO ISZERO AND ISZERO PUSH2 0x27AE JUMPI PUSH2 0x27AE PUSH2 0x2883 JUMP JUMPDEST POP MUL SWAP1 JUMP JUMPDEST PUSH1 0x0 DUP3 DUP3 LT ISZERO PUSH2 0x27C5 JUMPI PUSH2 0x27C5 PUSH2 0x2883 JUMP JUMPDEST POP SUB SWAP1 JUMP JUMPDEST PUSH1 0x0 PUSH1 0xFF DUP3 AND PUSH1 0xFF DUP5 AND DUP1 DUP3 LT ISZERO PUSH2 0x27E4 JUMPI PUSH2 0x27E4 PUSH2 0x2883 JUMP JUMPDEST SWAP1 SUB SWAP4 SWAP3 POP POP POP JUMP JUMPDEST PUSH1 0x0 JUMPDEST DUP4 DUP2 LT ISZERO PUSH2 0x2808 JUMPI DUP2 DUP2 ADD MLOAD DUP4 DUP3 ADD MSTORE PUSH1 0x20 ADD PUSH2 0x27F0 JUMP JUMPDEST DUP4 DUP2 GT ISZERO PUSH2 0xBD3 JUMPI POP POP PUSH1 0x0 SWAP2 ADD MSTORE JUMP JUMPDEST PUSH1 0x1 DUP2 DUP2 SHR SWAP1 DUP3 AND DUP1 PUSH2 0x282D JUMPI PUSH1 0x7F DUP3 AND SWAP2 POP JUMPDEST PUSH1 0x20 DUP3 LT DUP2 EQ ISZERO PUSH2 0x284E JUMPI PUSH4 0x4E487B71 PUSH1 0xE0 SHL PUSH1 0x0 MSTORE PUSH1 0x22 PUSH1 0x4 MSTORE PUSH1 0x24 PUSH1 0x0 REVERT JUMPDEST POP SWAP2 SWAP1 POP JUMP JUMPDEST PUSH1 0x0 PUSH1 0x0 NOT DUP3 EQ ISZERO PUSH2 0x2868 JUMPI PUSH2 0x2868 PUSH2 0x2883 JUMP JUMPDEST POP PUSH1 0x1 ADD SWAP1 JUMP JUMPDEST PUSH1 0x0 DUP3 PUSH2 0x287E JUMPI PUSH2 0x287E PUSH2 0x2899 JUMP JUMPDEST POP MOD SWAP1 JUMP JUMPDEST PUSH4 0x4E487B71 PUSH1 0xE0 SHL PUSH1 0x0 MSTORE PUSH1 0x11 PUSH1 0x4 MSTORE PUSH1 0x24 PUSH1 0x0 REVERT JUMPDEST PUSH4 0x4E487B71 PUSH1 0xE0 SHL PUSH1 0x0 MSTORE PUSH1 0x12 PUSH1 0x4 MSTORE PUSH1 0x24 PUSH1 0x0 REVERT JUMPDEST PUSH4 0x4E487B71 PUSH1 0xE0 SHL PUSH1 0x0 MSTORE PUSH1 0x31 PUSH1 0x4 MSTORE PUSH1 0x24 PUSH1 0x0 REVERT JUMPDEST PUSH4 0x4E487B71 PUSH1 0xE0 SHL PUSH1 0x0 MSTORE PUSH1 0x32 PUSH1 0x4 MSTORE PUSH1 0x24 PUSH1 0x0 REVERT JUMPDEST PUSH4 0x4E487B71 PUSH1 0xE0 SHL PUSH1 0x0 MSTORE PUSH1 0x41 PUSH1 0x4 MSTORE PUSH1 0x24 PUSH1 0x0 REVERT JUMPDEST PUSH1 0x1 PUSH1 0x1 PUSH1 0xE0 SHL SUB NOT DUP2 AND DUP2 EQ PUSH2 0x2907 JUMPI PUSH1 0x0 DUP1 REVERT JUMPDEST POP JUMP INVALID COINBASE TIMESTAMP NUMBER DIFFICULTY GASLIMIT CHAINID SELFBALANCE BASEFEE 0x49 0x4A 0x4B 0x4C 0x4D 0x4E 0x4F POP MLOAD MSTORE MSTORE8 SLOAD SSTORE JUMP JUMPI PC MSIZE GAS PUSH2 0x6263 PUSH5 0x6566676869 PUSH11 0x6B6C6D6E6F707172737475 PUSH23 0x7778797A303132333435363738392B2FA2646970667358 0x22 SLT KECCAK256 0xE6 DUP16 GAS 0x5D 0xAB SLT PUSH20 0xA397A7F93A704631878D9B3DA2BDD3232313C992 STOP KECCAK256 MUL SWAP14 ADDRESS PUSH5 0x736F6C6343 STOP ADDMOD SMOD STOP CALLER ADDRESS ADDRESS ADDRESS BALANCE ADDRESS ORIGIN ADDRESS CALLER ADDRESS CALLVALUE ADDRESS CALLDATALOAD ADDRESS CALLDATASIZE BALANCE CALLER ORIGIN CALLER CALLER CALLER CALLVALUE ADDRESS CALLVALUE BALANCE CALLVALUE ORIGIN CALLVALUE CALLER CALLVALUE CALLVALUE CALLVALUE CALLDATALOAD CALLVALUE CALLDATASIZE ADDRESS ADDRESS ADDRESS BALANCE ADDRESS ORIGIN ADDRESS CALLER ADDRESS CALLVALUE ADDRESS CALLDATALOAD ADDRESS CALLDATASIZE BALANCE ORIGIN ORIGIN CALLER CALLER CALLVALUE CALLVALUE ADDRESS CALLVALUE BALANCE CALLVALUE ORIGIN CALLVALUE CALLER CALLVALUE CALLVALUE CALLVALUE CALLDATALOAD CALLVALUE CALLDATASIZE ADDRESS BALANCE ADDRESS ORIGIN ADDRESS CALLER ADDRESS CALLVALUE ADDRESS CALLDATALOAD BALANCE ADDRESS BALANCE CALLDATASIZE ORIGIN ADDRESS ORIGIN CALLVALUE ORIGIN CALLDATASIZE CALLER ADDRESS CALLER CALLDATALOAD CALLVALUE BALANCE CALLVALUE ORIGIN CALLVALUE CALLER CALLVALUE CALLVALUE CALLVALUE CALLDATASIZE ADDRESS ADDRESS ADDRESS BALANCE ADDRESS ORIGIN ADDRESS CALLER ADDRESS CALLVALUE ADDRESS CALLDATALOAD ADDRESS CALLDATASIZE BALANCE CALLDATALOAD ORIGIN CALLER ORIGIN CALLVALUE CALLER CALLDATALOAD CALLVALUE ADDRESS CALLVALUE BALANCE CALLVALUE ORIGIN CALLVALUE CALLER CALLVALUE CALLVALUE CALLVALUE CALLDATALOAD CALLVALUE CALLDATASIZE ADDRESS ORIGIN ADDRESS CALLVALUE BALANCE ADDRESS BALANCE BALANCE BALANCE ORIGIN BALANCE CALLER BALANCE CALLVALUE BALANCE CALLDATALOAD BALANCE CALLDATASIZE ORIGIN ORIGIN ORIGIN CALLVALUE CALLER ADDRESS CALLER BALANCE CALLER ORIGIN CALLER CALLER CALLER CALLVALUE CALLER CALLDATALOAD CALLER CALLDATASIZE CALLVALUE ORIGIN CALLVALUE CALLVALUE ADDRESS ORIGIN ADDRESS CALLDATALOAD BALANCE BALANCE BALANCE CALLER BALANCE CALLDATALOAD ORIGIN ADDRESS ORIGIN BALANCE ORIGIN ORIGIN ORIGIN CALLER ORIGIN CALLVALUE ORIGIN CALLDATALOAD ORIGIN CALLDATASIZE CALLER BALANCE CALLER CALLER CALLER CALLDATALOAD CALLVALUE BALANCE CALLVALUE CALLVALUE ADDRESS ADDRESS ADDRESS BALANCE ADDRESS ORIGIN ADDRESS CALLER ADDRESS CALLVALUE ADDRESS CALLDATALOAD ADDRESS CALLDATASIZE BALANCE ADDRESS BALANCE CALLER BALANCE CALLDATASIZE ORIGIN ADDRESS ORIGIN CALLER ORIGIN CALLDATASIZE CALLER ADDRESS CALLER CALLER CALLER CALLDATASIZE CALLVALUE ADDRESS CALLVALUE CALLDATASIZE ADDRESS BALANCE ADDRESS ORIGIN ADDRESS CALLER ADDRESS CALLVALUE ADDRESS CALLDATALOAD BALANCE ADDRESS BALANCE CALLVALUE BALANCE CALLDATASIZE ORIGIN ADDRESS ORIGIN CALLER ORIGIN CALLDATASIZE CALLER ADDRESS CALLER ORIGIN CALLER CALLDATASIZE CALLVALUE BALANCE CALLVALUE ORIGIN CALLVALUE CALLER CALLVALUE CALLVALUE CALLVALUE CALLDATALOAD ADDRESS ADDRESS ADDRESS BALANCE ADDRESS ORIGIN ADDRESS CALLER ADDRESS CALLVALUE ADDRESS CALLDATALOAD ADDRESS CALLDATASIZE BALANCE ADDRESS BALANCE CALLER BALANCE CALLDATASIZE ORIGIN ADDRESS ORIGIN CALLER ORIGIN CALLDATASIZE CALLER ADDRESS CALLER CALLER CALLER CALLDATASIZE CALLVALUE BALANCE CALLVALUE ORIGIN CALLVALUE CALLVALUE CALLVALUE CALLDATALOAD ADDRESS ADDRESS ADDRESS BALANCE ADDRESS ORIGIN ADDRESS CALLER ADDRESS CALLVALUE ADDRESS CALLDATALOAD ADDRESS CALLDATASIZE BALANCE BALANCE ORIGIN ORIGIN CALLER BALANCE CALLVALUE ADDRESS CALLVALUE BALANCE CALLVALUE ORIGIN CALLVALUE CALLER CALLVALUE CALLVALUE CALLVALUE CALLDATALOAD CALLVALUE CALLDATASIZE ADDRESS ADDRESS ADDRESS BALANCE ADDRESS ORIGIN ADDRESS CALLDATALOAD BALANCE ADDRESS BALANCE ORIGIN BALANCE CALLDATASIZE ORIGIN ADDRESS ORIGIN ORIGIN ORIGIN CALLDATASIZE CALLER ADDRESS CALLER ORIGIN CALLER CALLDATASIZE CALLVALUE ADDRESS CALLVALUE CALLER CALLVALUE CALLVALUE CALLVALUE CALLDATALOAD ADDRESS BALANCE ADDRESS ORIGIN ADDRESS CALLER ADDRESS CALLVALUE ADDRESS CALLDATALOAD ADDRESS CALLDATASIZE BALANCE ADDRESS BALANCE CALLVALUE ORIGIN ADDRESS ORIGIN CALLVALUE CALLER ADDRESS CALLER CALLVALUE CALLVALUE BALANCE CALLVALUE ORIGIN CALLVALUE CALLER CALLVALUE CALLVALUE CALLVALUE CALLDATALOAD CALLVALUE CALLDATASIZE ADDRESS BALANCE ADDRESS CALLVALUE ADDRESS CALLDATALOAD BALANCE ADDRESS BALANCE CALLER BALANCE CALLDATASIZE ORIGIN ADDRESS ORIGIN CALLER ORIGIN CALLVALUE ORIGIN CALLDATALOAD ORIGIN CALLDATASIZE CALLER ADDRESS CALLER CALLDATASIZE CALLVALUE BALANCE CALLVALUE ORIGIN CALLVALUE CALLER CALLVALUE CALLVALUE CALLVALUE CALLDATALOAD ADDRESS ADDRESS ADDRESS BALANCE ADDRESS ORIGIN ADDRESS CALLER ADDRESS CALLVALUE ADDRESS CALLDATALOAD ADDRESS CALLDATASIZE BALANCE ADDRESS BALANCE CALLER ORIGIN ADDRESS ORIGIN CALLER ORIGIN CALLVALUE CALLER ADDRESS CALLER CALLER CALLER CALLDATALOAD CALLVALUE BALANCE CALLVALUE ORIGIN CALLVALUE CALLDATASIZE ADDRESS BALANCE ADDRESS ORIGIN ADDRESS CALLVALUE ADDRESS CALLDATALOAD BALANCE ADDRESS BALANCE CALLER BALANCE CALLDATASIZE ORIGIN ADDRESS ORIGIN CALLER ORIGIN CALLDATASIZE CALLER ADDRESS CALLER CALLER CALLER CALLDATASIZE CALLVALUE BALANCE CALLVALUE ORIGIN CALLVALUE CALLVALUE CALLVALUE CALLDATALOAD "
        },
        "gasEstimates": {
            "creation": {
                "codeDepositCost": "2124800",
                "executionCost": "infinite",
                "totalCost": "infinite"
            },
            "external": {
                "approve(address,uint256)": "infinite",
                "balanceOf(address)": "2656",
                "customNftsContent(uint256)": "infinite",
                "getApproved(uint256)": "4782",
                "isApprovedForAll(address,address)": "infinite",
                "mintNft(string)": "infinite",
                "name()": "infinite",
                "ownerOf(uint256)": "2601",
                "safeTransferFrom(address,address,uint256)": "infinite",
                "safeTransferFrom(address,address,uint256,bytes)": "infinite",
                "setApprovalForAll(address,bool)": "26739",
                "supportsInterface(bytes4)": "infinite",
                "symbol()": "infinite",
                "tokenByIndex(uint256)": "6738",
                "tokenIdToMetadata(uint256)": "infinite",
                "tokenIdToSVG(uint256)": "infinite",
                "tokenOfOwnerByIndex(address,uint256)": "4997",
                "tokenURI(uint256)": "infinite",
                "totalSupply()": "2304",
                "transferFrom(address,address,uint256)": "infinite",
                "transferOwnership(address)": "26843",
                "walletOfOwner(address)": "infinite",
                "withdraw()": "infinite"
            },
            "internal": {
                "drawChar(uint256,uint256,uint256,string memory[] memory)": "infinite",
                "drawString(string memory,uint256,uint256)": "infinite",
                "mintInternal(string memory,uint256,uint256)": "infinite"
            }
        },
        "methodIdentifiers": {
            "approve(address,uint256)": "095ea7b3",
            "balanceOf(address)": "70a08231",
            "customNftsContent(uint256)": "0561a9f1",
            "getApproved(uint256)": "081812fc",
            "isApprovedForAll(address,address)": "e985e9c5",
            "mintNft(string)": "da86f4a9",
            "name()": "06fdde03",
            "ownerOf(uint256)": "6352211e",
            "safeTransferFrom(address,address,uint256)": "42842e0e",
            "safeTransferFrom(address,address,uint256,bytes)": "b88d4fde",
            "setApprovalForAll(address,bool)": "a22cb465",
            "supportsInterface(bytes4)": "01ffc9a7",
            "symbol()": "95d89b41",
            "tokenByIndex(uint256)": "4f6ccce7",
            "tokenIdToMetadata(uint256)": "bf64db1d",
            "tokenIdToSVG(uint256)": "c11feac1",
            "tokenOfOwnerByIndex(address,uint256)": "2f745c59",
            "tokenURI(uint256)": "c87b56dd",
            "totalSupply()": "18160ddd",
            "transferFrom(address,address,uint256)": "23b872dd",
            "transferOwnership(address)": "f2fde38b",
            "walletOfOwner(address)": "438b6300",
            "withdraw()": "3ccfd60b"
        }
    },
    "abi": [
        {
            "inputs": [],
            "stateMutability": "nonpayable",
            "type": "constructor"
        },
        {
            "anonymous": false,
            "inputs": [
                {
                    "indexed": true,
                    "internalType": "address",
                    "name": "owner",
                    "type": "address"
                },
                {
                    "indexed": true,
                    "internalType": "address",
                    "name": "approved",
                    "type": "address"
                },
                {
                    "indexed": true,
                    "internalType": "uint256",
                    "name": "tokenId",
                    "type": "uint256"
                }
            ],
            "name": "Approval",
            "type": "event"
        },
        {
            "anonymous": false,
            "inputs": [
                {
                    "indexed": true,
                    "internalType": "address",
                    "name": "owner",
                    "type": "address"
                },
                {
                    "indexed": true,
                    "internalType": "address",
                    "name": "operator",
                    "type": "address"
                },
                {
                    "indexed": false,
                    "internalType": "bool",
                    "name": "approved",
                    "type": "bool"
                }
            ],
            "name": "ApprovalForAll",
            "type": "event"
        },
        {
            "anonymous": false,
            "inputs": [
                {
                    "indexed": true,
                    "internalType": "address",
                    "name": "from",
                    "type": "address"
                },
                {
                    "indexed": true,
                    "internalType": "address",
                    "name": "to",
                    "type": "address"
                },
                {
                    "indexed": true,
                    "internalType": "uint256",
                    "name": "tokenId",
                    "type": "uint256"
                }
            ],
            "name": "Transfer",
            "type": "event"
        },
        {
            "inputs": [
                {
                    "internalType": "address",
                    "name": "to",
                    "type": "address"
                },
                {
                    "internalType": "uint256",
                    "name": "tokenId",
                    "type": "uint256"
                }
            ],
            "name": "approve",
            "outputs": [],
            "stateMutability": "nonpayable",
            "type": "function"
        },
        {
            "inputs": [
                {
                    "internalType": "address",
                    "name": "owner",
                    "type": "address"
                }
            ],
            "name": "balanceOf",
            "outputs": [
                {
                    "internalType": "uint256",
                    "name": "",
                    "type": "uint256"
                }
            ],
            "stateMutability": "view",
            "type": "function"
        },
        {
            "inputs": [
                {
                    "internalType": "uint256",
                    "name": "",
                    "type": "uint256"
                }
            ],
            "name": "customNftsContent",
            "outputs": [
                {
                    "internalType": "uint256",
                    "name": "amount_paid",
                    "type": "uint256"
                },
                {
                    "internalType": "string",
                    "name": "text_content",
                    "type": "string"
                }
            ],
            "stateMutability": "view",
            "type": "function"
        },
        {
            "inputs": [
                {
                    "internalType": "uint256",
                    "name": "tokenId",
                    "type": "uint256"
                }
            ],
            "name": "getApproved",
            "outputs": [
                {
                    "internalType": "address",
                    "name": "",
                    "type": "address"
                }
            ],
            "stateMutability": "view",
            "type": "function"
        },
        {
            "inputs": [
                {
                    "internalType": "address",
                    "name": "owner",
                    "type": "address"
                },
                {
                    "internalType": "address",
                    "name": "operator",
                    "type": "address"
                }
            ],
            "name": "isApprovedForAll",
            "outputs": [
                {
                    "internalType": "bool",
                    "name": "",
                    "type": "bool"
                }
            ],
            "stateMutability": "view",
            "type": "function"
        },
        {
            "inputs": [
                {
                    "internalType": "string",
                    "name": "text_content",
                    "type": "string"
                }
            ],
            "name": "mintNft",
            "outputs": [],
            "stateMutability": "payable",
            "type": "function"
        },
        {
            "inputs": [],
            "name": "name",
            "outputs": [
                {
                    "internalType": "string",
                    "name": "",
                    "type": "string"
                }
            ],
            "stateMutability": "view",
            "type": "function"
        },
        {
            "inputs": [
                {
                    "internalType": "uint256",
                    "name": "tokenId",
                    "type": "uint256"
                }
            ],
            "name": "ownerOf",
            "outputs": [
                {
                    "internalType": "address",
                    "name": "",
                    "type": "address"
                }
            ],
            "stateMutability": "view",
            "type": "function"
        },
        {
            "inputs": [
                {
                    "internalType": "address",
                    "name": "from",
                    "type": "address"
                },
                {
                    "internalType": "address",
                    "name": "to",
                    "type": "address"
                },
                {
                    "internalType": "uint256",
                    "name": "tokenId",
                    "type": "uint256"
                }
            ],
            "name": "safeTransferFrom",
            "outputs": [],
            "stateMutability": "nonpayable",
            "type": "function"
        },
        {
            "inputs": [
                {
                    "internalType": "address",
                    "name": "from",
                    "type": "address"
                },
                {
                    "internalType": "address",
                    "name": "to",
                    "type": "address"
                },
                {
                    "internalType": "uint256",
                    "name": "tokenId",
                    "type": "uint256"
                },
                {
                    "internalType": "bytes",
                    "name": "_data",
                    "type": "bytes"
                }
            ],
            "name": "safeTransferFrom",
            "outputs": [],
            "stateMutability": "nonpayable",
            "type": "function"
        },
        {
            "inputs": [
                {
                    "internalType": "address",
                    "name": "operator",
                    "type": "address"
                },
                {
                    "internalType": "bool",
                    "name": "approved",
                    "type": "bool"
                }
            ],
            "name": "setApprovalForAll",
            "outputs": [],
            "stateMutability": "nonpayable",
            "type": "function"
        },
        {
            "inputs": [
                {
                    "internalType": "bytes4",
                    "name": "interfaceId",
                    "type": "bytes4"
                }
            ],
            "name": "supportsInterface",
            "outputs": [
                {
                    "internalType": "bool",
                    "name": "",
                    "type": "bool"
                }
            ],
            "stateMutability": "view",
            "type": "function"
        },
        {
            "inputs": [],
            "name": "symbol",
            "outputs": [
                {
                    "internalType": "string",
                    "name": "",
                    "type": "string"
                }
            ],
            "stateMutability": "view",
            "type": "function"
        },
        {
            "inputs": [
                {
                    "internalType": "uint256",
                    "name": "index",
                    "type": "uint256"
                }
            ],
            "name": "tokenByIndex",
            "outputs": [
                {
                    "internalType": "uint256",
                    "name": "",
                    "type": "uint256"
                }
            ],
            "stateMutability": "view",
            "type": "function"
        },
        {
            "inputs": [
                {
                    "internalType": "uint256",
                    "name": "token_id",
                    "type": "uint256"
                }
            ],
            "name": "tokenIdToMetadata",
            "outputs": [
                {
                    "internalType": "string",
                    "name": "",
                    "type": "string"
                }
            ],
            "stateMutability": "view",
            "type": "function"
        },
        {
            "inputs": [
                {
                    "internalType": "uint256",
                    "name": "token_id",
                    "type": "uint256"
                }
            ],
            "name": "tokenIdToSVG",
            "outputs": [
                {
                    "internalType": "string",
                    "name": "",
                    "type": "string"
                }
            ],
            "stateMutability": "view",
            "type": "function"
        },
        {
            "inputs": [
                {
                    "internalType": "address",
                    "name": "owner",
                    "type": "address"
                },
                {
                    "internalType": "uint256",
                    "name": "index",
                    "type": "uint256"
                }
            ],
            "name": "tokenOfOwnerByIndex",
            "outputs": [
                {
                    "internalType": "uint256",
                    "name": "",
                    "type": "uint256"
                }
            ],
            "stateMutability": "view",
            "type": "function"
        },
        {
            "inputs": [
                {
                    "internalType": "uint256",
                    "name": "_tokenId",
                    "type": "uint256"
                }
            ],
            "name": "tokenURI",
            "outputs": [
                {
                    "internalType": "string",
                    "name": "",
                    "type": "string"
                }
            ],
            "stateMutability": "view",
            "type": "function"
        },
        {
            "inputs": [],
            "name": "totalSupply",
            "outputs": [
                {
                    "internalType": "uint256",
                    "name": "",
                    "type": "uint256"
                }
            ],
            "stateMutability": "view",
            "type": "function"
        },
        {
            "inputs": [
                {
                    "internalType": "address",
                    "name": "from",
                    "type": "address"
                },
                {
                    "internalType": "address",
                    "name": "to",
                    "type": "address"
                },
                {
                    "internalType": "uint256",
                    "name": "tokenId",
                    "type": "uint256"
                }
            ],
            "name": "transferFrom",
            "outputs": [],
            "stateMutability": "nonpayable",
            "type": "function"
        },
        {
            "inputs": [
                {
                    "internalType": "address",
                    "name": "_newOwner",
                    "type": "address"
                }
            ],
            "name": "transferOwnership",
            "outputs": [],
            "stateMutability": "nonpayable",
            "type": "function"
        },
        {
            "inputs": [
                {
                    "internalType": "address",
                    "name": "_wallet",
                    "type": "address"
                }
            ],
            "name": "walletOfOwner",
            "outputs": [
                {
                    "internalType": "uint256[]",
                    "name": "",
                    "type": "uint256[]"
                }
            ],
            "stateMutability": "view",
            "type": "function"
        },
        {
            "inputs": [],
            "name": "withdraw",
            "outputs": [],
            "stateMutability": "payable",
            "type": "function"
        }
    ]
}