{
  "contractName": "MyOwnNft",
  "abi": [
    {
      "inputs": [],
      "stateMutability": "nonpayable",
      "type": "constructor"
    },
    {
      "anonymous": false,
      "inputs": [
        {
          "indexed": true,
          "internalType": "address",
          "name": "owner",
          "type": "address"
        },
        {
          "indexed": true,
          "internalType": "address",
          "name": "approved",
          "type": "address"
        },
        {
          "indexed": true,
          "internalType": "uint256",
          "name": "tokenId",
          "type": "uint256"
        }
      ],
      "name": "Approval",
      "type": "event"
    },
    {
      "anonymous": false,
      "inputs": [
        {
          "indexed": true,
          "internalType": "address",
          "name": "owner",
          "type": "address"
        },
        {
          "indexed": true,
          "internalType": "address",
          "name": "operator",
          "type": "address"
        },
        {
          "indexed": false,
          "internalType": "bool",
          "name": "approved",
          "type": "bool"
        }
      ],
      "name": "ApprovalForAll",
      "type": "event"
    },
    {
      "anonymous": false,
      "inputs": [
        {
          "indexed": true,
          "internalType": "address",
          "name": "from",
          "type": "address"
        },
        {
          "indexed": true,
          "internalType": "address",
          "name": "to",
          "type": "address"
        },
        {
          "indexed": true,
          "internalType": "uint256",
          "name": "tokenId",
          "type": "uint256"
        }
      ],
      "name": "Transfer",
      "type": "event"
    },
    {
      "inputs": [
        {
          "internalType": "address",
          "name": "to",
          "type": "address"
        },
        {
          "internalType": "uint256",
          "name": "tokenId",
          "type": "uint256"
        }
      ],
      "name": "approve",
      "outputs": [],
      "stateMutability": "nonpayable",
      "type": "function"
    },
    {
      "inputs": [
        {
          "internalType": "address",
          "name": "owner",
          "type": "address"
        }
      ],
      "name": "balanceOf",
      "outputs": [
        {
          "internalType": "uint256",
          "name": "",
          "type": "uint256"
        }
      ],
      "stateMutability": "view",
      "type": "function",
      "constant": true
    },
    {
      "inputs": [
        {
          "internalType": "uint256",
          "name": "",
          "type": "uint256"
        }
      ],
      "name": "charactersData",
      "outputs": [
        {
          "internalType": "uint256",
          "name": "pixelCount",
          "type": "uint256"
        }
      ],
      "stateMutability": "view",
      "type": "function",
      "constant": true
    },
    {
      "inputs": [
        {
          "internalType": "uint256",
          "name": "",
          "type": "uint256"
        }
      ],
      "name": "customNftsContent",
      "outputs": [
        {
          "internalType": "uint256",
          "name": "amount_paid",
          "type": "uint256"
        },
        {
          "internalType": "string",
          "name": "text_content",
          "type": "string"
        }
      ],
      "stateMutability": "view",
      "type": "function",
      "constant": true
    },
    {
      "inputs": [
        {
          "internalType": "uint256",
          "name": "tokenId",
          "type": "uint256"
        }
      ],
      "name": "getApproved",
      "outputs": [
        {
          "internalType": "address",
          "name": "",
          "type": "address"
        }
      ],
      "stateMutability": "view",
      "type": "function",
      "constant": true
    },
    {
      "inputs": [
        {
          "internalType": "address",
          "name": "owner",
          "type": "address"
        },
        {
          "internalType": "address",
          "name": "operator",
          "type": "address"
        }
      ],
      "name": "isApprovedForAll",
      "outputs": [
        {
          "internalType": "bool",
          "name": "",
          "type": "bool"
        }
      ],
      "stateMutability": "view",
      "type": "function",
      "constant": true
    },
    {
      "inputs": [],
      "name": "name",
      "outputs": [
        {
          "internalType": "string",
          "name": "",
          "type": "string"
        }
      ],
      "stateMutability": "view",
      "type": "function",
      "constant": true
    },
    {
      "inputs": [
        {
          "internalType": "uint256",
          "name": "tokenId",
          "type": "uint256"
        }
      ],
      "name": "ownerOf",
      "outputs": [
        {
          "internalType": "address",
          "name": "",
          "type": "address"
        }
      ],
      "stateMutability": "view",
      "type": "function",
      "constant": true
    },
    {
      "inputs": [
        {
          "internalType": "address",
          "name": "from",
          "type": "address"
        },
        {
          "internalType": "address",
          "name": "to",
          "type": "address"
        },
        {
          "internalType": "uint256",
          "name": "tokenId",
          "type": "uint256"
        }
      ],
      "name": "safeTransferFrom",
      "outputs": [],
      "stateMutability": "nonpayable",
      "type": "function"
    },
    {
      "inputs": [
        {
          "internalType": "address",
          "name": "from",
          "type": "address"
        },
        {
          "internalType": "address",
          "name": "to",
          "type": "address"
        },
        {
          "internalType": "uint256",
          "name": "tokenId",
          "type": "uint256"
        },
        {
          "internalType": "bytes",
          "name": "_data",
          "type": "bytes"
        }
      ],
      "name": "safeTransferFrom",
      "outputs": [],
      "stateMutability": "nonpayable",
      "type": "function"
    },
    {
      "inputs": [
        {
          "internalType": "address",
          "name": "operator",
          "type": "address"
        },
        {
          "internalType": "bool",
          "name": "approved",
          "type": "bool"
        }
      ],
      "name": "setApprovalForAll",
      "outputs": [],
      "stateMutability": "nonpayable",
      "type": "function"
    },
    {
      "inputs": [
        {
          "internalType": "bytes4",
          "name": "interfaceId",
          "type": "bytes4"
        }
      ],
      "name": "supportsInterface",
      "outputs": [
        {
          "internalType": "bool",
          "name": "",
          "type": "bool"
        }
      ],
      "stateMutability": "view",
      "type": "function",
      "constant": true
    },
    {
      "inputs": [],
      "name": "symbol",
      "outputs": [
        {
          "internalType": "string",
          "name": "",
          "type": "string"
        }
      ],
      "stateMutability": "view",
      "type": "function",
      "constant": true
    },
    {
      "inputs": [
        {
          "internalType": "uint256",
          "name": "index",
          "type": "uint256"
        }
      ],
      "name": "tokenByIndex",
      "outputs": [
        {
          "internalType": "uint256",
          "name": "",
          "type": "uint256"
        }
      ],
      "stateMutability": "view",
      "type": "function",
      "constant": true
    },
    {
      "inputs": [
        {
          "internalType": "address",
          "name": "owner",
          "type": "address"
        },
        {
          "internalType": "uint256",
          "name": "index",
          "type": "uint256"
        }
      ],
      "name": "tokenOfOwnerByIndex",
      "outputs": [
        {
          "internalType": "uint256",
          "name": "",
          "type": "uint256"
        }
      ],
      "stateMutability": "view",
      "type": "function",
      "constant": true
    },
    {
      "inputs": [],
      "name": "totalSupply",
      "outputs": [
        {
          "internalType": "uint256",
          "name": "",
          "type": "uint256"
        }
      ],
      "stateMutability": "view",
      "type": "function",
      "constant": true
    },
    {
      "inputs": [
        {
          "internalType": "address",
          "name": "from",
          "type": "address"
        },
        {
          "internalType": "address",
          "name": "to",
          "type": "address"
        },
        {
          "internalType": "uint256",
          "name": "tokenId",
          "type": "uint256"
        }
      ],
      "name": "transferFrom",
      "outputs": [],
      "stateMutability": "nonpayable",
      "type": "function"
    },
    {
      "inputs": [
        {
          "internalType": "string",
          "name": "text_content",
          "type": "string"
        }
      ],
      "name": "mintNft",
      "outputs": [],
      "stateMutability": "payable",
      "type": "function",
      "payable": true
    },
    {
      "inputs": [
        {
          "internalType": "uint256",
          "name": "token_id",
          "type": "uint256"
        }
      ],
      "name": "tokenIdToSVG",
      "outputs": [
        {
          "internalType": "string",
          "name": "",
          "type": "string"
        }
      ],
      "stateMutability": "view",
      "type": "function",
      "constant": true
    },
    {
      "inputs": [
        {
          "internalType": "uint256",
          "name": "token_id",
          "type": "uint256"
        }
      ],
      "name": "tokenIdToMetadata",
      "outputs": [
        {
          "internalType": "string",
          "name": "",
          "type": "string"
        }
      ],
      "stateMutability": "view",
      "type": "function",
      "constant": true
    },
    {
      "inputs": [
        {
          "internalType": "uint256",
          "name": "_tokenId",
          "type": "uint256"
        }
      ],
      "name": "tokenURI",
      "outputs": [
        {
          "internalType": "string",
          "name": "",
          "type": "string"
        }
      ],
      "stateMutability": "view",
      "type": "function",
      "constant": true
    },
    {
      "inputs": [
        {
          "internalType": "address",
          "name": "_wallet",
          "type": "address"
        }
      ],
      "name": "walletOfOwner",
      "outputs": [
        {
          "internalType": "uint256[]",
          "name": "",
          "type": "uint256[]"
        }
      ],
      "stateMutability": "view",
      "type": "function",
      "constant": true
    },
    {
      "inputs": [
        {
          "internalType": "uint8[]",
          "name": "_pixelsData",
          "type": "uint8[]"
        },
        {
          "internalType": "uint256[]",
          "name": "_charsIndex",
          "type": "uint256[]"
        },
        {
          "internalType": "uint256",
          "name": "_startPosition",
          "type": "uint256"
        }
      ],
      "name": "addCharacterData",
      "outputs": [],
      "stateMutability": "nonpayable",
      "type": "function"
    },
    {
      "inputs": [],
      "name": "withdraw",
      "outputs": [],
      "stateMutability": "payable",
      "type": "function",
      "payable": true
    },
    {
      "inputs": [
        {
          "internalType": "address",
          "name": "_newOwner",
          "type": "address"
        }
      ],
      "name": "transferOwnership",
      "outputs": [],
      "stateMutability": "nonpayable",
      "type": "function"
    }
  ],
  "bytecode": "0x6080604052620186a0600c556005600d55670de0b6b3a7640000600e556078600f553480156200002e57600080fd5b506040518060400160405280600881526020017f4d794f776e4e66740000000000000000000000000000000000000000000000008152506040518060400160405280600381526020017f4d4f4e00000000000000000000000000000000000000000000000000000000008152508160009080519060200190620000b392919062000116565b508060019080519060200190620000cc92919062000116565b50505033601060006101000a81548173ffffffffffffffffffffffffffffffffffffffff021916908373ffffffffffffffffffffffffffffffffffffffff1602179055506200022b565b8280546200012490620001c6565b90600052602060002090601f01602090048101928262000148576000855562000194565b82601f106200016357805160ff191683800117855562000194565b8280016001018555821562000194579182015b828111156200019357825182559160200191906001019062000176565b5b509050620001a39190620001a7565b5090565b5b80821115620001c2576000816000905550600101620001a8565b5090565b60006002820490506001821680620001df57607f821691505b60208210811415620001f657620001f5620001fc565b5b50919050565b7f4e487b7100000000000000000000000000000000000000000000000000000000600052602260045260246000fd5b614eb6806200023b6000396000f3fe6080604052600436106101665760003560e01c80634f6ccce7116100d1578063b88d4fde1161008a578063c87b56dd11610064578063c87b56dd1461058c578063da86f4a9146105c9578063e985e9c5146105e5578063f2fde38b1461062257610166565b8063b88d4fde146104e9578063bf64db1d14610512578063c11feac11461054f57610166565b80634f6ccce7146103a15780636352211e146103de57806370a082311461041b5780638c7f94261461045857806395d89b4114610495578063a22cb465146104c057610166565b806323b872dd1161012357806323b872dd146102a25780632e87786f146102cb5780632f745c59146102f45780633ccfd60b1461033157806342842e0e1461033b578063438b63001461036457610166565b806301ffc9a71461016b5780630561a9f1146101a857806306fdde03146101e6578063081812fc14610211578063095ea7b31461024e57806318160ddd14610277575b600080fd5b34801561017757600080fd5b50610192600480360381019061018d919061336f565b61064b565b60405161019f9190613d2e565b60405180910390f35b3480156101b457600080fd5b506101cf60048036038101906101ca9190613402565b6106c5565b6040516101dd929190613f66565b60405180910390f35b3480156101f257600080fd5b506101fb610771565b6040516102089190613d49565b60405180910390f35b34801561021d57600080fd5b5061023860048036038101906102339190613402565b610803565b6040516102459190613ca5565b60405180910390f35b34801561025a57600080fd5b50610275600480360381019061027091906132b4565b610888565b005b34801561028357600080fd5b5061028c6109a0565b6040516102999190613f4b565b60405180910390f35b3480156102ae57600080fd5b506102c960048036038101906102c491906131ae565b6109ad565b005b3480156102d757600080fd5b506102f260048036038101906102ed91906132f0565b610a0d565b005b34801561030057600080fd5b5061031b600480360381019061031691906132b4565b610c57565b6040516103289190613f4b565b60405180910390f35b610339610cfc565b005b34801561034757600080fd5b50610362600480360381019061035d91906131ae565b610d96565b005b34801561037057600080fd5b5061038b60048036038101906103869190613149565b610db6565b6040516103989190613d0c565b60405180910390f35b3480156103ad57600080fd5b506103c860048036038101906103c39190613402565b610eb0565b6040516103d59190613f4b565b60405180910390f35b3480156103ea57600080fd5b5061040560048036038101906104009190613402565b610f47565b6040516104129190613ca5565b60405180910390f35b34801561042757600080fd5b50610442600480360381019061043d9190613149565b610ff9565b60405161044f9190613f4b565b60405180910390f35b34801561046457600080fd5b5061047f600480360381019061047a9190613402565b6110b1565b60405161048c9190613f4b565b60405180910390f35b3480156104a157600080fd5b506104aa6110cf565b6040516104b79190613d49565b60405180910390f35b3480156104cc57600080fd5b506104e760048036038101906104e29190613278565b611161565b005b3480156104f557600080fd5b50610510600480360381019061050b91906131fd565b6112e2565b005b34801561051e57600080fd5b5061053960048036038101906105349190613402565b611344565b6040516105469190613d49565b60405180910390f35b34801561055b57600080fd5b5061057660048036038101906105719190613402565b6113e2565b6040516105839190613d49565b60405180910390f35b34801561059857600080fd5b506105b360048036038101906105ae9190613402565b611562565b6040516105c09190613d49565b60405180910390f35b6105e360048036038101906105de91906133c1565b6115e8565b005b3480156105f157600080fd5b5061060c60048036038101906106079190613172565b611642565b6040516106199190613d2e565b60405180910390f35b34801561062e57600080fd5b5061064960048036038101906106449190613149565b6116d6565b005b60007f780e9d63000000000000000000000000000000000000000000000000000000007bffffffffffffffffffffffffffffffffffffffffffffffffffffffff1916827bffffffffffffffffffffffffffffffffffffffffffffffffffffffff191614806106be57506106bd82611774565b5b9050919050565b600a6020528060005260406000206000915090508060000154908060010180546106ee9061430f565b80601f016020809104026020016040519081016040528092919081815260200182805461071a9061430f565b80156107675780601f1061073c57610100808354040283529160200191610767565b820191906000526020600020905b81548152906001019060200180831161074a57829003601f168201915b5050505050905082565b6060600080546107809061430f565b80601f01602080910402602001604051908101604052809291908181526020018280546107ac9061430f565b80156107f95780601f106107ce576101008083540402835291602001916107f9565b820191906000526020600020905b8154815290600101906020018083116107dc57829003601f168201915b5050505050905090565b600061080e82611856565b61084d576040517f08c379a000000000000000000000000000000000000000000000000000000000815260040161084490613eab565b60405180910390fd5b6004600083815260200190815260200160002060009054906101000a900473ffffffffffffffffffffffffffffffffffffffff169050919050565b600061089382610f47565b90508073ffffffffffffffffffffffffffffffffffffffff168373ffffffffffffffffffffffffffffffffffffffff161415610904576040517f08c379a00000000000000000000000000000000000000000000000000000000081526004016108fb90613eeb565b60405180910390fd5b8073ffffffffffffffffffffffffffffffffffffffff166109236118c2565b73ffffffffffffffffffffffffffffffffffffffff16148061095257506109518161094c6118c2565b611642565b5b610991576040517f08c379a000000000000000000000000000000000000000000000000000000000815260040161098890613e2b565b60405180910390fd5b61099b83836118ca565b505050565b6000600880549050905090565b6109be6109b86118c2565b82611983565b6109fd576040517f08c379a00000000000000000000000000000000000000000000000000000000081526004016109f490613f0b565b60405180910390fd5b610a08838383611a61565b505050565b3373ffffffffffffffffffffffffffffffffffffffff16601060009054906101000a900473ffffffffffffffffffffffffffffffffffffffff1673ffffffffffffffffffffffffffffffffffffffff1614610a6757600080fd5b60005b60018351610a789190614218565b811015610c51576000838281518110610aba577f4e487b7100000000000000000000000000000000000000000000000000000000600052603260045260246000fd5b60200260200101519050600084600184610ad49190614106565b81518110610b0b577f4e487b7100000000000000000000000000000000000000000000000000000000600052603260045260246000fd5b60200260200101519050606060008390505b82811015610bc657878181518110610b5e577f4e487b7100000000000000000000000000000000000000000000000000000000600052603260045260246000fd5b6020026020010151828281518110610b9f577f4e487b7100000000000000000000000000000000000000000000000000000000600052603260045260246000fd5b602002602001019060ff16908160ff16815250508080610bbe90614372565b915050610b1d565b5060405180604001604052808484610bde9190614218565b815260200182815250600b6000600287610bf8919061415c565b88610c039190614106565b8152602001908152602001600020600082015181600001556020820151816001019080519060200190610c37929190612d85565b50905050505050600281610c4b9190614106565b50610a6a565b50505050565b6000610c6283610ff9565b8210610ca3576040517f08c379a0000000000000000000000000000000000000000000000000000000008152600401610c9a90613d6b565b60405180910390fd5b600660008473ffffffffffffffffffffffffffffffffffffffff1673ffffffffffffffffffffffffffffffffffffffff168152602001908152602001600020600083815260200190815260200160002054905092915050565b3373ffffffffffffffffffffffffffffffffffffffff16601060009054906101000a900473ffffffffffffffffffffffffffffffffffffffff1673ffffffffffffffffffffffffffffffffffffffff1614610d5657600080fd5b3373ffffffffffffffffffffffffffffffffffffffff166108fc479081150290604051600060405180830381858888f19350505050610d9457600080fd5b565b610db1838383604051806020016040528060008152506112e2565b505050565b60606000610dc383610ff9565b905060008167ffffffffffffffff811115610e07577f4e487b7100000000000000000000000000000000000000000000000000000000600052604160045260246000fd5b604051908082528060200260200182016040528015610e355781602001602082028036833780820191505090505b50905060005b82811015610ea557610e4d8582610c57565b828281518110610e86577f4e487b7100000000000000000000000000000000000000000000000000000000600052603260045260246000fd5b6020026020010181815250508080610e9d90614372565b915050610e3b565b508092505050919050565b6000610eba6109a0565b8210610efb576040517f08c379a0000000000000000000000000000000000000000000000000000000008152600401610ef290613f2b565b60405180910390fd5b60088281548110610f35577f4e487b7100000000000000000000000000000000000000000000000000000000600052603260045260246000fd5b90600052602060002001549050919050565b6000806002600084815260200190815260200160002060009054906101000a900473ffffffffffffffffffffffffffffffffffffffff169050600073ffffffffffffffffffffffffffffffffffffffff168173ffffffffffffffffffffffffffffffffffffffff161415610ff0576040517f08c379a0000000000000000000000000000000000000000000000000000000008152600401610fe790613e6b565b60405180910390fd5b80915050919050565b60008073ffffffffffffffffffffffffffffffffffffffff168273ffffffffffffffffffffffffffffffffffffffff16141561106a576040517f08c379a000000000000000000000000000000000000000000000000000000000815260040161106190613e4b565b60405180910390fd5b600360008373ffffffffffffffffffffffffffffffffffffffff1673ffffffffffffffffffffffffffffffffffffffff168152602001908152602001600020549050919050565b600b6020528060005260406000206000915090508060000154905081565b6060600180546110de9061430f565b80601f016020809104026020016040519081016040528092919081815260200182805461110a9061430f565b80156111575780601f1061112c57610100808354040283529160200191611157565b820191906000526020600020905b81548152906001019060200180831161113a57829003601f168201915b5050505050905090565b6111696118c2565b73ffffffffffffffffffffffffffffffffffffffff168273ffffffffffffffffffffffffffffffffffffffff1614156111d7576040517f08c379a00000000000000000000000000000000000000000000000000000000081526004016111ce90613deb565b60405180910390fd5b80600560006111e46118c2565b73ffffffffffffffffffffffffffffffffffffffff1673ffffffffffffffffffffffffffffffffffffffff16815260200190815260200160002060008473ffffffffffffffffffffffffffffffffffffffff1673ffffffffffffffffffffffffffffffffffffffff16815260200190815260200160002060006101000a81548160ff0219169083151502179055508173ffffffffffffffffffffffffffffffffffffffff166112916118c2565b73ffffffffffffffffffffffffffffffffffffffff167f17307eab39ab6107e8899845ad3d59bd9653f200f220920489ca2b5937696c31836040516112d69190613d2e565b60405180910390a35050565b6112f36112ed6118c2565b83611983565b611332576040517f08c379a000000000000000000000000000000000000000000000000000000000815260040161132990613f0b565b60405180910390fd5b61133e84848484611cbd565b50505050565b60608080600a600085815260200190815260200160002060010160405160200161136f929190613b35565b604051602081830303815290604052905080600a6000858152602001908152602001600020600001546040516020016113a9929190613aec565b6040516020818303038152906040529050806040516020016113cb9190613c56565b604051602081830303815290604052915050919050565b6060806060600080600a9150600a90506040518060400160405280600d81526020017f54686973206973204e465420230000000000000000000000000000000000000081525092508261143487611d19565b604051602001611445929190613a99565b604051602081830303815290604052925083611462848484611ec6565b604051602001611473929190613a99565b6040516020818303038152906040529350600a9150601490506040518060400160405280600b81526020017f4d696e74656420666f72200000000000000000000000000000000000000000008152509250826114e4600a600089815260200190815260200160002060000154611d19565b6040516020016114f5929190613abd565b604051602081830303815290604052925083611512848484611ec6565b604051602001611523929190613a99565b6040516020818303038152906040529350836040516020016115459190613c29565b604051602081830303815290604052935083945050505050919050565b606061156d82611856565b61157657600080fd5b6115c261158283611f9a565b61159361158e856113e2565b612147565b61159c85611344565b6040516020016115ae93929190613bc1565b604051602081830303815290604052612147565b6040516020016115d29190613c83565b6040516020818303038152906040529050919050565b60006115f26109a0565b9050600f5482511061160357600080fd5b600e5434101561161257600080fd5b600c54811061162057600080fd5b611629336122f2565b1561163357600080fd5b61163e823483612305565b5050565b6000600560008473ffffffffffffffffffffffffffffffffffffffff1673ffffffffffffffffffffffffffffffffffffffff16815260200190815260200160002060008373ffffffffffffffffffffffffffffffffffffffff1673ffffffffffffffffffffffffffffffffffffffff16815260200190815260200160002060009054906101000a900460ff16905092915050565b3373ffffffffffffffffffffffffffffffffffffffff16601060009054906101000a900473ffffffffffffffffffffffffffffffffffffffff1673ffffffffffffffffffffffffffffffffffffffff161461173057600080fd5b80601060006101000a81548173ffffffffffffffffffffffffffffffffffffffff021916908373ffffffffffffffffffffffffffffffffffffffff16021790555050565b60007f80ac58cd000000000000000000000000000000000000000000000000000000007bffffffffffffffffffffffffffffffffffffffffffffffffffffffff1916827bffffffffffffffffffffffffffffffffffffffffffffffffffffffff1916148061183f57507f5b5e139f000000000000000000000000000000000000000000000000000000007bffffffffffffffffffffffffffffffffffffffffffffffffffffffff1916827bffffffffffffffffffffffffffffffffffffffffffffffffffffffff1916145b8061184f575061184e8261235a565b5b9050919050565b60008073ffffffffffffffffffffffffffffffffffffffff166002600084815260200190815260200160002060009054906101000a900473ffffffffffffffffffffffffffffffffffffffff1673ffffffffffffffffffffffffffffffffffffffff1614159050919050565b600033905090565b816004600083815260200190815260200160002060006101000a81548173ffffffffffffffffffffffffffffffffffffffff021916908373ffffffffffffffffffffffffffffffffffffffff160217905550808273ffffffffffffffffffffffffffffffffffffffff1661193d83610f47565b73ffffffffffffffffffffffffffffffffffffffff167f8c5be1e5ebec7d5bd14f71427d1e84f3dd0314c0f7b2291e5b200ac8c7c3b92560405160405180910390a45050565b600061198e82611856565b6119cd576040517f08c379a00000000000000000000000000000000000000000000000000000000081526004016119c490613e0b565b60405180910390fd5b60006119d883610f47565b90508073ffffffffffffffffffffffffffffffffffffffff168473ffffffffffffffffffffffffffffffffffffffff161480611a4757508373ffffffffffffffffffffffffffffffffffffffff16611a2f84610803565b73ffffffffffffffffffffffffffffffffffffffff16145b80611a585750611a578185611642565b5b91505092915050565b8273ffffffffffffffffffffffffffffffffffffffff16611a8182610f47565b73ffffffffffffffffffffffffffffffffffffffff1614611ad7576040517f08c379a0000000000000000000000000000000000000000000000000000000008152600401611ace90613ecb565b60405180910390fd5b600073ffffffffffffffffffffffffffffffffffffffff168273ffffffffffffffffffffffffffffffffffffffff161415611b47576040517f08c379a0000000000000000000000000000000000000000000000000000000008152600401611b3e90613dcb565b60405180910390fd5b611b528383836123c4565b611b5d6000826118ca565b6001600360008573ffffffffffffffffffffffffffffffffffffffff1673ffffffffffffffffffffffffffffffffffffffff1681526020019081526020016000206000828254611bad9190614218565b925050819055506001600360008473ffffffffffffffffffffffffffffffffffffffff1673ffffffffffffffffffffffffffffffffffffffff1681526020019081526020016000206000828254611c049190614106565b92505081905550816002600083815260200190815260200160002060006101000a81548173ffffffffffffffffffffffffffffffffffffffff021916908373ffffffffffffffffffffffffffffffffffffffff160217905550808273ffffffffffffffffffffffffffffffffffffffff168473ffffffffffffffffffffffffffffffffffffffff167fddf252ad1be2c89b69c2b068fc378daa952ba7f163c4a11628f55a4df523b3ef60405160405180910390a4505050565b611cc8848484611a61565b611cd4848484846124d8565b611d13576040517f08c379a0000000000000000000000000000000000000000000000000000000008152600401611d0a90613d8b565b60405180910390fd5b50505050565b60606000821415611d61576040518060400160405280600181526020017f30000000000000000000000000000000000000000000000000000000000000008152509050611ec1565b600082905060005b60008214611d93578080611d7c90614372565b915050600a82611d8c919061415c565b9150611d69565b60008167ffffffffffffffff811115611dd5577f4e487b7100000000000000000000000000000000000000000000000000000000600052604160045260246000fd5b6040519080825280601f01601f191660200182016040528015611e075781602001600182028036833780820191505090505b5090505b60008514611eba57600182611e209190614218565b9150600a85611e2f91906143c5565b6030611e3b9190614106565b60f81b818381518110611e77577f4e487b7100000000000000000000000000000000000000000000000000000000600052603260045260246000fd5b60200101907effffffffffffffffffffffffffffffffffffffffffffffffffffffffffffff1916908160001a905350600a85611eb3919061415c565b9450611e0b565b8093505050505b919050565b606080604051806020016040528060008152509050600085905060005b8151811015611f8d5782611f58838381518110611f29577f4e487b7100000000000000000000000000000000000000000000000000000000600052603260045260246000fd5b602001015160f81c60f81b60f81c60ff16600884611f4791906141be565b89611f529190614106565b8861266f565b604051602001611f69929190613a99565b60405160208183030381529060405292508080611f8590614372565b915050611ee3565b5081925050509392505050565b60606000821415611fe2576040518060400160405280600181526020017f30000000000000000000000000000000000000000000000000000000000000008152509050612142565b600082905060005b60008214612014578080611ffd90614372565b915050600a8261200d919061415c565b9150611fea565b60008167ffffffffffffffff811115612056577f4e487b7100000000000000000000000000000000000000000000000000000000600052604160045260246000fd5b6040519080825280601f01601f1916602001820160405280156120885781602001600182028036833780820191505090505b5090505b6000851461213b576001826120a19190614218565b9150600a856120b091906143c5565b60306120bc9190614106565b60f81b8183815181106120f8577f4e487b7100000000000000000000000000000000000000000000000000000000600052603260045260246000fd5b60200101907effffffffffffffffffffffffffffffffffffffffffffffffffffffffffffff1916908160001a905350600a85612134919061415c565b945061208c565b8093505050505b919050565b606060008251141561216a576040518060200160405280600081525090506122ed565b6000604051806060016040528060408152602001614e4160409139905060006003600285516121999190614106565b6121a3919061415c565b60046121af91906141be565b905060006020826121c09190614106565b67ffffffffffffffff8111156121ff577f4e487b7100000000000000000000000000000000000000000000000000000000600052604160045260246000fd5b6040519080825280601f01601f1916602001820160405280156122315781602001600182028036833780820191505090505b509050818152600183018586518101602084015b818310156122ac576003830192508251603f8160121c1685015160f81b8252600182019150603f81600c1c1685015160f81b8252600182019150603f8160061c1685015160f81b8252600182019150603f811685015160f81b825260018201915050612245565b6003895106600181146122c657600281146122d6576122e1565b613d3d60f01b60028303526122e1565b603d60f81b60018303525b50505050508093505050505b919050565b600080823b905060008111915050919050565b81600a60008381526020019081526020016000206000018190555082600a6000838152602001908152602001600020600101908051906020019061234a929190612e2c565b506123553382612827565b505050565b60007f01ffc9a7000000000000000000000000000000000000000000000000000000007bffffffffffffffffffffffffffffffffffffffffffffffffffffffff1916827bffffffffffffffffffffffffffffffffffffffffffffffffffffffff1916149050919050565b6123cf8383836129f5565b600073ffffffffffffffffffffffffffffffffffffffff168373ffffffffffffffffffffffffffffffffffffffff1614156124125761240d816129fa565b612451565b8173ffffffffffffffffffffffffffffffffffffffff168373ffffffffffffffffffffffffffffffffffffffff16146124505761244f8382612a43565b5b5b600073ffffffffffffffffffffffffffffffffffffffff168273ffffffffffffffffffffffffffffffffffffffff1614156124945761248f81612bb0565b6124d3565b8273ffffffffffffffffffffffffffffffffffffffff168273ffffffffffffffffffffffffffffffffffffffff16146124d2576124d18282612cf3565b5b5b505050565b60006124f98473ffffffffffffffffffffffffffffffffffffffff16612d72565b15612662578373ffffffffffffffffffffffffffffffffffffffff1663150b7a026125226118c2565b8786866040518563ffffffff1660e01b81526004016125449493929190613cc0565b602060405180830381600087803b15801561255e57600080fd5b505af192505050801561258f57506040513d601f19601f8201168201806040525081019061258c9190613398565b60015b612612573d80600081146125bf576040519150601f19603f3d011682016040523d82523d6000602084013e6125c4565b606091505b5060008151141561260a576040517f08c379a000000000000000000000000000000000000000000000000000000000815260040161260190613d8b565b60405180910390fd5b805181602001fd5b63150b7a0260e01b7bffffffffffffffffffffffffffffffffffffffffffffffffffffffff1916817bffffffffffffffffffffffffffffffffffffffffffffffffffffffff191614915050612667565b600190505b949350505050565b6060806040518060200160405280600081525090506020851115806126945750607e85115b156126a25780915050612820565b60005b600b60008781526020019081526020016000206000015481101561281a57816127546008600b60008a81526020019081526020016000206001018481548110612717577f4e487b7100000000000000000000000000000000000000000000000000000000600052603260045260246000fd5b90600052602060002090602091828204019190069054906101000a900460ff1661274191906143f6565b60ff168761274f9190614106565b611d19565b6127e46008600b60008b815260200190815260200160002060010185815481106127a7577f4e487b7100000000000000000000000000000000000000000000000000000000600052603260045260246000fd5b90600052602060002090602091828204019190069054906101000a900460ff166127d1919061418d565b60ff16876127df9190614106565b611d19565b6040516020016127f693929190613b6f565b6040516020818303038152906040529150808061281290614372565b9150506126a5565b50809150505b9392505050565b600073ffffffffffffffffffffffffffffffffffffffff168273ffffffffffffffffffffffffffffffffffffffff161415612897576040517f08c379a000000000000000000000000000000000000000000000000000000000815260040161288e90613e8b565b60405180910390fd5b6128a081611856565b156128e0576040517f08c379a00000000000000000000000000000000000000000000000000000000081526004016128d790613dab565b60405180910390fd5b6128ec600083836123c4565b6001600360008473ffffffffffffffffffffffffffffffffffffffff1673ffffffffffffffffffffffffffffffffffffffff168152602001908152602001600020600082825461293c9190614106565b92505081905550816002600083815260200190815260200160002060006101000a81548173ffffffffffffffffffffffffffffffffffffffff021916908373ffffffffffffffffffffffffffffffffffffffff160217905550808273ffffffffffffffffffffffffffffffffffffffff16600073ffffffffffffffffffffffffffffffffffffffff167fddf252ad1be2c89b69c2b068fc378daa952ba7f163c4a11628f55a4df523b3ef60405160405180910390a45050565b505050565b6008805490506009600083815260200190815260200160002081905550600881908060018154018082558091505060019003906000526020600020016000909190919091505550565b60006001612a5084610ff9565b612a5a9190614218565b9050600060076000848152602001908152602001600020549050818114612b3f576000600660008673ffffffffffffffffffffffffffffffffffffffff1673ffffffffffffffffffffffffffffffffffffffff168152602001908152602001600020600084815260200190815260200160002054905080600660008773ffffffffffffffffffffffffffffffffffffffff1673ffffffffffffffffffffffffffffffffffffffff168152602001908152602001600020600084815260200190815260200160002081905550816007600083815260200190815260200160002081905550505b6007600084815260200190815260200160002060009055600660008573ffffffffffffffffffffffffffffffffffffffff1673ffffffffffffffffffffffffffffffffffffffff16815260200190815260200160002060008381526020019081526020016000206000905550505050565b60006001600880549050612bc49190614218565b9050600060096000848152602001908152602001600020549050600060088381548110612c1a577f4e487b7100000000000000000000000000000000000000000000000000000000600052603260045260246000fd5b906000526020600020015490508060088381548110612c62577f4e487b7100000000000000000000000000000000000000000000000000000000600052603260045260246000fd5b906000526020600020018190555081600960008381526020019081526020016000208190555060096000858152602001908152602001600020600090556008805480612cd7577f4e487b7100000000000000000000000000000000000000000000000000000000600052603160045260246000fd5b6001900381819060005260206000200160009055905550505050565b6000612cfe83610ff9565b905081600660008573ffffffffffffffffffffffffffffffffffffffff1673ffffffffffffffffffffffffffffffffffffffff168152602001908152602001600020600083815260200190815260200160002081905550806007600084815260200190815260200160002081905550505050565b600080823b905060008111915050919050565b82805482825590600052602060002090601f01602090048101928215612e1b5791602002820160005b83821115612dec57835183826101000a81548160ff021916908360ff1602179055509260200192600101602081600001049283019260010302612dae565b8015612e195782816101000a81549060ff0219169055600101602081600001049283019260010302612dec565b505b509050612e289190612eb2565b5090565b828054612e389061430f565b90600052602060002090601f016020900481019282612e5a5760008555612ea1565b82601f10612e7357805160ff1916838001178555612ea1565b82800160010185558215612ea1579182015b82811115612ea0578251825591602001919060010190612e85565b5b509050612eae9190612eb2565b5090565b5b80821115612ecb576000816000905550600101612eb3565b5090565b6000612ee2612edd84613fbb565b613f96565b90508083825260208201905082856020860282011115612f0157600080fd5b60005b85811015612f315781612f17888261311f565b845260208401935060208301925050600181019050612f04565b5050509392505050565b6000612f4e612f4984613fe7565b613f96565b90508083825260208201905082856020860282011115612f6d57600080fd5b60005b85811015612f9d5781612f838882613134565b845260208401935060208301925050600181019050612f70565b5050509392505050565b6000612fba612fb584614013565b613f96565b905082815260208101848484011115612fd257600080fd5b612fdd8482856142cd565b509392505050565b6000612ff8612ff384614044565b613f96565b90508281526020810184848401111561301057600080fd5b61301b8482856142cd565b509392505050565b60008135905061303281614dcd565b92915050565b600082601f83011261304957600080fd5b8135613059848260208601612ecf565b91505092915050565b600082601f83011261307357600080fd5b8135613083848260208601612f3b565b91505092915050565b60008135905061309b81614de4565b92915050565b6000813590506130b081614dfb565b92915050565b6000815190506130c581614dfb565b92915050565b600082601f8301126130dc57600080fd5b81356130ec848260208601612fa7565b91505092915050565b600082601f83011261310657600080fd5b8135613116848260208601612fe5565b91505092915050565b60008135905061312e81614e12565b92915050565b60008135905061314381614e29565b92915050565b60006020828403121561315b57600080fd5b600061316984828501613023565b91505092915050565b6000806040838503121561318557600080fd5b600061319385828601613023565b92505060206131a485828601613023565b9150509250929050565b6000806000606084860312156131c357600080fd5b60006131d186828701613023565b93505060206131e286828701613023565b92505060406131f38682870161311f565b9150509250925092565b6000806000806080858703121561321357600080fd5b600061322187828801613023565b945050602061323287828801613023565b93505060406132438782880161311f565b925050606085013567ffffffffffffffff81111561326057600080fd5b61326c878288016130cb565b91505092959194509250565b6000806040838503121561328b57600080fd5b600061329985828601613023565b92505060206132aa8582860161308c565b9150509250929050565b600080604083850312156132c757600080fd5b60006132d585828601613023565b92505060206132e68582860161311f565b9150509250929050565b60008060006060848603121561330557600080fd5b600084013567ffffffffffffffff81111561331f57600080fd5b61332b86828701613062565b935050602084013567ffffffffffffffff81111561334857600080fd5b61335486828701613038565b92505060406133658682870161311f565b9150509250925092565b60006020828403121561338157600080fd5b600061338f848285016130a1565b91505092915050565b6000602082840312156133aa57600080fd5b60006133b8848285016130b6565b91505092915050565b6000602082840312156133d357600080fd5b600082013567ffffffffffffffff8111156133ed57600080fd5b6133f9848285016130f5565b91505092915050565b60006020828403121561341457600080fd5b60006134228482850161311f565b91505092915050565b60006134378383613a64565b60208301905092915050565b61344c8161424c565b82525050565b600061345d8261409a565b61346781856140c8565b935061347283614075565b8060005b838110156134a357815161348a888261342b565b9750613495836140bb565b925050600181019050613476565b5085935050505092915050565b6134b98161425e565b82525050565b60006134ca826140a5565b6134d481856140d9565b93506134e48185602086016142dc565b6134ed816144e3565b840191505092915050565b6000613503826140b0565b61350d81856140ea565b935061351d8185602086016142dc565b613526816144e3565b840191505092915050565b600061353c826140b0565b61354681856140fb565b93506135568185602086016142dc565b80840191505092915050565b6000815461356f8161430f565b61357981866140fb565b9450600182166000811461359457600181146135a5576135d8565b60ff198316865281860193506135d8565b6135ae85614085565b60005b838110156135d0578154818901526001820191506020810190506135b1565b838801955050505b50505092915050565b60006135ee6005836140fb565b91506135f9826144f4565b600582019050919050565b6000613611602b836140ea565b915061361c8261451d565b604082019050919050565b60006136346032836140ea565b915061363f8261456c565b604082019050919050565b60006136576025836140fb565b9150613662826145bb565b602582019050919050565b600061367a601c836140ea565b91506136858261460a565b602082019050919050565b600061369d600f836140fb565b91506136a882614633565b600f82019050919050565b60006136c06014836140fb565b91506136cb8261465c565b601482019050919050565b60006136e36003836140fb565b91506136ee82614685565b600382019050919050565b6000613706607e836140fb565b9150613711826146ae565b607e82019050919050565b60006137296004836140fb565b915061373482614749565b600482019050919050565b600061374c6024836140ea565b915061375782614772565b604082019050919050565b600061376f6019836140ea565b915061377a826147c1565b602082019050919050565b6000613792602c836140ea565b915061379d826147ea565b604082019050919050565b60006137b56003836140fb565b91506137c082614839565b600382019050919050565b60006137d86038836140ea565b91506137e382614862565b604082019050919050565b60006137fb602a836140ea565b9150613806826148b1565b604082019050919050565b600061381e6029836140ea565b915061382982614900565b604082019050919050565b6000613841608e836140fb565b915061384c8261494f565b608e82019050919050565b60006138646002836140fb565b915061386f82614a10565b600282019050919050565b60006138876070836140fb565b915061389282614a39565b607082019050919050565b60006138aa6020836140ea565b91506138b582614ad4565b602082019050919050565b60006138cd6001836140fb565b91506138d882614afd565b600182019050919050565b60006138f0602c836140ea565b91506138fb82614b26565b604082019050919050565b60006139136001836140fb565b915061391e82614b75565b600182019050919050565b60006139366029836140ea565b915061394182614b9e565b604082019050919050565b60006139596026836140fb565b915061396482614bed565b602682019050919050565b600061397c6015836140fb565b915061398782614c3c565b601582019050919050565b600061399f6001836140fb565b91506139aa82614c65565b600182019050919050565b60006139c26021836140ea565b91506139cd82614c8e565b604082019050919050565b60006139e5601d836140fb565b91506139f082614cdd565b601d82019050919050565b6000613a086031836140ea565b9150613a1382614d06565b604082019050919050565b6000613a2b602c836140ea565b9150613a3682614d55565b604082019050919050565b6000613a4e6004836140fb565b9150613a5982614da4565b600482019050919050565b613a6d816142b6565b82525050565b613a7c816142b6565b82525050565b613a93613a8e826142b6565b6143bb565b82525050565b6000613aa58285613531565b9150613ab18284613531565b91508190509392505050565b6000613ac98285613531565b9150613ad58284613531565b9150613ae08261371c565b91508190509392505050565b6000613af88285613531565b9150613b038261364a565b9150613b0f8284613a82565b602082019150613b1e8261371c565b9150613b2982613857565b91508190509392505050565b6000613b418285613531565b9150613b4c8261394c565b9150613b588284613562565b9150613b63826136d6565b91508190509392505050565b6000613b7b8286613531565b9150613b868261396f565b9150613b928285613531565b9150613b9d826135e1565b9150613ba98284613531565b9150613bb4826137a8565b9150819050949350505050565b6000613bcc826136b3565b9150613bd88286613531565b9150613be382613834565b9150613bef8285613531565b9150613bfa82613690565b9150613c068284613531565b9150613c1182613a41565b9150613c1c826138c0565b9150819050949350505050565b6000613c348261387a565b9150613c408284613531565b9150613c4b826136f9565b915081905092915050565b6000613c6182613906565b9150613c6d8284613531565b9150613c7882613992565b915081905092915050565b6000613c8e826139d8565b9150613c9a8284613531565b915081905092915050565b6000602082019050613cba6000830184613443565b92915050565b6000608082019050613cd56000830187613443565b613ce26020830186613443565b613cef6040830185613a73565b8181036060830152613d0181846134bf565b905095945050505050565b60006020820190508181036000830152613d268184613452565b905092915050565b6000602082019050613d4360008301846134b0565b92915050565b60006020820190508181036000830152613d6381846134f8565b905092915050565b60006020820190508181036000830152613d8481613604565b9050919050565b60006020820190508181036000830152613da481613627565b9050919050565b60006020820190508181036000830152613dc48161366d565b9050919050565b60006020820190508181036000830152613de48161373f565b9050919050565b60006020820190508181036000830152613e0481613762565b9050919050565b60006020820190508181036000830152613e2481613785565b9050919050565b60006020820190508181036000830152613e44816137cb565b9050919050565b60006020820190508181036000830152613e64816137ee565b9050919050565b60006020820190508181036000830152613e8481613811565b9050919050565b60006020820190508181036000830152613ea48161389d565b9050919050565b60006020820190508181036000830152613ec4816138e3565b9050919050565b60006020820190508181036000830152613ee481613929565b9050919050565b60006020820190508181036000830152613f04816139b5565b9050919050565b60006020820190508181036000830152613f24816139fb565b9050919050565b60006020820190508181036000830152613f4481613a1e565b9050919050565b6000602082019050613f606000830184613a73565b92915050565b6000604082019050613f7b6000830185613a73565b8181036020830152613f8d81846134f8565b90509392505050565b6000613fa0613fb1565b9050613fac8282614341565b919050565b6000604051905090565b600067ffffffffffffffff821115613fd657613fd56144b4565b5b602082029050602081019050919050565b600067ffffffffffffffff821115614002576140016144b4565b5b602082029050602081019050919050565b600067ffffffffffffffff82111561402e5761402d6144b4565b5b614037826144e3565b9050602081019050919050565b600067ffffffffffffffff82111561405f5761405e6144b4565b5b614068826144e3565b9050602081019050919050565b6000819050602082019050919050565b60008190508160005260206000209050919050565b600081519050919050565b600081519050919050565b600081519050919050565b6000602082019050919050565b600082825260208201905092915050565b600082825260208201905092915050565b600082825260208201905092915050565b600081905092915050565b6000614111826142b6565b915061411c836142b6565b9250827fffffffffffffffffffffffffffffffffffffffffffffffffffffffffffffffff0382111561415157614150614427565b5b828201905092915050565b6000614167826142b6565b9150614172836142b6565b92508261418257614181614456565b5b828204905092915050565b6000614198826142c0565b91506141a3836142c0565b9250826141b3576141b2614456565b5b828204905092915050565b60006141c9826142b6565b91506141d4836142b6565b9250817fffffffffffffffffffffffffffffffffffffffffffffffffffffffffffffffff048311821515161561420d5761420c614427565b5b828202905092915050565b6000614223826142b6565b915061422e836142b6565b92508282101561424157614240614427565b5b828203905092915050565b600061425782614296565b9050919050565b60008115159050919050565b60007fffffffff0000000000000000000000000000000000000000000000000000000082169050919050565b600073ffffffffffffffffffffffffffffffffffffffff82169050919050565b6000819050919050565b600060ff82169050919050565b82818337600083830152505050565b60005b838110156142fa5780820151818401526020810190506142df565b83811115614309576000848401525b50505050565b6000600282049050600182168061432757607f821691505b6020821081141561433b5761433a614485565b5b50919050565b61434a826144e3565b810181811067ffffffffffffffff82111715614369576143686144b4565b5b80604052505050565b600061437d826142b6565b91507fffffffffffffffffffffffffffffffffffffffffffffffffffffffffffffffff8214156143b0576143af614427565b5b600182019050919050565b6000819050919050565b60006143d0826142b6565b91506143db836142b6565b9250826143eb576143ea614456565b5b828206905092915050565b6000614401826142c0565b915061440c836142c0565b92508261441c5761441b614456565b5b828206905092915050565b7f4e487b7100000000000000000000000000000000000000000000000000000000600052601160045260246000fd5b7f4e487b7100000000000000000000000000000000000000000000000000000000600052601260045260246000fd5b7f4e487b7100000000000000000000000000000000000000000000000000000000600052602260045260246000fd5b7f4e487b7100000000000000000000000000000000000000000000000000000000600052604160045260246000fd5b6000601f19601f8301169050919050565b7f2720793d27000000000000000000000000000000000000000000000000000000600082015250565b7f455243373231456e756d657261626c653a206f776e657220696e646578206f7560008201527f74206f6620626f756e6473000000000000000000000000000000000000000000602082015250565b7f4552433732313a207472616e7366657220746f206e6f6e20455243373231526560008201527f63656976657220696d706c656d656e7465720000000000000000000000000000602082015250565b7f7b2274726169745f74797065223a22416d6f756e742070616964222c2276616c60008201527f7565223a22000000000000000000000000000000000000000000000000000000602082015250565b7f4552433732313a20746f6b656e20616c7265616479206d696e74656400000000600082015250565b7f222c2261747472696275746573223a0000000000000000000000000000000000600082015250565b7f7b226e616d65223a20224d794f776e4e46542023000000000000000000000000600082015250565b7f227d2c0000000000000000000000000000000000000000000000000000000000600082015250565b7f3c7374796c653e726563747b77696474683a3170783b6865696768743a31707860008201527f3b7d20236d6f7573652d7376677b73686170652d72656e646572696e673a206360208201527f7269737065646765733b7d202e6330307b66696c6c3a233030303030307d2e6360408201527f30317b66696c6c3a234646464646467d3c2f7374796c653e3c2f7376673e0000606082015250565b7f2046544d00000000000000000000000000000000000000000000000000000000600082015250565b7f4552433732313a207472616e7366657220746f20746865207a65726f2061646460008201527f7265737300000000000000000000000000000000000000000000000000000000602082015250565b7f4552433732313a20617070726f766520746f2063616c6c657200000000000000600082015250565b7f4552433732313a206f70657261746f7220717565727920666f72206e6f6e657860008201527f697374656e7420746f6b656e0000000000000000000000000000000000000000602082015250565b7f272f3e0000000000000000000000000000000000000000000000000000000000600082015250565b7f4552433732313a20617070726f76652063616c6c6572206973206e6f74206f7760008201527f6e6572206e6f7220617070726f76656420666f7220616c6c0000000000000000602082015250565b7f4552433732313a2062616c616e636520717565727920666f7220746865207a6560008201527f726f206164647265737300000000000000000000000000000000000000000000602082015250565b7f4552433732313a206f776e657220717565727920666f72206e6f6e657869737460008201527f656e7420746f6b656e0000000000000000000000000000000000000000000000602082015250565b7f222c20226465736372697074696f6e223a20224d794f776e4e4654206973206160008201527f20636f6c6c656374696f6e206f6620636f6d706c6574656c79204f4e2d43484160208201527f494e204e465473207468617420796f752063616e20637573746f6d697a65206f60408201527f6e206d696e742e222c2022696d616765223a2022646174613a696d6167652f7360608201527f76672b786d6c3b6261736536342c000000000000000000000000000000000000608082015250565b7f227d000000000000000000000000000000000000000000000000000000000000600082015250565b7f3c7376672069643d226d6f7573652d7376672220786d6c6e733d22687474703a60008201527f2f2f7777772e77332e6f72672f323030302f737667222070726573657276654160208201527f7370656374526174696f3d22784d696e594d696e206d6565742220766965774260408201527f6f783d22302030203234203234223e2000000000000000000000000000000000606082015250565b7f4552433732313a206d696e7420746f20746865207a65726f2061646472657373600082015250565b7f7d00000000000000000000000000000000000000000000000000000000000000600082015250565b7f4552433732313a20617070726f76656420717565727920666f72206e6f6e657860008201527f697374656e7420746f6b656e0000000000000000000000000000000000000000602082015250565b7f5b00000000000000000000000000000000000000000000000000000000000000600082015250565b7f4552433732313a207472616e73666572206f6620746f6b656e2074686174206960008201527f73206e6f74206f776e0000000000000000000000000000000000000000000000602082015250565b7f7b2274726169745f74797065223a225465787420636f6e74656e74222c22766160008201527f6c7565223a220000000000000000000000000000000000000000000000000000602082015250565b7f3c7265637420636c6173733d276330312720783d270000000000000000000000600082015250565b7f5d00000000000000000000000000000000000000000000000000000000000000600082015250565b7f4552433732313a20617070726f76616c20746f2063757272656e74206f776e6560008201527f7200000000000000000000000000000000000000000000000000000000000000602082015250565b7f646174613a6170706c69636174696f6e2f6a736f6e3b6261736536342c000000600082015250565b7f4552433732313a207472616e736665722063616c6c6572206973206e6f74206f60008201527f776e6572206e6f7220617070726f766564000000000000000000000000000000602082015250565b7f455243373231456e756d657261626c653a20676c6f62616c20696e646578206f60008201527f7574206f6620626f756e64730000000000000000000000000000000000000000602082015250565b7f6e6f6e6500000000000000000000000000000000000000000000000000000000600082015250565b614dd68161424c565b8114614de157600080fd5b50565b614ded8161425e565b8114614df857600080fd5b50565b614e048161426a565b8114614e0f57600080fd5b50565b614e1b816142b6565b8114614e2657600080fd5b50565b614e32816142c0565b8114614e3d57600080fd5b5056fe4142434445464748494a4b4c4d4e4f505152535455565758595a6162636465666768696a6b6c6d6e6f707172737475767778797a303132333435363738392b2fa26469706673582212204d866504fe433f112b95b25c82434cb29a9243890cf81f64865848ea5b823b1464736f6c63430008030033",
  "immutableReferences": {},
  "source": "// contracts/MyOwnNft.sol\r\n// SPDX-License-Identifier: MIT\r\npragma solidity ^0.8.0;\r\n\r\nimport \"@openzeppelin/contracts/token/ERC721/extensions/ERC721Enumerable.sol\";\r\nimport \"@openzeppelin/contracts/utils/Strings.sol\";\r\nimport \"./MyOwnNftLibrary.sol\";\r\n\r\ncontract MyOwnNft is ERC721Enumerable {\r\n    using MyOwnNftLibrary for uint8;\r\n\r\n    struct CustomNftContent {\r\n        uint256 amount_paid;\r\n        string text_content;\r\n    }\r\n\r\n    struct CharData {\r\n        uint256 pixelCount;\r\n        uint8[] pixelsData;\r\n    }\r\n\r\n    //Mappings\r\n    mapping(uint256 => CustomNftContent) public customNftsContent;\r\n    mapping(uint256 => CharData) public charactersData;\r\n\r\n    //uint256s\r\n    uint256 MAX_SUPPLY = 100000; // to decide carefully!!!!!!\r\n    uint256 MAX_PER_ADDRESS = 5; // to implement!!!!!!\r\n    uint256 MIN_PRICE = 1000000000000000000; // to check!!!!!!!\r\n    uint256 MAX_STRING_LENGTH = 24 * 5;\r\n\r\n    //address\r\n    address _owner;\r\n\r\n    constructor() ERC721(\"MyOwnNft\", \"MON\") {\r\n        _owner = msg.sender;\r\n    }\r\n\r\n    /*\r\n  __  __ _     _   _             ___             _   _             \r\n |  \\/  (_)_ _| |_(_)_ _  __ _  | __|  _ _ _  __| |_(_)___ _ _  ___\r\n | |\\/| | | ' \\  _| | ' \\/ _` | | _| || | ' \\/ _|  _| / _ \\ ' \\(_-<\r\n |_|  |_|_|_||_\\__|_|_||_\\__, | |_| \\_,_|_||_\\__|\\__|_\\___/_||_/__/\r\n                         |___/                                     \r\n   */\r\n\r\n    /**\r\n     * @dev Mint internal, this is to avoid code duplication.\r\n     */\r\n    function mintInternal(\r\n        string memory _text_content,\r\n        uint256 _amount_paid,\r\n        uint256 token_id\r\n    ) internal {\r\n        customNftsContent[token_id].amount_paid = _amount_paid;\r\n        customNftsContent[token_id].text_content = _text_content;\r\n\r\n        _mint(msg.sender, token_id);\r\n    }\r\n\r\n    /**\r\n     * @dev Mints new tokens.\r\n     */\r\n    function mintNft(string memory text_content) public payable {\r\n        uint256 _totalSupply = totalSupply();\r\n        require(bytes(text_content).length < MAX_STRING_LENGTH);\r\n        require(msg.value >= MIN_PRICE);\r\n        require(_totalSupply < MAX_SUPPLY);\r\n        require(!MyOwnNftLibrary.isContract(msg.sender));\r\n\r\n        return mintInternal(text_content, msg.value, _totalSupply);\r\n    }\r\n\r\n    /*\r\n ____     ___   ____  ___        _____  __ __  ____     __ ______  ____  ___   ____   _____\r\n|    \\   /  _] /    ||   \\      |     ||  |  ||    \\   /  ]      ||    |/   \\ |    \\ / ___/\r\n|  D  ) /  [_ |  o  ||    \\     |   __||  |  ||  _  | /  /|      | |  ||     ||  _  (   \\_ \r\n|    / |    _]|     ||  D  |    |  |_  |  |  ||  |  |/  / |_|  |_| |  ||  O  ||  |  |\\__  |\r\n|    \\ |   [_ |  _  ||     |    |   _] |  :  ||  |  /   \\_  |  |   |  ||     ||  |  |/  \\ |\r\n|  .  \\|     ||  |  ||     |    |  |   |     ||  |  \\     | |  |   |  ||     ||  |  |\\    |\r\n|__|\\_||_____||__|__||_____|    |__|    \\__,_||__|__|\\____| |__|  |____|\\___/ |__|__| \\___|  \r\n\r\n    */\r\n\r\n    /**\r\n     * @dev Token ID to SVG function\r\n     */\r\n    function tokenIdToSVG(uint256 token_id)\r\n        public\r\n        view\r\n        returns (string memory)\r\n    {\r\n        string memory svgString;\r\n        string memory tempString;\r\n        uint256 cursor_x;\r\n        uint256 cursor_y;\r\n\r\n        cursor_x = 10;\r\n        cursor_y = 10;\r\n        tempString = \"This is NFT #\";\r\n        tempString = string(\r\n            abi.encodePacked(tempString, Strings.toString(token_id))\r\n        );\r\n        svgString = string(\r\n            abi.encodePacked(\r\n                svgString,\r\n                drawString(tempString, cursor_x, cursor_y)\r\n            )\r\n        );\r\n\r\n        cursor_x = 10;\r\n        cursor_y = 20;\r\n        tempString = \"Minted for \";\r\n        tempString = string(\r\n            abi.encodePacked(\r\n                tempString,\r\n                Strings.toString(customNftsContent[token_id].amount_paid),\r\n                \" FTM\"\r\n            )\r\n        );\r\n        svgString = string(\r\n            abi.encodePacked(\r\n                svgString,\r\n                drawString(tempString, cursor_x, cursor_y)\r\n            )\r\n        );\r\n\r\n        svgString = string(\r\n            abi.encodePacked(\r\n                '<svg id=\"mouse-svg\" xmlns=\"http://www.w3.org/2000/svg\" preserveAspectRatio=\"xMinYMin meet\" viewBox=\"0 0 24 24\"> ',\r\n                svgString,\r\n                \"<style>rect{width:1px;height:1px;} #mouse-svg{shape-rendering: crispedges;} .c00{fill:#000000}.c01{fill:#FFFFFF}</style></svg>\"\r\n            )\r\n        );\r\n\r\n        return svgString;\r\n    }\r\n\r\n    /**\r\n     * @dev Token ID to metadata function\r\n     */\r\n    function tokenIdToMetadata(uint256 token_id)\r\n        public\r\n        view\r\n        returns (string memory)\r\n    {\r\n        string memory metadataString;\r\n\r\n        // text content\r\n        metadataString = string(\r\n            abi.encodePacked(\r\n                metadataString,\r\n                '{\"trait_type\":\"Text content\",\"value\":\"',\r\n                customNftsContent[token_id].text_content,\r\n                '\"},'\r\n            )\r\n        );\r\n\r\n        // amount paid\r\n        metadataString = string(\r\n            abi.encodePacked(\r\n                metadataString,\r\n                '{\"trait_type\":\"Amount paid\",\"value\":\"',\r\n                customNftsContent[token_id].amount_paid,\r\n                \" FTM\",\r\n                '\"}'\r\n            )\r\n        );\r\n\r\n        return string(abi.encodePacked(\"[\", metadataString, \"]\"));\r\n    }\r\n\r\n    /**\r\n     * @dev Returns the SVG and metadata for a token Id\r\n     * @param _tokenId The tokenId to return the SVG and metadata for.\r\n     */\r\n    function tokenURI(uint256 _tokenId)\r\n        public\r\n        view\r\n        override\r\n        returns (string memory)\r\n    {\r\n        require(_exists(_tokenId));\r\n\r\n        return\r\n            string(\r\n                abi.encodePacked(\r\n                    \"data:application/json;base64,\",\r\n                    MyOwnNftLibrary.encode(\r\n                        bytes(\r\n                            string(\r\n                                abi.encodePacked(\r\n                                    '{\"name\": \"MyOwnNFT #',\r\n                                    MyOwnNftLibrary.toString(_tokenId),\r\n                                    '\", \"description\": \"MyOwnNFT is a collection of completely ON-CHAIN NFTs that you can customize on mint.\", \"image\": \"data:image/svg+xml;base64,',\r\n                                    MyOwnNftLibrary.encode(\r\n                                        bytes(tokenIdToSVG(_tokenId))\r\n                                    ),\r\n                                    '\",\"attributes\":',\r\n                                    tokenIdToMetadata(_tokenId),\r\n                                    \"none\",\r\n                                    \"}\"\r\n                                )\r\n                            )\r\n                        )\r\n                    )\r\n                )\r\n            );\r\n    }\r\n\r\n    /**\r\n     * @dev Returns the wallet of a given wallet. Mainly for ease for frontend devs.\r\n     * @param _wallet The wallet to get the tokens of.\r\n     */\r\n    function walletOfOwner(address _wallet)\r\n        public\r\n        view\r\n        returns (uint256[] memory)\r\n    {\r\n        uint256 tokenCount = balanceOf(_wallet);\r\n\r\n        uint256[] memory tokensId = new uint256[](tokenCount);\r\n        for (uint256 i; i < tokenCount; i++) {\r\n            tokensId[i] = tokenOfOwnerByIndex(_wallet, i);\r\n        }\r\n        return tokensId;\r\n    }\r\n\r\n    /*\r\n  ___   __    __  ____     ___  ____       _____  __ __  ____     __ ______  ____  ___   ____   _____\r\n /   \\ |  |__|  ||    \\   /  _]|    \\     |     ||  |  ||    \\   /  ]      ||    |/   \\ |    \\ / ___/\r\n|     ||  |  |  ||  _  | /  [_ |  D  )    |   __||  |  ||  _  | /  /|      | |  ||     ||  _  (   \\_ \r\n|  O  ||  |  |  ||  |  ||    _]|    /     |  |_  |  |  ||  |  |/  / |_|  |_| |  ||  O  ||  |  |\\__  |\r\n|     ||  `  '  ||  |  ||   [_ |    \\     |   _] |  :  ||  |  /   \\_  |  |   |  ||     ||  |  |/  \\ |\r\n|     | \\      / |  |  ||     ||  .  \\    |  |   |     ||  |  \\     | |  |   |  ||     ||  |  |\\    |\r\n \\___/   \\_/\\_/  |__|__||_____||__|\\_|    |__|    \\__,_||__|__|\\____| |__|  |____|\\___/ |__|__| \\___|\r\n\r\n    */\r\n\r\n    /**\r\n     * @dev Add characters data\r\n     * @param _pixelsData Array pixel data\r\n     * @param _charsIndex Starting index for char pixel data\r\n     * @param _startPosition Starting position\r\n     */\r\n\r\n    function addCharacterData(\r\n        uint8[] memory _pixelsData,\r\n        uint256[] memory _charsIndex,\r\n        uint256 _startPosition\r\n    ) public onlyOwner {\r\n        for (uint256 index = 0; index < (_charsIndex.length - 1); index + 2) {\r\n            uint256 char_start_pos = _charsIndex[index];\r\n            uint256 char_end_pos = _charsIndex[index + 1];\r\n            uint8[] memory char_pixel_data;\r\n\r\n            for (uint256 i = char_start_pos; i < char_end_pos; i++) {\r\n                char_pixel_data[i] = _pixelsData[i];\r\n            }\r\n\r\n            charactersData[_startPosition + index / 2] = CharData(\r\n                char_end_pos - char_start_pos,\r\n                char_pixel_data\r\n            );\r\n        }\r\n\r\n        return;\r\n    }\r\n\r\n    /**\r\n     * @dev Writes a single char to a given position\r\n     * @param _char The character to write\r\n     * @param _x The x pos of the cursor\r\n     * @param _y The y pos of the cursor\r\n     */\r\n    function drawChar(\r\n        uint256 _char,\r\n        uint256 _x,\r\n        uint256 _y\r\n    ) internal view returns (string memory) {\r\n        string memory printedCharString;\r\n\r\n        printedCharString = \"\";\r\n\r\n        // chars not supported and space are empty\r\n        if ((_char <= 32) || (_char > 126)) {\r\n            return printedCharString;\r\n        }\r\n\r\n        for (\r\n            uint256 index = 0;\r\n            index < charactersData[_char].pixelCount;\r\n            index++\r\n        ) {\r\n            printedCharString = string(\r\n                abi.encodePacked(\r\n                    printedCharString,\r\n                    \"<rect class='c01' x='\",\r\n                    Strings.toString(\r\n                        _x +\r\n                            (\r\n                                uint256(\r\n                                    charactersData[_char].pixelsData[index] % 8\r\n                                )\r\n                            )\r\n                    ),\r\n                    \"' y='\",\r\n                    Strings.toString(\r\n                        _y +\r\n                            (\r\n                                uint256(\r\n                                    charactersData[_char].pixelsData[index] / 8\r\n                                )\r\n                            )\r\n                    ),\r\n                    \"'/>\"\r\n                )\r\n            );\r\n        }\r\n\r\n        return printedCharString;\r\n    }\r\n\r\n    /**\r\n     * @dev Writes a string starting from the given position\r\n     * @param _string The string to draw\r\n     * @param _x The x pos of the cursor\r\n     * @param _y The y pos of the cursor\r\n     */\r\n    function drawString(\r\n        string memory _string,\r\n        uint256 _x,\r\n        uint256 _y\r\n    ) internal view returns (string memory) {\r\n        string memory printedString;\r\n\r\n        printedString = \"\";\r\n\r\n        bytes memory byteString = bytes(_string);\r\n\r\n        for (uint256 index = 0; index < byteString.length; index++) {\r\n            printedString = string(\r\n                abi.encodePacked(\r\n                    printedString,\r\n                    drawChar(\r\n                        uint256(uint8(byteString[index])),\r\n                        _x + (index * 8),\r\n                        _y\r\n                    )\r\n                )\r\n            );\r\n        }\r\n\r\n        return printedString;\r\n    }\r\n\r\n    function withdraw() public payable onlyOwner {\r\n        require(payable(msg.sender).send(address(this).balance));\r\n    }\r\n\r\n    /**\r\n     * @dev Transfers ownership\r\n     * @param _newOwner The new owner\r\n     */\r\n    function transferOwnership(address _newOwner) public onlyOwner {\r\n        _owner = _newOwner;\r\n    }\r\n\r\n    /**\r\n     * @dev Modifier to only allow owner to call functions\r\n     */\r\n    modifier onlyOwner() {\r\n        require(_owner == msg.sender);\r\n        _;\r\n    }\r\n}\r\n",
  "sourcePath": "C:\\Users\\fabio\\Desktop\\myOwnNFT\\truffle_test\\contracts\\MyOwnNft.sol",
  "compiler": {
    "name": "solc",
    "version": "0.8.3+commit.8d00100c.Emscripten.clang"
  },
  "schemaVersion": "3.4.3",
  "updatedAt": "2021-11-22T00:19:20.965Z",
  "networkType": "ethereum",
  "devdoc": {
    "kind": "dev",
    "methods": {
      "addCharacterData(uint8[],uint256[],uint256)": {
        "details": "Add characters data",
        "params": {
          "_charsIndex": "Starting index for char pixel data",
          "_pixelsData": "Array pixel data",
          "_startPosition": "Starting position"
        }
      },
      "approve(address,uint256)": {
        "details": "See {IERC721-approve}."
      },
      "balanceOf(address)": {
        "details": "See {IERC721-balanceOf}."
      },
      "getApproved(uint256)": {
        "details": "See {IERC721-getApproved}."
      },
      "isApprovedForAll(address,address)": {
        "details": "See {IERC721-isApprovedForAll}."
      },
      "mintNft(string)": {
        "details": "Mints new tokens."
      },
      "name()": {
        "details": "See {IERC721Metadata-name}."
      },
      "ownerOf(uint256)": {
        "details": "See {IERC721-ownerOf}."
      },
      "safeTransferFrom(address,address,uint256)": {
        "details": "See {IERC721-safeTransferFrom}."
      },
      "safeTransferFrom(address,address,uint256,bytes)": {
        "details": "See {IERC721-safeTransferFrom}."
      },
      "setApprovalForAll(address,bool)": {
        "details": "See {IERC721-setApprovalForAll}."
      },
      "supportsInterface(bytes4)": {
        "details": "See {IERC165-supportsInterface}."
      },
      "symbol()": {
        "details": "See {IERC721Metadata-symbol}."
      },
      "tokenByIndex(uint256)": {
        "details": "See {IERC721Enumerable-tokenByIndex}."
      },
      "tokenIdToMetadata(uint256)": {
        "details": "Token ID to metadata function"
      },
      "tokenIdToSVG(uint256)": {
        "details": "Token ID to SVG function"
      },
      "tokenOfOwnerByIndex(address,uint256)": {
        "details": "See {IERC721Enumerable-tokenOfOwnerByIndex}."
      },
      "tokenURI(uint256)": {
        "details": "Returns the SVG and metadata for a token Id",
        "params": {
          "_tokenId": "The tokenId to return the SVG and metadata for."
        }
      },
      "totalSupply()": {
        "details": "See {IERC721Enumerable-totalSupply}."
      },
      "transferFrom(address,address,uint256)": {
        "details": "See {IERC721-transferFrom}."
      },
      "transferOwnership(address)": {
        "details": "Transfers ownership",
        "params": {
          "_newOwner": "The new owner"
        }
      },
      "walletOfOwner(address)": {
        "details": "Returns the wallet of a given wallet. Mainly for ease for frontend devs.",
        "params": {
          "_wallet": "The wallet to get the tokens of."
        }
      }
    },
    "version": 1
  },
  "userdoc": {
    "kind": "user",
    "methods": {},
    "version": 1
  }
}